{
  "_format": "hh-sol-artifact-1",
  "contractName": "ForeverMemoryCollection",
  "sourceName": "contracts/ForeverMemoryCollection.sol",
  "abi": [
    {
      "inputs": [
        {
          "internalType": "string",
          "name": "name_",
          "type": "string"
        },
        {
          "internalType": "string",
          "name": "symbol_",
          "type": "string"
        },
        {
          "internalType": "address",
          "name": "newOwner_",
          "type": "address"
        },
        {
          "internalType": "uint256",
          "name": "lsp4TokenType_",
          "type": "uint256"
        },
        {
          "internalType": "bytes",
          "name": "lsp4MetadataURI_",
          "type": "bytes"
        },
        {
          "internalType": "uint256",
          "name": "_rewardAmount",
          "type": "uint256"
        }
      ],
      "stateMutability": "nonpayable",
      "type": "constructor"
    },
    {
      "inputs": [],
      "name": "ERC725Y_DataKeysValuesEmptyArray",
      "type": "error"
    },
    {
      "inputs": [],
      "name": "ERC725Y_DataKeysValuesLengthMismatch",
      "type": "error"
    },
    {
      "inputs": [],
      "name": "ERC725Y_MsgValueDisallowed",
      "type": "error"
    },
    {
      "inputs": [
        {
          "internalType": "bytes",
          "name": "storedData",
          "type": "bytes"
        }
      ],
      "name": "InvalidExtensionAddress",
      "type": "error"
    },
    {
      "inputs": [
        {
          "internalType": "bytes",
          "name": "data",
          "type": "bytes"
        }
      ],
      "name": "InvalidFunctionSelector",
      "type": "error"
    },
    {
      "inputs": [],
      "name": "LSP4TokenNameNotEditable",
      "type": "error"
    },
    {
      "inputs": [],
      "name": "LSP4TokenSymbolNotEditable",
      "type": "error"
    },
    {
      "inputs": [],
      "name": "LSP4TokenTypeNotEditable",
      "type": "error"
    },
    {
      "inputs": [
        {
          "internalType": "uint256",
          "name": "callIndex",
          "type": "uint256"
        }
      ],
      "name": "LSP8BatchCallFailed",
      "type": "error"
    },
    {
      "inputs": [],
      "name": "LSP8CannotSendToAddressZero",
      "type": "error"
    },
    {
      "inputs": [],
      "name": "LSP8CannotUseAddressZeroAsOperator",
      "type": "error"
    },
    {
      "inputs": [],
      "name": "LSP8InvalidTransferBatch",
      "type": "error"
    },
    {
      "inputs": [
        {
          "internalType": "bytes32",
          "name": "tokenId",
          "type": "bytes32"
        }
      ],
      "name": "LSP8NonExistentTokenId",
      "type": "error"
    },
    {
      "inputs": [
        {
          "internalType": "address",
          "name": "operator",
          "type": "address"
        },
        {
          "internalType": "bytes32",
          "name": "tokenId",
          "type": "bytes32"
        }
      ],
      "name": "LSP8NonExistingOperator",
      "type": "error"
    },
    {
      "inputs": [
        {
          "internalType": "bytes32",
          "name": "tokenId",
          "type": "bytes32"
        },
        {
          "internalType": "address",
          "name": "caller",
          "type": "address"
        }
      ],
      "name": "LSP8NotTokenOperator",
      "type": "error"
    },
    {
      "inputs": [
        {
          "internalType": "address",
          "name": "tokenOwner",
          "type": "address"
        },
        {
          "internalType": "bytes32",
          "name": "tokenId",
          "type": "bytes32"
        },
        {
          "internalType": "address",
          "name": "caller",
          "type": "address"
        }
      ],
      "name": "LSP8NotTokenOwner",
      "type": "error"
    },
    {
      "inputs": [
        {
          "internalType": "address",
          "name": "tokenReceiver",
          "type": "address"
        }
      ],
      "name": "LSP8NotifyTokenReceiverContractMissingLSP1Interface",
      "type": "error"
    },
    {
      "inputs": [
        {
          "internalType": "address",
          "name": "tokenReceiver",
          "type": "address"
        }
      ],
      "name": "LSP8NotifyTokenReceiverIsEOA",
      "type": "error"
    },
    {
      "inputs": [
        {
          "internalType": "address",
          "name": "operator",
          "type": "address"
        },
        {
          "internalType": "bytes32",
          "name": "tokenId",
          "type": "bytes32"
        }
      ],
      "name": "LSP8OperatorAlreadyAuthorized",
      "type": "error"
    },
    {
      "inputs": [
        {
          "internalType": "address",
          "name": "caller",
          "type": "address"
        },
        {
          "internalType": "address",
          "name": "tokenOwner",
          "type": "address"
        },
        {
          "internalType": "bytes32",
          "name": "tokenId",
          "type": "bytes32"
        }
      ],
      "name": "LSP8RevokeOperatorNotAuthorized",
      "type": "error"
    },
    {
      "inputs": [],
      "name": "LSP8TokenContractCannotHoldValue",
      "type": "error"
    },
    {
      "inputs": [
        {
          "internalType": "bytes32",
          "name": "tokenId",
          "type": "bytes32"
        }
      ],
      "name": "LSP8TokenIdAlreadyMinted",
      "type": "error"
    },
    {
      "inputs": [],
      "name": "LSP8TokenIdFormatNotEditable",
      "type": "error"
    },
    {
      "inputs": [],
      "name": "LSP8TokenIdsDataEmptyArray",
      "type": "error"
    },
    {
      "inputs": [],
      "name": "LSP8TokenIdsDataLengthMismatch",
      "type": "error"
    },
    {
      "inputs": [],
      "name": "LSP8TokenOwnerCannotBeOperator",
      "type": "error"
    },
    {
      "inputs": [
        {
          "internalType": "bytes32",
          "name": "tokenId",
          "type": "bytes32"
        },
        {
          "internalType": "address",
          "name": "oldOwner",
          "type": "address"
        },
        {
          "internalType": "address",
          "name": "newOwner",
          "type": "address"
        }
      ],
      "name": "LSP8TokenOwnerChanged",
      "type": "error"
    },
    {
      "inputs": [
        {
          "internalType": "bytes4",
          "name": "functionSelector",
          "type": "bytes4"
        }
      ],
      "name": "NoExtensionFoundForFunctionSelector",
      "type": "error"
    },
    {
      "inputs": [
        {
          "internalType": "address",
          "name": "callerAddress",
          "type": "address"
        }
      ],
      "name": "OwnableCallerNotTheOwner",
      "type": "error"
    },
    {
      "inputs": [],
      "name": "OwnableCannotSetZeroAddressAsOwner",
      "type": "error"
    },
    {
      "anonymous": false,
      "inputs": [
        {
          "indexed": true,
          "internalType": "bytes32",
          "name": "dataKey",
          "type": "bytes32"
        },
        {
          "indexed": false,
          "internalType": "bytes",
          "name": "dataValue",
          "type": "bytes"
        }
      ],
      "name": "DataChanged",
      "type": "event"
    },
    {
      "anonymous": false,
      "inputs": [
        {
          "indexed": true,
          "internalType": "address",
          "name": "operator",
          "type": "address"
        },
        {
          "indexed": true,
          "internalType": "address",
          "name": "tokenOwner",
          "type": "address"
        },
        {
          "indexed": true,
          "internalType": "bytes32",
          "name": "tokenId",
          "type": "bytes32"
        },
        {
          "indexed": false,
          "internalType": "bytes",
          "name": "operatorNotificationData",
          "type": "bytes"
        }
      ],
      "name": "OperatorAuthorizationChanged",
      "type": "event"
    },
    {
      "anonymous": false,
      "inputs": [
        {
          "indexed": true,
          "internalType": "address",
          "name": "operator",
          "type": "address"
        },
        {
          "indexed": true,
          "internalType": "address",
          "name": "tokenOwner",
          "type": "address"
        },
        {
          "indexed": true,
          "internalType": "bytes32",
          "name": "tokenId",
          "type": "bytes32"
        },
        {
          "indexed": false,
          "internalType": "bool",
          "name": "notified",
          "type": "bool"
        },
        {
          "indexed": false,
          "internalType": "bytes",
          "name": "operatorNotificationData",
          "type": "bytes"
        }
      ],
      "name": "OperatorRevoked",
      "type": "event"
    },
    {
      "anonymous": false,
      "inputs": [
        {
          "indexed": true,
          "internalType": "address",
          "name": "previousOwner",
          "type": "address"
        },
        {
          "indexed": true,
          "internalType": "address",
          "name": "newOwner",
          "type": "address"
        }
      ],
      "name": "OwnershipTransferred",
      "type": "event"
    },
    {
      "anonymous": false,
      "inputs": [
        {
          "indexed": true,
          "internalType": "bytes32",
          "name": "tokenId",
          "type": "bytes32"
        },
        {
          "indexed": true,
          "internalType": "bytes32",
          "name": "dataKey",
          "type": "bytes32"
        },
        {
          "indexed": false,
          "internalType": "bytes",
          "name": "dataValue",
          "type": "bytes"
        }
      ],
      "name": "TokenIdDataChanged",
      "type": "event"
    },
    {
      "anonymous": false,
      "inputs": [
        {
          "indexed": false,
          "internalType": "address",
          "name": "operator",
          "type": "address"
        },
        {
          "indexed": true,
          "internalType": "address",
          "name": "from",
          "type": "address"
        },
        {
          "indexed": true,
          "internalType": "address",
          "name": "to",
          "type": "address"
        },
        {
          "indexed": true,
          "internalType": "bytes32",
          "name": "tokenId",
          "type": "bytes32"
        },
        {
          "indexed": false,
          "internalType": "bool",
          "name": "force",
          "type": "bool"
        },
        {
          "indexed": false,
          "internalType": "bytes",
          "name": "data",
          "type": "bytes"
        }
      ],
      "name": "Transfer",
      "type": "event"
    },
    {
      "stateMutability": "payable",
      "type": "fallback"
    },
    {
      "inputs": [
        {
          "internalType": "address",
          "name": "operator",
          "type": "address"
        },
        {
          "internalType": "bytes32",
          "name": "tokenId",
          "type": "bytes32"
        },
        {
          "internalType": "bytes",
          "name": "operatorNotificationData",
          "type": "bytes"
        }
      ],
      "name": "authorizeOperator",
      "outputs": [],
      "stateMutability": "nonpayable",
      "type": "function"
    },
    {
      "inputs": [
        {
          "internalType": "address",
          "name": "tokenOwner",
          "type": "address"
        }
      ],
      "name": "balanceOf",
      "outputs": [
        {
          "internalType": "uint256",
          "name": "",
          "type": "uint256"
        }
      ],
      "stateMutability": "view",
      "type": "function"
    },
    {
      "inputs": [
        {
          "internalType": "bytes[]",
          "name": "data",
          "type": "bytes[]"
        }
      ],
      "name": "batchCalls",
      "outputs": [
        {
          "internalType": "bytes[]",
          "name": "results",
          "type": "bytes[]"
        }
      ],
      "stateMutability": "nonpayable",
      "type": "function"
    },
    {
      "inputs": [
        {
          "internalType": "bytes32",
          "name": "dataKey",
          "type": "bytes32"
        }
      ],
      "name": "getData",
      "outputs": [
        {
          "internalType": "bytes",
          "name": "dataValue",
          "type": "bytes"
        }
      ],
      "stateMutability": "view",
      "type": "function"
    },
    {
      "inputs": [
        {
          "internalType": "bytes32[]",
          "name": "dataKeys",
          "type": "bytes32[]"
        }
      ],
      "name": "getDataBatch",
      "outputs": [
        {
          "internalType": "bytes[]",
          "name": "dataValues",
          "type": "bytes[]"
        }
      ],
      "stateMutability": "view",
      "type": "function"
    },
    {
      "inputs": [
        {
          "internalType": "bytes32[]",
          "name": "tokenIds",
          "type": "bytes32[]"
        },
        {
          "internalType": "bytes32[]",
          "name": "dataKeys",
          "type": "bytes32[]"
        }
      ],
      "name": "getDataBatchForTokenIds",
      "outputs": [
        {
          "internalType": "bytes[]",
          "name": "dataValues",
          "type": "bytes[]"
        }
      ],
      "stateMutability": "view",
      "type": "function"
    },
    {
      "inputs": [
        {
          "internalType": "bytes32",
          "name": "tokenId",
          "type": "bytes32"
        },
        {
          "internalType": "bytes32",
          "name": "dataKey",
          "type": "bytes32"
        }
      ],
      "name": "getDataForTokenId",
      "outputs": [
        {
          "internalType": "bytes",
          "name": "dataValue",
          "type": "bytes"
        }
      ],
      "stateMutability": "view",
      "type": "function"
    },
    {
      "inputs": [
        {
          "internalType": "address",
          "name": "lsp7CollectionAddress",
          "type": "address"
        }
      ],
      "name": "getMintingDate",
      "outputs": [
        {
          "internalType": "uint256",
          "name": "",
          "type": "uint256"
        }
      ],
      "stateMutability": "view",
      "type": "function"
    },
    {
      "inputs": [
        {
          "internalType": "bytes32",
          "name": "tokenId",
          "type": "bytes32"
        }
      ],
      "name": "getOperatorsOf",
      "outputs": [
        {
          "internalType": "address[]",
          "name": "",
          "type": "address[]"
        }
      ],
      "stateMutability": "view",
      "type": "function"
    },
    {
      "inputs": [
        {
          "internalType": "address",
          "name": "operator",
          "type": "address"
        },
        {
          "internalType": "bytes32",
          "name": "tokenId",
          "type": "bytes32"
        }
      ],
      "name": "isOperatorFor",
      "outputs": [
        {
          "internalType": "bool",
          "name": "",
          "type": "bool"
        }
      ],
      "stateMutability": "view",
      "type": "function"
    },
    {
      "inputs": [
        {
          "internalType": "address",
          "name": "",
          "type": "address"
        }
      ],
      "name": "lastClaimed",
      "outputs": [
        {
          "internalType": "uint256",
          "name": "",
          "type": "uint256"
        }
      ],
      "stateMutability": "view",
      "type": "function"
    },
    {
      "inputs": [
        {
          "internalType": "string",
          "name": "nameOfLSP7_",
          "type": "string"
        },
        {
          "internalType": "string",
          "name": "symbolOfLSP7_",
          "type": "string"
        },
        {
          "internalType": "uint256",
          "name": "lsp4TokenType_",
          "type": "uint256"
        },
        {
          "internalType": "bool",
          "name": "isNonDivisible_",
          "type": "bool"
        },
        {
          "internalType": "uint256",
          "name": "totalSupplyOfLSP7_",
          "type": "uint256"
        },
        {
          "internalType": "address",
          "name": "receiverOfInitialTokens_",
          "type": "address"
        },
        {
          "internalType": "bytes",
          "name": "lsp4MetadataURIOfLSP7_",
          "type": "bytes"
        }
      ],
      "name": "mint",
      "outputs": [
        {
          "internalType": "address",
          "name": "lsp7SubCollectionAddress",
          "type": "address"
        }
      ],
      "stateMutability": "nonpayable",
      "type": "function"
    },
    {
      "inputs": [
        {
          "internalType": "address",
          "name": "",
          "type": "address"
        }
      ],
      "name": "mintingDates",
      "outputs": [
        {
          "internalType": "uint256",
          "name": "",
          "type": "uint256"
        }
      ],
      "stateMutability": "view",
      "type": "function"
    },
    {
      "inputs": [],
      "name": "owner",
      "outputs": [
        {
          "internalType": "address",
          "name": "",
          "type": "address"
        }
      ],
      "stateMutability": "view",
      "type": "function"
    },
    {
      "inputs": [],
      "name": "renounceOwnership",
      "outputs": [],
      "stateMutability": "nonpayable",
      "type": "function"
    },
    {
      "inputs": [
        {
          "internalType": "address",
          "name": "operator",
          "type": "address"
        },
        {
          "internalType": "bytes32",
          "name": "tokenId",
          "type": "bytes32"
        },
        {
          "internalType": "bool",
          "name": "notify",
          "type": "bool"
        },
        {
          "internalType": "bytes",
          "name": "operatorNotificationData",
          "type": "bytes"
        }
      ],
      "name": "revokeOperator",
      "outputs": [],
      "stateMutability": "nonpayable",
      "type": "function"
    },
    {
      "inputs": [],
      "name": "rewardAmount",
      "outputs": [
        {
          "internalType": "uint256",
          "name": "",
          "type": "uint256"
        }
      ],
      "stateMutability": "view",
      "type": "function"
    },
    {
      "inputs": [
        {
          "internalType": "bytes32",
          "name": "dataKey",
          "type": "bytes32"
        },
        {
          "internalType": "bytes",
          "name": "dataValue",
          "type": "bytes"
        }
      ],
      "name": "setData",
      "outputs": [],
      "stateMutability": "payable",
      "type": "function"
    },
    {
      "inputs": [
        {
          "internalType": "bytes32[]",
          "name": "dataKeys",
          "type": "bytes32[]"
        },
        {
          "internalType": "bytes[]",
          "name": "dataValues",
          "type": "bytes[]"
        }
      ],
      "name": "setDataBatch",
      "outputs": [],
      "stateMutability": "payable",
      "type": "function"
    },
    {
      "inputs": [
        {
          "internalType": "bytes32[]",
          "name": "tokenIds",
          "type": "bytes32[]"
        },
        {
          "internalType": "bytes32[]",
          "name": "dataKeys",
          "type": "bytes32[]"
        },
        {
          "internalType": "bytes[]",
          "name": "dataValues",
          "type": "bytes[]"
        }
      ],
      "name": "setDataBatchForTokenIds",
      "outputs": [],
      "stateMutability": "nonpayable",
      "type": "function"
    },
    {
      "inputs": [
        {
          "internalType": "bytes32",
          "name": "tokenId",
          "type": "bytes32"
        },
        {
          "internalType": "bytes32",
          "name": "dataKey",
          "type": "bytes32"
        },
        {
          "internalType": "bytes",
          "name": "dataValue",
          "type": "bytes"
        }
      ],
      "name": "setDataForTokenId",
      "outputs": [],
      "stateMutability": "nonpayable",
      "type": "function"
    },
    {
      "inputs": [
        {
          "internalType": "uint256",
          "name": "_rewardAmount",
          "type": "uint256"
        }
      ],
      "name": "setRewardAmount",
      "outputs": [],
      "stateMutability": "nonpayable",
      "type": "function"
    },
    {
      "inputs": [
        {
          "internalType": "bytes4",
          "name": "interfaceId",
          "type": "bytes4"
        }
      ],
      "name": "supportsInterface",
      "outputs": [
        {
          "internalType": "bool",
          "name": "",
          "type": "bool"
        }
      ],
      "stateMutability": "view",
      "type": "function"
    },
    {
      "inputs": [
        {
          "internalType": "address",
          "name": "tokenOwner",
          "type": "address"
        }
      ],
      "name": "tokenIdsOf",
      "outputs": [
        {
          "internalType": "bytes32[]",
          "name": "",
          "type": "bytes32[]"
        }
      ],
      "stateMutability": "view",
      "type": "function"
    },
    {
      "inputs": [
        {
          "internalType": "bytes32",
          "name": "tokenId",
          "type": "bytes32"
        }
      ],
      "name": "tokenOwnerOf",
      "outputs": [
        {
          "internalType": "address",
          "name": "",
          "type": "address"
        }
      ],
      "stateMutability": "view",
      "type": "function"
    },
    {
      "inputs": [],
      "name": "totalSupply",
      "outputs": [
        {
          "internalType": "uint256",
          "name": "",
          "type": "uint256"
        }
      ],
      "stateMutability": "view",
      "type": "function"
    },
    {
      "inputs": [
        {
          "internalType": "address",
          "name": "from",
          "type": "address"
        },
        {
          "internalType": "address",
          "name": "to",
          "type": "address"
        },
        {
          "internalType": "bytes32",
          "name": "tokenId",
          "type": "bytes32"
        },
        {
          "internalType": "bool",
          "name": "force",
          "type": "bool"
        },
        {
          "internalType": "bytes",
          "name": "data",
          "type": "bytes"
        }
      ],
      "name": "transfer",
      "outputs": [],
      "stateMutability": "nonpayable",
      "type": "function"
    },
    {
      "inputs": [
        {
          "internalType": "address[]",
          "name": "from",
          "type": "address[]"
        },
        {
          "internalType": "address[]",
          "name": "to",
          "type": "address[]"
        },
        {
          "internalType": "bytes32[]",
          "name": "tokenId",
          "type": "bytes32[]"
        },
        {
          "internalType": "bool[]",
          "name": "force",
          "type": "bool[]"
        },
        {
          "internalType": "bytes[]",
          "name": "data",
          "type": "bytes[]"
        }
      ],
      "name": "transferBatch",
      "outputs": [],
      "stateMutability": "nonpayable",
      "type": "function"
    },
    {
      "inputs": [
        {
          "internalType": "address",
          "name": "newOwner",
          "type": "address"
        }
      ],
      "name": "transferOwnership",
      "outputs": [],
      "stateMutability": "nonpayable",
      "type": "function"
    },
    {
      "stateMutability": "payable",
      "type": "receive"
    }
  ],
  "bytecode": "0x60806040523480156200001157600080fd5b50604051620039cf380380620039cf8339810160408190526200003491620004a0565b85858585600284848484816001600160a01b03811662000067576040516306b620db60e21b815260040160405180910390fd5b6200007281620001ec565b506040805180820190915260048152632936598960e21b6020820152620000bb907feafec4d89fa9619884b60000a4d96624a38f7ac2d8d9a604ecf07c12c77e480c906200025a565b620000e77fdeba1e292f8ba88238e10ab3c7f88bd4be4fac56cad5194b6ecceaf653468af1856200025a565b620001137f2f0a68ab07768e01943a599e73362a0e17a63a72e94dd2e384d2c1d4db932756846200025a565b60408051602081018390526200015c917fe0261fa95db2eb3b5439bd033cda66d56b96f92f243a8228fd87550ed7bdfdb3910160408051601f198184030181529190526200025a565b50506040805160208101859052620001a993507ff675e9361af1c1664c1868cfa3eb97672d6b1a513aa5b81dec34c9ee330e818d92500160408051601f19818403018152919052620002b3565b50620001dd93507f9afb95cacc9f95858ec44aa8c3b685511002e30ae54415823f406128b85b238e925085915050620002c3565b60075550620006f59350505050565b6000546001600160a01b038281169116146200025757600080546040516001600160a01b03808516939216917f8be0079c531659141344cd1fd0a4f28419497f9722a3daafe3b4186f6b6457e091a3600080546001600160a01b0319166001600160a01b0383161790555b50565b6000828152600160205260409020620002748282620005f4565b50817fece574603820d07bc9b91f2a932baadf4628aabcb8afba49776529c14a6104b282604051620002a79190620006c0565b60405180910390a25050565b620002bf828262000310565b5050565b7f098a16c9e50e3e99b3e797305c146898d294e5aec55a47e213cb3611ccf17e7382016200030457604051631b32400560e11b815260040160405180910390fd5b620002bf8282620002b3565b7f2145e1d6d074577dc71ef54c3807742b41b053a9352ae6b491331509acb9750f820162000351576040516385c169bd60e01b815260040160405180910390fd5b7fd0f59754f88971fe6bc5a6618cc9d5f1e859c58d16b22d1c7b2d3e2b246cd8aa82016200039257604051630eceab6760e31b815260040160405180910390fd5b7f1fd9e056a24d14c4abc642fcc325992a946906d0dbc57dd70278aaf12842024d82016200025a57604051634ef6d7fb60e01b815260040160405180910390fd5b634e487b7160e01b600052604160045260246000fd5b60005b8381101562000406578181015183820152602001620003ec565b50506000910152565b600082601f8301126200042157600080fd5b81516001600160401b03808211156200043e576200043e620003d3565b604051601f8301601f19908116603f01168101908282118183101715620004695762000469620003d3565b816040528381528660208588010111156200048357600080fd5b62000496846020830160208901620003e9565b9695505050505050565b60008060008060008060c08789031215620004ba57600080fd5b86516001600160401b0380821115620004d257600080fd5b620004e08a838b016200040f565b97506020890151915080821115620004f757600080fd5b620005058a838b016200040f565b60408a015190975091506001600160a01b03821682146200052557600080fd5b606089015160808a01519296509450808211156200054257600080fd5b506200055189828a016200040f565b92505060a087015190509295509295509295565b600181811c908216806200057a57607f821691505b6020821081036200059b57634e487b7160e01b600052602260045260246000fd5b50919050565b601f821115620005ef57600081815260208120601f850160051c81016020861015620005ca5750805b601f850160051c820191505b81811015620005eb57828155600101620005d6565b5050505b505050565b81516001600160401b03811115620006105762000610620003d3565b620006288162000621845462000565565b84620005a1565b602080601f831160018114620006605760008415620006475750858301515b600019600386901b1c1916600185901b178555620005eb565b600085815260208120601f198616915b82811015620006915788860151825594840194600190910190840162000670565b5085821015620006b05787850151600019600388901b60f8161c191681555b5050505050600190811b01905550565b6020815260008251806020840152620006e1816040850160208701620003e9565b601f01601f19169190910160400192915050565b6132ca80620007056000396000f3fe6080604052600436106101c65760003560e01c80637e87632c116100f7578063b3b2981e11610095578063dedff9c611610064578063dedff9c6146105fd578063f08e076d1461061d578063f2fde38b1461064a578063f7b2a7be1461066a5761023a565b8063b3b2981e1461057d578063be9f0e6f1461059d578063d6c1407c146105bd578063db8c9663146105dd5761023a565b80638da5cb5b116100d15780638da5cb5b146104ff578063979024211461051d578063a3b261f214610530578063a8a65a781461055d5761023a565b80637e87632c146104ac5780637f23690c146104cc57806386a10ddd146104df5761023a565b80632a3654a41161016457806354f6127f1161013e57806354f6127f146104375780636963d4381461045757806370a0823114610477578063715018a6146104975761023a565b80632a3654a4146103c857806349a6078d146103e8578063511b6952146104155761023a565b806316e023b3116101a057806316e023b31461032157806318160ddd1461034e5780631d26fce614610363578063217b2270146103905761023a565b8063013eba921461027b57806301ffc9a7146102bb5780630c590f51146102eb5761023a565b3661023a57346000036102085760405163e5099ee360e01b81526004016101ff9060208082526004908201526000604082015260600190565b60405180910390fd5b6040517f61f4944200000000000000000000000000000000000000000000000000000000815260040160405180910390fd5b6000366060600482101561026557828260405163e5099ee360e01b81526004016101ff9291906123f6565b61026f8383610680565b80519350602001915050f35b34801561028757600080fd5b506102a861029636600461243a565b60086020526000908152604090205481565b6040519081526020015b60405180910390f35b3480156102c757600080fd5b506102db6102d6366004612457565b61078f565b60405190151581526020016102b2565b3480156102f757600080fd5b506102a861030636600461243a565b6001600160a01b031660009081526009602052604090205490565b34801561032d57600080fd5b5061034161033c366004612481565b6107dc565b6040516102b291906124f3565b34801561035a57600080fd5b506002546102a8565b34801561036f57600080fd5b5061038361037e3660046125dc565b6107ef565b6040516102b29190612640565b34801561039c57600080fd5b506103b06103ab3660046126a2565b6108d7565b6040516001600160a01b0390911681526020016102b2565b3480156103d457600080fd5b506102db6103e33660046126bb565b610910565b3480156103f457600080fd5b506104086104033660046126a2565b61091c565b6040516102b291906126e7565b34801561042157600080fd5b506104356104303660046127c2565b61093e565b005b34801561044357600080fd5b506103416104523660046126a2565b61099b565b34801561046357600080fd5b5061038361047236600461283f565b6109a6565b34801561048357600080fd5b506102a861049236600461243a565b610aef565b3480156104a357600080fd5b50610435610b10565b3480156104b857600080fd5b506104356104c73660046129fa565b610b24565b6104356104da366004612abf565b610c2c565b3480156104eb57600080fd5b506104356104fa366004612afc565b610c61565b34801561050b57600080fd5b506000546001600160a01b03166103b0565b61043561052b366004612b55565b610df4565b34801561053c57600080fd5b5061055061054b36600461243a565b610ee6565b6040516102b29190612baf565b34801561056957600080fd5b506104356105783660046126a2565b610f0a565b34801561058957600080fd5b506103b0610598366004612be7565b610f17565b3480156105a957600080fd5b506104356105b8366004612ca8565b611090565b3480156105c957600080fd5b506104356105d8366004612d26565b611174565b3480156105e957600080fd5b506104356105f8366004612d60565b611187565b34801561060957600080fd5b50610383610618366004612dca565b611284565b34801561062957600080fd5b506102a861063836600461243a565b60096020526000908152604090205481565b34801561065657600080fd5b5061043561066536600461243a565b61132f565b34801561067657600080fd5b506102a860075481565b606060006106996000356001600160e01b031916611383565b5090506001600160a01b0381166106ea576040517fbb370b2b0000000000000000000000000000000000000000000000000000000081526001600160e01b03196000351660048201526024016101ff565b600080826001600160a01b0316348787333460405160200161070f9493929190612dff565b60408051601f198184030181529082905261072991612e2f565b60006040518083038185875af1925050503d8060008114610766576040519150601f19603f3d011682016040523d82523d6000602084013e61076b565b606091505b50915091508115610780579250610789915050565b80518060208301fd5b92915050565b60006001600160e01b031982167f3a2717060000000000000000000000000000000000000000000000000000000014806107cd57506107cd8261142d565b8061078957506107898261146b565b60606107e883836114a2565b9392505050565b60608151835114610813576040516317d38eff60e11b815260040160405180910390fd5b825167ffffffffffffffff81111561082d5761082d612506565b60405190808252806020026020018201604052801561086057816020015b606081526020019060019003908161084b5790505b50905060005b83518110156108d0576108ab84828151811061088457610884612e4b565b602002602001015184838151811061089e5761089e612e4b565b60200260200101516114a2565b8282815181106108bd576108bd612e4b565b6020908102919091010152600101610866565b5092915050565b6000818152600360205260408120546001600160a01b03168061078957604051635747cd1b60e11b8152600481018490526024016101ff565b60006107e883836114ae565b6060610927826114eb565b600082815260056020526040902061078990611523565b61094833846114ae565b610987576040517f1294d2a9000000000000000000000000000000000000000000000000000000008152600481018490523360248201526044016101ff565b6109948585858585611530565b5050505050565b606061078982611738565b60608167ffffffffffffffff8111156109c1576109c1612506565b6040519080825280602002602001820160405280156109f457816020015b60608152602001906001900390816109df5790505b50905060005b828110156108d05760008030868685818110610a1857610a18612e4b565b9050602002810190610a2a9190612e61565b604051610a38929190612eaf565b600060405180830381855af49150503d8060008114610a73576040519150601f19603f3d011682016040523d82523d6000602084013e610a78565b606091505b509150915081610ac757805115610a925780518082602001fd5b6040517f234eb819000000000000000000000000000000000000000000000000000000008152600481018490526024016101ff565b80848481518110610ada57610ada612e4b565b602090810291909101015250506001016109fa565b6001600160a01b0381166000908152600460205260408120610789906117da565b610b186117e4565b610b226000611839565b565b8451845181141580610b37575083518114155b80610b43575082518114155b80610b4f575081518114155b15610b86576040517f93a8311900000000000000000000000000000000000000000000000000000000815260040160405180910390fd5b60005b81811015610c2357610c1b878281518110610ba657610ba6612e4b565b6020026020010151878381518110610bc057610bc0612e4b565b6020026020010151878481518110610bda57610bda612e4b565b6020026020010151878581518110610bf457610bf4612e4b565b6020026020010151878681518110610c0e57610c0e612e4b565b602002602001015161093e565b600101610b89565b50505050505050565b610c346117e4565b3415610c535760405163f36ba73760e01b815260040160405180910390fd5b610c5d82826118b4565b5050565b6000610c6c836108d7565b90506001600160a01b0381163314610caf57604051632d938f5160e11b81526001600160a01b0382166004820152602481018490523360448201526064016101ff565b6001600160a01b038416610cd657604051639577b8b360e01b815260040160405180910390fd5b836001600160a01b0316816001600160a01b031603610d08576040516344fed6b160e11b815260040160405180910390fd5b6000838152600560205260408120610d209086611917565b905080610d6b576040517fa7626b680000000000000000000000000000000000000000000000000000000081526001600160a01b0386166004820152602481018590526044016101ff565b83826001600160a01b0316866001600160a01b03167f1b1b58aa2ec0cec2228b2d37124556d41f5a1f7b12f089171f896cc23667121586604051610daf91906124f3565b60405180910390a460003385600186604051602001610dd19493929190612ebf565b6040516020818303038152906040529050610dec868261192c565b505050505050565b610dfc6117e4565b3415610e1b5760405163f36ba73760e01b815260040160405180910390fd5b8051825114610e56576040517f3bcc897900000000000000000000000000000000000000000000000000000000815260040160405180910390fd5b8151600003610e91576040517f97da5f9500000000000000000000000000000000000000000000000000000000815260040160405180910390fd5b60005b8251811015610ee157610ed9838281518110610eb257610eb2612e4b565b6020026020010151838381518110610ecc57610ecc612e4b565b60200260200101516118b4565b600101610e94565b505050565b6001600160a01b038116600090815260046020526040902060609061078990611523565b610f126117e4565b600755565b6000610f21611957565b15610f88576040517f08c379a000000000000000000000000000000000000000000000000000000000815260206004820152601760248201527f4d696e74696e67206f6e6c79206f6e636520612064617900000000000000000060448201526064016101ff565b6040517fb3b2981e00000000000000000000000000000000000000000000000000000000815273__$58dfd55f33955099614ce920d5505ba750$__9063b3b2981e90610fe4908b908b908b908b908b908b908b90600401612ef9565b602060405180830381865af4158015611001573d6000803e3d6000fd5b505050506040513d601f19601f820116820180604052508101906110259190612f63565b90506000816001600160a01b031660001b90506110543082600160405180602001604052806000815250611986565b506001600160a01b0392831660009081526008602090815260408083204290819055958416835260099091529020929092555095945050505050565b6110986117e4565b815183511415806110ab57508051825114155b156110c9576040516317d38eff60e11b815260040160405180910390fd5b8251600003611104576040517f80c9830500000000000000000000000000000000000000000000000000000000815260040160405180910390fd5b60005b835181101561116e5761116684828151811061112557611125612e4b565b602002602001015184838151811061113f5761113f612e4b565b602002602001015184848151811061115957611159612e4b565b6020026020010151611b03565b600101611107565b50505050565b61117c6117e4565b610ee1838383611b03565b6000611192846108d7565b9050336001600160a01b038216146111fe576001600160a01b03851633146111fe576040517f760b5acd0000000000000000000000000000000000000000000000000000000081523360048201526001600160a01b0382166024820152604481018590526064016101ff565b6001600160a01b03851661122557604051639577b8b360e01b815260040160405180910390fd5b846001600160a01b0316816001600160a01b031603611257576040516344fed6b160e11b815260040160405180910390fd5b6112648582868686611b4c565b82156109945760008185600085604051602001610dd19493929190612ebf565b6060815167ffffffffffffffff8111156112a0576112a0612506565b6040519080825280602002602001820160405280156112d357816020015b60608152602001906001900390816112be5790505b50905060005b8251811015611329576113048382815181106112f7576112f7612e4b565b6020026020010151611738565b82828151811061131657611316612e4b565b60209081029190910101526001016112d9565b50919050565b6113376117e4565b6001600160a01b038116611377576040517f1ad8836c00000000000000000000000000000000000000000000000000000000815260040160405180910390fd5b61138081611839565b50565b600080806113bb7fcee78b4094da86011096000000000000000000000000000000000000000000006001600160e01b03198616611c05565b905060006113c882611738565b905080516014141580156113dc5750805115155b1561141557806040517f42bfe79f0000000000000000000000000000000000000000000000000000000081526004016101ff91906124f3565b61141e81612f80565b60601c95600195509350505050565b60006001600160e01b031982167fa918fa6b000000000000000000000000000000000000000000000000000000001480610789575061078982611c76565b60008061147e6301ffc9a760e01b611383565b5090506001600160a01b0381166114985750600092915050565b6107e88184611cc4565b60606107e88383611d62565b60006114b9826108d7565b6001600160a01b0316836001600160a01b031614806107e8575060008281526005602052604090206107e89084611deb565b6000818152600360205260409020546001600160a01b031661138057604051635747cd1b60e11b8152600481018290526024016101ff565b606060006107e883611e0d565b600061153b846108d7565b9050856001600160a01b0316816001600160a01b03161461158957604051632d938f5160e11b81526001600160a01b03808316600483015260248201869052871660448201526064016101ff565b6001600160a01b0385166115b0576040516324ecef4d60e01b815260040160405180910390fd5b60006115bb856108d7565b9050806001600160a01b0316826001600160a01b031614611622576040517f5a9c31d3000000000000000000000000000000000000000000000000000000008152600481018690526001600160a01b038084166024830152821660448201526064016101ff565b61162c8786611e68565b6001600160a01b038716600090815260046020526040902061164e9086611ec0565b506001600160a01b03861660009081526004602052604090206116719086611ecc565b5060008581526003602052604090819020805473ffffffffffffffffffffffffffffffffffffffff19166001600160a01b0389811691821790925591518792918a16907fb333c813a7426a7a11e2b190cad52c44119421594b47f6f32ace6d8c7207b2bf906116e59033908a908a90612fbc565b60405180910390a460003388888887604051602001611708959493929190612fef565b60405160208183030381529060405290506117238882611ed8565b61172e878683611f03565b5050505050505050565b600081815260016020526040902080546060919061175590613029565b80601f016020809104026020016040519081016040528092919081815260200182805461178190613029565b80156117ce5780601f106117a3576101008083540402835291602001916117ce565b820191906000526020600020905b8154815290600101906020018083116117b157829003601f168201915b50505050509050919050565b6000610789825490565b336117f76000546001600160a01b031690565b6001600160a01b031614610b22576040517fbf1169c50000000000000000000000000000000000000000000000000000000081523360048201526024016101ff565b6000546001600160a01b0382811691161461138057600080546040516001600160a01b03808516939216917f8be0079c531659141344cd1fd0a4f28419497f9722a3daafe3b4186f6b6457e091a3600080546001600160a01b03831673ffffffffffffffffffffffffffffffffffffffff1990911617905550565b7f098a16c9e50e3e99b3e797305c146898d294e5aec55a47e213cb3611ccf17e73820161190d576040517f3664800a00000000000000000000000000000000000000000000000000000000815260040160405180910390fd5b610c5d828261203d565b60006107e8836001600160a01b038416612047565b610c5d827f8a1c15a8799f71b547e08e2bcb2e85257e81b0a07eee2ce6712549eef1f0097083612096565b336000908152600860205260408120546119749062015180613073565b42106119805750600090565b50600190565b6001600160a01b0384166119ad576040516324ecef4d60e01b815260040160405180910390fd5b6000838152600360205260409020546001600160a01b0316156119e6576040516334c7b51160e01b8152600481018490526024016101ff565b6000838152600360205260409020546001600160a01b031615611a1f576040516334c7b51160e01b8152600481018490526024016101ff565b600260008154611a2e90613086565b909155506001600160a01b0384166000908152600460205260409020611a549084611ecc565b50600083815260036020526040808220805473ffffffffffffffffffffffffffffffffffffffff19166001600160a01b03881690811790915590518592907fb333c813a7426a7a11e2b190cad52c44119421594b47f6f32ace6d8c7207b2bf90611ac390339088908890612fbc565b60405180910390a46000336000868685604051602001611ae7959493929190612fef565b6040516020818303038152906040529050610994858483611f03565b611b0e8383836120e3565b81837fa6e4251f855f750545fe414f120db91c76b88def14d120969e5bb2d3f05debbb83604051611b3f91906124f3565b60405180910390a3505050565b6000838152600560205260408120611b649087612158565b905080611baf576040517f4aa31a8c0000000000000000000000000000000000000000000000000000000081526001600160a01b0387166004820152602481018590526044016101ff565b83856001600160a01b0316876001600160a01b03167fc78cd419d6136f9f1c1c6aec1d3fae098cffaf8bc86314a8f2685e32fe574e3c8686604051611bf592919061309f565b60405180910390a4505050505050565b604080517fffffffffffffffffffff00000000000000000000000000000000000000000000841660208201526000602a82018190526bffffffffffffffffffffffff198416602c83015291829101604051602081830303815290604052905080611c6e906130ba565b949350505050565b60006001600160e01b031982167f629aa69400000000000000000000000000000000000000000000000000000000148061078957506301ffc9a760e01b6001600160e01b0319831614610789565b604080516001600160e01b03198316602480830191909152825180830390910181526044909101909152602080820180517bffffffffffffffffffffffffffffffffffffffffffffffffffffffff166301ffc9a760e01b178152825160009392849283928392918391908a617530fa92503d91506000519050828015611d4b575060208210155b8015611d575750600081115b979650505050505050565b6040517f54f6127f000000000000000000000000000000000000000000000000000000008152600481018290526060906001600160a01b038416906354f6127f90602401600060405180830381865afa158015611dc3573d6000803e3d6000fd5b505050506040513d6000823e601f3d908101601f191682016040526107e891908101906130de565b6001600160a01b038116600090815260018301602052604081205415156107e8565b6060816000018054806020026020016040519081016040528092919081815260200182805480156117ce57602002820191906000526020600020905b815481526020019060010190808311611e495750505050509050919050565b600081815260056020526040812090611e80826117da565b90506000805b82811015610dec57611e9984600061216d565b9150611eb8828787600060405180602001604052806000815250611b4c565b600101611e86565b60006107e88383612179565b60006107e88383612047565b610c5d827fb23eae7e6d1564b295b4c3e3be402d9a2f0776c57bdf365903496f6fa481ab0083612096565b611f1483631aed5a8560e21b611cc4565b15611fae57604051631aed5a8560e21b81526001600160a01b03841690636bb56a1490611f67907f0b084a55ebf70fd3c06fd755269dac2212c4d3f0f4d09079780bfa50c1b2984d90859060040161314c565b6000604051808303816000875af1158015611f86573d6000803e3d6000fd5b505050506040513d6000823e601f3d908101601f1916820160405261116e91908101906130de565b81610ee1576001600160a01b0383163b15612000576040517f4349776d0000000000000000000000000000000000000000000000000000000081526001600160a01b03841660048201526024016101ff565b6040517f031731370000000000000000000000000000000000000000000000000000000081526001600160a01b03841660048201526024016101ff565b610c5d828261226c565b600081815260018301602052604081205461208e57508154600181810184556000848152602080822090930184905584548482528286019093526040902091909155610789565b506000610789565b6120b06001600160a01b038416631aed5a8560e21b611cc4565b15610ee157604051631aed5a8560e21b81526001600160a01b03841690636bb56a1490611f67908590859060040161314c565b6040517f7f23690c0000000000000000000000000000000000000000000000000000000081526001600160a01b03841690637f23690c9061212a908590859060040161314c565b600060405180830381600087803b15801561214457600080fd5b505af1158015610c23573d6000803e3d6000fd5b60006107e8836001600160a01b038416612179565b60006107e883836123cc565b6000818152600183016020526040812054801561226257600061219d600183613165565b85549091506000906121b190600190613165565b90508181146122165760008660000182815481106121d1576121d1612e4b565b90600052602060002001549050808760000184815481106121f4576121f4612e4b565b6000918252602080832090910192909255918252600188019052604090208390555b855486908061222757612227613178565b600190038181906000526020600020016000905590558560010160008681526020019081526020016000206000905560019350505050610789565b6000915050610789565b7f2145e1d6d074577dc71ef54c3807742b41b053a9352ae6b491331509acb9750f82016122c5576040517f85c169bd00000000000000000000000000000000000000000000000000000000815260040160405180910390fd5b7fd0f59754f88971fe6bc5a6618cc9d5f1e859c58d16b22d1c7b2d3e2b246cd8aa820161231e576040517f76755b3800000000000000000000000000000000000000000000000000000000815260040160405180910390fd5b7f1fd9e056a24d14c4abc642fcc325992a946906d0dbc57dd70278aaf12842024d8201612377576040517f4ef6d7fb00000000000000000000000000000000000000000000000000000000815260040160405180910390fd5b600082815260016020526040902061238f82826131d4565b50817fece574603820d07bc9b91f2a932baadf4628aabcb8afba49776529c14a6104b2826040516123c091906124f3565b60405180910390a25050565b60008260000182815481106123e3576123e3612e4b565b9060005260206000200154905092915050565b60208152816020820152818360408301376000818301604090810191909152601f909201601f19160101919050565b6001600160a01b038116811461138057600080fd5b60006020828403121561244c57600080fd5b81356107e881612425565b60006020828403121561246957600080fd5b81356001600160e01b0319811681146107e857600080fd5b6000806040838503121561249457600080fd5b50508035926020909101359150565b60005b838110156124be5781810151838201526020016124a6565b50506000910152565b600081518084526124df8160208601602086016124a3565b601f01601f19169290920160200192915050565b6020815260006107e860208301846124c7565b634e487b7160e01b600052604160045260246000fd5b604051601f8201601f1916810167ffffffffffffffff8111828210171561254557612545612506565b604052919050565b600067ffffffffffffffff82111561256757612567612506565b5060051b60200190565b600082601f83011261258257600080fd5b813560206125976125928361254d565b61251c565b82815260059290921b840181019181810190868411156125b657600080fd5b8286015b848110156125d157803583529183019183016125ba565b509695505050505050565b600080604083850312156125ef57600080fd5b823567ffffffffffffffff8082111561260757600080fd5b61261386838701612571565b9350602085013591508082111561262957600080fd5b5061263685828601612571565b9150509250929050565b6000602080830181845280855180835260408601915060408160051b870101925083870160005b8281101561269557603f198886030184526126838583516124c7565b94509285019290850190600101612667565b5092979650505050505050565b6000602082840312156126b457600080fd5b5035919050565b600080604083850312156126ce57600080fd5b82356126d981612425565b946020939093013593505050565b6020808252825182820181905260009190848201906040850190845b818110156127285783516001600160a01b031683529284019291840191600101612703565b50909695505050505050565b8035801515811461274457600080fd5b919050565b600067ffffffffffffffff82111561276357612763612506565b50601f01601f191660200190565b600082601f83011261278257600080fd5b813561279061259282612749565b8181528460208386010111156127a557600080fd5b816020850160208301376000918101602001919091529392505050565b600080600080600060a086880312156127da57600080fd5b85356127e581612425565b945060208601356127f581612425565b93506040860135925061280a60608701612734565b9150608086013567ffffffffffffffff81111561282657600080fd5b61283288828901612771565b9150509295509295909350565b6000806020838503121561285257600080fd5b823567ffffffffffffffff8082111561286a57600080fd5b818501915085601f83011261287e57600080fd5b81358181111561288d57600080fd5b8660208260051b85010111156128a257600080fd5b60209290920196919550909350505050565b600082601f8301126128c557600080fd5b813560206128d56125928361254d565b82815260059290921b840181019181810190868411156128f457600080fd5b8286015b848110156125d157803561290b81612425565b83529183019183016128f8565b600082601f83011261292957600080fd5b813560206129396125928361254d565b82815260059290921b8401810191818101908684111561295857600080fd5b8286015b848110156125d15761296d81612734565b835291830191830161295c565b600082601f83011261298b57600080fd5b8135602061299b6125928361254d565b82815260059290921b840181019181810190868411156129ba57600080fd5b8286015b848110156125d157803567ffffffffffffffff8111156129de5760008081fd5b6129ec8986838b0101612771565b8452509183019183016129be565b600080600080600060a08688031215612a1257600080fd5b853567ffffffffffffffff80821115612a2a57600080fd5b612a3689838a016128b4565b96506020880135915080821115612a4c57600080fd5b612a5889838a016128b4565b95506040880135915080821115612a6e57600080fd5b612a7a89838a01612571565b94506060880135915080821115612a9057600080fd5b612a9c89838a01612918565b93506080880135915080821115612ab257600080fd5b506128328882890161297a565b60008060408385031215612ad257600080fd5b82359150602083013567ffffffffffffffff811115612af057600080fd5b61263685828601612771565b600080600060608486031215612b1157600080fd5b8335612b1c81612425565b925060208401359150604084013567ffffffffffffffff811115612b3f57600080fd5b612b4b86828701612771565b9150509250925092565b60008060408385031215612b6857600080fd5b823567ffffffffffffffff80821115612b8057600080fd5b612b8c86838701612571565b93506020850135915080821115612ba257600080fd5b506126368582860161297a565b6020808252825182820181905260009190848201906040850190845b8181101561272857835183529284019291840191600101612bcb565b600080600080600080600060e0888a031215612c0257600080fd5b873567ffffffffffffffff80821115612c1a57600080fd5b612c268b838c01612771565b985060208a0135915080821115612c3c57600080fd5b612c488b838c01612771565b975060408a01359650612c5d60608b01612734565b955060808a0135945060a08a01359150612c7682612425565b90925060c08901359080821115612c8c57600080fd5b50612c998a828b01612771565b91505092959891949750929550565b600080600060608486031215612cbd57600080fd5b833567ffffffffffffffff80821115612cd557600080fd5b612ce187838801612571565b94506020860135915080821115612cf757600080fd5b612d0387838801612571565b93506040860135915080821115612d1957600080fd5b50612b4b8682870161297a565b600080600060608486031215612d3b57600080fd5b8335925060208401359150604084013567ffffffffffffffff811115612b3f57600080fd5b60008060008060808587031215612d7657600080fd5b8435612d8181612425565b935060208501359250612d9660408601612734565b9150606085013567ffffffffffffffff811115612db257600080fd5b612dbe87828801612771565b91505092959194509250565b600060208284031215612ddc57600080fd5b813567ffffffffffffffff811115612df357600080fd5b611c6e84828501612571565b8385823760609290921b6bffffffffffffffffffffffff1916919092019081526014810191909152603401919050565b60008251612e418184602087016124a3565b9190910192915050565b634e487b7160e01b600052603260045260246000fd5b6000808335601e19843603018112612e7857600080fd5b83018035915067ffffffffffffffff821115612e9357600080fd5b602001915036819003821315612ea857600080fd5b9250929050565b8183823760009101908152919050565b6001600160a01b03851681528360208201528215156040820152608060608201526000612eef60808301846124c7565b9695505050505050565b60e081526000612f0c60e083018a6124c7565b8281036020840152612f1e818a6124c7565b905087604084015286151560608401528560808401526001600160a01b03851660a084015282810360c0840152612f5581856124c7565b9a9950505050505050505050565b600060208284031215612f7557600080fd5b81516107e881612425565b805160208201516bffffffffffffffffffffffff198082169291906014831015612fb45780818460140360031b1b83161693505b505050919050565b6001600160a01b03841681528215156020820152606060408201526000612fe660608301846124c7565b95945050505050565b60006001600160a01b038088168352808716602084015280861660408401525083606083015260a06080830152611d5760a08301846124c7565b600181811c9082168061303d57607f821691505b60208210810361132957634e487b7160e01b600052602260045260246000fd5b634e487b7160e01b600052601160045260246000fd5b808201808211156107895761078961305d565b6000600182016130985761309861305d565b5060010190565b8215158152604060208201526000611c6e60408301846124c7565b805160208083015191908110156113295760001960209190910360031b1b16919050565b6000602082840312156130f057600080fd5b815167ffffffffffffffff81111561310757600080fd5b8201601f8101841361311857600080fd5b805161312661259282612749565b81815285602083850101111561313b57600080fd5b612fe68260208301602086016124a3565b828152604060208201526000611c6e60408301846124c7565b818103818111156107895761078961305d565b634e487b7160e01b600052603160045260246000fd5b601f821115610ee157600081815260208120601f850160051c810160208610156131b55750805b601f850160051c820191505b81811015610dec578281556001016131c1565b815167ffffffffffffffff8111156131ee576131ee612506565b613202816131fc8454613029565b8461318e565b602080601f831160018114613237576000841561321f5750858301515b600019600386901b1c1916600185901b178555610dec565b600085815260208120601f198616915b8281101561326657888601518255948401946001909101908401613247565b50858210156132845787850151600019600388901b60f8161c191681555b5050505050600190811b0190555056fea2646970667358221220b6cf708a942fd9ec518f90a8ebcf6cd591a0b6578a9c2a9e4e286d051d7e7c8564736f6c63430008140033",
  "linkReferences": {
    "contracts/LSP8CollectionMinter.sol": {
      "LSP8CollectionMinter": [
        {
          "length": 20,
          "start": 5813
        }
      ]
    }
  },
  "deployedLinkReferences": {
    "contracts/LSP8CollectionMinter.sol": {
      "LSP8CollectionMinter": [
        {
          "length": 20,
          "start": 4016
        }
      ]
    }
  }
}