{
	"data": {
		"bytecode": {
			"linkReferences": {
				"contracts/LSP8CollectionMinter.sol": {
					"LSP8CollectionMinter": [
						{
							"length": 20,
							"start": 9504
						}
					]
				}
			},
			"object": "608060405234801562000010575f80fd5b50604051620060f0380380620060f08339818101604052810190620000369190620008d3565b85858585600284848484815f73ffffffffffffffffffffffffffffffffffffffff168173ffffffffffffffffffffffffffffffffffffffff1603620000a7576040517f1ad8836c00000000000000000000000000000000000000000000000000000000815260040160405180910390fd5b620000b8816200028460201b60201c565b50620001227feafec4d89fa9619884b60000a4d96624a38f7ac2d8d9a604ecf07c12c77e480c5f1b6040518060400160405280600481526020017fa4d96624000000000000000000000000000000000000000000000000000000008152506200038360201b60201c565b620001567fdeba1e292f8ba88238e10ab3c7f88bd4be4fac56cad5194b6ecceaf653468af15f1b856200038360201b60201c565b6200018a7f2f0a68ab07768e01943a599e73362a0e17a63a72e94dd2e384d2c1d4db9327565f1b846200038360201b60201c565b620001df7fe0261fa95db2eb3b5439bd033cda66d56b96f92f243a8228fd87550ed7bdfdb35f1b82604051602001620001c49190620009d9565b6040516020818303038152906040526200038360201b60201c565b50505050620002387ff675e9361af1c1664c1868cfa3eb97672d6b1a513aa5b81dec34c9ee330e818d5f1b826040516020016200021d9190620009d9565b604051602081830303815290604052620003e260201b60201c565b5050505050620002717f9afb95cacc9f95858ec44aa8c3b685511002e30ae54415823f406128b85b238e5f1b83620003f860201b60201c565b8060078190555050505050505062000d78565b620002946200046a60201b60201c565b73ffffffffffffffffffffffffffffffffffffffff168173ffffffffffffffffffffffffffffffffffffffff161462000380578073ffffffffffffffffffffffffffffffffffffffff165f8054906101000a900473ffffffffffffffffffffffffffffffffffffffff1673ffffffffffffffffffffffffffffffffffffffff167f8be0079c531659141344cd1fd0a4f28419497f9722a3daafe3b4186f6b6457e060405160405180910390a3805f806101000a81548173ffffffffffffffffffffffffffffffffffffffff021916908373ffffffffffffffffffffffffffffffffffffffff1602179055505b50565b8060015f8481526020019081526020015f209081620003a3919062000c22565b50817fece574603820d07bc9b91f2a932baadf4628aabcb8afba49776529c14a6104b282604051620003d6919062000d56565b60405180910390a25050565b620003f482826200049160201b60201c565b5050565b7ff675e9361af1c1664c1868cfa3eb97672d6b1a513aa5b81dec34c9ee330e818d5f1b820362000454576040517f3664800a00000000000000000000000000000000000000000000000000000000815260040160405180910390fd5b620004668282620003e260201b60201c565b5050565b5f805f9054906101000a900473ffffffffffffffffffffffffffffffffffffffff16905090565b7fdeba1e292f8ba88238e10ab3c7f88bd4be4fac56cad5194b6ecceaf653468af15f1b8203620004ed576040517f85c169bd00000000000000000000000000000000000000000000000000000000815260040160405180910390fd5b7f2f0a68ab07768e01943a599e73362a0e17a63a72e94dd2e384d2c1d4db9327565f1b820362000549576040517f76755b3800000000000000000000000000000000000000000000000000000000815260040160405180910390fd5b7fe0261fa95db2eb3b5439bd033cda66d56b96f92f243a8228fd87550ed7bdfdb35f1b8203620005a5576040517f4ef6d7fb00000000000000000000000000000000000000000000000000000000815260040160405180910390fd5b8060015f8481526020019081526020015f209081620005c5919062000c22565b50817fece574603820d07bc9b91f2a932baadf4628aabcb8afba49776529c14a6104b282604051620005f8919062000d56565b60405180910390a25050565b5f604051905090565b5f80fd5b5f80fd5b5f80fd5b5f80fd5b5f601f19601f8301169050919050565b7f4e487b71000000000000000000000000000000000000000000000000000000005f52604160045260245ffd5b62000665826200061d565b810181811067ffffffffffffffff821117156200068757620006866200062d565b5b80604052505050565b5f6200069b62000604565b9050620006a982826200065a565b919050565b5f67ffffffffffffffff821115620006cb57620006ca6200062d565b5b620006d6826200061d565b9050602081019050919050565b5f5b8381101562000702578082015181840152602081019050620006e5565b5f8484015250505050565b5f620007236200071d84620006ae565b62000690565b90508281526020810184848401111562000742576200074162000619565b5b6200074f848285620006e3565b509392505050565b5f82601f8301126200076e576200076d62000615565b5b8151620007808482602086016200070d565b91505092915050565b5f73ffffffffffffffffffffffffffffffffffffffff82169050919050565b5f620007b48262000789565b9050919050565b620007c681620007a8565b8114620007d1575f80fd5b50565b5f81519050620007e481620007bb565b92915050565b5f819050919050565b620007fe81620007ea565b811462000809575f80fd5b50565b5f815190506200081c81620007f3565b92915050565b5f67ffffffffffffffff8211156200083f576200083e6200062d565b5b6200084a826200061d565b9050602081019050919050565b5f6200086d620008678462000822565b62000690565b9050828152602081018484840111156200088c576200088b62000619565b5b62000899848285620006e3565b509392505050565b5f82601f830112620008b857620008b762000615565b5b8151620008ca84826020860162000857565b91505092915050565b5f805f805f8060c08789031215620008f057620008ef6200060d565b5b5f87015167ffffffffffffffff81111562000910576200090f62000611565b5b6200091e89828a0162000757565b965050602087015167ffffffffffffffff81111562000942576200094162000611565b5b6200095089828a0162000757565b95505060406200096389828a01620007d4565b94505060606200097689828a016200080c565b935050608087015167ffffffffffffffff8111156200099a576200099962000611565b5b620009a889828a01620008a1565b92505060a0620009bb89828a016200080c565b9150509295509295509295565b620009d381620007ea565b82525050565b5f602082019050620009ee5f830184620009c8565b92915050565b5f81519050919050565b7f4e487b71000000000000000000000000000000000000000000000000000000005f52602260045260245ffd5b5f600282049050600182168062000a4357607f821691505b60208210810362000a595762000a58620009fe565b5b50919050565b5f819050815f5260205f209050919050565b5f6020601f8301049050919050565b5f82821b905092915050565b5f6008830262000abd7fffffffffffffffffffffffffffffffffffffffffffffffffffffffffffffffff8262000a80565b62000ac9868362000a80565b95508019841693508086168417925050509392505050565b5f819050919050565b5f62000b0a62000b0462000afe84620007ea565b62000ae1565b620007ea565b9050919050565b5f819050919050565b62000b258362000aea565b62000b3d62000b348262000b11565b84845462000a8c565b825550505050565b5f90565b62000b5362000b45565b62000b6081848462000b1a565b505050565b5b8181101562000b875762000b7b5f8262000b49565b60018101905062000b66565b5050565b601f82111562000bd65762000ba08162000a5f565b62000bab8462000a71565b8101602085101562000bbb578190505b62000bd362000bca8562000a71565b83018262000b65565b50505b505050565b5f82821c905092915050565b5f62000bf85f198460080262000bdb565b1980831691505092915050565b5f62000c12838362000be7565b9150826002028217905092915050565b62000c2d82620009f4565b67ffffffffffffffff81111562000c495762000c486200062d565b5b62000c55825462000a2b565b62000c6282828562000b8b565b5f60209050601f83116001811462000c98575f841562000c83578287015190505b62000c8f858262000c05565b86555062000cfe565b601f19841662000ca88662000a5f565b5f5b8281101562000cd15784890151825560018201915060208501945060208101905062000caa565b8683101562000cf1578489015162000ced601f89168262000be7565b8355505b6001600288020188555050505b505050505050565b5f82825260208201905092915050565b5f62000d2282620009f4565b62000d2e818562000d06565b935062000d40818560208601620006e3565b62000d4b816200061d565b840191505092915050565b5f6020820190508181035f83015262000d70818462000d16565b905092915050565b61536a8062000d865f395ff3fe6080604052600436106101e6575f3560e01c806386a10ddd11610101578063b3b2981e11610094578063db8c966311610063578063db8c966314610853578063dedff9c61461087b578063f2fde38b146108b7578063f7b2a7be146108df5761025f565b8063b3b2981e1461078b578063be9f0e6f146107c7578063cc18513f146107ef578063d6c1407c1461082b5761025f565b8063a3b261f2116100d0578063a3b261f2146106af578063a45478b9146106eb578063a8a65a7814610727578063aa271e1a1461074f5761025f565b806386a10ddd146106055780638da5cb5b1461062d5780639790242114610657578063a2898a30146106735761025f565b806349a6078d1161017957806370a082311161014857806370a082311461056f578063715018a6146105ab5780637e87632c146105c15780637f23690c146105e95761025f565b806349a6078d14610493578063511b6952146104cf57806354f6127f146104f75780636963d438146105335761025f565b80631d26fce6116101b55780631d26fce6146103a3578063217b2270146103df5780632a3654a41461041b578063300fe77b146104575761025f565b8063013eba92146102c557806301ffc9a71461030157806316e023b31461033d57806318160ddd146103795761025f565b3661025f575f340361022d576040517fe5099ee3000000000000000000000000000000000000000000000000000000008152600401610224906133dc565b60405180910390fd5b6040517f61f4944200000000000000000000000000000000000000000000000000000000815260040160405180910390fd5b5f36606060045f36905010156102ae5782826040517fe5099ee30000000000000000000000000000000000000000000000000000000081526004016102a5929190613444565b60405180910390fd5b6102b88383610909565b9050915050805190602001f35b3480156102d0575f80fd5b506102eb60048036038101906102e691906134d1565b610a7f565b6040516102f89190613514565b60405180910390f35b34801561030c575f80fd5b5061032760048036038101906103229190613582565b610a94565b60405161033491906135c7565b60405180910390f35b348015610348575f80fd5b50610363600480360381019061035e9190613613565b610b04565b60405161037091906136bb565b60405180910390f35b348015610384575f80fd5b5061038d610b18565b60405161039a9190613514565b60405180910390f35b3480156103ae575f80fd5b506103c960048036038101906103c4919061381b565b610b21565b6040516103d69190613994565b60405180910390f35b3480156103ea575f80fd5b50610405600480360381019061040091906139b4565b610c28565b60405161041291906139ee565b60405180910390f35b348015610426575f80fd5b50610441600480360381019061043c9190613a07565b610cd6565b60405161044e91906135c7565b60405180910390f35b348015610462575f80fd5b5061047d60048036038101906104789190613a45565b610ce9565b60405161048a91906135c7565b60405180910390f35b34801561049e575f80fd5b506104b960048036038101906104b491906139b4565b610ec9565b6040516104c69190613b3a565b60405180910390f35b3480156104da575f80fd5b506104f560048036038101906104f09190613c26565b610ef4565b005b348015610502575f80fd5b5061051d600480360381019061051891906139b4565b610f55565b60405161052a91906136bb565b60405180910390f35b34801561053e575f80fd5b5061055960048036038101906105549190613d12565b610f67565b6040516105669190613994565b60405180910390f35b34801561057a575f80fd5b50610595600480360381019061059091906134d1565b6110dd565b6040516105a29190613514565b60405180910390f35b3480156105b6575f80fd5b506105bf61112a565b005b3480156105cc575f80fd5b506105e760048036038101906105e29190613fbb565b61113d565b005b61060360048036038101906105fe91906140be565b61124f565b005b348015610610575f80fd5b5061062b60048036038101906106269190614118565b61129e565b005b348015610638575f80fd5b506106416114f4565b60405161064e91906139ee565b60405180910390f35b610671600480360381019061066c9190614184565b61151b565b005b34801561067e575f80fd5b5061069960048036038101906106949190614224565b61162a565b6040516106a691906139ee565b60405180910390f35b3480156106ba575f80fd5b506106d560048036038101906106d091906134d1565b611672565b6040516106e29190614319565b60405180910390f35b3480156106f6575f80fd5b50610711600480360381019061070c91906134d1565b6116c0565b60405161071e91906135c7565b60405180910390f35b348015610732575f80fd5b5061074d60048036038101906107489190614339565b611772565b005b34801561075a575f80fd5b50610775600480360381019061077091906134d1565b611784565b60405161078291906135c7565b60405180910390f35b348015610796575f80fd5b506107b160048036038101906107ac9190614402565b611797565b6040516107be91906139ee565b60405180910390f35b3480156107d2575f80fd5b506107ed60048036038101906107e891906144f3565b6118a1565b005b3480156107fa575f80fd5b50610815600480360381019061081091906134d1565b6119a2565b6040516108229190613b3a565b60405180910390f35b348015610836575f80fd5b50610851600480360381019061084c9190614597565b611a6a565b005b34801561085e575f80fd5b5061087960048036038101906108749190614603565b611a82565b005b348015610886575f80fd5b506108a1600480360381019061089c9190614683565b611c4f565b6040516108ae9190613994565b60405180910390f35b3480156108c2575f80fd5b506108dd60048036038101906108d891906134d1565b611cff565b005b3480156108ea575f80fd5b506108f3611d78565b6040516109009190613514565b60405180910390f35b60605f6109385f357fffffffff0000000000000000000000000000000000000000000000000000000016611d7e565b5090505f73ffffffffffffffffffffffffffffffffffffffff168173ffffffffffffffffffffffffffffffffffffffff16036109ce575f357fffffffff00000000000000000000000000000000000000000000000000000000166040517fbb370b2b0000000000000000000000000000000000000000000000000000000081526004016109c591906146d9565b60405180910390fd5b5f808273ffffffffffffffffffffffffffffffffffffffff1634878733346040516020016109ff9493929190614785565b604051602081830303815290604052604051610a1b91906147ef565b5f6040518083038185875af1925050503d805f8114610a55576040519150601f19603f3d011682016040523d82523d5f602084013e610a5a565b606091505b50915091508115610a7057809350505050610a79565b80518060208301fd5b92915050565b6008602052805f5260405f205f915090505481565b5f633a27170660e01b7bffffffffffffffffffffffffffffffffffffffffffffffffffffffff1916827bffffffffffffffffffffffffffffffffffffffffffffffffffffffff19161480610aed5750610aec82611e34565b5b80610afd5750610afc82611e94565b5b9050919050565b6060610b108383611ef8565b905092915050565b5f600254905090565b60608151835114610b5e576040517f2fa71dfe00000000000000000000000000000000000000000000000000000000815260040160405180910390fd5b825167ffffffffffffffff811115610b7957610b786136df565b5b604051908082528060200260200182016040528015610bac57816020015b6060815260200190600190039081610b975790505b5090505f5b8351811015610c2157610bf8848281518110610bd057610bcf614805565b5b6020026020010151848381518110610beb57610bea614805565b5b6020026020010151611ef8565b828281518110610c0b57610c0a614805565b5b6020026020010181905250806001019050610bb1565b5092915050565b5f8060035f8481526020019081526020015f205f9054906101000a900473ffffffffffffffffffffffffffffffffffffffff1690505f73ffffffffffffffffffffffffffffffffffffffff168173ffffffffffffffffffffffffffffffffffffffff1603610ccd57826040517fae8f9a36000000000000000000000000000000000000000000000000000000008152600401610cc49190614841565b60405180910390fd5b80915050919050565b5f610ce18383611f0c565b905092915050565b5f8060095f8573ffffffffffffffffffffffffffffffffffffffff1673ffffffffffffffffffffffffffffffffffffffff1681526020019081526020015f20805480602002602001604051908101604052809291908181526020018280548015610da557602002820191905f5260205f20905b815f9054906101000a900473ffffffffffffffffffffffffffffffffffffffff1673ffffffffffffffffffffffffffffffffffffffff1681526020019060010190808311610d5c575b505050505090505f5b8151811015610e21578373ffffffffffffffffffffffffffffffffffffffff16828281518110610de157610de0614805565b5b602002602001015173ffffffffffffffffffffffffffffffffffffffff1603610e0e575f92505050610ec3565b8080610e1990614887565b915050610dae565b5060095f8573ffffffffffffffffffffffffffffffffffffffff1673ffffffffffffffffffffffffffffffffffffffff1681526020019081526020015f2083908060018154018082558091505060019003905f5260205f20015f9091909190916101000a81548173ffffffffffffffffffffffffffffffffffffffff021916908373ffffffffffffffffffffffffffffffffffffffff16021790555060019150505b92915050565b6060610ed482611f76565b610eed60055f8481526020019081526020015f20611fc3565b9050919050565b610efe3384611f0c565b610f415782336040517f1294d2a9000000000000000000000000000000000000000000000000000000008152600401610f389291906148ce565b60405180910390fd5b610f4e8585858585611fe2565b5050505050565b6060610f608261230c565b9050919050565b60608282905067ffffffffffffffff811115610f8657610f856136df565b5b604051908082528060200260200182016040528015610fb957816020015b6060815260200190600190039081610fa45790505b5090505f5b838390508110156110d6575f803073ffffffffffffffffffffffffffffffffffffffff16868685818110610ff557610ff4614805565b5b90506020028101906110079190614901565b604051611015929190614963565b5f60405180830381855af49150503d805f811461104d576040519150601f19603f3d011682016040523d82523d5f602084013e611052565b606091505b5091509150816110aa575f81511461106d5780518082602001fd5b826040517f234eb8190000000000000000000000000000000000000000000000000000000081526004016110a19190613514565b60405180910390fd5b808484815181106110be576110bd614805565b5b60200260200101819052508260010192505050610fbe565b5092915050565b5f61112360045f8473ffffffffffffffffffffffffffffffffffffffff1673ffffffffffffffffffffffffffffffffffffffff1681526020019081526020015f206123ad565b9050919050565b6111326123c0565b61113b5f612439565b565b5f85519050845181141580611153575083518114155b8061115f575082518114155b8061116b575081518114155b156111a2576040517f93a8311900000000000000000000000000000000000000000000000000000000815260040160405180910390fd5b5f5b818110156112465761123b8782815181106111c2576111c1614805565b5b60200260200101518783815181106111dd576111dc614805565b5b60200260200101518784815181106111f8576111f7614805565b5b602002602001015187858151811061121357611212614805565b5b602002602001015187868151811061122e5761122d614805565b5b6020026020010151610ef4565b8060010190506111a4565b50505050505050565b6112576123c0565b5f3414611290576040517ff36ba73700000000000000000000000000000000000000000000000000000000815260040160405180910390fd5b61129a828261252f565b5050565b5f6112a883610c28565b90503373ffffffffffffffffffffffffffffffffffffffff168173ffffffffffffffffffffffffffffffffffffffff161461131e578083336040517f5b271ea20000000000000000000000000000000000000000000000000000000081526004016113159392919061497b565b60405180910390fd5b5f73ffffffffffffffffffffffffffffffffffffffff168473ffffffffffffffffffffffffffffffffffffffff1603611383576040517f9577b8b300000000000000000000000000000000000000000000000000000000815260040160405180910390fd5b8373ffffffffffffffffffffffffffffffffffffffff168173ffffffffffffffffffffffffffffffffffffffff16036113e8576040517f89fdad6200000000000000000000000000000000000000000000000000000000815260040160405180910390fd5b5f61140c8560055f8781526020019081526020015f2061259890919063ffffffff16565b9050806114525784846040517fa7626b680000000000000000000000000000000000000000000000000000000081526004016114499291906149b0565b60405180910390fd5b838273ffffffffffffffffffffffffffffffffffffffff168673ffffffffffffffffffffffffffffffffffffffff167f1b1b58aa2ec0cec2228b2d37124556d41f5a1f7b12f089171f896cc236671215866040516114b091906136bb565b60405180910390a45f33856001866040516020016114d194939291906149d7565b60405160208183030381529060405290506114ec86826125c5565b505050505050565b5f805f9054906101000a900473ffffffffffffffffffffffffffffffffffffffff16905090565b6115236123c0565b5f341461155c576040517ff36ba73700000000000000000000000000000000000000000000000000000000815260040160405180910390fd5b8051825114611597576040517f3bcc897900000000000000000000000000000000000000000000000000000000815260040160405180910390fd5b5f8251036115d1576040517f97da5f9500000000000000000000000000000000000000000000000000000000815260040160405180910390fd5b5f5b82518110156116255761161a8382815181106115f2576115f1614805565b5b602002602001015183838151811061160d5761160c614805565b5b602002602001015161252f565b8060010190506115d3565b505050565b6009602052815f5260405f208181548110611643575f80fd5b905f5260205f20015f915091509054906101000a900473ffffffffffffffffffffffffffffffffffffffff1681565b60606116b960045f8473ffffffffffffffffffffffffffffffffffffffff1673ffffffffffffffffffffffffffffffffffffffff1681526020019081526020015f206125f6565b9050919050565b5f8060085f8473ffffffffffffffffffffffffffffffffffffffff1673ffffffffffffffffffffffffffffffffffffffff1681526020019081526020015f20540361170e576001905061176d565b6201518060085f8473ffffffffffffffffffffffffffffffffffffffff1673ffffffffffffffffffffffffffffffffffffffff1681526020019081526020015f205461175a9190614a21565b4210611769576001905061176d565b5f90505b919050565b61177a6123c0565b8060078190555050565b5f8061178f836110dd565b119050919050565b5f73__$58dfd55f33955099614ce920d5505ba750$__63b3b2981e898989898989896040518863ffffffff1660e01b81526004016117db9796959493929190614b1b565b602060405180830381865af41580156117f6573d5f803e3d5ffd5b505050506040513d601f19601f8201168201806040525081019061181a9190614bb1565b90505f8173ffffffffffffffffffffffffffffffffffffffff165f1b90506118533082600160405180602001604052805f815250612615565b4260085f8673ffffffffffffffffffffffffffffffffffffffff1673ffffffffffffffffffffffffffffffffffffffff1681526020019081526020015f208190555050979650505050505050565b6118a96123c0565b815183511415806118bc57508051825114155b156118f3576040517f2fa71dfe00000000000000000000000000000000000000000000000000000000815260040160405180910390fd5b5f83510361192d576040517f80c9830500000000000000000000000000000000000000000000000000000000815260040160405180910390fd5b5f5b835181101561199c5761199184828151811061194e5761194d614805565b5b602002602001015184838151811061196957611968614805565b5b602002602001015184848151811061198457611983614805565b5b6020026020010151612883565b80600101905061192f565b50505050565b606060095f8373ffffffffffffffffffffffffffffffffffffffff1673ffffffffffffffffffffffffffffffffffffffff1681526020019081526020015f20805480602002602001604051908101604052809291908181526020018280548015611a5e57602002820191905f5260205f20905b815f9054906101000a900473ffffffffffffffffffffffffffffffffffffffff1673ffffffffffffffffffffffffffffffffffffffff1681526020019060010190808311611a15575b50505050509050919050565b611a726123c0565b611a7d838383612883565b505050565b5f611a8c84610c28565b90508073ffffffffffffffffffffffffffffffffffffffff163373ffffffffffffffffffffffffffffffffffffffff1614611b36573373ffffffffffffffffffffffffffffffffffffffff168573ffffffffffffffffffffffffffffffffffffffff1614611b35573381856040517f760b5acd000000000000000000000000000000000000000000000000000000008152600401611b2c93929190614bdc565b60405180910390fd5b5b5f73ffffffffffffffffffffffffffffffffffffffff168573ffffffffffffffffffffffffffffffffffffffff1603611b9b576040517f9577b8b300000000000000000000000000000000000000000000000000000000815260040160405180910390fd5b8473ffffffffffffffffffffffffffffffffffffffff168173ffffffffffffffffffffffffffffffffffffffff1603611c00576040517f89fdad6200000000000000000000000000000000000000000000000000000000815260040160405180910390fd5b611c0d85828686866128cc565b8215611c48575f81855f85604051602001611c2b94939291906149d7565b6040516020818303038152906040529050611c4686826125c5565b505b5050505050565b6060815167ffffffffffffffff811115611c6c57611c6b6136df565b5b604051908082528060200260200182016040528015611c9f57816020015b6060815260200190600190039081611c8a5790505b5090505f5b8251811015611cf957611cd0838281518110611cc357611cc2614805565b5b602002602001015161230c565b828281518110611ce357611ce2614805565b5b6020026020010181905250806001019050611ca4565b50919050565b611d076123c0565b5f73ffffffffffffffffffffffffffffffffffffffff168173ffffffffffffffffffffffffffffffffffffffff1603611d6c576040517f1ad8836c00000000000000000000000000000000000000000000000000000000815260040160405180910390fd5b611d7581612439565b50565b60075481565b5f805f611db769cee78b4094da8601109660b01b857bffffffffffffffffffffffffffffffffffffffffffffffffffffffff19166129a6565b90505f611dc38261230c565b90506014815114158015611dd857505f815114155b15611e1a57806040517f42bfe79f000000000000000000000000000000000000000000000000000000008152600401611e1191906136bb565b60405180910390fd5b80611e2490614c6b565b60601c6001935093505050915091565b5f63a918fa6b60e01b7bffffffffffffffffffffffffffffffffffffffffffffffffffffffff1916827bffffffffffffffffffffffffffffffffffffffffffffffffffffffff19161480611e8d5750611e8c826129e4565b5b9050919050565b5f80611ea66301ffc9a760e01b611d7e565b5090505f73ffffffffffffffffffffffffffffffffffffffff168173ffffffffffffffffffffffffffffffffffffffff1603611ee5575f915050611ef3565b611eef8184612a44565b9150505b919050565b6060611f048383612add565b905092915050565b5f611f1682610c28565b73ffffffffffffffffffffffffffffffffffffffff168373ffffffffffffffffffffffffffffffffffffffff161480611f6e5750611f6d8360055f8581526020019081526020015f20612b6490919063ffffffff16565b5b905092915050565b611f7f81612b91565b611fc057806040517fae8f9a36000000000000000000000000000000000000000000000000000000008152600401611fb79190614841565b60405180910390fd5b50565b60605f611fd1835f01612bf9565b905060608190508092505050919050565b5f611fec84610c28565b90508573ffffffffffffffffffffffffffffffffffffffff168173ffffffffffffffffffffffffffffffffffffffff1614612062578084876040517f5b271ea20000000000000000000000000000000000000000000000000000000081526004016120599392919061497b565b60405180910390fd5b5f73ffffffffffffffffffffffffffffffffffffffff168573ffffffffffffffffffffffffffffffffffffffff16036120c7576040517f24ecef4d00000000000000000000000000000000000000000000000000000000815260040160405180910390fd5b6120d386868685612c52565b5f6120dd85610c28565b90508073ffffffffffffffffffffffffffffffffffffffff168273ffffffffffffffffffffffffffffffffffffffff1614612153578482826040517f5a9c31d300000000000000000000000000000000000000000000000000000000815260040161214a93929190614cd1565b60405180910390fd5b61215d8786612c58565b6121ac8560045f8a73ffffffffffffffffffffffffffffffffffffffff1673ffffffffffffffffffffffffffffffffffffffff1681526020019081526020015f20612cc690919063ffffffff16565b506121fc8560045f8973ffffffffffffffffffffffffffffffffffffffff1673ffffffffffffffffffffffffffffffffffffffff1681526020019081526020015f20612cdb90919063ffffffff16565b508560035f8781526020019081526020015f205f6101000a81548173ffffffffffffffffffffffffffffffffffffffff021916908373ffffffffffffffffffffffffffffffffffffffff160217905550848673ffffffffffffffffffffffffffffffffffffffff168873ffffffffffffffffffffffffffffffffffffffff167fb333c813a7426a7a11e2b190cad52c44119421594b47f6f32ace6d8c7207b2bf3388886040516122ae93929190614d06565b60405180910390a46122c287878786612cf0565b5f33888888876040516020016122dc959493929190614d42565b60405160208183030381529060405290506122f78882612cf6565b612302878683612d27565b5050505050505050565b606060015f8381526020019081526020015f20805461232a90614dc7565b80601f016020809104026020016040519081016040528092919081815260200182805461235690614dc7565b80156123a15780601f10612378576101008083540402835291602001916123a1565b820191905f5260205f20905b81548152906001019060200180831161238457829003601f168201915b50505050509050919050565b5f6123b9825f01612e86565b9050919050565b3373ffffffffffffffffffffffffffffffffffffffff166123df6114f4565b73ffffffffffffffffffffffffffffffffffffffff161461243757336040517fbf1169c500000000000000000000000000000000000000000000000000000000815260040161242e91906139ee565b60405180910390fd5b565b6124416114f4565b73ffffffffffffffffffffffffffffffffffffffff168173ffffffffffffffffffffffffffffffffffffffff161461252c578073ffffffffffffffffffffffffffffffffffffffff165f8054906101000a900473ffffffffffffffffffffffffffffffffffffffff1673ffffffffffffffffffffffffffffffffffffffff167f8be0079c531659141344cd1fd0a4f28419497f9722a3daafe3b4186f6b6457e060405160405180910390a3805f806101000a81548173ffffffffffffffffffffffffffffffffffffffff021916908373ffffffffffffffffffffffffffffffffffffffff1602179055505b50565b7ff675e9361af1c1664c1868cfa3eb97672d6b1a513aa5b81dec34c9ee330e818d5f1b820361258a576040517f3664800a00000000000000000000000000000000000000000000000000000000815260040160405180910390fd5b6125948282612e95565b5050565b5f6125bd835f018373ffffffffffffffffffffffffffffffffffffffff165f1b612ea3565b905092915050565b6125f2827f8a1c15a8799f71b547e08e2bcb2e85257e81b0a07eee2ce6712549eef1f009705f1b83612f0a565b5050565b60605f612604835f01612bf9565b905060608190508092505050919050565b5f73ffffffffffffffffffffffffffffffffffffffff168473ffffffffffffffffffffffffffffffffffffffff160361267a576040517f24ecef4d00000000000000000000000000000000000000000000000000000000815260040160405180910390fd5b61268383612b91565b156126c557826040517f34c7b5110000000000000000000000000000000000000000000000000000000081526004016126bc9190614841565b60405180910390fd5b6126d15f858584612c52565b6126da83612b91565b1561271c57826040517f34c7b5110000000000000000000000000000000000000000000000000000000081526004016127139190614841565b60405180910390fd5b60025f815461272a90614887565b919050819055506127808360045f8773ffffffffffffffffffffffffffffffffffffffff1673ffffffffffffffffffffffffffffffffffffffff1681526020019081526020015f20612cdb90919063ffffffff16565b508360035f8581526020019081526020015f205f6101000a81548173ffffffffffffffffffffffffffffffffffffffff021916908373ffffffffffffffffffffffffffffffffffffffff160217905550828473ffffffffffffffffffffffffffffffffffffffff165f73ffffffffffffffffffffffffffffffffffffffff167fb333c813a7426a7a11e2b190cad52c44119421594b47f6f32ace6d8c7207b2bf33868660405161283293929190614d06565b60405180910390a46128465f858584612cf0565b5f335f868685604051602001612860959493929190614d42565b604051602081830303815290604052905061287c858483612d27565b5050505050565b61288e838383612fc4565b81837fa6e4251f855f750545fe414f120db91c76b88def14d120969e5bb2d3f05debbb836040516128bf91906136bb565b60405180910390a3505050565b5f6128f08660055f8781526020019081526020015f2061303390919063ffffffff16565b9050806129365785846040517f4aa31a8c00000000000000000000000000000000000000000000000000000000815260040161292d9291906149b0565b60405180910390fd5b838573ffffffffffffffffffffffffffffffffffffffff168773ffffffffffffffffffffffffffffffffffffffff167fc78cd419d6136f9f1c1c6aec1d3fae098cffaf8bc86314a8f2685e32fe574e3c8686604051612996929190614df7565b60405180910390a4505050505050565b5f80835f60f01b846040516020016129c093929190614edb565b6040516020818303038152906040529050806129db90614f2b565b91505092915050565b5f63629aa69460e01b7bffffffffffffffffffffffffffffffffffffffffffffffffffffffff1916827bffffffffffffffffffffffffffffffffffffffffffffffffffffffff19161480612a3d5750612a3c82613060565b5b9050919050565b5f8082604051602401612a5791906146d9565b6040516020818303038152906040526301ffc9a760e01b6020820180517bffffffffffffffffffffffffffffffffffffffffffffffffffffffff838183161783525050505090505f805f60205f8551602087018a617530fa92503d91505f519050828015612ac6575060208210155b8015612ad157505f81115b94505050505092915050565b6060825f1c73ffffffffffffffffffffffffffffffffffffffff166354f6127f836040518263ffffffff1660e01b8152600401612b1a9190614841565b5f60405180830381865afa158015612b34573d5f803e3d5ffd5b505050506040513d5f823e3d601f19601f82011682018060405250810190612b5c9190614fff565b905092915050565b5f612b89835f018373ffffffffffffffffffffffffffffffffffffffff165f1b6130c9565b905092915050565b5f8073ffffffffffffffffffffffffffffffffffffffff1660035f8481526020019081526020015f205f9054906101000a900473ffffffffffffffffffffffffffffffffffffffff1673ffffffffffffffffffffffffffffffffffffffff1614159050919050565b6060815f01805480602002602001604051908101604052809291908181526020018280548015612c4657602002820191905f5260205f20905b815481526020019060010190808311612c32575b50505050509050919050565b50505050565b5f60055f8381526020019081526020015f2090505f612c76826130e9565b90505f805b82811015612cbe57612c965f856130fc90919063ffffffff16565b9150612cb38287875f60405180602001604052805f8152506128cc565b806001019050612c7b565b505050505050565b5f612cd3835f0183613113565b905092915050565b5f612ce8835f0183612ea3565b905092915050565b50505050565b612d23827fb23eae7e6d1564b295b4c3e3be402d9a2f0776c57bdf365903496f6fa481ab005f1b83612f0a565b5050565b612d3883636bb56a1460e01b612a44565b15612de3578273ffffffffffffffffffffffffffffffffffffffff16636bb56a147f0b084a55ebf70fd3c06fd755269dac2212c4d3f0f4d09079780bfa50c1b2984d5f1b836040518363ffffffff1660e01b8152600401612d9a929190615046565b5f604051808303815f875af1158015612db5573d5f803e3d5ffd5b505050506040513d5f823e3d601f19601f82011682018060405250810190612ddd9190614fff565b50612e81565b81612e80575f8373ffffffffffffffffffffffffffffffffffffffff163b14612e4357826040517f4349776d000000000000000000000000000000000000000000000000000000008152600401612e3a91906139ee565b60405180910390fd5b826040517f03173137000000000000000000000000000000000000000000000000000000008152600401612e7791906139ee565b60405180910390fd5b5b505050565b5f815f01805490509050919050565b612e9f828261320f565b5050565b5f612eae83836130c9565b612f0057825f0182908060018154018082558091505060019003905f5260205f20015f9091909190915055825f0180549050836001015f8481526020019081526020015f208190555060019050612f04565b5f90505b92915050565b612f3a636bb56a1460e01b8473ffffffffffffffffffffffffffffffffffffffff16612a4490919063ffffffff16565b15612fbf578273ffffffffffffffffffffffffffffffffffffffff16636bb56a1483836040518363ffffffff1660e01b8152600401612f7a929190615046565b5f604051808303815f875af1158015612f95573d5f803e3d5ffd5b505050506040513d5f823e3d601f19601f82011682018060405250810190612fbd9190614fff565b505b505050565b825f1c73ffffffffffffffffffffffffffffffffffffffff16637f23690c83836040518363ffffffff1660e01b8152600401613001929190615046565b5f604051808303815f87803b158015613018575f80fd5b505af115801561302a573d5f803e3d5ffd5b50505050505050565b5f613058835f018373ffffffffffffffffffffffffffffffffffffffff165f1b613113565b905092915050565b5f7f01ffc9a7000000000000000000000000000000000000000000000000000000007bffffffffffffffffffffffffffffffffffffffffffffffffffffffff1916827bffffffffffffffffffffffffffffffffffffffffffffffffffffffff1916149050919050565b5f80836001015f8481526020019081526020015f20541415905092915050565b5f6130f5825f01612e86565b9050919050565b5f613109835f018361337b565b5f1c905092915050565b5f80836001015f8481526020019081526020015f205490505f8114613204575f6001826131409190615074565b90505f6001865f01805490506131569190615074565b90508082146131bc575f865f01828154811061317557613174614805565b5b905f5260205f200154905080875f01848154811061319657613195614805565b5b905f5260205f20018190555083876001015f8381526020019081526020015f2081905550505b855f018054806131cf576131ce6150a7565b5b600190038181905f5260205f20015f90559055856001015f8681526020019081526020015f205f905560019350505050613209565b5f9150505b92915050565b7fdeba1e292f8ba88238e10ab3c7f88bd4be4fac56cad5194b6ecceaf653468af15f1b820361326a576040517f85c169bd00000000000000000000000000000000000000000000000000000000815260040160405180910390fd5b7f2f0a68ab07768e01943a599e73362a0e17a63a72e94dd2e384d2c1d4db9327565f1b82036132c5576040517f76755b3800000000000000000000000000000000000000000000000000000000815260040160405180910390fd5b7fe0261fa95db2eb3b5439bd033cda66d56b96f92f243a8228fd87550ed7bdfdb35f1b8203613320576040517f4ef6d7fb00000000000000000000000000000000000000000000000000000000815260040160405180910390fd5b8060015f8481526020019081526020015f20908161333e9190615265565b50817fece574603820d07bc9b91f2a932baadf4628aabcb8afba49776529c14a6104b28260405161336f91906136bb565b60405180910390a25050565b5f825f01828154811061339157613390614805565b5b905f5260205f200154905092915050565b5f82825260208201905092915050565b5f8082015250565b5f6133c66004836133a2565b91506133d1826133b2565b602082019050919050565b5f6020820190508181035f8301526133f3816133ba565b9050919050565b828183375f83830152505050565b5f601f19601f8301169050919050565b5f61342383856133a2565b93506134308385846133fa565b61343983613408565b840190509392505050565b5f6020820190508181035f83015261345d818486613418565b90509392505050565b5f604051905090565b5f80fd5b5f80fd5b5f73ffffffffffffffffffffffffffffffffffffffff82169050919050565b5f6134a082613477565b9050919050565b6134b081613496565b81146134ba575f80fd5b50565b5f813590506134cb816134a7565b92915050565b5f602082840312156134e6576134e561346f565b5b5f6134f3848285016134bd565b91505092915050565b5f819050919050565b61350e816134fc565b82525050565b5f6020820190506135275f830184613505565b92915050565b5f7fffffffff0000000000000000000000000000000000000000000000000000000082169050919050565b6135618161352d565b811461356b575f80fd5b50565b5f8135905061357c81613558565b92915050565b5f602082840312156135975761359661346f565b5b5f6135a48482850161356e565b91505092915050565b5f8115159050919050565b6135c1816135ad565b82525050565b5f6020820190506135da5f8301846135b8565b92915050565b5f819050919050565b6135f2816135e0565b81146135fc575f80fd5b50565b5f8135905061360d816135e9565b92915050565b5f80604083850312156136295761362861346f565b5b5f613636858286016135ff565b9250506020613647858286016135ff565b9150509250929050565b5f81519050919050565b5f5b8381101561367857808201518184015260208101905061365d565b5f8484015250505050565b5f61368d82613651565b61369781856133a2565b93506136a781856020860161365b565b6136b081613408565b840191505092915050565b5f6020820190508181035f8301526136d38184613683565b905092915050565b5f80fd5b7f4e487b71000000000000000000000000000000000000000000000000000000005f52604160045260245ffd5b61371582613408565b810181811067ffffffffffffffff82111715613734576137336136df565b5b80604052505050565b5f613746613466565b9050613752828261370c565b919050565b5f67ffffffffffffffff821115613771576137706136df565b5b602082029050602081019050919050565b5f80fd5b5f61379861379384613757565b61373d565b905080838252602082019050602084028301858111156137bb576137ba613782565b5b835b818110156137e457806137d088826135ff565b8452602084019350506020810190506137bd565b5050509392505050565b5f82601f830112613802576138016136db565b5b8135613812848260208601613786565b91505092915050565b5f80604083850312156138315761383061346f565b5b5f83013567ffffffffffffffff81111561384e5761384d613473565b5b61385a858286016137ee565b925050602083013567ffffffffffffffff81111561387b5761387a613473565b5b613887858286016137ee565b9150509250929050565b5f81519050919050565b5f82825260208201905092915050565b5f819050602082019050919050565b5f82825260208201905092915050565b5f6138d482613651565b6138de81856138ba565b93506138ee81856020860161365b565b6138f781613408565b840191505092915050565b5f61390d83836138ca565b905092915050565b5f602082019050919050565b5f61392b82613891565b613935818561389b565b935083602082028501613947856138ab565b805f5b8581101561398257848403895281516139638582613902565b945061396e83613915565b925060208a0199505060018101905061394a565b50829750879550505050505092915050565b5f6020820190508181035f8301526139ac8184613921565b905092915050565b5f602082840312156139c9576139c861346f565b5b5f6139d6848285016135ff565b91505092915050565b6139e881613496565b82525050565b5f602082019050613a015f8301846139df565b92915050565b5f8060408385031215613a1d57613a1c61346f565b5b5f613a2a858286016134bd565b9250506020613a3b858286016135ff565b9150509250929050565b5f8060408385031215613a5b57613a5a61346f565b5b5f613a68858286016134bd565b9250506020613a79858286016134bd565b9150509250929050565b5f81519050919050565b5f82825260208201905092915050565b5f819050602082019050919050565b613ab581613496565b82525050565b5f613ac68383613aac565b60208301905092915050565b5f602082019050919050565b5f613ae882613a83565b613af28185613a8d565b9350613afd83613a9d565b805f5b83811015613b2d578151613b148882613abb565b9750613b1f83613ad2565b925050600181019050613b00565b5085935050505092915050565b5f6020820190508181035f830152613b528184613ade565b905092915050565b613b63816135ad565b8114613b6d575f80fd5b50565b5f81359050613b7e81613b5a565b92915050565b5f80fd5b5f67ffffffffffffffff821115613ba257613ba16136df565b5b613bab82613408565b9050602081019050919050565b5f613bca613bc584613b88565b61373d565b905082815260208101848484011115613be657613be5613b84565b5b613bf18482856133fa565b509392505050565b5f82601f830112613c0d57613c0c6136db565b5b8135613c1d848260208601613bb8565b91505092915050565b5f805f805f60a08688031215613c3f57613c3e61346f565b5b5f613c4c888289016134bd565b9550506020613c5d888289016134bd565b9450506040613c6e888289016135ff565b9350506060613c7f88828901613b70565b925050608086013567ffffffffffffffff811115613ca057613c9f613473565b5b613cac88828901613bf9565b9150509295509295909350565b5f80fd5b5f8083601f840112613cd257613cd16136db565b5b8235905067ffffffffffffffff811115613cef57613cee613cb9565b5b602083019150836020820283011115613d0b57613d0a613782565b5b9250929050565b5f8060208385031215613d2857613d2761346f565b5b5f83013567ffffffffffffffff811115613d4557613d44613473565b5b613d5185828601613cbd565b92509250509250929050565b5f67ffffffffffffffff821115613d7757613d766136df565b5b602082029050602081019050919050565b5f613d9a613d9584613d5d565b61373d565b90508083825260208201905060208402830185811115613dbd57613dbc613782565b5b835b81811015613de65780613dd288826134bd565b845260208401935050602081019050613dbf565b5050509392505050565b5f82601f830112613e0457613e036136db565b5b8135613e14848260208601613d88565b91505092915050565b5f67ffffffffffffffff821115613e3757613e366136df565b5b602082029050602081019050919050565b5f613e5a613e5584613e1d565b61373d565b90508083825260208201905060208402830185811115613e7d57613e7c613782565b5b835b81811015613ea65780613e928882613b70565b845260208401935050602081019050613e7f565b5050509392505050565b5f82601f830112613ec457613ec36136db565b5b8135613ed4848260208601613e48565b91505092915050565b5f67ffffffffffffffff821115613ef757613ef66136df565b5b602082029050602081019050919050565b5f613f1a613f1584613edd565b61373d565b90508083825260208201905060208402830185811115613f3d57613f3c613782565b5b835b81811015613f8457803567ffffffffffffffff811115613f6257613f616136db565b5b808601613f6f8982613bf9565b85526020850194505050602081019050613f3f565b5050509392505050565b5f82601f830112613fa257613fa16136db565b5b8135613fb2848260208601613f08565b91505092915050565b5f805f805f60a08688031215613fd457613fd361346f565b5b5f86013567ffffffffffffffff811115613ff157613ff0613473565b5b613ffd88828901613df0565b955050602086013567ffffffffffffffff81111561401e5761401d613473565b5b61402a88828901613df0565b945050604086013567ffffffffffffffff81111561404b5761404a613473565b5b614057888289016137ee565b935050606086013567ffffffffffffffff81111561407857614077613473565b5b61408488828901613eb0565b925050608086013567ffffffffffffffff8111156140a5576140a4613473565b5b6140b188828901613f8e565b9150509295509295909350565b5f80604083850312156140d4576140d361346f565b5b5f6140e1858286016135ff565b925050602083013567ffffffffffffffff81111561410257614101613473565b5b61410e85828601613bf9565b9150509250929050565b5f805f6060848603121561412f5761412e61346f565b5b5f61413c868287016134bd565b935050602061414d868287016135ff565b925050604084013567ffffffffffffffff81111561416e5761416d613473565b5b61417a86828701613bf9565b9150509250925092565b5f806040838503121561419a5761419961346f565b5b5f83013567ffffffffffffffff8111156141b7576141b6613473565b5b6141c3858286016137ee565b925050602083013567ffffffffffffffff8111156141e4576141e3613473565b5b6141f085828601613f8e565b9150509250929050565b614203816134fc565b811461420d575f80fd5b50565b5f8135905061421e816141fa565b92915050565b5f806040838503121561423a5761423961346f565b5b5f614247858286016134bd565b925050602061425885828601614210565b9150509250929050565b5f81519050919050565b5f82825260208201905092915050565b5f819050602082019050919050565b614294816135e0565b82525050565b5f6142a5838361428b565b60208301905092915050565b5f602082019050919050565b5f6142c782614262565b6142d1818561426c565b93506142dc8361427c565b805f5b8381101561430c5781516142f3888261429a565b97506142fe836142b1565b9250506001810190506142df565b5085935050505092915050565b5f6020820190508181035f83015261433181846142bd565b905092915050565b5f6020828403121561434e5761434d61346f565b5b5f61435b84828501614210565b91505092915050565b5f67ffffffffffffffff82111561437e5761437d6136df565b5b61438782613408565b9050602081019050919050565b5f6143a66143a184614364565b61373d565b9050828152602081018484840111156143c2576143c1613b84565b5b6143cd8482856133fa565b509392505050565b5f82601f8301126143e9576143e86136db565b5b81356143f9848260208601614394565b91505092915050565b5f805f805f805f60e0888a03121561441d5761441c61346f565b5b5f88013567ffffffffffffffff81111561443a57614439613473565b5b6144468a828b016143d5565b975050602088013567ffffffffffffffff81111561446757614466613473565b5b6144738a828b016143d5565b96505060406144848a828b01614210565b95505060606144958a828b01613b70565b94505060806144a68a828b01614210565b93505060a06144b78a828b016134bd565b92505060c088013567ffffffffffffffff8111156144d8576144d7613473565b5b6144e48a828b01613bf9565b91505092959891949750929550565b5f805f6060848603121561450a5761450961346f565b5b5f84013567ffffffffffffffff81111561452757614526613473565b5b614533868287016137ee565b935050602084013567ffffffffffffffff81111561455457614553613473565b5b614560868287016137ee565b925050604084013567ffffffffffffffff81111561458157614580613473565b5b61458d86828701613f8e565b9150509250925092565b5f805f606084860312156145ae576145ad61346f565b5b5f6145bb868287016135ff565b93505060206145cc868287016135ff565b925050604084013567ffffffffffffffff8111156145ed576145ec613473565b5b6145f986828701613bf9565b9150509250925092565b5f805f806080858703121561461b5761461a61346f565b5b5f614628878288016134bd565b9450506020614639878288016135ff565b935050604061464a87828801613b70565b925050606085013567ffffffffffffffff81111561466b5761466a613473565b5b61467787828801613bf9565b91505092959194509250565b5f602082840312156146985761469761346f565b5b5f82013567ffffffffffffffff8111156146b5576146b4613473565b5b6146c1848285016137ee565b91505092915050565b6146d38161352d565b82525050565b5f6020820190506146ec5f8301846146ca565b92915050565b5f81905092915050565b5f61470783856146f2565b93506147148385846133fa565b82840190509392505050565b5f8160601b9050919050565b5f61473682614720565b9050919050565b5f6147478261472c565b9050919050565b61475f61475a82613496565b61473d565b82525050565b5f819050919050565b61477f61477a826134fc565b614765565b82525050565b5f6147918286886146fc565b915061479d828561474e565b6014820191506147ad828461476e565b60208201915081905095945050505050565b5f6147c982613651565b6147d381856146f2565b93506147e381856020860161365b565b80840191505092915050565b5f6147fa82846147bf565b915081905092915050565b7f4e487b71000000000000000000000000000000000000000000000000000000005f52603260045260245ffd5b61483b816135e0565b82525050565b5f6020820190506148545f830184614832565b92915050565b7f4e487b71000000000000000000000000000000000000000000000000000000005f52601160045260245ffd5b5f614891826134fc565b91507fffffffffffffffffffffffffffffffffffffffffffffffffffffffffffffffff82036148c3576148c261485a565b5b600182019050919050565b5f6040820190506148e15f830185614832565b6148ee60208301846139df565b9392505050565b5f80fd5b5f80fd5b5f80fd5b5f808335600160200384360303811261491d5761491c6148f5565b5b80840192508235915067ffffffffffffffff82111561493f5761493e6148f9565b5b60208301925060018202360383131561495b5761495a6148fd565b5b509250929050565b5f61496f8284866146fc565b91508190509392505050565b5f60608201905061498e5f8301866139df565b61499b6020830185614832565b6149a860408301846139df565b949350505050565b5f6040820190506149c35f8301856139df565b6149d06020830184614832565b9392505050565b5f6080820190506149ea5f8301876139df565b6149f76020830186614832565b614a0460408301856135b8565b8181036060830152614a168184613683565b905095945050505050565b5f614a2b826134fc565b9150614a36836134fc565b9250828201905080821115614a4e57614a4d61485a565b5b92915050565b5f81519050919050565b5f82825260208201905092915050565b5f614a7882614a54565b614a828185614a5e565b9350614a9281856020860161365b565b614a9b81613408565b840191505092915050565b614aaf816134fc565b82525050565b614abe816135ad565b82525050565b614acd81613496565b82525050565b5f82825260208201905092915050565b5f614aed82613651565b614af78185614ad3565b9350614b0781856020860161365b565b614b1081613408565b840191505092915050565b5f60e0820190508181035f830152614b33818a614a6e565b90508181036020830152614b478189614a6e565b9050614b566040830188614aa6565b614b636060830187614ab5565b614b706080830186614aa6565b614b7d60a0830185614ac4565b81810360c0830152614b8f8184614ae3565b905098975050505050505050565b5f81519050614bab816134a7565b92915050565b5f60208284031215614bc657614bc561346f565b5b5f614bd384828501614b9d565b91505092915050565b5f606082019050614bef5f8301866139df565b614bfc60208301856139df565b614c096040830184614832565b949350505050565b5f819050602082019050919050565b5f7fffffffffffffffffffffffffffffffffffffffff00000000000000000000000082169050919050565b5f614c568251614c20565b80915050919050565b5f82821b905092915050565b5f614c7582613651565b82614c7f84614c11565b9050614c8a81614c4b565b92506014821015614cca57614cc57fffffffffffffffffffffffffffffffffffffffff00000000000000000000000083601403600802614c5f565b831692505b5050919050565b5f606082019050614ce45f830186614832565b614cf160208301856139df565b614cfe60408301846139df565b949350505050565b5f606082019050614d195f8301866139df565b614d2660208301856135b8565b8181036040830152614d388184613683565b9050949350505050565b5f60a082019050614d555f8301886139df565b614d6260208301876139df565b614d6f60408301866139df565b614d7c6060830185614832565b8181036080830152614d8e8184613683565b90509695505050505050565b7f4e487b71000000000000000000000000000000000000000000000000000000005f52602260045260245ffd5b5f6002820490506001821680614dde57607f821691505b602082108103614df157614df0614d9a565b5b50919050565b5f604082019050614e0a5f8301856135b8565b8181036020830152614e1c8184613683565b90509392505050565b5f7fffffffffffffffffffff0000000000000000000000000000000000000000000082169050919050565b5f819050919050565b614e6a614e6582614e25565b614e50565b82525050565b5f7fffff00000000000000000000000000000000000000000000000000000000000082169050919050565b5f819050919050565b614eb5614eb082614e70565b614e9b565b82525050565b5f819050919050565b614ed5614ed082614c20565b614ebb565b82525050565b5f614ee68286614e59565b600a82019150614ef68285614ea4565b600282019150614f068284614ec4565b601482019150819050949350505050565b5f614f2282516135e0565b80915050919050565b5f614f3582613651565b82614f3f84614c11565b9050614f4a81614f17565b92506020821015614f8a57614f857fffffffffffffffffffffffffffffffffffffffffffffffffffffffffffffffff83602003600802614c5f565b831692505b5050919050565b5f614fa3614f9e84613b88565b61373d565b905082815260208101848484011115614fbf57614fbe613b84565b5b614fca84828561365b565b509392505050565b5f82601f830112614fe657614fe56136db565b5b8151614ff6848260208601614f91565b91505092915050565b5f602082840312156150145761501361346f565b5b5f82015167ffffffffffffffff81111561503157615030613473565b5b61503d84828501614fd2565b91505092915050565b5f6040820190506150595f830185614832565b818103602083015261506b8184613683565b90509392505050565b5f61507e826134fc565b9150615089836134fc565b92508282039050818111156150a1576150a061485a565b5b92915050565b7f4e487b71000000000000000000000000000000000000000000000000000000005f52603160045260245ffd5b5f819050815f5260205f209050919050565b5f6020601f8301049050919050565b5f600883026151247fffffffffffffffffffffffffffffffffffffffffffffffffffffffffffffffff82614c5f565b61512e8683614c5f565b95508019841693508086168417925050509392505050565b5f819050919050565b5f61516961516461515f846134fc565b615146565b6134fc565b9050919050565b5f819050919050565b6151828361514f565b61519661518e82615170565b8484546150f5565b825550505050565b5f90565b6151aa61519e565b6151b5818484615179565b505050565b5b818110156151d8576151cd5f826151a2565b6001810190506151bb565b5050565b601f82111561521d576151ee816150d4565b6151f7846150e6565b81016020851015615206578190505b61521a615212856150e6565b8301826151ba565b50505b505050565b5f82821c905092915050565b5f61523d5f1984600802615222565b1980831691505092915050565b5f615255838361522e565b9150826002028217905092915050565b61526e82613651565b67ffffffffffffffff811115615287576152866136df565b5b6152918254614dc7565b61529c8282856151dc565b5f60209050601f8311600181146152cd575f84156152bb578287015190505b6152c5858261524a565b86555061532c565b601f1984166152db866150d4565b5f5b82811015615302578489015182556001820191506020850194506020810190506152dd565b8683101561531f578489015161531b601f89168261522e565b8355505b6001600288020188555050505b50505050505056fea264697066735822122045a4ac02c930ed38641f99457318f76735e292a6afb766377b49f32cf889171e64736f6c63430008140033",
			"opcodes": "PUSH1 0x80 PUSH1 0x40 MSTORE CALLVALUE DUP1 ISZERO PUSH3 0x10 JUMPI PUSH0 DUP1 REVERT JUMPDEST POP PUSH1 0x40 MLOAD PUSH3 0x60F0 CODESIZE SUB DUP1 PUSH3 0x60F0 DUP4 CODECOPY DUP2 DUP2 ADD PUSH1 0x40 MSTORE DUP2 ADD SWAP1 PUSH3 0x36 SWAP2 SWAP1 PUSH3 0x8D3 JUMP JUMPDEST DUP6 DUP6 DUP6 DUP6 PUSH1 0x2 DUP5 DUP5 DUP5 DUP5 DUP2 PUSH0 PUSH20 0xFFFFFFFFFFFFFFFFFFFFFFFFFFFFFFFFFFFFFFFF AND DUP2 PUSH20 0xFFFFFFFFFFFFFFFFFFFFFFFFFFFFFFFFFFFFFFFF AND SUB PUSH3 0xA7 JUMPI PUSH1 0x40 MLOAD PUSH32 0x1AD8836C00000000000000000000000000000000000000000000000000000000 DUP2 MSTORE PUSH1 0x4 ADD PUSH1 0x40 MLOAD DUP1 SWAP2 SUB SWAP1 REVERT JUMPDEST PUSH3 0xB8 DUP2 PUSH3 0x284 PUSH1 0x20 SHL PUSH1 0x20 SHR JUMP JUMPDEST POP PUSH3 0x122 PUSH32 0xEAFEC4D89FA9619884B60000A4D96624A38F7AC2D8D9A604ECF07C12C77E480C PUSH0 SHL PUSH1 0x40 MLOAD DUP1 PUSH1 0x40 ADD PUSH1 0x40 MSTORE DUP1 PUSH1 0x4 DUP2 MSTORE PUSH1 0x20 ADD PUSH32 0xA4D9662400000000000000000000000000000000000000000000000000000000 DUP2 MSTORE POP PUSH3 0x383 PUSH1 0x20 SHL PUSH1 0x20 SHR JUMP JUMPDEST PUSH3 0x156 PUSH32 0xDEBA1E292F8BA88238E10AB3C7F88BD4BE4FAC56CAD5194B6ECCEAF653468AF1 PUSH0 SHL DUP6 PUSH3 0x383 PUSH1 0x20 SHL PUSH1 0x20 SHR JUMP JUMPDEST PUSH3 0x18A PUSH32 0x2F0A68AB07768E01943A599E73362A0E17A63A72E94DD2E384D2C1D4DB932756 PUSH0 SHL DUP5 PUSH3 0x383 PUSH1 0x20 SHL PUSH1 0x20 SHR JUMP JUMPDEST PUSH3 0x1DF PUSH32 0xE0261FA95DB2EB3B5439BD033CDA66D56B96F92F243A8228FD87550ED7BDFDB3 PUSH0 SHL DUP3 PUSH1 0x40 MLOAD PUSH1 0x20 ADD PUSH3 0x1C4 SWAP2 SWAP1 PUSH3 0x9D9 JUMP JUMPDEST PUSH1 0x40 MLOAD PUSH1 0x20 DUP2 DUP4 SUB SUB DUP2 MSTORE SWAP1 PUSH1 0x40 MSTORE PUSH3 0x383 PUSH1 0x20 SHL PUSH1 0x20 SHR JUMP JUMPDEST POP POP POP POP PUSH3 0x238 PUSH32 0xF675E9361AF1C1664C1868CFA3EB97672D6B1A513AA5B81DEC34C9EE330E818D PUSH0 SHL DUP3 PUSH1 0x40 MLOAD PUSH1 0x20 ADD PUSH3 0x21D SWAP2 SWAP1 PUSH3 0x9D9 JUMP JUMPDEST PUSH1 0x40 MLOAD PUSH1 0x20 DUP2 DUP4 SUB SUB DUP2 MSTORE SWAP1 PUSH1 0x40 MSTORE PUSH3 0x3E2 PUSH1 0x20 SHL PUSH1 0x20 SHR JUMP JUMPDEST POP POP POP POP POP PUSH3 0x271 PUSH32 0x9AFB95CACC9F95858EC44AA8C3B685511002E30AE54415823F406128B85B238E PUSH0 SHL DUP4 PUSH3 0x3F8 PUSH1 0x20 SHL PUSH1 0x20 SHR JUMP JUMPDEST DUP1 PUSH1 0x7 DUP2 SWAP1 SSTORE POP POP POP POP POP POP POP PUSH3 0xD78 JUMP JUMPDEST PUSH3 0x294 PUSH3 0x46A PUSH1 0x20 SHL PUSH1 0x20 SHR JUMP JUMPDEST PUSH20 0xFFFFFFFFFFFFFFFFFFFFFFFFFFFFFFFFFFFFFFFF AND DUP2 PUSH20 0xFFFFFFFFFFFFFFFFFFFFFFFFFFFFFFFFFFFFFFFF AND EQ PUSH3 0x380 JUMPI DUP1 PUSH20 0xFFFFFFFFFFFFFFFFFFFFFFFFFFFFFFFFFFFFFFFF AND PUSH0 DUP1 SLOAD SWAP1 PUSH2 0x100 EXP SWAP1 DIV PUSH20 0xFFFFFFFFFFFFFFFFFFFFFFFFFFFFFFFFFFFFFFFF AND PUSH20 0xFFFFFFFFFFFFFFFFFFFFFFFFFFFFFFFFFFFFFFFF AND PUSH32 0x8BE0079C531659141344CD1FD0A4F28419497F9722A3DAAFE3B4186F6B6457E0 PUSH1 0x40 MLOAD PUSH1 0x40 MLOAD DUP1 SWAP2 SUB SWAP1 LOG3 DUP1 PUSH0 DUP1 PUSH2 0x100 EXP DUP2 SLOAD DUP2 PUSH20 0xFFFFFFFFFFFFFFFFFFFFFFFFFFFFFFFFFFFFFFFF MUL NOT AND SWAP1 DUP4 PUSH20 0xFFFFFFFFFFFFFFFFFFFFFFFFFFFFFFFFFFFFFFFF AND MUL OR SWAP1 SSTORE POP JUMPDEST POP JUMP JUMPDEST DUP1 PUSH1 0x1 PUSH0 DUP5 DUP2 MSTORE PUSH1 0x20 ADD SWAP1 DUP2 MSTORE PUSH1 0x20 ADD PUSH0 KECCAK256 SWAP1 DUP2 PUSH3 0x3A3 SWAP2 SWAP1 PUSH3 0xC22 JUMP JUMPDEST POP DUP2 PUSH32 0xECE574603820D07BC9B91F2A932BAADF4628AABCB8AFBA49776529C14A6104B2 DUP3 PUSH1 0x40 MLOAD PUSH3 0x3D6 SWAP2 SWAP1 PUSH3 0xD56 JUMP JUMPDEST PUSH1 0x40 MLOAD DUP1 SWAP2 SUB SWAP1 LOG2 POP POP JUMP JUMPDEST PUSH3 0x3F4 DUP3 DUP3 PUSH3 0x491 PUSH1 0x20 SHL PUSH1 0x20 SHR JUMP JUMPDEST POP POP JUMP JUMPDEST PUSH32 0xF675E9361AF1C1664C1868CFA3EB97672D6B1A513AA5B81DEC34C9EE330E818D PUSH0 SHL DUP3 SUB PUSH3 0x454 JUMPI PUSH1 0x40 MLOAD PUSH32 0x3664800A00000000000000000000000000000000000000000000000000000000 DUP2 MSTORE PUSH1 0x4 ADD PUSH1 0x40 MLOAD DUP1 SWAP2 SUB SWAP1 REVERT JUMPDEST PUSH3 0x466 DUP3 DUP3 PUSH3 0x3E2 PUSH1 0x20 SHL PUSH1 0x20 SHR JUMP JUMPDEST POP POP JUMP JUMPDEST PUSH0 DUP1 PUSH0 SWAP1 SLOAD SWAP1 PUSH2 0x100 EXP SWAP1 DIV PUSH20 0xFFFFFFFFFFFFFFFFFFFFFFFFFFFFFFFFFFFFFFFF AND SWAP1 POP SWAP1 JUMP JUMPDEST PUSH32 0xDEBA1E292F8BA88238E10AB3C7F88BD4BE4FAC56CAD5194B6ECCEAF653468AF1 PUSH0 SHL DUP3 SUB PUSH3 0x4ED JUMPI PUSH1 0x40 MLOAD PUSH32 0x85C169BD00000000000000000000000000000000000000000000000000000000 DUP2 MSTORE PUSH1 0x4 ADD PUSH1 0x40 MLOAD DUP1 SWAP2 SUB SWAP1 REVERT JUMPDEST PUSH32 0x2F0A68AB07768E01943A599E73362A0E17A63A72E94DD2E384D2C1D4DB932756 PUSH0 SHL DUP3 SUB PUSH3 0x549 JUMPI PUSH1 0x40 MLOAD PUSH32 0x76755B3800000000000000000000000000000000000000000000000000000000 DUP2 MSTORE PUSH1 0x4 ADD PUSH1 0x40 MLOAD DUP1 SWAP2 SUB SWAP1 REVERT JUMPDEST PUSH32 0xE0261FA95DB2EB3B5439BD033CDA66D56B96F92F243A8228FD87550ED7BDFDB3 PUSH0 SHL DUP3 SUB PUSH3 0x5A5 JUMPI PUSH1 0x40 MLOAD PUSH32 0x4EF6D7FB00000000000000000000000000000000000000000000000000000000 DUP2 MSTORE PUSH1 0x4 ADD PUSH1 0x40 MLOAD DUP1 SWAP2 SUB SWAP1 REVERT JUMPDEST DUP1 PUSH1 0x1 PUSH0 DUP5 DUP2 MSTORE PUSH1 0x20 ADD SWAP1 DUP2 MSTORE PUSH1 0x20 ADD PUSH0 KECCAK256 SWAP1 DUP2 PUSH3 0x5C5 SWAP2 SWAP1 PUSH3 0xC22 JUMP JUMPDEST POP DUP2 PUSH32 0xECE574603820D07BC9B91F2A932BAADF4628AABCB8AFBA49776529C14A6104B2 DUP3 PUSH1 0x40 MLOAD PUSH3 0x5F8 SWAP2 SWAP1 PUSH3 0xD56 JUMP JUMPDEST PUSH1 0x40 MLOAD DUP1 SWAP2 SUB SWAP1 LOG2 POP POP JUMP JUMPDEST PUSH0 PUSH1 0x40 MLOAD SWAP1 POP SWAP1 JUMP JUMPDEST PUSH0 DUP1 REVERT JUMPDEST PUSH0 DUP1 REVERT JUMPDEST PUSH0 DUP1 REVERT JUMPDEST PUSH0 DUP1 REVERT JUMPDEST PUSH0 PUSH1 0x1F NOT PUSH1 0x1F DUP4 ADD AND SWAP1 POP SWAP2 SWAP1 POP JUMP JUMPDEST PUSH32 0x4E487B7100000000000000000000000000000000000000000000000000000000 PUSH0 MSTORE PUSH1 0x41 PUSH1 0x4 MSTORE PUSH1 0x24 PUSH0 REVERT JUMPDEST PUSH3 0x665 DUP3 PUSH3 0x61D JUMP JUMPDEST DUP2 ADD DUP2 DUP2 LT PUSH8 0xFFFFFFFFFFFFFFFF DUP3 GT OR ISZERO PUSH3 0x687 JUMPI PUSH3 0x686 PUSH3 0x62D JUMP JUMPDEST JUMPDEST DUP1 PUSH1 0x40 MSTORE POP POP POP JUMP JUMPDEST PUSH0 PUSH3 0x69B PUSH3 0x604 JUMP JUMPDEST SWAP1 POP PUSH3 0x6A9 DUP3 DUP3 PUSH3 0x65A JUMP JUMPDEST SWAP2 SWAP1 POP JUMP JUMPDEST PUSH0 PUSH8 0xFFFFFFFFFFFFFFFF DUP3 GT ISZERO PUSH3 0x6CB JUMPI PUSH3 0x6CA PUSH3 0x62D JUMP JUMPDEST JUMPDEST PUSH3 0x6D6 DUP3 PUSH3 0x61D JUMP JUMPDEST SWAP1 POP PUSH1 0x20 DUP2 ADD SWAP1 POP SWAP2 SWAP1 POP JUMP JUMPDEST PUSH0 JUMPDEST DUP4 DUP2 LT ISZERO PUSH3 0x702 JUMPI DUP1 DUP3 ADD MLOAD DUP2 DUP5 ADD MSTORE PUSH1 0x20 DUP2 ADD SWAP1 POP PUSH3 0x6E5 JUMP JUMPDEST PUSH0 DUP5 DUP5 ADD MSTORE POP POP POP POP JUMP JUMPDEST PUSH0 PUSH3 0x723 PUSH3 0x71D DUP5 PUSH3 0x6AE JUMP JUMPDEST PUSH3 0x690 JUMP JUMPDEST SWAP1 POP DUP3 DUP2 MSTORE PUSH1 0x20 DUP2 ADD DUP5 DUP5 DUP5 ADD GT ISZERO PUSH3 0x742 JUMPI PUSH3 0x741 PUSH3 0x619 JUMP JUMPDEST JUMPDEST PUSH3 0x74F DUP5 DUP3 DUP6 PUSH3 0x6E3 JUMP JUMPDEST POP SWAP4 SWAP3 POP POP POP JUMP JUMPDEST PUSH0 DUP3 PUSH1 0x1F DUP4 ADD SLT PUSH3 0x76E JUMPI PUSH3 0x76D PUSH3 0x615 JUMP JUMPDEST JUMPDEST DUP2 MLOAD PUSH3 0x780 DUP5 DUP3 PUSH1 0x20 DUP7 ADD PUSH3 0x70D JUMP JUMPDEST SWAP2 POP POP SWAP3 SWAP2 POP POP JUMP JUMPDEST PUSH0 PUSH20 0xFFFFFFFFFFFFFFFFFFFFFFFFFFFFFFFFFFFFFFFF DUP3 AND SWAP1 POP SWAP2 SWAP1 POP JUMP JUMPDEST PUSH0 PUSH3 0x7B4 DUP3 PUSH3 0x789 JUMP JUMPDEST SWAP1 POP SWAP2 SWAP1 POP JUMP JUMPDEST PUSH3 0x7C6 DUP2 PUSH3 0x7A8 JUMP JUMPDEST DUP2 EQ PUSH3 0x7D1 JUMPI PUSH0 DUP1 REVERT JUMPDEST POP JUMP JUMPDEST PUSH0 DUP2 MLOAD SWAP1 POP PUSH3 0x7E4 DUP2 PUSH3 0x7BB JUMP JUMPDEST SWAP3 SWAP2 POP POP JUMP JUMPDEST PUSH0 DUP2 SWAP1 POP SWAP2 SWAP1 POP JUMP JUMPDEST PUSH3 0x7FE DUP2 PUSH3 0x7EA JUMP JUMPDEST DUP2 EQ PUSH3 0x809 JUMPI PUSH0 DUP1 REVERT JUMPDEST POP JUMP JUMPDEST PUSH0 DUP2 MLOAD SWAP1 POP PUSH3 0x81C DUP2 PUSH3 0x7F3 JUMP JUMPDEST SWAP3 SWAP2 POP POP JUMP JUMPDEST PUSH0 PUSH8 0xFFFFFFFFFFFFFFFF DUP3 GT ISZERO PUSH3 0x83F JUMPI PUSH3 0x83E PUSH3 0x62D JUMP JUMPDEST JUMPDEST PUSH3 0x84A DUP3 PUSH3 0x61D JUMP JUMPDEST SWAP1 POP PUSH1 0x20 DUP2 ADD SWAP1 POP SWAP2 SWAP1 POP JUMP JUMPDEST PUSH0 PUSH3 0x86D PUSH3 0x867 DUP5 PUSH3 0x822 JUMP JUMPDEST PUSH3 0x690 JUMP JUMPDEST SWAP1 POP DUP3 DUP2 MSTORE PUSH1 0x20 DUP2 ADD DUP5 DUP5 DUP5 ADD GT ISZERO PUSH3 0x88C JUMPI PUSH3 0x88B PUSH3 0x619 JUMP JUMPDEST JUMPDEST PUSH3 0x899 DUP5 DUP3 DUP6 PUSH3 0x6E3 JUMP JUMPDEST POP SWAP4 SWAP3 POP POP POP JUMP JUMPDEST PUSH0 DUP3 PUSH1 0x1F DUP4 ADD SLT PUSH3 0x8B8 JUMPI PUSH3 0x8B7 PUSH3 0x615 JUMP JUMPDEST JUMPDEST DUP2 MLOAD PUSH3 0x8CA DUP5 DUP3 PUSH1 0x20 DUP7 ADD PUSH3 0x857 JUMP JUMPDEST SWAP2 POP POP SWAP3 SWAP2 POP POP JUMP JUMPDEST PUSH0 DUP1 PUSH0 DUP1 PUSH0 DUP1 PUSH1 0xC0 DUP8 DUP10 SUB SLT ISZERO PUSH3 0x8F0 JUMPI PUSH3 0x8EF PUSH3 0x60D JUMP JUMPDEST JUMPDEST PUSH0 DUP8 ADD MLOAD PUSH8 0xFFFFFFFFFFFFFFFF DUP2 GT ISZERO PUSH3 0x910 JUMPI PUSH3 0x90F PUSH3 0x611 JUMP JUMPDEST JUMPDEST PUSH3 0x91E DUP10 DUP3 DUP11 ADD PUSH3 0x757 JUMP JUMPDEST SWAP7 POP POP PUSH1 0x20 DUP8 ADD MLOAD PUSH8 0xFFFFFFFFFFFFFFFF DUP2 GT ISZERO PUSH3 0x942 JUMPI PUSH3 0x941 PUSH3 0x611 JUMP JUMPDEST JUMPDEST PUSH3 0x950 DUP10 DUP3 DUP11 ADD PUSH3 0x757 JUMP JUMPDEST SWAP6 POP POP PUSH1 0x40 PUSH3 0x963 DUP10 DUP3 DUP11 ADD PUSH3 0x7D4 JUMP JUMPDEST SWAP5 POP POP PUSH1 0x60 PUSH3 0x976 DUP10 DUP3 DUP11 ADD PUSH3 0x80C JUMP JUMPDEST SWAP4 POP POP PUSH1 0x80 DUP8 ADD MLOAD PUSH8 0xFFFFFFFFFFFFFFFF DUP2 GT ISZERO PUSH3 0x99A JUMPI PUSH3 0x999 PUSH3 0x611 JUMP JUMPDEST JUMPDEST PUSH3 0x9A8 DUP10 DUP3 DUP11 ADD PUSH3 0x8A1 JUMP JUMPDEST SWAP3 POP POP PUSH1 0xA0 PUSH3 0x9BB DUP10 DUP3 DUP11 ADD PUSH3 0x80C JUMP JUMPDEST SWAP2 POP POP SWAP3 SWAP6 POP SWAP3 SWAP6 POP SWAP3 SWAP6 JUMP JUMPDEST PUSH3 0x9D3 DUP2 PUSH3 0x7EA JUMP JUMPDEST DUP3 MSTORE POP POP JUMP JUMPDEST PUSH0 PUSH1 0x20 DUP3 ADD SWAP1 POP PUSH3 0x9EE PUSH0 DUP4 ADD DUP5 PUSH3 0x9C8 JUMP JUMPDEST SWAP3 SWAP2 POP POP JUMP JUMPDEST PUSH0 DUP2 MLOAD SWAP1 POP SWAP2 SWAP1 POP JUMP JUMPDEST PUSH32 0x4E487B7100000000000000000000000000000000000000000000000000000000 PUSH0 MSTORE PUSH1 0x22 PUSH1 0x4 MSTORE PUSH1 0x24 PUSH0 REVERT JUMPDEST PUSH0 PUSH1 0x2 DUP3 DIV SWAP1 POP PUSH1 0x1 DUP3 AND DUP1 PUSH3 0xA43 JUMPI PUSH1 0x7F DUP3 AND SWAP2 POP JUMPDEST PUSH1 0x20 DUP3 LT DUP2 SUB PUSH3 0xA59 JUMPI PUSH3 0xA58 PUSH3 0x9FE JUMP JUMPDEST JUMPDEST POP SWAP2 SWAP1 POP JUMP JUMPDEST PUSH0 DUP2 SWAP1 POP DUP2 PUSH0 MSTORE PUSH1 0x20 PUSH0 KECCAK256 SWAP1 POP SWAP2 SWAP1 POP JUMP JUMPDEST PUSH0 PUSH1 0x20 PUSH1 0x1F DUP4 ADD DIV SWAP1 POP SWAP2 SWAP1 POP JUMP JUMPDEST PUSH0 DUP3 DUP3 SHL SWAP1 POP SWAP3 SWAP2 POP POP JUMP JUMPDEST PUSH0 PUSH1 0x8 DUP4 MUL PUSH3 0xABD PUSH32 0xFFFFFFFFFFFFFFFFFFFFFFFFFFFFFFFFFFFFFFFFFFFFFFFFFFFFFFFFFFFFFFFF DUP3 PUSH3 0xA80 JUMP JUMPDEST PUSH3 0xAC9 DUP7 DUP4 PUSH3 0xA80 JUMP JUMPDEST SWAP6 POP DUP1 NOT DUP5 AND SWAP4 POP DUP1 DUP7 AND DUP5 OR SWAP3 POP POP POP SWAP4 SWAP3 POP POP POP JUMP JUMPDEST PUSH0 DUP2 SWAP1 POP SWAP2 SWAP1 POP JUMP JUMPDEST PUSH0 PUSH3 0xB0A PUSH3 0xB04 PUSH3 0xAFE DUP5 PUSH3 0x7EA JUMP JUMPDEST PUSH3 0xAE1 JUMP JUMPDEST PUSH3 0x7EA JUMP JUMPDEST SWAP1 POP SWAP2 SWAP1 POP JUMP JUMPDEST PUSH0 DUP2 SWAP1 POP SWAP2 SWAP1 POP JUMP JUMPDEST PUSH3 0xB25 DUP4 PUSH3 0xAEA JUMP JUMPDEST PUSH3 0xB3D PUSH3 0xB34 DUP3 PUSH3 0xB11 JUMP JUMPDEST DUP5 DUP5 SLOAD PUSH3 0xA8C JUMP JUMPDEST DUP3 SSTORE POP POP POP POP JUMP JUMPDEST PUSH0 SWAP1 JUMP JUMPDEST PUSH3 0xB53 PUSH3 0xB45 JUMP JUMPDEST PUSH3 0xB60 DUP2 DUP5 DUP5 PUSH3 0xB1A JUMP JUMPDEST POP POP POP JUMP JUMPDEST JUMPDEST DUP2 DUP2 LT ISZERO PUSH3 0xB87 JUMPI PUSH3 0xB7B PUSH0 DUP3 PUSH3 0xB49 JUMP JUMPDEST PUSH1 0x1 DUP2 ADD SWAP1 POP PUSH3 0xB66 JUMP JUMPDEST POP POP JUMP JUMPDEST PUSH1 0x1F DUP3 GT ISZERO PUSH3 0xBD6 JUMPI PUSH3 0xBA0 DUP2 PUSH3 0xA5F JUMP JUMPDEST PUSH3 0xBAB DUP5 PUSH3 0xA71 JUMP JUMPDEST DUP2 ADD PUSH1 0x20 DUP6 LT ISZERO PUSH3 0xBBB JUMPI DUP2 SWAP1 POP JUMPDEST PUSH3 0xBD3 PUSH3 0xBCA DUP6 PUSH3 0xA71 JUMP JUMPDEST DUP4 ADD DUP3 PUSH3 0xB65 JUMP JUMPDEST POP POP JUMPDEST POP POP POP JUMP JUMPDEST PUSH0 DUP3 DUP3 SHR SWAP1 POP SWAP3 SWAP2 POP POP JUMP JUMPDEST PUSH0 PUSH3 0xBF8 PUSH0 NOT DUP5 PUSH1 0x8 MUL PUSH3 0xBDB JUMP JUMPDEST NOT DUP1 DUP4 AND SWAP2 POP POP SWAP3 SWAP2 POP POP JUMP JUMPDEST PUSH0 PUSH3 0xC12 DUP4 DUP4 PUSH3 0xBE7 JUMP JUMPDEST SWAP2 POP DUP3 PUSH1 0x2 MUL DUP3 OR SWAP1 POP SWAP3 SWAP2 POP POP JUMP JUMPDEST PUSH3 0xC2D DUP3 PUSH3 0x9F4 JUMP JUMPDEST PUSH8 0xFFFFFFFFFFFFFFFF DUP2 GT ISZERO PUSH3 0xC49 JUMPI PUSH3 0xC48 PUSH3 0x62D JUMP JUMPDEST JUMPDEST PUSH3 0xC55 DUP3 SLOAD PUSH3 0xA2B JUMP JUMPDEST PUSH3 0xC62 DUP3 DUP3 DUP6 PUSH3 0xB8B JUMP JUMPDEST PUSH0 PUSH1 0x20 SWAP1 POP PUSH1 0x1F DUP4 GT PUSH1 0x1 DUP2 EQ PUSH3 0xC98 JUMPI PUSH0 DUP5 ISZERO PUSH3 0xC83 JUMPI DUP3 DUP8 ADD MLOAD SWAP1 POP JUMPDEST PUSH3 0xC8F DUP6 DUP3 PUSH3 0xC05 JUMP JUMPDEST DUP7 SSTORE POP PUSH3 0xCFE JUMP JUMPDEST PUSH1 0x1F NOT DUP5 AND PUSH3 0xCA8 DUP7 PUSH3 0xA5F JUMP JUMPDEST PUSH0 JUMPDEST DUP3 DUP2 LT ISZERO PUSH3 0xCD1 JUMPI DUP5 DUP10 ADD MLOAD DUP3 SSTORE PUSH1 0x1 DUP3 ADD SWAP2 POP PUSH1 0x20 DUP6 ADD SWAP5 POP PUSH1 0x20 DUP2 ADD SWAP1 POP PUSH3 0xCAA JUMP JUMPDEST DUP7 DUP4 LT ISZERO PUSH3 0xCF1 JUMPI DUP5 DUP10 ADD MLOAD PUSH3 0xCED PUSH1 0x1F DUP10 AND DUP3 PUSH3 0xBE7 JUMP JUMPDEST DUP4 SSTORE POP JUMPDEST PUSH1 0x1 PUSH1 0x2 DUP9 MUL ADD DUP9 SSTORE POP POP POP JUMPDEST POP POP POP POP POP POP JUMP JUMPDEST PUSH0 DUP3 DUP3 MSTORE PUSH1 0x20 DUP3 ADD SWAP1 POP SWAP3 SWAP2 POP POP JUMP JUMPDEST PUSH0 PUSH3 0xD22 DUP3 PUSH3 0x9F4 JUMP JUMPDEST PUSH3 0xD2E DUP2 DUP6 PUSH3 0xD06 JUMP JUMPDEST SWAP4 POP PUSH3 0xD40 DUP2 DUP6 PUSH1 0x20 DUP7 ADD PUSH3 0x6E3 JUMP JUMPDEST PUSH3 0xD4B DUP2 PUSH3 0x61D JUMP JUMPDEST DUP5 ADD SWAP2 POP POP SWAP3 SWAP2 POP POP JUMP JUMPDEST PUSH0 PUSH1 0x20 DUP3 ADD SWAP1 POP DUP2 DUP2 SUB PUSH0 DUP4 ADD MSTORE PUSH3 0xD70 DUP2 DUP5 PUSH3 0xD16 JUMP JUMPDEST SWAP1 POP SWAP3 SWAP2 POP POP JUMP JUMPDEST PUSH2 0x536A DUP1 PUSH3 0xD86 PUSH0 CODECOPY PUSH0 RETURN INVALID PUSH1 0x80 PUSH1 0x40 MSTORE PUSH1 0x4 CALLDATASIZE LT PUSH2 0x1E6 JUMPI PUSH0 CALLDATALOAD PUSH1 0xE0 SHR DUP1 PUSH4 0x86A10DDD GT PUSH2 0x101 JUMPI DUP1 PUSH4 0xB3B2981E GT PUSH2 0x94 JUMPI DUP1 PUSH4 0xDB8C9663 GT PUSH2 0x63 JUMPI DUP1 PUSH4 0xDB8C9663 EQ PUSH2 0x853 JUMPI DUP1 PUSH4 0xDEDFF9C6 EQ PUSH2 0x87B JUMPI DUP1 PUSH4 0xF2FDE38B EQ PUSH2 0x8B7 JUMPI DUP1 PUSH4 0xF7B2A7BE EQ PUSH2 0x8DF JUMPI PUSH2 0x25F JUMP JUMPDEST DUP1 PUSH4 0xB3B2981E EQ PUSH2 0x78B JUMPI DUP1 PUSH4 0xBE9F0E6F EQ PUSH2 0x7C7 JUMPI DUP1 PUSH4 0xCC18513F EQ PUSH2 0x7EF JUMPI DUP1 PUSH4 0xD6C1407C EQ PUSH2 0x82B JUMPI PUSH2 0x25F JUMP JUMPDEST DUP1 PUSH4 0xA3B261F2 GT PUSH2 0xD0 JUMPI DUP1 PUSH4 0xA3B261F2 EQ PUSH2 0x6AF JUMPI DUP1 PUSH4 0xA45478B9 EQ PUSH2 0x6EB JUMPI DUP1 PUSH4 0xA8A65A78 EQ PUSH2 0x727 JUMPI DUP1 PUSH4 0xAA271E1A EQ PUSH2 0x74F JUMPI PUSH2 0x25F JUMP JUMPDEST DUP1 PUSH4 0x86A10DDD EQ PUSH2 0x605 JUMPI DUP1 PUSH4 0x8DA5CB5B EQ PUSH2 0x62D JUMPI DUP1 PUSH4 0x97902421 EQ PUSH2 0x657 JUMPI DUP1 PUSH4 0xA2898A30 EQ PUSH2 0x673 JUMPI PUSH2 0x25F JUMP JUMPDEST DUP1 PUSH4 0x49A6078D GT PUSH2 0x179 JUMPI DUP1 PUSH4 0x70A08231 GT PUSH2 0x148 JUMPI DUP1 PUSH4 0x70A08231 EQ PUSH2 0x56F JUMPI DUP1 PUSH4 0x715018A6 EQ PUSH2 0x5AB JUMPI DUP1 PUSH4 0x7E87632C EQ PUSH2 0x5C1 JUMPI DUP1 PUSH4 0x7F23690C EQ PUSH2 0x5E9 JUMPI PUSH2 0x25F JUMP JUMPDEST DUP1 PUSH4 0x49A6078D EQ PUSH2 0x493 JUMPI DUP1 PUSH4 0x511B6952 EQ PUSH2 0x4CF JUMPI DUP1 PUSH4 0x54F6127F EQ PUSH2 0x4F7 JUMPI DUP1 PUSH4 0x6963D438 EQ PUSH2 0x533 JUMPI PUSH2 0x25F JUMP JUMPDEST DUP1 PUSH4 0x1D26FCE6 GT PUSH2 0x1B5 JUMPI DUP1 PUSH4 0x1D26FCE6 EQ PUSH2 0x3A3 JUMPI DUP1 PUSH4 0x217B2270 EQ PUSH2 0x3DF JUMPI DUP1 PUSH4 0x2A3654A4 EQ PUSH2 0x41B JUMPI DUP1 PUSH4 0x300FE77B EQ PUSH2 0x457 JUMPI PUSH2 0x25F JUMP JUMPDEST DUP1 PUSH4 0x13EBA92 EQ PUSH2 0x2C5 JUMPI DUP1 PUSH4 0x1FFC9A7 EQ PUSH2 0x301 JUMPI DUP1 PUSH4 0x16E023B3 EQ PUSH2 0x33D JUMPI DUP1 PUSH4 0x18160DDD EQ PUSH2 0x379 JUMPI PUSH2 0x25F JUMP JUMPDEST CALLDATASIZE PUSH2 0x25F JUMPI PUSH0 CALLVALUE SUB PUSH2 0x22D JUMPI PUSH1 0x40 MLOAD PUSH32 0xE5099EE300000000000000000000000000000000000000000000000000000000 DUP2 MSTORE PUSH1 0x4 ADD PUSH2 0x224 SWAP1 PUSH2 0x33DC JUMP JUMPDEST PUSH1 0x40 MLOAD DUP1 SWAP2 SUB SWAP1 REVERT JUMPDEST PUSH1 0x40 MLOAD PUSH32 0x61F4944200000000000000000000000000000000000000000000000000000000 DUP2 MSTORE PUSH1 0x4 ADD PUSH1 0x40 MLOAD DUP1 SWAP2 SUB SWAP1 REVERT JUMPDEST PUSH0 CALLDATASIZE PUSH1 0x60 PUSH1 0x4 PUSH0 CALLDATASIZE SWAP1 POP LT ISZERO PUSH2 0x2AE JUMPI DUP3 DUP3 PUSH1 0x40 MLOAD PUSH32 0xE5099EE300000000000000000000000000000000000000000000000000000000 DUP2 MSTORE PUSH1 0x4 ADD PUSH2 0x2A5 SWAP3 SWAP2 SWAP1 PUSH2 0x3444 JUMP JUMPDEST PUSH1 0x40 MLOAD DUP1 SWAP2 SUB SWAP1 REVERT JUMPDEST PUSH2 0x2B8 DUP4 DUP4 PUSH2 0x909 JUMP JUMPDEST SWAP1 POP SWAP2 POP POP DUP1 MLOAD SWAP1 PUSH1 0x20 ADD RETURN JUMPDEST CALLVALUE DUP1 ISZERO PUSH2 0x2D0 JUMPI PUSH0 DUP1 REVERT JUMPDEST POP PUSH2 0x2EB PUSH1 0x4 DUP1 CALLDATASIZE SUB DUP2 ADD SWAP1 PUSH2 0x2E6 SWAP2 SWAP1 PUSH2 0x34D1 JUMP JUMPDEST PUSH2 0xA7F JUMP JUMPDEST PUSH1 0x40 MLOAD PUSH2 0x2F8 SWAP2 SWAP1 PUSH2 0x3514 JUMP JUMPDEST PUSH1 0x40 MLOAD DUP1 SWAP2 SUB SWAP1 RETURN JUMPDEST CALLVALUE DUP1 ISZERO PUSH2 0x30C JUMPI PUSH0 DUP1 REVERT JUMPDEST POP PUSH2 0x327 PUSH1 0x4 DUP1 CALLDATASIZE SUB DUP2 ADD SWAP1 PUSH2 0x322 SWAP2 SWAP1 PUSH2 0x3582 JUMP JUMPDEST PUSH2 0xA94 JUMP JUMPDEST PUSH1 0x40 MLOAD PUSH2 0x334 SWAP2 SWAP1 PUSH2 0x35C7 JUMP JUMPDEST PUSH1 0x40 MLOAD DUP1 SWAP2 SUB SWAP1 RETURN JUMPDEST CALLVALUE DUP1 ISZERO PUSH2 0x348 JUMPI PUSH0 DUP1 REVERT JUMPDEST POP PUSH2 0x363 PUSH1 0x4 DUP1 CALLDATASIZE SUB DUP2 ADD SWAP1 PUSH2 0x35E SWAP2 SWAP1 PUSH2 0x3613 JUMP JUMPDEST PUSH2 0xB04 JUMP JUMPDEST PUSH1 0x40 MLOAD PUSH2 0x370 SWAP2 SWAP1 PUSH2 0x36BB JUMP JUMPDEST PUSH1 0x40 MLOAD DUP1 SWAP2 SUB SWAP1 RETURN JUMPDEST CALLVALUE DUP1 ISZERO PUSH2 0x384 JUMPI PUSH0 DUP1 REVERT JUMPDEST POP PUSH2 0x38D PUSH2 0xB18 JUMP JUMPDEST PUSH1 0x40 MLOAD PUSH2 0x39A SWAP2 SWAP1 PUSH2 0x3514 JUMP JUMPDEST PUSH1 0x40 MLOAD DUP1 SWAP2 SUB SWAP1 RETURN JUMPDEST CALLVALUE DUP1 ISZERO PUSH2 0x3AE JUMPI PUSH0 DUP1 REVERT JUMPDEST POP PUSH2 0x3C9 PUSH1 0x4 DUP1 CALLDATASIZE SUB DUP2 ADD SWAP1 PUSH2 0x3C4 SWAP2 SWAP1 PUSH2 0x381B JUMP JUMPDEST PUSH2 0xB21 JUMP JUMPDEST PUSH1 0x40 MLOAD PUSH2 0x3D6 SWAP2 SWAP1 PUSH2 0x3994 JUMP JUMPDEST PUSH1 0x40 MLOAD DUP1 SWAP2 SUB SWAP1 RETURN JUMPDEST CALLVALUE DUP1 ISZERO PUSH2 0x3EA JUMPI PUSH0 DUP1 REVERT JUMPDEST POP PUSH2 0x405 PUSH1 0x4 DUP1 CALLDATASIZE SUB DUP2 ADD SWAP1 PUSH2 0x400 SWAP2 SWAP1 PUSH2 0x39B4 JUMP JUMPDEST PUSH2 0xC28 JUMP JUMPDEST PUSH1 0x40 MLOAD PUSH2 0x412 SWAP2 SWAP1 PUSH2 0x39EE JUMP JUMPDEST PUSH1 0x40 MLOAD DUP1 SWAP2 SUB SWAP1 RETURN JUMPDEST CALLVALUE DUP1 ISZERO PUSH2 0x426 JUMPI PUSH0 DUP1 REVERT JUMPDEST POP PUSH2 0x441 PUSH1 0x4 DUP1 CALLDATASIZE SUB DUP2 ADD SWAP1 PUSH2 0x43C SWAP2 SWAP1 PUSH2 0x3A07 JUMP JUMPDEST PUSH2 0xCD6 JUMP JUMPDEST PUSH1 0x40 MLOAD PUSH2 0x44E SWAP2 SWAP1 PUSH2 0x35C7 JUMP JUMPDEST PUSH1 0x40 MLOAD DUP1 SWAP2 SUB SWAP1 RETURN JUMPDEST CALLVALUE DUP1 ISZERO PUSH2 0x462 JUMPI PUSH0 DUP1 REVERT JUMPDEST POP PUSH2 0x47D PUSH1 0x4 DUP1 CALLDATASIZE SUB DUP2 ADD SWAP1 PUSH2 0x478 SWAP2 SWAP1 PUSH2 0x3A45 JUMP JUMPDEST PUSH2 0xCE9 JUMP JUMPDEST PUSH1 0x40 MLOAD PUSH2 0x48A SWAP2 SWAP1 PUSH2 0x35C7 JUMP JUMPDEST PUSH1 0x40 MLOAD DUP1 SWAP2 SUB SWAP1 RETURN JUMPDEST CALLVALUE DUP1 ISZERO PUSH2 0x49E JUMPI PUSH0 DUP1 REVERT JUMPDEST POP PUSH2 0x4B9 PUSH1 0x4 DUP1 CALLDATASIZE SUB DUP2 ADD SWAP1 PUSH2 0x4B4 SWAP2 SWAP1 PUSH2 0x39B4 JUMP JUMPDEST PUSH2 0xEC9 JUMP JUMPDEST PUSH1 0x40 MLOAD PUSH2 0x4C6 SWAP2 SWAP1 PUSH2 0x3B3A JUMP JUMPDEST PUSH1 0x40 MLOAD DUP1 SWAP2 SUB SWAP1 RETURN JUMPDEST CALLVALUE DUP1 ISZERO PUSH2 0x4DA JUMPI PUSH0 DUP1 REVERT JUMPDEST POP PUSH2 0x4F5 PUSH1 0x4 DUP1 CALLDATASIZE SUB DUP2 ADD SWAP1 PUSH2 0x4F0 SWAP2 SWAP1 PUSH2 0x3C26 JUMP JUMPDEST PUSH2 0xEF4 JUMP JUMPDEST STOP JUMPDEST CALLVALUE DUP1 ISZERO PUSH2 0x502 JUMPI PUSH0 DUP1 REVERT JUMPDEST POP PUSH2 0x51D PUSH1 0x4 DUP1 CALLDATASIZE SUB DUP2 ADD SWAP1 PUSH2 0x518 SWAP2 SWAP1 PUSH2 0x39B4 JUMP JUMPDEST PUSH2 0xF55 JUMP JUMPDEST PUSH1 0x40 MLOAD PUSH2 0x52A SWAP2 SWAP1 PUSH2 0x36BB JUMP JUMPDEST PUSH1 0x40 MLOAD DUP1 SWAP2 SUB SWAP1 RETURN JUMPDEST CALLVALUE DUP1 ISZERO PUSH2 0x53E JUMPI PUSH0 DUP1 REVERT JUMPDEST POP PUSH2 0x559 PUSH1 0x4 DUP1 CALLDATASIZE SUB DUP2 ADD SWAP1 PUSH2 0x554 SWAP2 SWAP1 PUSH2 0x3D12 JUMP JUMPDEST PUSH2 0xF67 JUMP JUMPDEST PUSH1 0x40 MLOAD PUSH2 0x566 SWAP2 SWAP1 PUSH2 0x3994 JUMP JUMPDEST PUSH1 0x40 MLOAD DUP1 SWAP2 SUB SWAP1 RETURN JUMPDEST CALLVALUE DUP1 ISZERO PUSH2 0x57A JUMPI PUSH0 DUP1 REVERT JUMPDEST POP PUSH2 0x595 PUSH1 0x4 DUP1 CALLDATASIZE SUB DUP2 ADD SWAP1 PUSH2 0x590 SWAP2 SWAP1 PUSH2 0x34D1 JUMP JUMPDEST PUSH2 0x10DD JUMP JUMPDEST PUSH1 0x40 MLOAD PUSH2 0x5A2 SWAP2 SWAP1 PUSH2 0x3514 JUMP JUMPDEST PUSH1 0x40 MLOAD DUP1 SWAP2 SUB SWAP1 RETURN JUMPDEST CALLVALUE DUP1 ISZERO PUSH2 0x5B6 JUMPI PUSH0 DUP1 REVERT JUMPDEST POP PUSH2 0x5BF PUSH2 0x112A JUMP JUMPDEST STOP JUMPDEST CALLVALUE DUP1 ISZERO PUSH2 0x5CC JUMPI PUSH0 DUP1 REVERT JUMPDEST POP PUSH2 0x5E7 PUSH1 0x4 DUP1 CALLDATASIZE SUB DUP2 ADD SWAP1 PUSH2 0x5E2 SWAP2 SWAP1 PUSH2 0x3FBB JUMP JUMPDEST PUSH2 0x113D JUMP JUMPDEST STOP JUMPDEST PUSH2 0x603 PUSH1 0x4 DUP1 CALLDATASIZE SUB DUP2 ADD SWAP1 PUSH2 0x5FE SWAP2 SWAP1 PUSH2 0x40BE JUMP JUMPDEST PUSH2 0x124F JUMP JUMPDEST STOP JUMPDEST CALLVALUE DUP1 ISZERO PUSH2 0x610 JUMPI PUSH0 DUP1 REVERT JUMPDEST POP PUSH2 0x62B PUSH1 0x4 DUP1 CALLDATASIZE SUB DUP2 ADD SWAP1 PUSH2 0x626 SWAP2 SWAP1 PUSH2 0x4118 JUMP JUMPDEST PUSH2 0x129E JUMP JUMPDEST STOP JUMPDEST CALLVALUE DUP1 ISZERO PUSH2 0x638 JUMPI PUSH0 DUP1 REVERT JUMPDEST POP PUSH2 0x641 PUSH2 0x14F4 JUMP JUMPDEST PUSH1 0x40 MLOAD PUSH2 0x64E SWAP2 SWAP1 PUSH2 0x39EE JUMP JUMPDEST PUSH1 0x40 MLOAD DUP1 SWAP2 SUB SWAP1 RETURN JUMPDEST PUSH2 0x671 PUSH1 0x4 DUP1 CALLDATASIZE SUB DUP2 ADD SWAP1 PUSH2 0x66C SWAP2 SWAP1 PUSH2 0x4184 JUMP JUMPDEST PUSH2 0x151B JUMP JUMPDEST STOP JUMPDEST CALLVALUE DUP1 ISZERO PUSH2 0x67E JUMPI PUSH0 DUP1 REVERT JUMPDEST POP PUSH2 0x699 PUSH1 0x4 DUP1 CALLDATASIZE SUB DUP2 ADD SWAP1 PUSH2 0x694 SWAP2 SWAP1 PUSH2 0x4224 JUMP JUMPDEST PUSH2 0x162A JUMP JUMPDEST PUSH1 0x40 MLOAD PUSH2 0x6A6 SWAP2 SWAP1 PUSH2 0x39EE JUMP JUMPDEST PUSH1 0x40 MLOAD DUP1 SWAP2 SUB SWAP1 RETURN JUMPDEST CALLVALUE DUP1 ISZERO PUSH2 0x6BA JUMPI PUSH0 DUP1 REVERT JUMPDEST POP PUSH2 0x6D5 PUSH1 0x4 DUP1 CALLDATASIZE SUB DUP2 ADD SWAP1 PUSH2 0x6D0 SWAP2 SWAP1 PUSH2 0x34D1 JUMP JUMPDEST PUSH2 0x1672 JUMP JUMPDEST PUSH1 0x40 MLOAD PUSH2 0x6E2 SWAP2 SWAP1 PUSH2 0x4319 JUMP JUMPDEST PUSH1 0x40 MLOAD DUP1 SWAP2 SUB SWAP1 RETURN JUMPDEST CALLVALUE DUP1 ISZERO PUSH2 0x6F6 JUMPI PUSH0 DUP1 REVERT JUMPDEST POP PUSH2 0x711 PUSH1 0x4 DUP1 CALLDATASIZE SUB DUP2 ADD SWAP1 PUSH2 0x70C SWAP2 SWAP1 PUSH2 0x34D1 JUMP JUMPDEST PUSH2 0x16C0 JUMP JUMPDEST PUSH1 0x40 MLOAD PUSH2 0x71E SWAP2 SWAP1 PUSH2 0x35C7 JUMP JUMPDEST PUSH1 0x40 MLOAD DUP1 SWAP2 SUB SWAP1 RETURN JUMPDEST CALLVALUE DUP1 ISZERO PUSH2 0x732 JUMPI PUSH0 DUP1 REVERT JUMPDEST POP PUSH2 0x74D PUSH1 0x4 DUP1 CALLDATASIZE SUB DUP2 ADD SWAP1 PUSH2 0x748 SWAP2 SWAP1 PUSH2 0x4339 JUMP JUMPDEST PUSH2 0x1772 JUMP JUMPDEST STOP JUMPDEST CALLVALUE DUP1 ISZERO PUSH2 0x75A JUMPI PUSH0 DUP1 REVERT JUMPDEST POP PUSH2 0x775 PUSH1 0x4 DUP1 CALLDATASIZE SUB DUP2 ADD SWAP1 PUSH2 0x770 SWAP2 SWAP1 PUSH2 0x34D1 JUMP JUMPDEST PUSH2 0x1784 JUMP JUMPDEST PUSH1 0x40 MLOAD PUSH2 0x782 SWAP2 SWAP1 PUSH2 0x35C7 JUMP JUMPDEST PUSH1 0x40 MLOAD DUP1 SWAP2 SUB SWAP1 RETURN JUMPDEST CALLVALUE DUP1 ISZERO PUSH2 0x796 JUMPI PUSH0 DUP1 REVERT JUMPDEST POP PUSH2 0x7B1 PUSH1 0x4 DUP1 CALLDATASIZE SUB DUP2 ADD SWAP1 PUSH2 0x7AC SWAP2 SWAP1 PUSH2 0x4402 JUMP JUMPDEST PUSH2 0x1797 JUMP JUMPDEST PUSH1 0x40 MLOAD PUSH2 0x7BE SWAP2 SWAP1 PUSH2 0x39EE JUMP JUMPDEST PUSH1 0x40 MLOAD DUP1 SWAP2 SUB SWAP1 RETURN JUMPDEST CALLVALUE DUP1 ISZERO PUSH2 0x7D2 JUMPI PUSH0 DUP1 REVERT JUMPDEST POP PUSH2 0x7ED PUSH1 0x4 DUP1 CALLDATASIZE SUB DUP2 ADD SWAP1 PUSH2 0x7E8 SWAP2 SWAP1 PUSH2 0x44F3 JUMP JUMPDEST PUSH2 0x18A1 JUMP JUMPDEST STOP JUMPDEST CALLVALUE DUP1 ISZERO PUSH2 0x7FA JUMPI PUSH0 DUP1 REVERT JUMPDEST POP PUSH2 0x815 PUSH1 0x4 DUP1 CALLDATASIZE SUB DUP2 ADD SWAP1 PUSH2 0x810 SWAP2 SWAP1 PUSH2 0x34D1 JUMP JUMPDEST PUSH2 0x19A2 JUMP JUMPDEST PUSH1 0x40 MLOAD PUSH2 0x822 SWAP2 SWAP1 PUSH2 0x3B3A JUMP JUMPDEST PUSH1 0x40 MLOAD DUP1 SWAP2 SUB SWAP1 RETURN JUMPDEST CALLVALUE DUP1 ISZERO PUSH2 0x836 JUMPI PUSH0 DUP1 REVERT JUMPDEST POP PUSH2 0x851 PUSH1 0x4 DUP1 CALLDATASIZE SUB DUP2 ADD SWAP1 PUSH2 0x84C SWAP2 SWAP1 PUSH2 0x4597 JUMP JUMPDEST PUSH2 0x1A6A JUMP JUMPDEST STOP JUMPDEST CALLVALUE DUP1 ISZERO PUSH2 0x85E JUMPI PUSH0 DUP1 REVERT JUMPDEST POP PUSH2 0x879 PUSH1 0x4 DUP1 CALLDATASIZE SUB DUP2 ADD SWAP1 PUSH2 0x874 SWAP2 SWAP1 PUSH2 0x4603 JUMP JUMPDEST PUSH2 0x1A82 JUMP JUMPDEST STOP JUMPDEST CALLVALUE DUP1 ISZERO PUSH2 0x886 JUMPI PUSH0 DUP1 REVERT JUMPDEST POP PUSH2 0x8A1 PUSH1 0x4 DUP1 CALLDATASIZE SUB DUP2 ADD SWAP1 PUSH2 0x89C SWAP2 SWAP1 PUSH2 0x4683 JUMP JUMPDEST PUSH2 0x1C4F JUMP JUMPDEST PUSH1 0x40 MLOAD PUSH2 0x8AE SWAP2 SWAP1 PUSH2 0x3994 JUMP JUMPDEST PUSH1 0x40 MLOAD DUP1 SWAP2 SUB SWAP1 RETURN JUMPDEST CALLVALUE DUP1 ISZERO PUSH2 0x8C2 JUMPI PUSH0 DUP1 REVERT JUMPDEST POP PUSH2 0x8DD PUSH1 0x4 DUP1 CALLDATASIZE SUB DUP2 ADD SWAP1 PUSH2 0x8D8 SWAP2 SWAP1 PUSH2 0x34D1 JUMP JUMPDEST PUSH2 0x1CFF JUMP JUMPDEST STOP JUMPDEST CALLVALUE DUP1 ISZERO PUSH2 0x8EA JUMPI PUSH0 DUP1 REVERT JUMPDEST POP PUSH2 0x8F3 PUSH2 0x1D78 JUMP JUMPDEST PUSH1 0x40 MLOAD PUSH2 0x900 SWAP2 SWAP1 PUSH2 0x3514 JUMP JUMPDEST PUSH1 0x40 MLOAD DUP1 SWAP2 SUB SWAP1 RETURN JUMPDEST PUSH1 0x60 PUSH0 PUSH2 0x938 PUSH0 CALLDATALOAD PUSH32 0xFFFFFFFF00000000000000000000000000000000000000000000000000000000 AND PUSH2 0x1D7E JUMP JUMPDEST POP SWAP1 POP PUSH0 PUSH20 0xFFFFFFFFFFFFFFFFFFFFFFFFFFFFFFFFFFFFFFFF AND DUP2 PUSH20 0xFFFFFFFFFFFFFFFFFFFFFFFFFFFFFFFFFFFFFFFF AND SUB PUSH2 0x9CE JUMPI PUSH0 CALLDATALOAD PUSH32 0xFFFFFFFF00000000000000000000000000000000000000000000000000000000 AND PUSH1 0x40 MLOAD PUSH32 0xBB370B2B00000000000000000000000000000000000000000000000000000000 DUP2 MSTORE PUSH1 0x4 ADD PUSH2 0x9C5 SWAP2 SWAP1 PUSH2 0x46D9 JUMP JUMPDEST PUSH1 0x40 MLOAD DUP1 SWAP2 SUB SWAP1 REVERT JUMPDEST PUSH0 DUP1 DUP3 PUSH20 0xFFFFFFFFFFFFFFFFFFFFFFFFFFFFFFFFFFFFFFFF AND CALLVALUE DUP8 DUP8 CALLER CALLVALUE PUSH1 0x40 MLOAD PUSH1 0x20 ADD PUSH2 0x9FF SWAP5 SWAP4 SWAP3 SWAP2 SWAP1 PUSH2 0x4785 JUMP JUMPDEST PUSH1 0x40 MLOAD PUSH1 0x20 DUP2 DUP4 SUB SUB DUP2 MSTORE SWAP1 PUSH1 0x40 MSTORE PUSH1 0x40 MLOAD PUSH2 0xA1B SWAP2 SWAP1 PUSH2 0x47EF JUMP JUMPDEST PUSH0 PUSH1 0x40 MLOAD DUP1 DUP4 SUB DUP2 DUP6 DUP8 GAS CALL SWAP3 POP POP POP RETURNDATASIZE DUP1 PUSH0 DUP2 EQ PUSH2 0xA55 JUMPI PUSH1 0x40 MLOAD SWAP2 POP PUSH1 0x1F NOT PUSH1 0x3F RETURNDATASIZE ADD AND DUP3 ADD PUSH1 0x40 MSTORE RETURNDATASIZE DUP3 MSTORE RETURNDATASIZE PUSH0 PUSH1 0x20 DUP5 ADD RETURNDATACOPY PUSH2 0xA5A JUMP JUMPDEST PUSH1 0x60 SWAP2 POP JUMPDEST POP SWAP2 POP SWAP2 POP DUP2 ISZERO PUSH2 0xA70 JUMPI DUP1 SWAP4 POP POP POP POP PUSH2 0xA79 JUMP JUMPDEST DUP1 MLOAD DUP1 PUSH1 0x20 DUP4 ADD REVERT JUMPDEST SWAP3 SWAP2 POP POP JUMP JUMPDEST PUSH1 0x8 PUSH1 0x20 MSTORE DUP1 PUSH0 MSTORE PUSH1 0x40 PUSH0 KECCAK256 PUSH0 SWAP2 POP SWAP1 POP SLOAD DUP2 JUMP JUMPDEST PUSH0 PUSH4 0x3A271706 PUSH1 0xE0 SHL PUSH28 0xFFFFFFFFFFFFFFFFFFFFFFFFFFFFFFFFFFFFFFFFFFFFFFFFFFFFFFFF NOT AND DUP3 PUSH28 0xFFFFFFFFFFFFFFFFFFFFFFFFFFFFFFFFFFFFFFFFFFFFFFFFFFFFFFFF NOT AND EQ DUP1 PUSH2 0xAED JUMPI POP PUSH2 0xAEC DUP3 PUSH2 0x1E34 JUMP JUMPDEST JUMPDEST DUP1 PUSH2 0xAFD JUMPI POP PUSH2 0xAFC DUP3 PUSH2 0x1E94 JUMP JUMPDEST JUMPDEST SWAP1 POP SWAP2 SWAP1 POP JUMP JUMPDEST PUSH1 0x60 PUSH2 0xB10 DUP4 DUP4 PUSH2 0x1EF8 JUMP JUMPDEST SWAP1 POP SWAP3 SWAP2 POP POP JUMP JUMPDEST PUSH0 PUSH1 0x2 SLOAD SWAP1 POP SWAP1 JUMP JUMPDEST PUSH1 0x60 DUP2 MLOAD DUP4 MLOAD EQ PUSH2 0xB5E JUMPI PUSH1 0x40 MLOAD PUSH32 0x2FA71DFE00000000000000000000000000000000000000000000000000000000 DUP2 MSTORE PUSH1 0x4 ADD PUSH1 0x40 MLOAD DUP1 SWAP2 SUB SWAP1 REVERT JUMPDEST DUP3 MLOAD PUSH8 0xFFFFFFFFFFFFFFFF DUP2 GT ISZERO PUSH2 0xB79 JUMPI PUSH2 0xB78 PUSH2 0x36DF JUMP JUMPDEST JUMPDEST PUSH1 0x40 MLOAD SWAP1 DUP1 DUP3 MSTORE DUP1 PUSH1 0x20 MUL PUSH1 0x20 ADD DUP3 ADD PUSH1 0x40 MSTORE DUP1 ISZERO PUSH2 0xBAC JUMPI DUP2 PUSH1 0x20 ADD JUMPDEST PUSH1 0x60 DUP2 MSTORE PUSH1 0x20 ADD SWAP1 PUSH1 0x1 SWAP1 SUB SWAP1 DUP2 PUSH2 0xB97 JUMPI SWAP1 POP JUMPDEST POP SWAP1 POP PUSH0 JUMPDEST DUP4 MLOAD DUP2 LT ISZERO PUSH2 0xC21 JUMPI PUSH2 0xBF8 DUP5 DUP3 DUP2 MLOAD DUP2 LT PUSH2 0xBD0 JUMPI PUSH2 0xBCF PUSH2 0x4805 JUMP JUMPDEST JUMPDEST PUSH1 0x20 MUL PUSH1 0x20 ADD ADD MLOAD DUP5 DUP4 DUP2 MLOAD DUP2 LT PUSH2 0xBEB JUMPI PUSH2 0xBEA PUSH2 0x4805 JUMP JUMPDEST JUMPDEST PUSH1 0x20 MUL PUSH1 0x20 ADD ADD MLOAD PUSH2 0x1EF8 JUMP JUMPDEST DUP3 DUP3 DUP2 MLOAD DUP2 LT PUSH2 0xC0B JUMPI PUSH2 0xC0A PUSH2 0x4805 JUMP JUMPDEST JUMPDEST PUSH1 0x20 MUL PUSH1 0x20 ADD ADD DUP2 SWAP1 MSTORE POP DUP1 PUSH1 0x1 ADD SWAP1 POP PUSH2 0xBB1 JUMP JUMPDEST POP SWAP3 SWAP2 POP POP JUMP JUMPDEST PUSH0 DUP1 PUSH1 0x3 PUSH0 DUP5 DUP2 MSTORE PUSH1 0x20 ADD SWAP1 DUP2 MSTORE PUSH1 0x20 ADD PUSH0 KECCAK256 PUSH0 SWAP1 SLOAD SWAP1 PUSH2 0x100 EXP SWAP1 DIV PUSH20 0xFFFFFFFFFFFFFFFFFFFFFFFFFFFFFFFFFFFFFFFF AND SWAP1 POP PUSH0 PUSH20 0xFFFFFFFFFFFFFFFFFFFFFFFFFFFFFFFFFFFFFFFF AND DUP2 PUSH20 0xFFFFFFFFFFFFFFFFFFFFFFFFFFFFFFFFFFFFFFFF AND SUB PUSH2 0xCCD JUMPI DUP3 PUSH1 0x40 MLOAD PUSH32 0xAE8F9A3600000000000000000000000000000000000000000000000000000000 DUP2 MSTORE PUSH1 0x4 ADD PUSH2 0xCC4 SWAP2 SWAP1 PUSH2 0x4841 JUMP JUMPDEST PUSH1 0x40 MLOAD DUP1 SWAP2 SUB SWAP1 REVERT JUMPDEST DUP1 SWAP2 POP POP SWAP2 SWAP1 POP JUMP JUMPDEST PUSH0 PUSH2 0xCE1 DUP4 DUP4 PUSH2 0x1F0C JUMP JUMPDEST SWAP1 POP SWAP3 SWAP2 POP POP JUMP JUMPDEST PUSH0 DUP1 PUSH1 0x9 PUSH0 DUP6 PUSH20 0xFFFFFFFFFFFFFFFFFFFFFFFFFFFFFFFFFFFFFFFF AND PUSH20 0xFFFFFFFFFFFFFFFFFFFFFFFFFFFFFFFFFFFFFFFF AND DUP2 MSTORE PUSH1 0x20 ADD SWAP1 DUP2 MSTORE PUSH1 0x20 ADD PUSH0 KECCAK256 DUP1 SLOAD DUP1 PUSH1 0x20 MUL PUSH1 0x20 ADD PUSH1 0x40 MLOAD SWAP1 DUP2 ADD PUSH1 0x40 MSTORE DUP1 SWAP3 SWAP2 SWAP1 DUP2 DUP2 MSTORE PUSH1 0x20 ADD DUP3 DUP1 SLOAD DUP1 ISZERO PUSH2 0xDA5 JUMPI PUSH1 0x20 MUL DUP3 ADD SWAP2 SWAP1 PUSH0 MSTORE PUSH1 0x20 PUSH0 KECCAK256 SWAP1 JUMPDEST DUP2 PUSH0 SWAP1 SLOAD SWAP1 PUSH2 0x100 EXP SWAP1 DIV PUSH20 0xFFFFFFFFFFFFFFFFFFFFFFFFFFFFFFFFFFFFFFFF AND PUSH20 0xFFFFFFFFFFFFFFFFFFFFFFFFFFFFFFFFFFFFFFFF AND DUP2 MSTORE PUSH1 0x20 ADD SWAP1 PUSH1 0x1 ADD SWAP1 DUP1 DUP4 GT PUSH2 0xD5C JUMPI JUMPDEST POP POP POP POP POP SWAP1 POP PUSH0 JUMPDEST DUP2 MLOAD DUP2 LT ISZERO PUSH2 0xE21 JUMPI DUP4 PUSH20 0xFFFFFFFFFFFFFFFFFFFFFFFFFFFFFFFFFFFFFFFF AND DUP3 DUP3 DUP2 MLOAD DUP2 LT PUSH2 0xDE1 JUMPI PUSH2 0xDE0 PUSH2 0x4805 JUMP JUMPDEST JUMPDEST PUSH1 0x20 MUL PUSH1 0x20 ADD ADD MLOAD PUSH20 0xFFFFFFFFFFFFFFFFFFFFFFFFFFFFFFFFFFFFFFFF AND SUB PUSH2 0xE0E JUMPI PUSH0 SWAP3 POP POP POP PUSH2 0xEC3 JUMP JUMPDEST DUP1 DUP1 PUSH2 0xE19 SWAP1 PUSH2 0x4887 JUMP JUMPDEST SWAP2 POP POP PUSH2 0xDAE JUMP JUMPDEST POP PUSH1 0x9 PUSH0 DUP6 PUSH20 0xFFFFFFFFFFFFFFFFFFFFFFFFFFFFFFFFFFFFFFFF AND PUSH20 0xFFFFFFFFFFFFFFFFFFFFFFFFFFFFFFFFFFFFFFFF AND DUP2 MSTORE PUSH1 0x20 ADD SWAP1 DUP2 MSTORE PUSH1 0x20 ADD PUSH0 KECCAK256 DUP4 SWAP1 DUP1 PUSH1 0x1 DUP2 SLOAD ADD DUP1 DUP3 SSTORE DUP1 SWAP2 POP POP PUSH1 0x1 SWAP1 SUB SWAP1 PUSH0 MSTORE PUSH1 0x20 PUSH0 KECCAK256 ADD PUSH0 SWAP1 SWAP2 SWAP1 SWAP2 SWAP1 SWAP2 PUSH2 0x100 EXP DUP2 SLOAD DUP2 PUSH20 0xFFFFFFFFFFFFFFFFFFFFFFFFFFFFFFFFFFFFFFFF MUL NOT AND SWAP1 DUP4 PUSH20 0xFFFFFFFFFFFFFFFFFFFFFFFFFFFFFFFFFFFFFFFF AND MUL OR SWAP1 SSTORE POP PUSH1 0x1 SWAP2 POP POP JUMPDEST SWAP3 SWAP2 POP POP JUMP JUMPDEST PUSH1 0x60 PUSH2 0xED4 DUP3 PUSH2 0x1F76 JUMP JUMPDEST PUSH2 0xEED PUSH1 0x5 PUSH0 DUP5 DUP2 MSTORE PUSH1 0x20 ADD SWAP1 DUP2 MSTORE PUSH1 0x20 ADD PUSH0 KECCAK256 PUSH2 0x1FC3 JUMP JUMPDEST SWAP1 POP SWAP2 SWAP1 POP JUMP JUMPDEST PUSH2 0xEFE CALLER DUP5 PUSH2 0x1F0C JUMP JUMPDEST PUSH2 0xF41 JUMPI DUP3 CALLER PUSH1 0x40 MLOAD PUSH32 0x1294D2A900000000000000000000000000000000000000000000000000000000 DUP2 MSTORE PUSH1 0x4 ADD PUSH2 0xF38 SWAP3 SWAP2 SWAP1 PUSH2 0x48CE JUMP JUMPDEST PUSH1 0x40 MLOAD DUP1 SWAP2 SUB SWAP1 REVERT JUMPDEST PUSH2 0xF4E DUP6 DUP6 DUP6 DUP6 DUP6 PUSH2 0x1FE2 JUMP JUMPDEST POP POP POP POP POP JUMP JUMPDEST PUSH1 0x60 PUSH2 0xF60 DUP3 PUSH2 0x230C JUMP JUMPDEST SWAP1 POP SWAP2 SWAP1 POP JUMP JUMPDEST PUSH1 0x60 DUP3 DUP3 SWAP1 POP PUSH8 0xFFFFFFFFFFFFFFFF DUP2 GT ISZERO PUSH2 0xF86 JUMPI PUSH2 0xF85 PUSH2 0x36DF JUMP JUMPDEST JUMPDEST PUSH1 0x40 MLOAD SWAP1 DUP1 DUP3 MSTORE DUP1 PUSH1 0x20 MUL PUSH1 0x20 ADD DUP3 ADD PUSH1 0x40 MSTORE DUP1 ISZERO PUSH2 0xFB9 JUMPI DUP2 PUSH1 0x20 ADD JUMPDEST PUSH1 0x60 DUP2 MSTORE PUSH1 0x20 ADD SWAP1 PUSH1 0x1 SWAP1 SUB SWAP1 DUP2 PUSH2 0xFA4 JUMPI SWAP1 POP JUMPDEST POP SWAP1 POP PUSH0 JUMPDEST DUP4 DUP4 SWAP1 POP DUP2 LT ISZERO PUSH2 0x10D6 JUMPI PUSH0 DUP1 ADDRESS PUSH20 0xFFFFFFFFFFFFFFFFFFFFFFFFFFFFFFFFFFFFFFFF AND DUP7 DUP7 DUP6 DUP2 DUP2 LT PUSH2 0xFF5 JUMPI PUSH2 0xFF4 PUSH2 0x4805 JUMP JUMPDEST JUMPDEST SWAP1 POP PUSH1 0x20 MUL DUP2 ADD SWAP1 PUSH2 0x1007 SWAP2 SWAP1 PUSH2 0x4901 JUMP JUMPDEST PUSH1 0x40 MLOAD PUSH2 0x1015 SWAP3 SWAP2 SWAP1 PUSH2 0x4963 JUMP JUMPDEST PUSH0 PUSH1 0x40 MLOAD DUP1 DUP4 SUB DUP2 DUP6 GAS DELEGATECALL SWAP2 POP POP RETURNDATASIZE DUP1 PUSH0 DUP2 EQ PUSH2 0x104D JUMPI PUSH1 0x40 MLOAD SWAP2 POP PUSH1 0x1F NOT PUSH1 0x3F RETURNDATASIZE ADD AND DUP3 ADD PUSH1 0x40 MSTORE RETURNDATASIZE DUP3 MSTORE RETURNDATASIZE PUSH0 PUSH1 0x20 DUP5 ADD RETURNDATACOPY PUSH2 0x1052 JUMP JUMPDEST PUSH1 0x60 SWAP2 POP JUMPDEST POP SWAP2 POP SWAP2 POP DUP2 PUSH2 0x10AA JUMPI PUSH0 DUP2 MLOAD EQ PUSH2 0x106D JUMPI DUP1 MLOAD DUP1 DUP3 PUSH1 0x20 ADD REVERT JUMPDEST DUP3 PUSH1 0x40 MLOAD PUSH32 0x234EB81900000000000000000000000000000000000000000000000000000000 DUP2 MSTORE PUSH1 0x4 ADD PUSH2 0x10A1 SWAP2 SWAP1 PUSH2 0x3514 JUMP JUMPDEST PUSH1 0x40 MLOAD DUP1 SWAP2 SUB SWAP1 REVERT JUMPDEST DUP1 DUP5 DUP5 DUP2 MLOAD DUP2 LT PUSH2 0x10BE JUMPI PUSH2 0x10BD PUSH2 0x4805 JUMP JUMPDEST JUMPDEST PUSH1 0x20 MUL PUSH1 0x20 ADD ADD DUP2 SWAP1 MSTORE POP DUP3 PUSH1 0x1 ADD SWAP3 POP POP POP PUSH2 0xFBE JUMP JUMPDEST POP SWAP3 SWAP2 POP POP JUMP JUMPDEST PUSH0 PUSH2 0x1123 PUSH1 0x4 PUSH0 DUP5 PUSH20 0xFFFFFFFFFFFFFFFFFFFFFFFFFFFFFFFFFFFFFFFF AND PUSH20 0xFFFFFFFFFFFFFFFFFFFFFFFFFFFFFFFFFFFFFFFF AND DUP2 MSTORE PUSH1 0x20 ADD SWAP1 DUP2 MSTORE PUSH1 0x20 ADD PUSH0 KECCAK256 PUSH2 0x23AD JUMP JUMPDEST SWAP1 POP SWAP2 SWAP1 POP JUMP JUMPDEST PUSH2 0x1132 PUSH2 0x23C0 JUMP JUMPDEST PUSH2 0x113B PUSH0 PUSH2 0x2439 JUMP JUMPDEST JUMP JUMPDEST PUSH0 DUP6 MLOAD SWAP1 POP DUP5 MLOAD DUP2 EQ ISZERO DUP1 PUSH2 0x1153 JUMPI POP DUP4 MLOAD DUP2 EQ ISZERO JUMPDEST DUP1 PUSH2 0x115F JUMPI POP DUP3 MLOAD DUP2 EQ ISZERO JUMPDEST DUP1 PUSH2 0x116B JUMPI POP DUP2 MLOAD DUP2 EQ ISZERO JUMPDEST ISZERO PUSH2 0x11A2 JUMPI PUSH1 0x40 MLOAD PUSH32 0x93A8311900000000000000000000000000000000000000000000000000000000 DUP2 MSTORE PUSH1 0x4 ADD PUSH1 0x40 MLOAD DUP1 SWAP2 SUB SWAP1 REVERT JUMPDEST PUSH0 JUMPDEST DUP2 DUP2 LT ISZERO PUSH2 0x1246 JUMPI PUSH2 0x123B DUP8 DUP3 DUP2 MLOAD DUP2 LT PUSH2 0x11C2 JUMPI PUSH2 0x11C1 PUSH2 0x4805 JUMP JUMPDEST JUMPDEST PUSH1 0x20 MUL PUSH1 0x20 ADD ADD MLOAD DUP8 DUP4 DUP2 MLOAD DUP2 LT PUSH2 0x11DD JUMPI PUSH2 0x11DC PUSH2 0x4805 JUMP JUMPDEST JUMPDEST PUSH1 0x20 MUL PUSH1 0x20 ADD ADD MLOAD DUP8 DUP5 DUP2 MLOAD DUP2 LT PUSH2 0x11F8 JUMPI PUSH2 0x11F7 PUSH2 0x4805 JUMP JUMPDEST JUMPDEST PUSH1 0x20 MUL PUSH1 0x20 ADD ADD MLOAD DUP8 DUP6 DUP2 MLOAD DUP2 LT PUSH2 0x1213 JUMPI PUSH2 0x1212 PUSH2 0x4805 JUMP JUMPDEST JUMPDEST PUSH1 0x20 MUL PUSH1 0x20 ADD ADD MLOAD DUP8 DUP7 DUP2 MLOAD DUP2 LT PUSH2 0x122E JUMPI PUSH2 0x122D PUSH2 0x4805 JUMP JUMPDEST JUMPDEST PUSH1 0x20 MUL PUSH1 0x20 ADD ADD MLOAD PUSH2 0xEF4 JUMP JUMPDEST DUP1 PUSH1 0x1 ADD SWAP1 POP PUSH2 0x11A4 JUMP JUMPDEST POP POP POP POP POP POP POP JUMP JUMPDEST PUSH2 0x1257 PUSH2 0x23C0 JUMP JUMPDEST PUSH0 CALLVALUE EQ PUSH2 0x1290 JUMPI PUSH1 0x40 MLOAD PUSH32 0xF36BA73700000000000000000000000000000000000000000000000000000000 DUP2 MSTORE PUSH1 0x4 ADD PUSH1 0x40 MLOAD DUP1 SWAP2 SUB SWAP1 REVERT JUMPDEST PUSH2 0x129A DUP3 DUP3 PUSH2 0x252F JUMP JUMPDEST POP POP JUMP JUMPDEST PUSH0 PUSH2 0x12A8 DUP4 PUSH2 0xC28 JUMP JUMPDEST SWAP1 POP CALLER PUSH20 0xFFFFFFFFFFFFFFFFFFFFFFFFFFFFFFFFFFFFFFFF AND DUP2 PUSH20 0xFFFFFFFFFFFFFFFFFFFFFFFFFFFFFFFFFFFFFFFF AND EQ PUSH2 0x131E JUMPI DUP1 DUP4 CALLER PUSH1 0x40 MLOAD PUSH32 0x5B271EA200000000000000000000000000000000000000000000000000000000 DUP2 MSTORE PUSH1 0x4 ADD PUSH2 0x1315 SWAP4 SWAP3 SWAP2 SWAP1 PUSH2 0x497B JUMP JUMPDEST PUSH1 0x40 MLOAD DUP1 SWAP2 SUB SWAP1 REVERT JUMPDEST PUSH0 PUSH20 0xFFFFFFFFFFFFFFFFFFFFFFFFFFFFFFFFFFFFFFFF AND DUP5 PUSH20 0xFFFFFFFFFFFFFFFFFFFFFFFFFFFFFFFFFFFFFFFF AND SUB PUSH2 0x1383 JUMPI PUSH1 0x40 MLOAD PUSH32 0x9577B8B300000000000000000000000000000000000000000000000000000000 DUP2 MSTORE PUSH1 0x4 ADD PUSH1 0x40 MLOAD DUP1 SWAP2 SUB SWAP1 REVERT JUMPDEST DUP4 PUSH20 0xFFFFFFFFFFFFFFFFFFFFFFFFFFFFFFFFFFFFFFFF AND DUP2 PUSH20 0xFFFFFFFFFFFFFFFFFFFFFFFFFFFFFFFFFFFFFFFF AND SUB PUSH2 0x13E8 JUMPI PUSH1 0x40 MLOAD PUSH32 0x89FDAD6200000000000000000000000000000000000000000000000000000000 DUP2 MSTORE PUSH1 0x4 ADD PUSH1 0x40 MLOAD DUP1 SWAP2 SUB SWAP1 REVERT JUMPDEST PUSH0 PUSH2 0x140C DUP6 PUSH1 0x5 PUSH0 DUP8 DUP2 MSTORE PUSH1 0x20 ADD SWAP1 DUP2 MSTORE PUSH1 0x20 ADD PUSH0 KECCAK256 PUSH2 0x2598 SWAP1 SWAP2 SWAP1 PUSH4 0xFFFFFFFF AND JUMP JUMPDEST SWAP1 POP DUP1 PUSH2 0x1452 JUMPI DUP5 DUP5 PUSH1 0x40 MLOAD PUSH32 0xA7626B6800000000000000000000000000000000000000000000000000000000 DUP2 MSTORE PUSH1 0x4 ADD PUSH2 0x1449 SWAP3 SWAP2 SWAP1 PUSH2 0x49B0 JUMP JUMPDEST PUSH1 0x40 MLOAD DUP1 SWAP2 SUB SWAP1 REVERT JUMPDEST DUP4 DUP3 PUSH20 0xFFFFFFFFFFFFFFFFFFFFFFFFFFFFFFFFFFFFFFFF AND DUP7 PUSH20 0xFFFFFFFFFFFFFFFFFFFFFFFFFFFFFFFFFFFFFFFF AND PUSH32 0x1B1B58AA2EC0CEC2228B2D37124556D41F5A1F7B12F089171F896CC236671215 DUP7 PUSH1 0x40 MLOAD PUSH2 0x14B0 SWAP2 SWAP1 PUSH2 0x36BB JUMP JUMPDEST PUSH1 0x40 MLOAD DUP1 SWAP2 SUB SWAP1 LOG4 PUSH0 CALLER DUP6 PUSH1 0x1 DUP7 PUSH1 0x40 MLOAD PUSH1 0x20 ADD PUSH2 0x14D1 SWAP5 SWAP4 SWAP3 SWAP2 SWAP1 PUSH2 0x49D7 JUMP JUMPDEST PUSH1 0x40 MLOAD PUSH1 0x20 DUP2 DUP4 SUB SUB DUP2 MSTORE SWAP1 PUSH1 0x40 MSTORE SWAP1 POP PUSH2 0x14EC DUP7 DUP3 PUSH2 0x25C5 JUMP JUMPDEST POP POP POP POP POP POP JUMP JUMPDEST PUSH0 DUP1 PUSH0 SWAP1 SLOAD SWAP1 PUSH2 0x100 EXP SWAP1 DIV PUSH20 0xFFFFFFFFFFFFFFFFFFFFFFFFFFFFFFFFFFFFFFFF AND SWAP1 POP SWAP1 JUMP JUMPDEST PUSH2 0x1523 PUSH2 0x23C0 JUMP JUMPDEST PUSH0 CALLVALUE EQ PUSH2 0x155C JUMPI PUSH1 0x40 MLOAD PUSH32 0xF36BA73700000000000000000000000000000000000000000000000000000000 DUP2 MSTORE PUSH1 0x4 ADD PUSH1 0x40 MLOAD DUP1 SWAP2 SUB SWAP1 REVERT JUMPDEST DUP1 MLOAD DUP3 MLOAD EQ PUSH2 0x1597 JUMPI PUSH1 0x40 MLOAD PUSH32 0x3BCC897900000000000000000000000000000000000000000000000000000000 DUP2 MSTORE PUSH1 0x4 ADD PUSH1 0x40 MLOAD DUP1 SWAP2 SUB SWAP1 REVERT JUMPDEST PUSH0 DUP3 MLOAD SUB PUSH2 0x15D1 JUMPI PUSH1 0x40 MLOAD PUSH32 0x97DA5F9500000000000000000000000000000000000000000000000000000000 DUP2 MSTORE PUSH1 0x4 ADD PUSH1 0x40 MLOAD DUP1 SWAP2 SUB SWAP1 REVERT JUMPDEST PUSH0 JUMPDEST DUP3 MLOAD DUP2 LT ISZERO PUSH2 0x1625 JUMPI PUSH2 0x161A DUP4 DUP3 DUP2 MLOAD DUP2 LT PUSH2 0x15F2 JUMPI PUSH2 0x15F1 PUSH2 0x4805 JUMP JUMPDEST JUMPDEST PUSH1 0x20 MUL PUSH1 0x20 ADD ADD MLOAD DUP4 DUP4 DUP2 MLOAD DUP2 LT PUSH2 0x160D JUMPI PUSH2 0x160C PUSH2 0x4805 JUMP JUMPDEST JUMPDEST PUSH1 0x20 MUL PUSH1 0x20 ADD ADD MLOAD PUSH2 0x252F JUMP JUMPDEST DUP1 PUSH1 0x1 ADD SWAP1 POP PUSH2 0x15D3 JUMP JUMPDEST POP POP POP JUMP JUMPDEST PUSH1 0x9 PUSH1 0x20 MSTORE DUP2 PUSH0 MSTORE PUSH1 0x40 PUSH0 KECCAK256 DUP2 DUP2 SLOAD DUP2 LT PUSH2 0x1643 JUMPI PUSH0 DUP1 REVERT JUMPDEST SWAP1 PUSH0 MSTORE PUSH1 0x20 PUSH0 KECCAK256 ADD PUSH0 SWAP2 POP SWAP2 POP SWAP1 SLOAD SWAP1 PUSH2 0x100 EXP SWAP1 DIV PUSH20 0xFFFFFFFFFFFFFFFFFFFFFFFFFFFFFFFFFFFFFFFF AND DUP2 JUMP JUMPDEST PUSH1 0x60 PUSH2 0x16B9 PUSH1 0x4 PUSH0 DUP5 PUSH20 0xFFFFFFFFFFFFFFFFFFFFFFFFFFFFFFFFFFFFFFFF AND PUSH20 0xFFFFFFFFFFFFFFFFFFFFFFFFFFFFFFFFFFFFFFFF AND DUP2 MSTORE PUSH1 0x20 ADD SWAP1 DUP2 MSTORE PUSH1 0x20 ADD PUSH0 KECCAK256 PUSH2 0x25F6 JUMP JUMPDEST SWAP1 POP SWAP2 SWAP1 POP JUMP JUMPDEST PUSH0 DUP1 PUSH1 0x8 PUSH0 DUP5 PUSH20 0xFFFFFFFFFFFFFFFFFFFFFFFFFFFFFFFFFFFFFFFF AND PUSH20 0xFFFFFFFFFFFFFFFFFFFFFFFFFFFFFFFFFFFFFFFF AND DUP2 MSTORE PUSH1 0x20 ADD SWAP1 DUP2 MSTORE PUSH1 0x20 ADD PUSH0 KECCAK256 SLOAD SUB PUSH2 0x170E JUMPI PUSH1 0x1 SWAP1 POP PUSH2 0x176D JUMP JUMPDEST PUSH3 0x15180 PUSH1 0x8 PUSH0 DUP5 PUSH20 0xFFFFFFFFFFFFFFFFFFFFFFFFFFFFFFFFFFFFFFFF AND PUSH20 0xFFFFFFFFFFFFFFFFFFFFFFFFFFFFFFFFFFFFFFFF AND DUP2 MSTORE PUSH1 0x20 ADD SWAP1 DUP2 MSTORE PUSH1 0x20 ADD PUSH0 KECCAK256 SLOAD PUSH2 0x175A SWAP2 SWAP1 PUSH2 0x4A21 JUMP JUMPDEST TIMESTAMP LT PUSH2 0x1769 JUMPI PUSH1 0x1 SWAP1 POP PUSH2 0x176D JUMP JUMPDEST PUSH0 SWAP1 POP JUMPDEST SWAP2 SWAP1 POP JUMP JUMPDEST PUSH2 0x177A PUSH2 0x23C0 JUMP JUMPDEST DUP1 PUSH1 0x7 DUP2 SWAP1 SSTORE POP POP JUMP JUMPDEST PUSH0 DUP1 PUSH2 0x178F DUP4 PUSH2 0x10DD JUMP JUMPDEST GT SWAP1 POP SWAP2 SWAP1 POP JUMP JUMPDEST PUSH0 PUSH20 0x0 PUSH4 0xB3B2981E DUP10 DUP10 DUP10 DUP10 DUP10 DUP10 DUP10 PUSH1 0x40 MLOAD DUP9 PUSH4 0xFFFFFFFF AND PUSH1 0xE0 SHL DUP2 MSTORE PUSH1 0x4 ADD PUSH2 0x17DB SWAP8 SWAP7 SWAP6 SWAP5 SWAP4 SWAP3 SWAP2 SWAP1 PUSH2 0x4B1B JUMP JUMPDEST PUSH1 0x20 PUSH1 0x40 MLOAD DUP1 DUP4 SUB DUP2 DUP7 GAS DELEGATECALL ISZERO DUP1 ISZERO PUSH2 0x17F6 JUMPI RETURNDATASIZE PUSH0 DUP1 RETURNDATACOPY RETURNDATASIZE PUSH0 REVERT JUMPDEST POP POP POP POP PUSH1 0x40 MLOAD RETURNDATASIZE PUSH1 0x1F NOT PUSH1 0x1F DUP3 ADD AND DUP3 ADD DUP1 PUSH1 0x40 MSTORE POP DUP2 ADD SWAP1 PUSH2 0x181A SWAP2 SWAP1 PUSH2 0x4BB1 JUMP JUMPDEST SWAP1 POP PUSH0 DUP2 PUSH20 0xFFFFFFFFFFFFFFFFFFFFFFFFFFFFFFFFFFFFFFFF AND PUSH0 SHL SWAP1 POP PUSH2 0x1853 ADDRESS DUP3 PUSH1 0x1 PUSH1 0x40 MLOAD DUP1 PUSH1 0x20 ADD PUSH1 0x40 MSTORE DUP1 PUSH0 DUP2 MSTORE POP PUSH2 0x2615 JUMP JUMPDEST TIMESTAMP PUSH1 0x8 PUSH0 DUP7 PUSH20 0xFFFFFFFFFFFFFFFFFFFFFFFFFFFFFFFFFFFFFFFF AND PUSH20 0xFFFFFFFFFFFFFFFFFFFFFFFFFFFFFFFFFFFFFFFF AND DUP2 MSTORE PUSH1 0x20 ADD SWAP1 DUP2 MSTORE PUSH1 0x20 ADD PUSH0 KECCAK256 DUP2 SWAP1 SSTORE POP POP SWAP8 SWAP7 POP POP POP POP POP POP POP JUMP JUMPDEST PUSH2 0x18A9 PUSH2 0x23C0 JUMP JUMPDEST DUP2 MLOAD DUP4 MLOAD EQ ISZERO DUP1 PUSH2 0x18BC JUMPI POP DUP1 MLOAD DUP3 MLOAD EQ ISZERO JUMPDEST ISZERO PUSH2 0x18F3 JUMPI PUSH1 0x40 MLOAD PUSH32 0x2FA71DFE00000000000000000000000000000000000000000000000000000000 DUP2 MSTORE PUSH1 0x4 ADD PUSH1 0x40 MLOAD DUP1 SWAP2 SUB SWAP1 REVERT JUMPDEST PUSH0 DUP4 MLOAD SUB PUSH2 0x192D JUMPI PUSH1 0x40 MLOAD PUSH32 0x80C9830500000000000000000000000000000000000000000000000000000000 DUP2 MSTORE PUSH1 0x4 ADD PUSH1 0x40 MLOAD DUP1 SWAP2 SUB SWAP1 REVERT JUMPDEST PUSH0 JUMPDEST DUP4 MLOAD DUP2 LT ISZERO PUSH2 0x199C JUMPI PUSH2 0x1991 DUP5 DUP3 DUP2 MLOAD DUP2 LT PUSH2 0x194E JUMPI PUSH2 0x194D PUSH2 0x4805 JUMP JUMPDEST JUMPDEST PUSH1 0x20 MUL PUSH1 0x20 ADD ADD MLOAD DUP5 DUP4 DUP2 MLOAD DUP2 LT PUSH2 0x1969 JUMPI PUSH2 0x1968 PUSH2 0x4805 JUMP JUMPDEST JUMPDEST PUSH1 0x20 MUL PUSH1 0x20 ADD ADD MLOAD DUP5 DUP5 DUP2 MLOAD DUP2 LT PUSH2 0x1984 JUMPI PUSH2 0x1983 PUSH2 0x4805 JUMP JUMPDEST JUMPDEST PUSH1 0x20 MUL PUSH1 0x20 ADD ADD MLOAD PUSH2 0x2883 JUMP JUMPDEST DUP1 PUSH1 0x1 ADD SWAP1 POP PUSH2 0x192F JUMP JUMPDEST POP POP POP POP JUMP JUMPDEST PUSH1 0x60 PUSH1 0x9 PUSH0 DUP4 PUSH20 0xFFFFFFFFFFFFFFFFFFFFFFFFFFFFFFFFFFFFFFFF AND PUSH20 0xFFFFFFFFFFFFFFFFFFFFFFFFFFFFFFFFFFFFFFFF AND DUP2 MSTORE PUSH1 0x20 ADD SWAP1 DUP2 MSTORE PUSH1 0x20 ADD PUSH0 KECCAK256 DUP1 SLOAD DUP1 PUSH1 0x20 MUL PUSH1 0x20 ADD PUSH1 0x40 MLOAD SWAP1 DUP2 ADD PUSH1 0x40 MSTORE DUP1 SWAP3 SWAP2 SWAP1 DUP2 DUP2 MSTORE PUSH1 0x20 ADD DUP3 DUP1 SLOAD DUP1 ISZERO PUSH2 0x1A5E JUMPI PUSH1 0x20 MUL DUP3 ADD SWAP2 SWAP1 PUSH0 MSTORE PUSH1 0x20 PUSH0 KECCAK256 SWAP1 JUMPDEST DUP2 PUSH0 SWAP1 SLOAD SWAP1 PUSH2 0x100 EXP SWAP1 DIV PUSH20 0xFFFFFFFFFFFFFFFFFFFFFFFFFFFFFFFFFFFFFFFF AND PUSH20 0xFFFFFFFFFFFFFFFFFFFFFFFFFFFFFFFFFFFFFFFF AND DUP2 MSTORE PUSH1 0x20 ADD SWAP1 PUSH1 0x1 ADD SWAP1 DUP1 DUP4 GT PUSH2 0x1A15 JUMPI JUMPDEST POP POP POP POP POP SWAP1 POP SWAP2 SWAP1 POP JUMP JUMPDEST PUSH2 0x1A72 PUSH2 0x23C0 JUMP JUMPDEST PUSH2 0x1A7D DUP4 DUP4 DUP4 PUSH2 0x2883 JUMP JUMPDEST POP POP POP JUMP JUMPDEST PUSH0 PUSH2 0x1A8C DUP5 PUSH2 0xC28 JUMP JUMPDEST SWAP1 POP DUP1 PUSH20 0xFFFFFFFFFFFFFFFFFFFFFFFFFFFFFFFFFFFFFFFF AND CALLER PUSH20 0xFFFFFFFFFFFFFFFFFFFFFFFFFFFFFFFFFFFFFFFF AND EQ PUSH2 0x1B36 JUMPI CALLER PUSH20 0xFFFFFFFFFFFFFFFFFFFFFFFFFFFFFFFFFFFFFFFF AND DUP6 PUSH20 0xFFFFFFFFFFFFFFFFFFFFFFFFFFFFFFFFFFFFFFFF AND EQ PUSH2 0x1B35 JUMPI CALLER DUP2 DUP6 PUSH1 0x40 MLOAD PUSH32 0x760B5ACD00000000000000000000000000000000000000000000000000000000 DUP2 MSTORE PUSH1 0x4 ADD PUSH2 0x1B2C SWAP4 SWAP3 SWAP2 SWAP1 PUSH2 0x4BDC JUMP JUMPDEST PUSH1 0x40 MLOAD DUP1 SWAP2 SUB SWAP1 REVERT JUMPDEST JUMPDEST PUSH0 PUSH20 0xFFFFFFFFFFFFFFFFFFFFFFFFFFFFFFFFFFFFFFFF AND DUP6 PUSH20 0xFFFFFFFFFFFFFFFFFFFFFFFFFFFFFFFFFFFFFFFF AND SUB PUSH2 0x1B9B JUMPI PUSH1 0x40 MLOAD PUSH32 0x9577B8B300000000000000000000000000000000000000000000000000000000 DUP2 MSTORE PUSH1 0x4 ADD PUSH1 0x40 MLOAD DUP1 SWAP2 SUB SWAP1 REVERT JUMPDEST DUP5 PUSH20 0xFFFFFFFFFFFFFFFFFFFFFFFFFFFFFFFFFFFFFFFF AND DUP2 PUSH20 0xFFFFFFFFFFFFFFFFFFFFFFFFFFFFFFFFFFFFFFFF AND SUB PUSH2 0x1C00 JUMPI PUSH1 0x40 MLOAD PUSH32 0x89FDAD6200000000000000000000000000000000000000000000000000000000 DUP2 MSTORE PUSH1 0x4 ADD PUSH1 0x40 MLOAD DUP1 SWAP2 SUB SWAP1 REVERT JUMPDEST PUSH2 0x1C0D DUP6 DUP3 DUP7 DUP7 DUP7 PUSH2 0x28CC JUMP JUMPDEST DUP3 ISZERO PUSH2 0x1C48 JUMPI PUSH0 DUP2 DUP6 PUSH0 DUP6 PUSH1 0x40 MLOAD PUSH1 0x20 ADD PUSH2 0x1C2B SWAP5 SWAP4 SWAP3 SWAP2 SWAP1 PUSH2 0x49D7 JUMP JUMPDEST PUSH1 0x40 MLOAD PUSH1 0x20 DUP2 DUP4 SUB SUB DUP2 MSTORE SWAP1 PUSH1 0x40 MSTORE SWAP1 POP PUSH2 0x1C46 DUP7 DUP3 PUSH2 0x25C5 JUMP JUMPDEST POP JUMPDEST POP POP POP POP POP JUMP JUMPDEST PUSH1 0x60 DUP2 MLOAD PUSH8 0xFFFFFFFFFFFFFFFF DUP2 GT ISZERO PUSH2 0x1C6C JUMPI PUSH2 0x1C6B PUSH2 0x36DF JUMP JUMPDEST JUMPDEST PUSH1 0x40 MLOAD SWAP1 DUP1 DUP3 MSTORE DUP1 PUSH1 0x20 MUL PUSH1 0x20 ADD DUP3 ADD PUSH1 0x40 MSTORE DUP1 ISZERO PUSH2 0x1C9F JUMPI DUP2 PUSH1 0x20 ADD JUMPDEST PUSH1 0x60 DUP2 MSTORE PUSH1 0x20 ADD SWAP1 PUSH1 0x1 SWAP1 SUB SWAP1 DUP2 PUSH2 0x1C8A JUMPI SWAP1 POP JUMPDEST POP SWAP1 POP PUSH0 JUMPDEST DUP3 MLOAD DUP2 LT ISZERO PUSH2 0x1CF9 JUMPI PUSH2 0x1CD0 DUP4 DUP3 DUP2 MLOAD DUP2 LT PUSH2 0x1CC3 JUMPI PUSH2 0x1CC2 PUSH2 0x4805 JUMP JUMPDEST JUMPDEST PUSH1 0x20 MUL PUSH1 0x20 ADD ADD MLOAD PUSH2 0x230C JUMP JUMPDEST DUP3 DUP3 DUP2 MLOAD DUP2 LT PUSH2 0x1CE3 JUMPI PUSH2 0x1CE2 PUSH2 0x4805 JUMP JUMPDEST JUMPDEST PUSH1 0x20 MUL PUSH1 0x20 ADD ADD DUP2 SWAP1 MSTORE POP DUP1 PUSH1 0x1 ADD SWAP1 POP PUSH2 0x1CA4 JUMP JUMPDEST POP SWAP2 SWAP1 POP JUMP JUMPDEST PUSH2 0x1D07 PUSH2 0x23C0 JUMP JUMPDEST PUSH0 PUSH20 0xFFFFFFFFFFFFFFFFFFFFFFFFFFFFFFFFFFFFFFFF AND DUP2 PUSH20 0xFFFFFFFFFFFFFFFFFFFFFFFFFFFFFFFFFFFFFFFF AND SUB PUSH2 0x1D6C JUMPI PUSH1 0x40 MLOAD PUSH32 0x1AD8836C00000000000000000000000000000000000000000000000000000000 DUP2 MSTORE PUSH1 0x4 ADD PUSH1 0x40 MLOAD DUP1 SWAP2 SUB SWAP1 REVERT JUMPDEST PUSH2 0x1D75 DUP2 PUSH2 0x2439 JUMP JUMPDEST POP JUMP JUMPDEST PUSH1 0x7 SLOAD DUP2 JUMP JUMPDEST PUSH0 DUP1 PUSH0 PUSH2 0x1DB7 PUSH10 0xCEE78B4094DA86011096 PUSH1 0xB0 SHL DUP6 PUSH28 0xFFFFFFFFFFFFFFFFFFFFFFFFFFFFFFFFFFFFFFFFFFFFFFFFFFFFFFFF NOT AND PUSH2 0x29A6 JUMP JUMPDEST SWAP1 POP PUSH0 PUSH2 0x1DC3 DUP3 PUSH2 0x230C JUMP JUMPDEST SWAP1 POP PUSH1 0x14 DUP2 MLOAD EQ ISZERO DUP1 ISZERO PUSH2 0x1DD8 JUMPI POP PUSH0 DUP2 MLOAD EQ ISZERO JUMPDEST ISZERO PUSH2 0x1E1A JUMPI DUP1 PUSH1 0x40 MLOAD PUSH32 0x42BFE79F00000000000000000000000000000000000000000000000000000000 DUP2 MSTORE PUSH1 0x4 ADD PUSH2 0x1E11 SWAP2 SWAP1 PUSH2 0x36BB JUMP JUMPDEST PUSH1 0x40 MLOAD DUP1 SWAP2 SUB SWAP1 REVERT JUMPDEST DUP1 PUSH2 0x1E24 SWAP1 PUSH2 0x4C6B JUMP JUMPDEST PUSH1 0x60 SHR PUSH1 0x1 SWAP4 POP SWAP4 POP POP POP SWAP2 POP SWAP2 JUMP JUMPDEST PUSH0 PUSH4 0xA918FA6B PUSH1 0xE0 SHL PUSH28 0xFFFFFFFFFFFFFFFFFFFFFFFFFFFFFFFFFFFFFFFFFFFFFFFFFFFFFFFF NOT AND DUP3 PUSH28 0xFFFFFFFFFFFFFFFFFFFFFFFFFFFFFFFFFFFFFFFFFFFFFFFFFFFFFFFF NOT AND EQ DUP1 PUSH2 0x1E8D JUMPI POP PUSH2 0x1E8C DUP3 PUSH2 0x29E4 JUMP JUMPDEST JUMPDEST SWAP1 POP SWAP2 SWAP1 POP JUMP JUMPDEST PUSH0 DUP1 PUSH2 0x1EA6 PUSH4 0x1FFC9A7 PUSH1 0xE0 SHL PUSH2 0x1D7E JUMP JUMPDEST POP SWAP1 POP PUSH0 PUSH20 0xFFFFFFFFFFFFFFFFFFFFFFFFFFFFFFFFFFFFFFFF AND DUP2 PUSH20 0xFFFFFFFFFFFFFFFFFFFFFFFFFFFFFFFFFFFFFFFF AND SUB PUSH2 0x1EE5 JUMPI PUSH0 SWAP2 POP POP PUSH2 0x1EF3 JUMP JUMPDEST PUSH2 0x1EEF DUP2 DUP5 PUSH2 0x2A44 JUMP JUMPDEST SWAP2 POP POP JUMPDEST SWAP2 SWAP1 POP JUMP JUMPDEST PUSH1 0x60 PUSH2 0x1F04 DUP4 DUP4 PUSH2 0x2ADD JUMP JUMPDEST SWAP1 POP SWAP3 SWAP2 POP POP JUMP JUMPDEST PUSH0 PUSH2 0x1F16 DUP3 PUSH2 0xC28 JUMP JUMPDEST PUSH20 0xFFFFFFFFFFFFFFFFFFFFFFFFFFFFFFFFFFFFFFFF AND DUP4 PUSH20 0xFFFFFFFFFFFFFFFFFFFFFFFFFFFFFFFFFFFFFFFF AND EQ DUP1 PUSH2 0x1F6E JUMPI POP PUSH2 0x1F6D DUP4 PUSH1 0x5 PUSH0 DUP6 DUP2 MSTORE PUSH1 0x20 ADD SWAP1 DUP2 MSTORE PUSH1 0x20 ADD PUSH0 KECCAK256 PUSH2 0x2B64 SWAP1 SWAP2 SWAP1 PUSH4 0xFFFFFFFF AND JUMP JUMPDEST JUMPDEST SWAP1 POP SWAP3 SWAP2 POP POP JUMP JUMPDEST PUSH2 0x1F7F DUP2 PUSH2 0x2B91 JUMP JUMPDEST PUSH2 0x1FC0 JUMPI DUP1 PUSH1 0x40 MLOAD PUSH32 0xAE8F9A3600000000000000000000000000000000000000000000000000000000 DUP2 MSTORE PUSH1 0x4 ADD PUSH2 0x1FB7 SWAP2 SWAP1 PUSH2 0x4841 JUMP JUMPDEST PUSH1 0x40 MLOAD DUP1 SWAP2 SUB SWAP1 REVERT JUMPDEST POP JUMP JUMPDEST PUSH1 0x60 PUSH0 PUSH2 0x1FD1 DUP4 PUSH0 ADD PUSH2 0x2BF9 JUMP JUMPDEST SWAP1 POP PUSH1 0x60 DUP2 SWAP1 POP DUP1 SWAP3 POP POP POP SWAP2 SWAP1 POP JUMP JUMPDEST PUSH0 PUSH2 0x1FEC DUP5 PUSH2 0xC28 JUMP JUMPDEST SWAP1 POP DUP6 PUSH20 0xFFFFFFFFFFFFFFFFFFFFFFFFFFFFFFFFFFFFFFFF AND DUP2 PUSH20 0xFFFFFFFFFFFFFFFFFFFFFFFFFFFFFFFFFFFFFFFF AND EQ PUSH2 0x2062 JUMPI DUP1 DUP5 DUP8 PUSH1 0x40 MLOAD PUSH32 0x5B271EA200000000000000000000000000000000000000000000000000000000 DUP2 MSTORE PUSH1 0x4 ADD PUSH2 0x2059 SWAP4 SWAP3 SWAP2 SWAP1 PUSH2 0x497B JUMP JUMPDEST PUSH1 0x40 MLOAD DUP1 SWAP2 SUB SWAP1 REVERT JUMPDEST PUSH0 PUSH20 0xFFFFFFFFFFFFFFFFFFFFFFFFFFFFFFFFFFFFFFFF AND DUP6 PUSH20 0xFFFFFFFFFFFFFFFFFFFFFFFFFFFFFFFFFFFFFFFF AND SUB PUSH2 0x20C7 JUMPI PUSH1 0x40 MLOAD PUSH32 0x24ECEF4D00000000000000000000000000000000000000000000000000000000 DUP2 MSTORE PUSH1 0x4 ADD PUSH1 0x40 MLOAD DUP1 SWAP2 SUB SWAP1 REVERT JUMPDEST PUSH2 0x20D3 DUP7 DUP7 DUP7 DUP6 PUSH2 0x2C52 JUMP JUMPDEST PUSH0 PUSH2 0x20DD DUP6 PUSH2 0xC28 JUMP JUMPDEST SWAP1 POP DUP1 PUSH20 0xFFFFFFFFFFFFFFFFFFFFFFFFFFFFFFFFFFFFFFFF AND DUP3 PUSH20 0xFFFFFFFFFFFFFFFFFFFFFFFFFFFFFFFFFFFFFFFF AND EQ PUSH2 0x2153 JUMPI DUP5 DUP3 DUP3 PUSH1 0x40 MLOAD PUSH32 0x5A9C31D300000000000000000000000000000000000000000000000000000000 DUP2 MSTORE PUSH1 0x4 ADD PUSH2 0x214A SWAP4 SWAP3 SWAP2 SWAP1 PUSH2 0x4CD1 JUMP JUMPDEST PUSH1 0x40 MLOAD DUP1 SWAP2 SUB SWAP1 REVERT JUMPDEST PUSH2 0x215D DUP8 DUP7 PUSH2 0x2C58 JUMP JUMPDEST PUSH2 0x21AC DUP6 PUSH1 0x4 PUSH0 DUP11 PUSH20 0xFFFFFFFFFFFFFFFFFFFFFFFFFFFFFFFFFFFFFFFF AND PUSH20 0xFFFFFFFFFFFFFFFFFFFFFFFFFFFFFFFFFFFFFFFF AND DUP2 MSTORE PUSH1 0x20 ADD SWAP1 DUP2 MSTORE PUSH1 0x20 ADD PUSH0 KECCAK256 PUSH2 0x2CC6 SWAP1 SWAP2 SWAP1 PUSH4 0xFFFFFFFF AND JUMP JUMPDEST POP PUSH2 0x21FC DUP6 PUSH1 0x4 PUSH0 DUP10 PUSH20 0xFFFFFFFFFFFFFFFFFFFFFFFFFFFFFFFFFFFFFFFF AND PUSH20 0xFFFFFFFFFFFFFFFFFFFFFFFFFFFFFFFFFFFFFFFF AND DUP2 MSTORE PUSH1 0x20 ADD SWAP1 DUP2 MSTORE PUSH1 0x20 ADD PUSH0 KECCAK256 PUSH2 0x2CDB SWAP1 SWAP2 SWAP1 PUSH4 0xFFFFFFFF AND JUMP JUMPDEST POP DUP6 PUSH1 0x3 PUSH0 DUP8 DUP2 MSTORE PUSH1 0x20 ADD SWAP1 DUP2 MSTORE PUSH1 0x20 ADD PUSH0 KECCAK256 PUSH0 PUSH2 0x100 EXP DUP2 SLOAD DUP2 PUSH20 0xFFFFFFFFFFFFFFFFFFFFFFFFFFFFFFFFFFFFFFFF MUL NOT AND SWAP1 DUP4 PUSH20 0xFFFFFFFFFFFFFFFFFFFFFFFFFFFFFFFFFFFFFFFF AND MUL OR SWAP1 SSTORE POP DUP5 DUP7 PUSH20 0xFFFFFFFFFFFFFFFFFFFFFFFFFFFFFFFFFFFFFFFF AND DUP9 PUSH20 0xFFFFFFFFFFFFFFFFFFFFFFFFFFFFFFFFFFFFFFFF AND PUSH32 0xB333C813A7426A7A11E2B190CAD52C44119421594B47F6F32ACE6D8C7207B2BF CALLER DUP9 DUP9 PUSH1 0x40 MLOAD PUSH2 0x22AE SWAP4 SWAP3 SWAP2 SWAP1 PUSH2 0x4D06 JUMP JUMPDEST PUSH1 0x40 MLOAD DUP1 SWAP2 SUB SWAP1 LOG4 PUSH2 0x22C2 DUP8 DUP8 DUP8 DUP7 PUSH2 0x2CF0 JUMP JUMPDEST PUSH0 CALLER DUP9 DUP9 DUP9 DUP8 PUSH1 0x40 MLOAD PUSH1 0x20 ADD PUSH2 0x22DC SWAP6 SWAP5 SWAP4 SWAP3 SWAP2 SWAP1 PUSH2 0x4D42 JUMP JUMPDEST PUSH1 0x40 MLOAD PUSH1 0x20 DUP2 DUP4 SUB SUB DUP2 MSTORE SWAP1 PUSH1 0x40 MSTORE SWAP1 POP PUSH2 0x22F7 DUP9 DUP3 PUSH2 0x2CF6 JUMP JUMPDEST PUSH2 0x2302 DUP8 DUP7 DUP4 PUSH2 0x2D27 JUMP JUMPDEST POP POP POP POP POP POP POP POP JUMP JUMPDEST PUSH1 0x60 PUSH1 0x1 PUSH0 DUP4 DUP2 MSTORE PUSH1 0x20 ADD SWAP1 DUP2 MSTORE PUSH1 0x20 ADD PUSH0 KECCAK256 DUP1 SLOAD PUSH2 0x232A SWAP1 PUSH2 0x4DC7 JUMP JUMPDEST DUP1 PUSH1 0x1F ADD PUSH1 0x20 DUP1 SWAP2 DIV MUL PUSH1 0x20 ADD PUSH1 0x40 MLOAD SWAP1 DUP2 ADD PUSH1 0x40 MSTORE DUP1 SWAP3 SWAP2 SWAP1 DUP2 DUP2 MSTORE PUSH1 0x20 ADD DUP3 DUP1 SLOAD PUSH2 0x2356 SWAP1 PUSH2 0x4DC7 JUMP JUMPDEST DUP1 ISZERO PUSH2 0x23A1 JUMPI DUP1 PUSH1 0x1F LT PUSH2 0x2378 JUMPI PUSH2 0x100 DUP1 DUP4 SLOAD DIV MUL DUP4 MSTORE SWAP2 PUSH1 0x20 ADD SWAP2 PUSH2 0x23A1 JUMP JUMPDEST DUP3 ADD SWAP2 SWAP1 PUSH0 MSTORE PUSH1 0x20 PUSH0 KECCAK256 SWAP1 JUMPDEST DUP2 SLOAD DUP2 MSTORE SWAP1 PUSH1 0x1 ADD SWAP1 PUSH1 0x20 ADD DUP1 DUP4 GT PUSH2 0x2384 JUMPI DUP3 SWAP1 SUB PUSH1 0x1F AND DUP3 ADD SWAP2 JUMPDEST POP POP POP POP POP SWAP1 POP SWAP2 SWAP1 POP JUMP JUMPDEST PUSH0 PUSH2 0x23B9 DUP3 PUSH0 ADD PUSH2 0x2E86 JUMP JUMPDEST SWAP1 POP SWAP2 SWAP1 POP JUMP JUMPDEST CALLER PUSH20 0xFFFFFFFFFFFFFFFFFFFFFFFFFFFFFFFFFFFFFFFF AND PUSH2 0x23DF PUSH2 0x14F4 JUMP JUMPDEST PUSH20 0xFFFFFFFFFFFFFFFFFFFFFFFFFFFFFFFFFFFFFFFF AND EQ PUSH2 0x2437 JUMPI CALLER PUSH1 0x40 MLOAD PUSH32 0xBF1169C500000000000000000000000000000000000000000000000000000000 DUP2 MSTORE PUSH1 0x4 ADD PUSH2 0x242E SWAP2 SWAP1 PUSH2 0x39EE JUMP JUMPDEST PUSH1 0x40 MLOAD DUP1 SWAP2 SUB SWAP1 REVERT JUMPDEST JUMP JUMPDEST PUSH2 0x2441 PUSH2 0x14F4 JUMP JUMPDEST PUSH20 0xFFFFFFFFFFFFFFFFFFFFFFFFFFFFFFFFFFFFFFFF AND DUP2 PUSH20 0xFFFFFFFFFFFFFFFFFFFFFFFFFFFFFFFFFFFFFFFF AND EQ PUSH2 0x252C JUMPI DUP1 PUSH20 0xFFFFFFFFFFFFFFFFFFFFFFFFFFFFFFFFFFFFFFFF AND PUSH0 DUP1 SLOAD SWAP1 PUSH2 0x100 EXP SWAP1 DIV PUSH20 0xFFFFFFFFFFFFFFFFFFFFFFFFFFFFFFFFFFFFFFFF AND PUSH20 0xFFFFFFFFFFFFFFFFFFFFFFFFFFFFFFFFFFFFFFFF AND PUSH32 0x8BE0079C531659141344CD1FD0A4F28419497F9722A3DAAFE3B4186F6B6457E0 PUSH1 0x40 MLOAD PUSH1 0x40 MLOAD DUP1 SWAP2 SUB SWAP1 LOG3 DUP1 PUSH0 DUP1 PUSH2 0x100 EXP DUP2 SLOAD DUP2 PUSH20 0xFFFFFFFFFFFFFFFFFFFFFFFFFFFFFFFFFFFFFFFF MUL NOT AND SWAP1 DUP4 PUSH20 0xFFFFFFFFFFFFFFFFFFFFFFFFFFFFFFFFFFFFFFFF AND MUL OR SWAP1 SSTORE POP JUMPDEST POP JUMP JUMPDEST PUSH32 0xF675E9361AF1C1664C1868CFA3EB97672D6B1A513AA5B81DEC34C9EE330E818D PUSH0 SHL DUP3 SUB PUSH2 0x258A JUMPI PUSH1 0x40 MLOAD PUSH32 0x3664800A00000000000000000000000000000000000000000000000000000000 DUP2 MSTORE PUSH1 0x4 ADD PUSH1 0x40 MLOAD DUP1 SWAP2 SUB SWAP1 REVERT JUMPDEST PUSH2 0x2594 DUP3 DUP3 PUSH2 0x2E95 JUMP JUMPDEST POP POP JUMP JUMPDEST PUSH0 PUSH2 0x25BD DUP4 PUSH0 ADD DUP4 PUSH20 0xFFFFFFFFFFFFFFFFFFFFFFFFFFFFFFFFFFFFFFFF AND PUSH0 SHL PUSH2 0x2EA3 JUMP JUMPDEST SWAP1 POP SWAP3 SWAP2 POP POP JUMP JUMPDEST PUSH2 0x25F2 DUP3 PUSH32 0x8A1C15A8799F71B547E08E2BCB2E85257E81B0A07EEE2CE6712549EEF1F00970 PUSH0 SHL DUP4 PUSH2 0x2F0A JUMP JUMPDEST POP POP JUMP JUMPDEST PUSH1 0x60 PUSH0 PUSH2 0x2604 DUP4 PUSH0 ADD PUSH2 0x2BF9 JUMP JUMPDEST SWAP1 POP PUSH1 0x60 DUP2 SWAP1 POP DUP1 SWAP3 POP POP POP SWAP2 SWAP1 POP JUMP JUMPDEST PUSH0 PUSH20 0xFFFFFFFFFFFFFFFFFFFFFFFFFFFFFFFFFFFFFFFF AND DUP5 PUSH20 0xFFFFFFFFFFFFFFFFFFFFFFFFFFFFFFFFFFFFFFFF AND SUB PUSH2 0x267A JUMPI PUSH1 0x40 MLOAD PUSH32 0x24ECEF4D00000000000000000000000000000000000000000000000000000000 DUP2 MSTORE PUSH1 0x4 ADD PUSH1 0x40 MLOAD DUP1 SWAP2 SUB SWAP1 REVERT JUMPDEST PUSH2 0x2683 DUP4 PUSH2 0x2B91 JUMP JUMPDEST ISZERO PUSH2 0x26C5 JUMPI DUP3 PUSH1 0x40 MLOAD PUSH32 0x34C7B51100000000000000000000000000000000000000000000000000000000 DUP2 MSTORE PUSH1 0x4 ADD PUSH2 0x26BC SWAP2 SWAP1 PUSH2 0x4841 JUMP JUMPDEST PUSH1 0x40 MLOAD DUP1 SWAP2 SUB SWAP1 REVERT JUMPDEST PUSH2 0x26D1 PUSH0 DUP6 DUP6 DUP5 PUSH2 0x2C52 JUMP JUMPDEST PUSH2 0x26DA DUP4 PUSH2 0x2B91 JUMP JUMPDEST ISZERO PUSH2 0x271C JUMPI DUP3 PUSH1 0x40 MLOAD PUSH32 0x34C7B51100000000000000000000000000000000000000000000000000000000 DUP2 MSTORE PUSH1 0x4 ADD PUSH2 0x2713 SWAP2 SWAP1 PUSH2 0x4841 JUMP JUMPDEST PUSH1 0x40 MLOAD DUP1 SWAP2 SUB SWAP1 REVERT JUMPDEST PUSH1 0x2 PUSH0 DUP2 SLOAD PUSH2 0x272A SWAP1 PUSH2 0x4887 JUMP JUMPDEST SWAP2 SWAP1 POP DUP2 SWAP1 SSTORE POP PUSH2 0x2780 DUP4 PUSH1 0x4 PUSH0 DUP8 PUSH20 0xFFFFFFFFFFFFFFFFFFFFFFFFFFFFFFFFFFFFFFFF AND PUSH20 0xFFFFFFFFFFFFFFFFFFFFFFFFFFFFFFFFFFFFFFFF AND DUP2 MSTORE PUSH1 0x20 ADD SWAP1 DUP2 MSTORE PUSH1 0x20 ADD PUSH0 KECCAK256 PUSH2 0x2CDB SWAP1 SWAP2 SWAP1 PUSH4 0xFFFFFFFF AND JUMP JUMPDEST POP DUP4 PUSH1 0x3 PUSH0 DUP6 DUP2 MSTORE PUSH1 0x20 ADD SWAP1 DUP2 MSTORE PUSH1 0x20 ADD PUSH0 KECCAK256 PUSH0 PUSH2 0x100 EXP DUP2 SLOAD DUP2 PUSH20 0xFFFFFFFFFFFFFFFFFFFFFFFFFFFFFFFFFFFFFFFF MUL NOT AND SWAP1 DUP4 PUSH20 0xFFFFFFFFFFFFFFFFFFFFFFFFFFFFFFFFFFFFFFFF AND MUL OR SWAP1 SSTORE POP DUP3 DUP5 PUSH20 0xFFFFFFFFFFFFFFFFFFFFFFFFFFFFFFFFFFFFFFFF AND PUSH0 PUSH20 0xFFFFFFFFFFFFFFFFFFFFFFFFFFFFFFFFFFFFFFFF AND PUSH32 0xB333C813A7426A7A11E2B190CAD52C44119421594B47F6F32ACE6D8C7207B2BF CALLER DUP7 DUP7 PUSH1 0x40 MLOAD PUSH2 0x2832 SWAP4 SWAP3 SWAP2 SWAP1 PUSH2 0x4D06 JUMP JUMPDEST PUSH1 0x40 MLOAD DUP1 SWAP2 SUB SWAP1 LOG4 PUSH2 0x2846 PUSH0 DUP6 DUP6 DUP5 PUSH2 0x2CF0 JUMP JUMPDEST PUSH0 CALLER PUSH0 DUP7 DUP7 DUP6 PUSH1 0x40 MLOAD PUSH1 0x20 ADD PUSH2 0x2860 SWAP6 SWAP5 SWAP4 SWAP3 SWAP2 SWAP1 PUSH2 0x4D42 JUMP JUMPDEST PUSH1 0x40 MLOAD PUSH1 0x20 DUP2 DUP4 SUB SUB DUP2 MSTORE SWAP1 PUSH1 0x40 MSTORE SWAP1 POP PUSH2 0x287C DUP6 DUP5 DUP4 PUSH2 0x2D27 JUMP JUMPDEST POP POP POP POP POP JUMP JUMPDEST PUSH2 0x288E DUP4 DUP4 DUP4 PUSH2 0x2FC4 JUMP JUMPDEST DUP2 DUP4 PUSH32 0xA6E4251F855F750545FE414F120DB91C76B88DEF14D120969E5BB2D3F05DEBBB DUP4 PUSH1 0x40 MLOAD PUSH2 0x28BF SWAP2 SWAP1 PUSH2 0x36BB JUMP JUMPDEST PUSH1 0x40 MLOAD DUP1 SWAP2 SUB SWAP1 LOG3 POP POP POP JUMP JUMPDEST PUSH0 PUSH2 0x28F0 DUP7 PUSH1 0x5 PUSH0 DUP8 DUP2 MSTORE PUSH1 0x20 ADD SWAP1 DUP2 MSTORE PUSH1 0x20 ADD PUSH0 KECCAK256 PUSH2 0x3033 SWAP1 SWAP2 SWAP1 PUSH4 0xFFFFFFFF AND JUMP JUMPDEST SWAP1 POP DUP1 PUSH2 0x2936 JUMPI DUP6 DUP5 PUSH1 0x40 MLOAD PUSH32 0x4AA31A8C00000000000000000000000000000000000000000000000000000000 DUP2 MSTORE PUSH1 0x4 ADD PUSH2 0x292D SWAP3 SWAP2 SWAP1 PUSH2 0x49B0 JUMP JUMPDEST PUSH1 0x40 MLOAD DUP1 SWAP2 SUB SWAP1 REVERT JUMPDEST DUP4 DUP6 PUSH20 0xFFFFFFFFFFFFFFFFFFFFFFFFFFFFFFFFFFFFFFFF AND DUP8 PUSH20 0xFFFFFFFFFFFFFFFFFFFFFFFFFFFFFFFFFFFFFFFF AND PUSH32 0xC78CD419D6136F9F1C1C6AEC1D3FAE098CFFAF8BC86314A8F2685E32FE574E3C DUP7 DUP7 PUSH1 0x40 MLOAD PUSH2 0x2996 SWAP3 SWAP2 SWAP1 PUSH2 0x4DF7 JUMP JUMPDEST PUSH1 0x40 MLOAD DUP1 SWAP2 SUB SWAP1 LOG4 POP POP POP POP POP POP JUMP JUMPDEST PUSH0 DUP1 DUP4 PUSH0 PUSH1 0xF0 SHL DUP5 PUSH1 0x40 MLOAD PUSH1 0x20 ADD PUSH2 0x29C0 SWAP4 SWAP3 SWAP2 SWAP1 PUSH2 0x4EDB JUMP JUMPDEST PUSH1 0x40 MLOAD PUSH1 0x20 DUP2 DUP4 SUB SUB DUP2 MSTORE SWAP1 PUSH1 0x40 MSTORE SWAP1 POP DUP1 PUSH2 0x29DB SWAP1 PUSH2 0x4F2B JUMP JUMPDEST SWAP2 POP POP SWAP3 SWAP2 POP POP JUMP JUMPDEST PUSH0 PUSH4 0x629AA694 PUSH1 0xE0 SHL PUSH28 0xFFFFFFFFFFFFFFFFFFFFFFFFFFFFFFFFFFFFFFFFFFFFFFFFFFFFFFFF NOT AND DUP3 PUSH28 0xFFFFFFFFFFFFFFFFFFFFFFFFFFFFFFFFFFFFFFFFFFFFFFFFFFFFFFFF NOT AND EQ DUP1 PUSH2 0x2A3D JUMPI POP PUSH2 0x2A3C DUP3 PUSH2 0x3060 JUMP JUMPDEST JUMPDEST SWAP1 POP SWAP2 SWAP1 POP JUMP JUMPDEST PUSH0 DUP1 DUP3 PUSH1 0x40 MLOAD PUSH1 0x24 ADD PUSH2 0x2A57 SWAP2 SWAP1 PUSH2 0x46D9 JUMP JUMPDEST PUSH1 0x40 MLOAD PUSH1 0x20 DUP2 DUP4 SUB SUB DUP2 MSTORE SWAP1 PUSH1 0x40 MSTORE PUSH4 0x1FFC9A7 PUSH1 0xE0 SHL PUSH1 0x20 DUP3 ADD DUP1 MLOAD PUSH28 0xFFFFFFFFFFFFFFFFFFFFFFFFFFFFFFFFFFFFFFFFFFFFFFFFFFFFFFFF DUP4 DUP2 DUP4 AND OR DUP4 MSTORE POP POP POP POP SWAP1 POP PUSH0 DUP1 PUSH0 PUSH1 0x20 PUSH0 DUP6 MLOAD PUSH1 0x20 DUP8 ADD DUP11 PUSH2 0x7530 STATICCALL SWAP3 POP RETURNDATASIZE SWAP2 POP PUSH0 MLOAD SWAP1 POP DUP3 DUP1 ISZERO PUSH2 0x2AC6 JUMPI POP PUSH1 0x20 DUP3 LT ISZERO JUMPDEST DUP1 ISZERO PUSH2 0x2AD1 JUMPI POP PUSH0 DUP2 GT JUMPDEST SWAP5 POP POP POP POP POP SWAP3 SWAP2 POP POP JUMP JUMPDEST PUSH1 0x60 DUP3 PUSH0 SHR PUSH20 0xFFFFFFFFFFFFFFFFFFFFFFFFFFFFFFFFFFFFFFFF AND PUSH4 0x54F6127F DUP4 PUSH1 0x40 MLOAD DUP3 PUSH4 0xFFFFFFFF AND PUSH1 0xE0 SHL DUP2 MSTORE PUSH1 0x4 ADD PUSH2 0x2B1A SWAP2 SWAP1 PUSH2 0x4841 JUMP JUMPDEST PUSH0 PUSH1 0x40 MLOAD DUP1 DUP4 SUB DUP2 DUP7 GAS STATICCALL ISZERO DUP1 ISZERO PUSH2 0x2B34 JUMPI RETURNDATASIZE PUSH0 DUP1 RETURNDATACOPY RETURNDATASIZE PUSH0 REVERT JUMPDEST POP POP POP POP PUSH1 0x40 MLOAD RETURNDATASIZE PUSH0 DUP3 RETURNDATACOPY RETURNDATASIZE PUSH1 0x1F NOT PUSH1 0x1F DUP3 ADD AND DUP3 ADD DUP1 PUSH1 0x40 MSTORE POP DUP2 ADD SWAP1 PUSH2 0x2B5C SWAP2 SWAP1 PUSH2 0x4FFF JUMP JUMPDEST SWAP1 POP SWAP3 SWAP2 POP POP JUMP JUMPDEST PUSH0 PUSH2 0x2B89 DUP4 PUSH0 ADD DUP4 PUSH20 0xFFFFFFFFFFFFFFFFFFFFFFFFFFFFFFFFFFFFFFFF AND PUSH0 SHL PUSH2 0x30C9 JUMP JUMPDEST SWAP1 POP SWAP3 SWAP2 POP POP JUMP JUMPDEST PUSH0 DUP1 PUSH20 0xFFFFFFFFFFFFFFFFFFFFFFFFFFFFFFFFFFFFFFFF AND PUSH1 0x3 PUSH0 DUP5 DUP2 MSTORE PUSH1 0x20 ADD SWAP1 DUP2 MSTORE PUSH1 0x20 ADD PUSH0 KECCAK256 PUSH0 SWAP1 SLOAD SWAP1 PUSH2 0x100 EXP SWAP1 DIV PUSH20 0xFFFFFFFFFFFFFFFFFFFFFFFFFFFFFFFFFFFFFFFF AND PUSH20 0xFFFFFFFFFFFFFFFFFFFFFFFFFFFFFFFFFFFFFFFF AND EQ ISZERO SWAP1 POP SWAP2 SWAP1 POP JUMP JUMPDEST PUSH1 0x60 DUP2 PUSH0 ADD DUP1 SLOAD DUP1 PUSH1 0x20 MUL PUSH1 0x20 ADD PUSH1 0x40 MLOAD SWAP1 DUP2 ADD PUSH1 0x40 MSTORE DUP1 SWAP3 SWAP2 SWAP1 DUP2 DUP2 MSTORE PUSH1 0x20 ADD DUP3 DUP1 SLOAD DUP1 ISZERO PUSH2 0x2C46 JUMPI PUSH1 0x20 MUL DUP3 ADD SWAP2 SWAP1 PUSH0 MSTORE PUSH1 0x20 PUSH0 KECCAK256 SWAP1 JUMPDEST DUP2 SLOAD DUP2 MSTORE PUSH1 0x20 ADD SWAP1 PUSH1 0x1 ADD SWAP1 DUP1 DUP4 GT PUSH2 0x2C32 JUMPI JUMPDEST POP POP POP POP POP SWAP1 POP SWAP2 SWAP1 POP JUMP JUMPDEST POP POP POP POP JUMP JUMPDEST PUSH0 PUSH1 0x5 PUSH0 DUP4 DUP2 MSTORE PUSH1 0x20 ADD SWAP1 DUP2 MSTORE PUSH1 0x20 ADD PUSH0 KECCAK256 SWAP1 POP PUSH0 PUSH2 0x2C76 DUP3 PUSH2 0x30E9 JUMP JUMPDEST SWAP1 POP PUSH0 DUP1 JUMPDEST DUP3 DUP2 LT ISZERO PUSH2 0x2CBE JUMPI PUSH2 0x2C96 PUSH0 DUP6 PUSH2 0x30FC SWAP1 SWAP2 SWAP1 PUSH4 0xFFFFFFFF AND JUMP JUMPDEST SWAP2 POP PUSH2 0x2CB3 DUP3 DUP8 DUP8 PUSH0 PUSH1 0x40 MLOAD DUP1 PUSH1 0x20 ADD PUSH1 0x40 MSTORE DUP1 PUSH0 DUP2 MSTORE POP PUSH2 0x28CC JUMP JUMPDEST DUP1 PUSH1 0x1 ADD SWAP1 POP PUSH2 0x2C7B JUMP JUMPDEST POP POP POP POP POP POP JUMP JUMPDEST PUSH0 PUSH2 0x2CD3 DUP4 PUSH0 ADD DUP4 PUSH2 0x3113 JUMP JUMPDEST SWAP1 POP SWAP3 SWAP2 POP POP JUMP JUMPDEST PUSH0 PUSH2 0x2CE8 DUP4 PUSH0 ADD DUP4 PUSH2 0x2EA3 JUMP JUMPDEST SWAP1 POP SWAP3 SWAP2 POP POP JUMP JUMPDEST POP POP POP POP JUMP JUMPDEST PUSH2 0x2D23 DUP3 PUSH32 0xB23EAE7E6D1564B295B4C3E3BE402D9A2F0776C57BDF365903496F6FA481AB00 PUSH0 SHL DUP4 PUSH2 0x2F0A JUMP JUMPDEST POP POP JUMP JUMPDEST PUSH2 0x2D38 DUP4 PUSH4 0x6BB56A14 PUSH1 0xE0 SHL PUSH2 0x2A44 JUMP JUMPDEST ISZERO PUSH2 0x2DE3 JUMPI DUP3 PUSH20 0xFFFFFFFFFFFFFFFFFFFFFFFFFFFFFFFFFFFFFFFF AND PUSH4 0x6BB56A14 PUSH32 0xB084A55EBF70FD3C06FD755269DAC2212C4D3F0F4D09079780BFA50C1B2984D PUSH0 SHL DUP4 PUSH1 0x40 MLOAD DUP4 PUSH4 0xFFFFFFFF AND PUSH1 0xE0 SHL DUP2 MSTORE PUSH1 0x4 ADD PUSH2 0x2D9A SWAP3 SWAP2 SWAP1 PUSH2 0x5046 JUMP JUMPDEST PUSH0 PUSH1 0x40 MLOAD DUP1 DUP4 SUB DUP2 PUSH0 DUP8 GAS CALL ISZERO DUP1 ISZERO PUSH2 0x2DB5 JUMPI RETURNDATASIZE PUSH0 DUP1 RETURNDATACOPY RETURNDATASIZE PUSH0 REVERT JUMPDEST POP POP POP POP PUSH1 0x40 MLOAD RETURNDATASIZE PUSH0 DUP3 RETURNDATACOPY RETURNDATASIZE PUSH1 0x1F NOT PUSH1 0x1F DUP3 ADD AND DUP3 ADD DUP1 PUSH1 0x40 MSTORE POP DUP2 ADD SWAP1 PUSH2 0x2DDD SWAP2 SWAP1 PUSH2 0x4FFF JUMP JUMPDEST POP PUSH2 0x2E81 JUMP JUMPDEST DUP2 PUSH2 0x2E80 JUMPI PUSH0 DUP4 PUSH20 0xFFFFFFFFFFFFFFFFFFFFFFFFFFFFFFFFFFFFFFFF AND EXTCODESIZE EQ PUSH2 0x2E43 JUMPI DUP3 PUSH1 0x40 MLOAD PUSH32 0x4349776D00000000000000000000000000000000000000000000000000000000 DUP2 MSTORE PUSH1 0x4 ADD PUSH2 0x2E3A SWAP2 SWAP1 PUSH2 0x39EE JUMP JUMPDEST PUSH1 0x40 MLOAD DUP1 SWAP2 SUB SWAP1 REVERT JUMPDEST DUP3 PUSH1 0x40 MLOAD PUSH32 0x317313700000000000000000000000000000000000000000000000000000000 DUP2 MSTORE PUSH1 0x4 ADD PUSH2 0x2E77 SWAP2 SWAP1 PUSH2 0x39EE JUMP JUMPDEST PUSH1 0x40 MLOAD DUP1 SWAP2 SUB SWAP1 REVERT JUMPDEST JUMPDEST POP POP POP JUMP JUMPDEST PUSH0 DUP2 PUSH0 ADD DUP1 SLOAD SWAP1 POP SWAP1 POP SWAP2 SWAP1 POP JUMP JUMPDEST PUSH2 0x2E9F DUP3 DUP3 PUSH2 0x320F JUMP JUMPDEST POP POP JUMP JUMPDEST PUSH0 PUSH2 0x2EAE DUP4 DUP4 PUSH2 0x30C9 JUMP JUMPDEST PUSH2 0x2F00 JUMPI DUP3 PUSH0 ADD DUP3 SWAP1 DUP1 PUSH1 0x1 DUP2 SLOAD ADD DUP1 DUP3 SSTORE DUP1 SWAP2 POP POP PUSH1 0x1 SWAP1 SUB SWAP1 PUSH0 MSTORE PUSH1 0x20 PUSH0 KECCAK256 ADD PUSH0 SWAP1 SWAP2 SWAP1 SWAP2 SWAP1 SWAP2 POP SSTORE DUP3 PUSH0 ADD DUP1 SLOAD SWAP1 POP DUP4 PUSH1 0x1 ADD PUSH0 DUP5 DUP2 MSTORE PUSH1 0x20 ADD SWAP1 DUP2 MSTORE PUSH1 0x20 ADD PUSH0 KECCAK256 DUP2 SWAP1 SSTORE POP PUSH1 0x1 SWAP1 POP PUSH2 0x2F04 JUMP JUMPDEST PUSH0 SWAP1 POP JUMPDEST SWAP3 SWAP2 POP POP JUMP JUMPDEST PUSH2 0x2F3A PUSH4 0x6BB56A14 PUSH1 0xE0 SHL DUP5 PUSH20 0xFFFFFFFFFFFFFFFFFFFFFFFFFFFFFFFFFFFFFFFF AND PUSH2 0x2A44 SWAP1 SWAP2 SWAP1 PUSH4 0xFFFFFFFF AND JUMP JUMPDEST ISZERO PUSH2 0x2FBF JUMPI DUP3 PUSH20 0xFFFFFFFFFFFFFFFFFFFFFFFFFFFFFFFFFFFFFFFF AND PUSH4 0x6BB56A14 DUP4 DUP4 PUSH1 0x40 MLOAD DUP4 PUSH4 0xFFFFFFFF AND PUSH1 0xE0 SHL DUP2 MSTORE PUSH1 0x4 ADD PUSH2 0x2F7A SWAP3 SWAP2 SWAP1 PUSH2 0x5046 JUMP JUMPDEST PUSH0 PUSH1 0x40 MLOAD DUP1 DUP4 SUB DUP2 PUSH0 DUP8 GAS CALL ISZERO DUP1 ISZERO PUSH2 0x2F95 JUMPI RETURNDATASIZE PUSH0 DUP1 RETURNDATACOPY RETURNDATASIZE PUSH0 REVERT JUMPDEST POP POP POP POP PUSH1 0x40 MLOAD RETURNDATASIZE PUSH0 DUP3 RETURNDATACOPY RETURNDATASIZE PUSH1 0x1F NOT PUSH1 0x1F DUP3 ADD AND DUP3 ADD DUP1 PUSH1 0x40 MSTORE POP DUP2 ADD SWAP1 PUSH2 0x2FBD SWAP2 SWAP1 PUSH2 0x4FFF JUMP JUMPDEST POP JUMPDEST POP POP POP JUMP JUMPDEST DUP3 PUSH0 SHR PUSH20 0xFFFFFFFFFFFFFFFFFFFFFFFFFFFFFFFFFFFFFFFF AND PUSH4 0x7F23690C DUP4 DUP4 PUSH1 0x40 MLOAD DUP4 PUSH4 0xFFFFFFFF AND PUSH1 0xE0 SHL DUP2 MSTORE PUSH1 0x4 ADD PUSH2 0x3001 SWAP3 SWAP2 SWAP1 PUSH2 0x5046 JUMP JUMPDEST PUSH0 PUSH1 0x40 MLOAD DUP1 DUP4 SUB DUP2 PUSH0 DUP8 DUP1 EXTCODESIZE ISZERO DUP1 ISZERO PUSH2 0x3018 JUMPI PUSH0 DUP1 REVERT JUMPDEST POP GAS CALL ISZERO DUP1 ISZERO PUSH2 0x302A JUMPI RETURNDATASIZE PUSH0 DUP1 RETURNDATACOPY RETURNDATASIZE PUSH0 REVERT JUMPDEST POP POP POP POP POP POP POP JUMP JUMPDEST PUSH0 PUSH2 0x3058 DUP4 PUSH0 ADD DUP4 PUSH20 0xFFFFFFFFFFFFFFFFFFFFFFFFFFFFFFFFFFFFFFFF AND PUSH0 SHL PUSH2 0x3113 JUMP JUMPDEST SWAP1 POP SWAP3 SWAP2 POP POP JUMP JUMPDEST PUSH0 PUSH32 0x1FFC9A700000000000000000000000000000000000000000000000000000000 PUSH28 0xFFFFFFFFFFFFFFFFFFFFFFFFFFFFFFFFFFFFFFFFFFFFFFFFFFFFFFFF NOT AND DUP3 PUSH28 0xFFFFFFFFFFFFFFFFFFFFFFFFFFFFFFFFFFFFFFFFFFFFFFFFFFFFFFFF NOT AND EQ SWAP1 POP SWAP2 SWAP1 POP JUMP JUMPDEST PUSH0 DUP1 DUP4 PUSH1 0x1 ADD PUSH0 DUP5 DUP2 MSTORE PUSH1 0x20 ADD SWAP1 DUP2 MSTORE PUSH1 0x20 ADD PUSH0 KECCAK256 SLOAD EQ ISZERO SWAP1 POP SWAP3 SWAP2 POP POP JUMP JUMPDEST PUSH0 PUSH2 0x30F5 DUP3 PUSH0 ADD PUSH2 0x2E86 JUMP JUMPDEST SWAP1 POP SWAP2 SWAP1 POP JUMP JUMPDEST PUSH0 PUSH2 0x3109 DUP4 PUSH0 ADD DUP4 PUSH2 0x337B JUMP JUMPDEST PUSH0 SHR SWAP1 POP SWAP3 SWAP2 POP POP JUMP JUMPDEST PUSH0 DUP1 DUP4 PUSH1 0x1 ADD PUSH0 DUP5 DUP2 MSTORE PUSH1 0x20 ADD SWAP1 DUP2 MSTORE PUSH1 0x20 ADD PUSH0 KECCAK256 SLOAD SWAP1 POP PUSH0 DUP2 EQ PUSH2 0x3204 JUMPI PUSH0 PUSH1 0x1 DUP3 PUSH2 0x3140 SWAP2 SWAP1 PUSH2 0x5074 JUMP JUMPDEST SWAP1 POP PUSH0 PUSH1 0x1 DUP7 PUSH0 ADD DUP1 SLOAD SWAP1 POP PUSH2 0x3156 SWAP2 SWAP1 PUSH2 0x5074 JUMP JUMPDEST SWAP1 POP DUP1 DUP3 EQ PUSH2 0x31BC JUMPI PUSH0 DUP7 PUSH0 ADD DUP3 DUP2 SLOAD DUP2 LT PUSH2 0x3175 JUMPI PUSH2 0x3174 PUSH2 0x4805 JUMP JUMPDEST JUMPDEST SWAP1 PUSH0 MSTORE PUSH1 0x20 PUSH0 KECCAK256 ADD SLOAD SWAP1 POP DUP1 DUP8 PUSH0 ADD DUP5 DUP2 SLOAD DUP2 LT PUSH2 0x3196 JUMPI PUSH2 0x3195 PUSH2 0x4805 JUMP JUMPDEST JUMPDEST SWAP1 PUSH0 MSTORE PUSH1 0x20 PUSH0 KECCAK256 ADD DUP2 SWAP1 SSTORE POP DUP4 DUP8 PUSH1 0x1 ADD PUSH0 DUP4 DUP2 MSTORE PUSH1 0x20 ADD SWAP1 DUP2 MSTORE PUSH1 0x20 ADD PUSH0 KECCAK256 DUP2 SWAP1 SSTORE POP POP JUMPDEST DUP6 PUSH0 ADD DUP1 SLOAD DUP1 PUSH2 0x31CF JUMPI PUSH2 0x31CE PUSH2 0x50A7 JUMP JUMPDEST JUMPDEST PUSH1 0x1 SWAP1 SUB DUP2 DUP2 SWAP1 PUSH0 MSTORE PUSH1 0x20 PUSH0 KECCAK256 ADD PUSH0 SWAP1 SSTORE SWAP1 SSTORE DUP6 PUSH1 0x1 ADD PUSH0 DUP7 DUP2 MSTORE PUSH1 0x20 ADD SWAP1 DUP2 MSTORE PUSH1 0x20 ADD PUSH0 KECCAK256 PUSH0 SWAP1 SSTORE PUSH1 0x1 SWAP4 POP POP POP POP PUSH2 0x3209 JUMP JUMPDEST PUSH0 SWAP2 POP POP JUMPDEST SWAP3 SWAP2 POP POP JUMP JUMPDEST PUSH32 0xDEBA1E292F8BA88238E10AB3C7F88BD4BE4FAC56CAD5194B6ECCEAF653468AF1 PUSH0 SHL DUP3 SUB PUSH2 0x326A JUMPI PUSH1 0x40 MLOAD PUSH32 0x85C169BD00000000000000000000000000000000000000000000000000000000 DUP2 MSTORE PUSH1 0x4 ADD PUSH1 0x40 MLOAD DUP1 SWAP2 SUB SWAP1 REVERT JUMPDEST PUSH32 0x2F0A68AB07768E01943A599E73362A0E17A63A72E94DD2E384D2C1D4DB932756 PUSH0 SHL DUP3 SUB PUSH2 0x32C5 JUMPI PUSH1 0x40 MLOAD PUSH32 0x76755B3800000000000000000000000000000000000000000000000000000000 DUP2 MSTORE PUSH1 0x4 ADD PUSH1 0x40 MLOAD DUP1 SWAP2 SUB SWAP1 REVERT JUMPDEST PUSH32 0xE0261FA95DB2EB3B5439BD033CDA66D56B96F92F243A8228FD87550ED7BDFDB3 PUSH0 SHL DUP3 SUB PUSH2 0x3320 JUMPI PUSH1 0x40 MLOAD PUSH32 0x4EF6D7FB00000000000000000000000000000000000000000000000000000000 DUP2 MSTORE PUSH1 0x4 ADD PUSH1 0x40 MLOAD DUP1 SWAP2 SUB SWAP1 REVERT JUMPDEST DUP1 PUSH1 0x1 PUSH0 DUP5 DUP2 MSTORE PUSH1 0x20 ADD SWAP1 DUP2 MSTORE PUSH1 0x20 ADD PUSH0 KECCAK256 SWAP1 DUP2 PUSH2 0x333E SWAP2 SWAP1 PUSH2 0x5265 JUMP JUMPDEST POP DUP2 PUSH32 0xECE574603820D07BC9B91F2A932BAADF4628AABCB8AFBA49776529C14A6104B2 DUP3 PUSH1 0x40 MLOAD PUSH2 0x336F SWAP2 SWAP1 PUSH2 0x36BB JUMP JUMPDEST PUSH1 0x40 MLOAD DUP1 SWAP2 SUB SWAP1 LOG2 POP POP JUMP JUMPDEST PUSH0 DUP3 PUSH0 ADD DUP3 DUP2 SLOAD DUP2 LT PUSH2 0x3391 JUMPI PUSH2 0x3390 PUSH2 0x4805 JUMP JUMPDEST JUMPDEST SWAP1 PUSH0 MSTORE PUSH1 0x20 PUSH0 KECCAK256 ADD SLOAD SWAP1 POP SWAP3 SWAP2 POP POP JUMP JUMPDEST PUSH0 DUP3 DUP3 MSTORE PUSH1 0x20 DUP3 ADD SWAP1 POP SWAP3 SWAP2 POP POP JUMP JUMPDEST PUSH0 DUP1 DUP3 ADD MSTORE POP JUMP JUMPDEST PUSH0 PUSH2 0x33C6 PUSH1 0x4 DUP4 PUSH2 0x33A2 JUMP JUMPDEST SWAP2 POP PUSH2 0x33D1 DUP3 PUSH2 0x33B2 JUMP JUMPDEST PUSH1 0x20 DUP3 ADD SWAP1 POP SWAP2 SWAP1 POP JUMP JUMPDEST PUSH0 PUSH1 0x20 DUP3 ADD SWAP1 POP DUP2 DUP2 SUB PUSH0 DUP4 ADD MSTORE PUSH2 0x33F3 DUP2 PUSH2 0x33BA JUMP JUMPDEST SWAP1 POP SWAP2 SWAP1 POP JUMP JUMPDEST DUP3 DUP2 DUP4 CALLDATACOPY PUSH0 DUP4 DUP4 ADD MSTORE POP POP POP JUMP JUMPDEST PUSH0 PUSH1 0x1F NOT PUSH1 0x1F DUP4 ADD AND SWAP1 POP SWAP2 SWAP1 POP JUMP JUMPDEST PUSH0 PUSH2 0x3423 DUP4 DUP6 PUSH2 0x33A2 JUMP JUMPDEST SWAP4 POP PUSH2 0x3430 DUP4 DUP6 DUP5 PUSH2 0x33FA JUMP JUMPDEST PUSH2 0x3439 DUP4 PUSH2 0x3408 JUMP JUMPDEST DUP5 ADD SWAP1 POP SWAP4 SWAP3 POP POP POP JUMP JUMPDEST PUSH0 PUSH1 0x20 DUP3 ADD SWAP1 POP DUP2 DUP2 SUB PUSH0 DUP4 ADD MSTORE PUSH2 0x345D DUP2 DUP5 DUP7 PUSH2 0x3418 JUMP JUMPDEST SWAP1 POP SWAP4 SWAP3 POP POP POP JUMP JUMPDEST PUSH0 PUSH1 0x40 MLOAD SWAP1 POP SWAP1 JUMP JUMPDEST PUSH0 DUP1 REVERT JUMPDEST PUSH0 DUP1 REVERT JUMPDEST PUSH0 PUSH20 0xFFFFFFFFFFFFFFFFFFFFFFFFFFFFFFFFFFFFFFFF DUP3 AND SWAP1 POP SWAP2 SWAP1 POP JUMP JUMPDEST PUSH0 PUSH2 0x34A0 DUP3 PUSH2 0x3477 JUMP JUMPDEST SWAP1 POP SWAP2 SWAP1 POP JUMP JUMPDEST PUSH2 0x34B0 DUP2 PUSH2 0x3496 JUMP JUMPDEST DUP2 EQ PUSH2 0x34BA JUMPI PUSH0 DUP1 REVERT JUMPDEST POP JUMP JUMPDEST PUSH0 DUP2 CALLDATALOAD SWAP1 POP PUSH2 0x34CB DUP2 PUSH2 0x34A7 JUMP JUMPDEST SWAP3 SWAP2 POP POP JUMP JUMPDEST PUSH0 PUSH1 0x20 DUP3 DUP5 SUB SLT ISZERO PUSH2 0x34E6 JUMPI PUSH2 0x34E5 PUSH2 0x346F JUMP JUMPDEST JUMPDEST PUSH0 PUSH2 0x34F3 DUP5 DUP3 DUP6 ADD PUSH2 0x34BD JUMP JUMPDEST SWAP2 POP POP SWAP3 SWAP2 POP POP JUMP JUMPDEST PUSH0 DUP2 SWAP1 POP SWAP2 SWAP1 POP JUMP JUMPDEST PUSH2 0x350E DUP2 PUSH2 0x34FC JUMP JUMPDEST DUP3 MSTORE POP POP JUMP JUMPDEST PUSH0 PUSH1 0x20 DUP3 ADD SWAP1 POP PUSH2 0x3527 PUSH0 DUP4 ADD DUP5 PUSH2 0x3505 JUMP JUMPDEST SWAP3 SWAP2 POP POP JUMP JUMPDEST PUSH0 PUSH32 0xFFFFFFFF00000000000000000000000000000000000000000000000000000000 DUP3 AND SWAP1 POP SWAP2 SWAP1 POP JUMP JUMPDEST PUSH2 0x3561 DUP2 PUSH2 0x352D JUMP JUMPDEST DUP2 EQ PUSH2 0x356B JUMPI PUSH0 DUP1 REVERT JUMPDEST POP JUMP JUMPDEST PUSH0 DUP2 CALLDATALOAD SWAP1 POP PUSH2 0x357C DUP2 PUSH2 0x3558 JUMP JUMPDEST SWAP3 SWAP2 POP POP JUMP JUMPDEST PUSH0 PUSH1 0x20 DUP3 DUP5 SUB SLT ISZERO PUSH2 0x3597 JUMPI PUSH2 0x3596 PUSH2 0x346F JUMP JUMPDEST JUMPDEST PUSH0 PUSH2 0x35A4 DUP5 DUP3 DUP6 ADD PUSH2 0x356E JUMP JUMPDEST SWAP2 POP POP SWAP3 SWAP2 POP POP JUMP JUMPDEST PUSH0 DUP2 ISZERO ISZERO SWAP1 POP SWAP2 SWAP1 POP JUMP JUMPDEST PUSH2 0x35C1 DUP2 PUSH2 0x35AD JUMP JUMPDEST DUP3 MSTORE POP POP JUMP JUMPDEST PUSH0 PUSH1 0x20 DUP3 ADD SWAP1 POP PUSH2 0x35DA PUSH0 DUP4 ADD DUP5 PUSH2 0x35B8 JUMP JUMPDEST SWAP3 SWAP2 POP POP JUMP JUMPDEST PUSH0 DUP2 SWAP1 POP SWAP2 SWAP1 POP JUMP JUMPDEST PUSH2 0x35F2 DUP2 PUSH2 0x35E0 JUMP JUMPDEST DUP2 EQ PUSH2 0x35FC JUMPI PUSH0 DUP1 REVERT JUMPDEST POP JUMP JUMPDEST PUSH0 DUP2 CALLDATALOAD SWAP1 POP PUSH2 0x360D DUP2 PUSH2 0x35E9 JUMP JUMPDEST SWAP3 SWAP2 POP POP JUMP JUMPDEST PUSH0 DUP1 PUSH1 0x40 DUP4 DUP6 SUB SLT ISZERO PUSH2 0x3629 JUMPI PUSH2 0x3628 PUSH2 0x346F JUMP JUMPDEST JUMPDEST PUSH0 PUSH2 0x3636 DUP6 DUP3 DUP7 ADD PUSH2 0x35FF JUMP JUMPDEST SWAP3 POP POP PUSH1 0x20 PUSH2 0x3647 DUP6 DUP3 DUP7 ADD PUSH2 0x35FF JUMP JUMPDEST SWAP2 POP POP SWAP3 POP SWAP3 SWAP1 POP JUMP JUMPDEST PUSH0 DUP2 MLOAD SWAP1 POP SWAP2 SWAP1 POP JUMP JUMPDEST PUSH0 JUMPDEST DUP4 DUP2 LT ISZERO PUSH2 0x3678 JUMPI DUP1 DUP3 ADD MLOAD DUP2 DUP5 ADD MSTORE PUSH1 0x20 DUP2 ADD SWAP1 POP PUSH2 0x365D JUMP JUMPDEST PUSH0 DUP5 DUP5 ADD MSTORE POP POP POP POP JUMP JUMPDEST PUSH0 PUSH2 0x368D DUP3 PUSH2 0x3651 JUMP JUMPDEST PUSH2 0x3697 DUP2 DUP6 PUSH2 0x33A2 JUMP JUMPDEST SWAP4 POP PUSH2 0x36A7 DUP2 DUP6 PUSH1 0x20 DUP7 ADD PUSH2 0x365B JUMP JUMPDEST PUSH2 0x36B0 DUP2 PUSH2 0x3408 JUMP JUMPDEST DUP5 ADD SWAP2 POP POP SWAP3 SWAP2 POP POP JUMP JUMPDEST PUSH0 PUSH1 0x20 DUP3 ADD SWAP1 POP DUP2 DUP2 SUB PUSH0 DUP4 ADD MSTORE PUSH2 0x36D3 DUP2 DUP5 PUSH2 0x3683 JUMP JUMPDEST SWAP1 POP SWAP3 SWAP2 POP POP JUMP JUMPDEST PUSH0 DUP1 REVERT JUMPDEST PUSH32 0x4E487B7100000000000000000000000000000000000000000000000000000000 PUSH0 MSTORE PUSH1 0x41 PUSH1 0x4 MSTORE PUSH1 0x24 PUSH0 REVERT JUMPDEST PUSH2 0x3715 DUP3 PUSH2 0x3408 JUMP JUMPDEST DUP2 ADD DUP2 DUP2 LT PUSH8 0xFFFFFFFFFFFFFFFF DUP3 GT OR ISZERO PUSH2 0x3734 JUMPI PUSH2 0x3733 PUSH2 0x36DF JUMP JUMPDEST JUMPDEST DUP1 PUSH1 0x40 MSTORE POP POP POP JUMP JUMPDEST PUSH0 PUSH2 0x3746 PUSH2 0x3466 JUMP JUMPDEST SWAP1 POP PUSH2 0x3752 DUP3 DUP3 PUSH2 0x370C JUMP JUMPDEST SWAP2 SWAP1 POP JUMP JUMPDEST PUSH0 PUSH8 0xFFFFFFFFFFFFFFFF DUP3 GT ISZERO PUSH2 0x3771 JUMPI PUSH2 0x3770 PUSH2 0x36DF JUMP JUMPDEST JUMPDEST PUSH1 0x20 DUP3 MUL SWAP1 POP PUSH1 0x20 DUP2 ADD SWAP1 POP SWAP2 SWAP1 POP JUMP JUMPDEST PUSH0 DUP1 REVERT JUMPDEST PUSH0 PUSH2 0x3798 PUSH2 0x3793 DUP5 PUSH2 0x3757 JUMP JUMPDEST PUSH2 0x373D JUMP JUMPDEST SWAP1 POP DUP1 DUP4 DUP3 MSTORE PUSH1 0x20 DUP3 ADD SWAP1 POP PUSH1 0x20 DUP5 MUL DUP4 ADD DUP6 DUP2 GT ISZERO PUSH2 0x37BB JUMPI PUSH2 0x37BA PUSH2 0x3782 JUMP JUMPDEST JUMPDEST DUP4 JUMPDEST DUP2 DUP2 LT ISZERO PUSH2 0x37E4 JUMPI DUP1 PUSH2 0x37D0 DUP9 DUP3 PUSH2 0x35FF JUMP JUMPDEST DUP5 MSTORE PUSH1 0x20 DUP5 ADD SWAP4 POP POP PUSH1 0x20 DUP2 ADD SWAP1 POP PUSH2 0x37BD JUMP JUMPDEST POP POP POP SWAP4 SWAP3 POP POP POP JUMP JUMPDEST PUSH0 DUP3 PUSH1 0x1F DUP4 ADD SLT PUSH2 0x3802 JUMPI PUSH2 0x3801 PUSH2 0x36DB JUMP JUMPDEST JUMPDEST DUP2 CALLDATALOAD PUSH2 0x3812 DUP5 DUP3 PUSH1 0x20 DUP7 ADD PUSH2 0x3786 JUMP JUMPDEST SWAP2 POP POP SWAP3 SWAP2 POP POP JUMP JUMPDEST PUSH0 DUP1 PUSH1 0x40 DUP4 DUP6 SUB SLT ISZERO PUSH2 0x3831 JUMPI PUSH2 0x3830 PUSH2 0x346F JUMP JUMPDEST JUMPDEST PUSH0 DUP4 ADD CALLDATALOAD PUSH8 0xFFFFFFFFFFFFFFFF DUP2 GT ISZERO PUSH2 0x384E JUMPI PUSH2 0x384D PUSH2 0x3473 JUMP JUMPDEST JUMPDEST PUSH2 0x385A DUP6 DUP3 DUP7 ADD PUSH2 0x37EE JUMP JUMPDEST SWAP3 POP POP PUSH1 0x20 DUP4 ADD CALLDATALOAD PUSH8 0xFFFFFFFFFFFFFFFF DUP2 GT ISZERO PUSH2 0x387B JUMPI PUSH2 0x387A PUSH2 0x3473 JUMP JUMPDEST JUMPDEST PUSH2 0x3887 DUP6 DUP3 DUP7 ADD PUSH2 0x37EE JUMP JUMPDEST SWAP2 POP POP SWAP3 POP SWAP3 SWAP1 POP JUMP JUMPDEST PUSH0 DUP2 MLOAD SWAP1 POP SWAP2 SWAP1 POP JUMP JUMPDEST PUSH0 DUP3 DUP3 MSTORE PUSH1 0x20 DUP3 ADD SWAP1 POP SWAP3 SWAP2 POP POP JUMP JUMPDEST PUSH0 DUP2 SWAP1 POP PUSH1 0x20 DUP3 ADD SWAP1 POP SWAP2 SWAP1 POP JUMP JUMPDEST PUSH0 DUP3 DUP3 MSTORE PUSH1 0x20 DUP3 ADD SWAP1 POP SWAP3 SWAP2 POP POP JUMP JUMPDEST PUSH0 PUSH2 0x38D4 DUP3 PUSH2 0x3651 JUMP JUMPDEST PUSH2 0x38DE DUP2 DUP6 PUSH2 0x38BA JUMP JUMPDEST SWAP4 POP PUSH2 0x38EE DUP2 DUP6 PUSH1 0x20 DUP7 ADD PUSH2 0x365B JUMP JUMPDEST PUSH2 0x38F7 DUP2 PUSH2 0x3408 JUMP JUMPDEST DUP5 ADD SWAP2 POP POP SWAP3 SWAP2 POP POP JUMP JUMPDEST PUSH0 PUSH2 0x390D DUP4 DUP4 PUSH2 0x38CA JUMP JUMPDEST SWAP1 POP SWAP3 SWAP2 POP POP JUMP JUMPDEST PUSH0 PUSH1 0x20 DUP3 ADD SWAP1 POP SWAP2 SWAP1 POP JUMP JUMPDEST PUSH0 PUSH2 0x392B DUP3 PUSH2 0x3891 JUMP JUMPDEST PUSH2 0x3935 DUP2 DUP6 PUSH2 0x389B JUMP JUMPDEST SWAP4 POP DUP4 PUSH1 0x20 DUP3 MUL DUP6 ADD PUSH2 0x3947 DUP6 PUSH2 0x38AB JUMP JUMPDEST DUP1 PUSH0 JUMPDEST DUP6 DUP2 LT ISZERO PUSH2 0x3982 JUMPI DUP5 DUP5 SUB DUP10 MSTORE DUP2 MLOAD PUSH2 0x3963 DUP6 DUP3 PUSH2 0x3902 JUMP JUMPDEST SWAP5 POP PUSH2 0x396E DUP4 PUSH2 0x3915 JUMP JUMPDEST SWAP3 POP PUSH1 0x20 DUP11 ADD SWAP10 POP POP PUSH1 0x1 DUP2 ADD SWAP1 POP PUSH2 0x394A JUMP JUMPDEST POP DUP3 SWAP8 POP DUP8 SWAP6 POP POP POP POP POP POP SWAP3 SWAP2 POP POP JUMP JUMPDEST PUSH0 PUSH1 0x20 DUP3 ADD SWAP1 POP DUP2 DUP2 SUB PUSH0 DUP4 ADD MSTORE PUSH2 0x39AC DUP2 DUP5 PUSH2 0x3921 JUMP JUMPDEST SWAP1 POP SWAP3 SWAP2 POP POP JUMP JUMPDEST PUSH0 PUSH1 0x20 DUP3 DUP5 SUB SLT ISZERO PUSH2 0x39C9 JUMPI PUSH2 0x39C8 PUSH2 0x346F JUMP JUMPDEST JUMPDEST PUSH0 PUSH2 0x39D6 DUP5 DUP3 DUP6 ADD PUSH2 0x35FF JUMP JUMPDEST SWAP2 POP POP SWAP3 SWAP2 POP POP JUMP JUMPDEST PUSH2 0x39E8 DUP2 PUSH2 0x3496 JUMP JUMPDEST DUP3 MSTORE POP POP JUMP JUMPDEST PUSH0 PUSH1 0x20 DUP3 ADD SWAP1 POP PUSH2 0x3A01 PUSH0 DUP4 ADD DUP5 PUSH2 0x39DF JUMP JUMPDEST SWAP3 SWAP2 POP POP JUMP JUMPDEST PUSH0 DUP1 PUSH1 0x40 DUP4 DUP6 SUB SLT ISZERO PUSH2 0x3A1D JUMPI PUSH2 0x3A1C PUSH2 0x346F JUMP JUMPDEST JUMPDEST PUSH0 PUSH2 0x3A2A DUP6 DUP3 DUP7 ADD PUSH2 0x34BD JUMP JUMPDEST SWAP3 POP POP PUSH1 0x20 PUSH2 0x3A3B DUP6 DUP3 DUP7 ADD PUSH2 0x35FF JUMP JUMPDEST SWAP2 POP POP SWAP3 POP SWAP3 SWAP1 POP JUMP JUMPDEST PUSH0 DUP1 PUSH1 0x40 DUP4 DUP6 SUB SLT ISZERO PUSH2 0x3A5B JUMPI PUSH2 0x3A5A PUSH2 0x346F JUMP JUMPDEST JUMPDEST PUSH0 PUSH2 0x3A68 DUP6 DUP3 DUP7 ADD PUSH2 0x34BD JUMP JUMPDEST SWAP3 POP POP PUSH1 0x20 PUSH2 0x3A79 DUP6 DUP3 DUP7 ADD PUSH2 0x34BD JUMP JUMPDEST SWAP2 POP POP SWAP3 POP SWAP3 SWAP1 POP JUMP JUMPDEST PUSH0 DUP2 MLOAD SWAP1 POP SWAP2 SWAP1 POP JUMP JUMPDEST PUSH0 DUP3 DUP3 MSTORE PUSH1 0x20 DUP3 ADD SWAP1 POP SWAP3 SWAP2 POP POP JUMP JUMPDEST PUSH0 DUP2 SWAP1 POP PUSH1 0x20 DUP3 ADD SWAP1 POP SWAP2 SWAP1 POP JUMP JUMPDEST PUSH2 0x3AB5 DUP2 PUSH2 0x3496 JUMP JUMPDEST DUP3 MSTORE POP POP JUMP JUMPDEST PUSH0 PUSH2 0x3AC6 DUP4 DUP4 PUSH2 0x3AAC JUMP JUMPDEST PUSH1 0x20 DUP4 ADD SWAP1 POP SWAP3 SWAP2 POP POP JUMP JUMPDEST PUSH0 PUSH1 0x20 DUP3 ADD SWAP1 POP SWAP2 SWAP1 POP JUMP JUMPDEST PUSH0 PUSH2 0x3AE8 DUP3 PUSH2 0x3A83 JUMP JUMPDEST PUSH2 0x3AF2 DUP2 DUP6 PUSH2 0x3A8D JUMP JUMPDEST SWAP4 POP PUSH2 0x3AFD DUP4 PUSH2 0x3A9D JUMP JUMPDEST DUP1 PUSH0 JUMPDEST DUP4 DUP2 LT ISZERO PUSH2 0x3B2D JUMPI DUP2 MLOAD PUSH2 0x3B14 DUP9 DUP3 PUSH2 0x3ABB JUMP JUMPDEST SWAP8 POP PUSH2 0x3B1F DUP4 PUSH2 0x3AD2 JUMP JUMPDEST SWAP3 POP POP PUSH1 0x1 DUP2 ADD SWAP1 POP PUSH2 0x3B00 JUMP JUMPDEST POP DUP6 SWAP4 POP POP POP POP SWAP3 SWAP2 POP POP JUMP JUMPDEST PUSH0 PUSH1 0x20 DUP3 ADD SWAP1 POP DUP2 DUP2 SUB PUSH0 DUP4 ADD MSTORE PUSH2 0x3B52 DUP2 DUP5 PUSH2 0x3ADE JUMP JUMPDEST SWAP1 POP SWAP3 SWAP2 POP POP JUMP JUMPDEST PUSH2 0x3B63 DUP2 PUSH2 0x35AD JUMP JUMPDEST DUP2 EQ PUSH2 0x3B6D JUMPI PUSH0 DUP1 REVERT JUMPDEST POP JUMP JUMPDEST PUSH0 DUP2 CALLDATALOAD SWAP1 POP PUSH2 0x3B7E DUP2 PUSH2 0x3B5A JUMP JUMPDEST SWAP3 SWAP2 POP POP JUMP JUMPDEST PUSH0 DUP1 REVERT JUMPDEST PUSH0 PUSH8 0xFFFFFFFFFFFFFFFF DUP3 GT ISZERO PUSH2 0x3BA2 JUMPI PUSH2 0x3BA1 PUSH2 0x36DF JUMP JUMPDEST JUMPDEST PUSH2 0x3BAB DUP3 PUSH2 0x3408 JUMP JUMPDEST SWAP1 POP PUSH1 0x20 DUP2 ADD SWAP1 POP SWAP2 SWAP1 POP JUMP JUMPDEST PUSH0 PUSH2 0x3BCA PUSH2 0x3BC5 DUP5 PUSH2 0x3B88 JUMP JUMPDEST PUSH2 0x373D JUMP JUMPDEST SWAP1 POP DUP3 DUP2 MSTORE PUSH1 0x20 DUP2 ADD DUP5 DUP5 DUP5 ADD GT ISZERO PUSH2 0x3BE6 JUMPI PUSH2 0x3BE5 PUSH2 0x3B84 JUMP JUMPDEST JUMPDEST PUSH2 0x3BF1 DUP5 DUP3 DUP6 PUSH2 0x33FA JUMP JUMPDEST POP SWAP4 SWAP3 POP POP POP JUMP JUMPDEST PUSH0 DUP3 PUSH1 0x1F DUP4 ADD SLT PUSH2 0x3C0D JUMPI PUSH2 0x3C0C PUSH2 0x36DB JUMP JUMPDEST JUMPDEST DUP2 CALLDATALOAD PUSH2 0x3C1D DUP5 DUP3 PUSH1 0x20 DUP7 ADD PUSH2 0x3BB8 JUMP JUMPDEST SWAP2 POP POP SWAP3 SWAP2 POP POP JUMP JUMPDEST PUSH0 DUP1 PUSH0 DUP1 PUSH0 PUSH1 0xA0 DUP7 DUP9 SUB SLT ISZERO PUSH2 0x3C3F JUMPI PUSH2 0x3C3E PUSH2 0x346F JUMP JUMPDEST JUMPDEST PUSH0 PUSH2 0x3C4C DUP9 DUP3 DUP10 ADD PUSH2 0x34BD JUMP JUMPDEST SWAP6 POP POP PUSH1 0x20 PUSH2 0x3C5D DUP9 DUP3 DUP10 ADD PUSH2 0x34BD JUMP JUMPDEST SWAP5 POP POP PUSH1 0x40 PUSH2 0x3C6E DUP9 DUP3 DUP10 ADD PUSH2 0x35FF JUMP JUMPDEST SWAP4 POP POP PUSH1 0x60 PUSH2 0x3C7F DUP9 DUP3 DUP10 ADD PUSH2 0x3B70 JUMP JUMPDEST SWAP3 POP POP PUSH1 0x80 DUP7 ADD CALLDATALOAD PUSH8 0xFFFFFFFFFFFFFFFF DUP2 GT ISZERO PUSH2 0x3CA0 JUMPI PUSH2 0x3C9F PUSH2 0x3473 JUMP JUMPDEST JUMPDEST PUSH2 0x3CAC DUP9 DUP3 DUP10 ADD PUSH2 0x3BF9 JUMP JUMPDEST SWAP2 POP POP SWAP3 SWAP6 POP SWAP3 SWAP6 SWAP1 SWAP4 POP JUMP JUMPDEST PUSH0 DUP1 REVERT JUMPDEST PUSH0 DUP1 DUP4 PUSH1 0x1F DUP5 ADD SLT PUSH2 0x3CD2 JUMPI PUSH2 0x3CD1 PUSH2 0x36DB JUMP JUMPDEST JUMPDEST DUP3 CALLDATALOAD SWAP1 POP PUSH8 0xFFFFFFFFFFFFFFFF DUP2 GT ISZERO PUSH2 0x3CEF JUMPI PUSH2 0x3CEE PUSH2 0x3CB9 JUMP JUMPDEST JUMPDEST PUSH1 0x20 DUP4 ADD SWAP2 POP DUP4 PUSH1 0x20 DUP3 MUL DUP4 ADD GT ISZERO PUSH2 0x3D0B JUMPI PUSH2 0x3D0A PUSH2 0x3782 JUMP JUMPDEST JUMPDEST SWAP3 POP SWAP3 SWAP1 POP JUMP JUMPDEST PUSH0 DUP1 PUSH1 0x20 DUP4 DUP6 SUB SLT ISZERO PUSH2 0x3D28 JUMPI PUSH2 0x3D27 PUSH2 0x346F JUMP JUMPDEST JUMPDEST PUSH0 DUP4 ADD CALLDATALOAD PUSH8 0xFFFFFFFFFFFFFFFF DUP2 GT ISZERO PUSH2 0x3D45 JUMPI PUSH2 0x3D44 PUSH2 0x3473 JUMP JUMPDEST JUMPDEST PUSH2 0x3D51 DUP6 DUP3 DUP7 ADD PUSH2 0x3CBD JUMP JUMPDEST SWAP3 POP SWAP3 POP POP SWAP3 POP SWAP3 SWAP1 POP JUMP JUMPDEST PUSH0 PUSH8 0xFFFFFFFFFFFFFFFF DUP3 GT ISZERO PUSH2 0x3D77 JUMPI PUSH2 0x3D76 PUSH2 0x36DF JUMP JUMPDEST JUMPDEST PUSH1 0x20 DUP3 MUL SWAP1 POP PUSH1 0x20 DUP2 ADD SWAP1 POP SWAP2 SWAP1 POP JUMP JUMPDEST PUSH0 PUSH2 0x3D9A PUSH2 0x3D95 DUP5 PUSH2 0x3D5D JUMP JUMPDEST PUSH2 0x373D JUMP JUMPDEST SWAP1 POP DUP1 DUP4 DUP3 MSTORE PUSH1 0x20 DUP3 ADD SWAP1 POP PUSH1 0x20 DUP5 MUL DUP4 ADD DUP6 DUP2 GT ISZERO PUSH2 0x3DBD JUMPI PUSH2 0x3DBC PUSH2 0x3782 JUMP JUMPDEST JUMPDEST DUP4 JUMPDEST DUP2 DUP2 LT ISZERO PUSH2 0x3DE6 JUMPI DUP1 PUSH2 0x3DD2 DUP9 DUP3 PUSH2 0x34BD JUMP JUMPDEST DUP5 MSTORE PUSH1 0x20 DUP5 ADD SWAP4 POP POP PUSH1 0x20 DUP2 ADD SWAP1 POP PUSH2 0x3DBF JUMP JUMPDEST POP POP POP SWAP4 SWAP3 POP POP POP JUMP JUMPDEST PUSH0 DUP3 PUSH1 0x1F DUP4 ADD SLT PUSH2 0x3E04 JUMPI PUSH2 0x3E03 PUSH2 0x36DB JUMP JUMPDEST JUMPDEST DUP2 CALLDATALOAD PUSH2 0x3E14 DUP5 DUP3 PUSH1 0x20 DUP7 ADD PUSH2 0x3D88 JUMP JUMPDEST SWAP2 POP POP SWAP3 SWAP2 POP POP JUMP JUMPDEST PUSH0 PUSH8 0xFFFFFFFFFFFFFFFF DUP3 GT ISZERO PUSH2 0x3E37 JUMPI PUSH2 0x3E36 PUSH2 0x36DF JUMP JUMPDEST JUMPDEST PUSH1 0x20 DUP3 MUL SWAP1 POP PUSH1 0x20 DUP2 ADD SWAP1 POP SWAP2 SWAP1 POP JUMP JUMPDEST PUSH0 PUSH2 0x3E5A PUSH2 0x3E55 DUP5 PUSH2 0x3E1D JUMP JUMPDEST PUSH2 0x373D JUMP JUMPDEST SWAP1 POP DUP1 DUP4 DUP3 MSTORE PUSH1 0x20 DUP3 ADD SWAP1 POP PUSH1 0x20 DUP5 MUL DUP4 ADD DUP6 DUP2 GT ISZERO PUSH2 0x3E7D JUMPI PUSH2 0x3E7C PUSH2 0x3782 JUMP JUMPDEST JUMPDEST DUP4 JUMPDEST DUP2 DUP2 LT ISZERO PUSH2 0x3EA6 JUMPI DUP1 PUSH2 0x3E92 DUP9 DUP3 PUSH2 0x3B70 JUMP JUMPDEST DUP5 MSTORE PUSH1 0x20 DUP5 ADD SWAP4 POP POP PUSH1 0x20 DUP2 ADD SWAP1 POP PUSH2 0x3E7F JUMP JUMPDEST POP POP POP SWAP4 SWAP3 POP POP POP JUMP JUMPDEST PUSH0 DUP3 PUSH1 0x1F DUP4 ADD SLT PUSH2 0x3EC4 JUMPI PUSH2 0x3EC3 PUSH2 0x36DB JUMP JUMPDEST JUMPDEST DUP2 CALLDATALOAD PUSH2 0x3ED4 DUP5 DUP3 PUSH1 0x20 DUP7 ADD PUSH2 0x3E48 JUMP JUMPDEST SWAP2 POP POP SWAP3 SWAP2 POP POP JUMP JUMPDEST PUSH0 PUSH8 0xFFFFFFFFFFFFFFFF DUP3 GT ISZERO PUSH2 0x3EF7 JUMPI PUSH2 0x3EF6 PUSH2 0x36DF JUMP JUMPDEST JUMPDEST PUSH1 0x20 DUP3 MUL SWAP1 POP PUSH1 0x20 DUP2 ADD SWAP1 POP SWAP2 SWAP1 POP JUMP JUMPDEST PUSH0 PUSH2 0x3F1A PUSH2 0x3F15 DUP5 PUSH2 0x3EDD JUMP JUMPDEST PUSH2 0x373D JUMP JUMPDEST SWAP1 POP DUP1 DUP4 DUP3 MSTORE PUSH1 0x20 DUP3 ADD SWAP1 POP PUSH1 0x20 DUP5 MUL DUP4 ADD DUP6 DUP2 GT ISZERO PUSH2 0x3F3D JUMPI PUSH2 0x3F3C PUSH2 0x3782 JUMP JUMPDEST JUMPDEST DUP4 JUMPDEST DUP2 DUP2 LT ISZERO PUSH2 0x3F84 JUMPI DUP1 CALLDATALOAD PUSH8 0xFFFFFFFFFFFFFFFF DUP2 GT ISZERO PUSH2 0x3F62 JUMPI PUSH2 0x3F61 PUSH2 0x36DB JUMP JUMPDEST JUMPDEST DUP1 DUP7 ADD PUSH2 0x3F6F DUP10 DUP3 PUSH2 0x3BF9 JUMP JUMPDEST DUP6 MSTORE PUSH1 0x20 DUP6 ADD SWAP5 POP POP POP PUSH1 0x20 DUP2 ADD SWAP1 POP PUSH2 0x3F3F JUMP JUMPDEST POP POP POP SWAP4 SWAP3 POP POP POP JUMP JUMPDEST PUSH0 DUP3 PUSH1 0x1F DUP4 ADD SLT PUSH2 0x3FA2 JUMPI PUSH2 0x3FA1 PUSH2 0x36DB JUMP JUMPDEST JUMPDEST DUP2 CALLDATALOAD PUSH2 0x3FB2 DUP5 DUP3 PUSH1 0x20 DUP7 ADD PUSH2 0x3F08 JUMP JUMPDEST SWAP2 POP POP SWAP3 SWAP2 POP POP JUMP JUMPDEST PUSH0 DUP1 PUSH0 DUP1 PUSH0 PUSH1 0xA0 DUP7 DUP9 SUB SLT ISZERO PUSH2 0x3FD4 JUMPI PUSH2 0x3FD3 PUSH2 0x346F JUMP JUMPDEST JUMPDEST PUSH0 DUP7 ADD CALLDATALOAD PUSH8 0xFFFFFFFFFFFFFFFF DUP2 GT ISZERO PUSH2 0x3FF1 JUMPI PUSH2 0x3FF0 PUSH2 0x3473 JUMP JUMPDEST JUMPDEST PUSH2 0x3FFD DUP9 DUP3 DUP10 ADD PUSH2 0x3DF0 JUMP JUMPDEST SWAP6 POP POP PUSH1 0x20 DUP7 ADD CALLDATALOAD PUSH8 0xFFFFFFFFFFFFFFFF DUP2 GT ISZERO PUSH2 0x401E JUMPI PUSH2 0x401D PUSH2 0x3473 JUMP JUMPDEST JUMPDEST PUSH2 0x402A DUP9 DUP3 DUP10 ADD PUSH2 0x3DF0 JUMP JUMPDEST SWAP5 POP POP PUSH1 0x40 DUP7 ADD CALLDATALOAD PUSH8 0xFFFFFFFFFFFFFFFF DUP2 GT ISZERO PUSH2 0x404B JUMPI PUSH2 0x404A PUSH2 0x3473 JUMP JUMPDEST JUMPDEST PUSH2 0x4057 DUP9 DUP3 DUP10 ADD PUSH2 0x37EE JUMP JUMPDEST SWAP4 POP POP PUSH1 0x60 DUP7 ADD CALLDATALOAD PUSH8 0xFFFFFFFFFFFFFFFF DUP2 GT ISZERO PUSH2 0x4078 JUMPI PUSH2 0x4077 PUSH2 0x3473 JUMP JUMPDEST JUMPDEST PUSH2 0x4084 DUP9 DUP3 DUP10 ADD PUSH2 0x3EB0 JUMP JUMPDEST SWAP3 POP POP PUSH1 0x80 DUP7 ADD CALLDATALOAD PUSH8 0xFFFFFFFFFFFFFFFF DUP2 GT ISZERO PUSH2 0x40A5 JUMPI PUSH2 0x40A4 PUSH2 0x3473 JUMP JUMPDEST JUMPDEST PUSH2 0x40B1 DUP9 DUP3 DUP10 ADD PUSH2 0x3F8E JUMP JUMPDEST SWAP2 POP POP SWAP3 SWAP6 POP SWAP3 SWAP6 SWAP1 SWAP4 POP JUMP JUMPDEST PUSH0 DUP1 PUSH1 0x40 DUP4 DUP6 SUB SLT ISZERO PUSH2 0x40D4 JUMPI PUSH2 0x40D3 PUSH2 0x346F JUMP JUMPDEST JUMPDEST PUSH0 PUSH2 0x40E1 DUP6 DUP3 DUP7 ADD PUSH2 0x35FF JUMP JUMPDEST SWAP3 POP POP PUSH1 0x20 DUP4 ADD CALLDATALOAD PUSH8 0xFFFFFFFFFFFFFFFF DUP2 GT ISZERO PUSH2 0x4102 JUMPI PUSH2 0x4101 PUSH2 0x3473 JUMP JUMPDEST JUMPDEST PUSH2 0x410E DUP6 DUP3 DUP7 ADD PUSH2 0x3BF9 JUMP JUMPDEST SWAP2 POP POP SWAP3 POP SWAP3 SWAP1 POP JUMP JUMPDEST PUSH0 DUP1 PUSH0 PUSH1 0x60 DUP5 DUP7 SUB SLT ISZERO PUSH2 0x412F JUMPI PUSH2 0x412E PUSH2 0x346F JUMP JUMPDEST JUMPDEST PUSH0 PUSH2 0x413C DUP7 DUP3 DUP8 ADD PUSH2 0x34BD JUMP JUMPDEST SWAP4 POP POP PUSH1 0x20 PUSH2 0x414D DUP7 DUP3 DUP8 ADD PUSH2 0x35FF JUMP JUMPDEST SWAP3 POP POP PUSH1 0x40 DUP5 ADD CALLDATALOAD PUSH8 0xFFFFFFFFFFFFFFFF DUP2 GT ISZERO PUSH2 0x416E JUMPI PUSH2 0x416D PUSH2 0x3473 JUMP JUMPDEST JUMPDEST PUSH2 0x417A DUP7 DUP3 DUP8 ADD PUSH2 0x3BF9 JUMP JUMPDEST SWAP2 POP POP SWAP3 POP SWAP3 POP SWAP3 JUMP JUMPDEST PUSH0 DUP1 PUSH1 0x40 DUP4 DUP6 SUB SLT ISZERO PUSH2 0x419A JUMPI PUSH2 0x4199 PUSH2 0x346F JUMP JUMPDEST JUMPDEST PUSH0 DUP4 ADD CALLDATALOAD PUSH8 0xFFFFFFFFFFFFFFFF DUP2 GT ISZERO PUSH2 0x41B7 JUMPI PUSH2 0x41B6 PUSH2 0x3473 JUMP JUMPDEST JUMPDEST PUSH2 0x41C3 DUP6 DUP3 DUP7 ADD PUSH2 0x37EE JUMP JUMPDEST SWAP3 POP POP PUSH1 0x20 DUP4 ADD CALLDATALOAD PUSH8 0xFFFFFFFFFFFFFFFF DUP2 GT ISZERO PUSH2 0x41E4 JUMPI PUSH2 0x41E3 PUSH2 0x3473 JUMP JUMPDEST JUMPDEST PUSH2 0x41F0 DUP6 DUP3 DUP7 ADD PUSH2 0x3F8E JUMP JUMPDEST SWAP2 POP POP SWAP3 POP SWAP3 SWAP1 POP JUMP JUMPDEST PUSH2 0x4203 DUP2 PUSH2 0x34FC JUMP JUMPDEST DUP2 EQ PUSH2 0x420D JUMPI PUSH0 DUP1 REVERT JUMPDEST POP JUMP JUMPDEST PUSH0 DUP2 CALLDATALOAD SWAP1 POP PUSH2 0x421E DUP2 PUSH2 0x41FA JUMP JUMPDEST SWAP3 SWAP2 POP POP JUMP JUMPDEST PUSH0 DUP1 PUSH1 0x40 DUP4 DUP6 SUB SLT ISZERO PUSH2 0x423A JUMPI PUSH2 0x4239 PUSH2 0x346F JUMP JUMPDEST JUMPDEST PUSH0 PUSH2 0x4247 DUP6 DUP3 DUP7 ADD PUSH2 0x34BD JUMP JUMPDEST SWAP3 POP POP PUSH1 0x20 PUSH2 0x4258 DUP6 DUP3 DUP7 ADD PUSH2 0x4210 JUMP JUMPDEST SWAP2 POP POP SWAP3 POP SWAP3 SWAP1 POP JUMP JUMPDEST PUSH0 DUP2 MLOAD SWAP1 POP SWAP2 SWAP1 POP JUMP JUMPDEST PUSH0 DUP3 DUP3 MSTORE PUSH1 0x20 DUP3 ADD SWAP1 POP SWAP3 SWAP2 POP POP JUMP JUMPDEST PUSH0 DUP2 SWAP1 POP PUSH1 0x20 DUP3 ADD SWAP1 POP SWAP2 SWAP1 POP JUMP JUMPDEST PUSH2 0x4294 DUP2 PUSH2 0x35E0 JUMP JUMPDEST DUP3 MSTORE POP POP JUMP JUMPDEST PUSH0 PUSH2 0x42A5 DUP4 DUP4 PUSH2 0x428B JUMP JUMPDEST PUSH1 0x20 DUP4 ADD SWAP1 POP SWAP3 SWAP2 POP POP JUMP JUMPDEST PUSH0 PUSH1 0x20 DUP3 ADD SWAP1 POP SWAP2 SWAP1 POP JUMP JUMPDEST PUSH0 PUSH2 0x42C7 DUP3 PUSH2 0x4262 JUMP JUMPDEST PUSH2 0x42D1 DUP2 DUP6 PUSH2 0x426C JUMP JUMPDEST SWAP4 POP PUSH2 0x42DC DUP4 PUSH2 0x427C JUMP JUMPDEST DUP1 PUSH0 JUMPDEST DUP4 DUP2 LT ISZERO PUSH2 0x430C JUMPI DUP2 MLOAD PUSH2 0x42F3 DUP9 DUP3 PUSH2 0x429A JUMP JUMPDEST SWAP8 POP PUSH2 0x42FE DUP4 PUSH2 0x42B1 JUMP JUMPDEST SWAP3 POP POP PUSH1 0x1 DUP2 ADD SWAP1 POP PUSH2 0x42DF JUMP JUMPDEST POP DUP6 SWAP4 POP POP POP POP SWAP3 SWAP2 POP POP JUMP JUMPDEST PUSH0 PUSH1 0x20 DUP3 ADD SWAP1 POP DUP2 DUP2 SUB PUSH0 DUP4 ADD MSTORE PUSH2 0x4331 DUP2 DUP5 PUSH2 0x42BD JUMP JUMPDEST SWAP1 POP SWAP3 SWAP2 POP POP JUMP JUMPDEST PUSH0 PUSH1 0x20 DUP3 DUP5 SUB SLT ISZERO PUSH2 0x434E JUMPI PUSH2 0x434D PUSH2 0x346F JUMP JUMPDEST JUMPDEST PUSH0 PUSH2 0x435B DUP5 DUP3 DUP6 ADD PUSH2 0x4210 JUMP JUMPDEST SWAP2 POP POP SWAP3 SWAP2 POP POP JUMP JUMPDEST PUSH0 PUSH8 0xFFFFFFFFFFFFFFFF DUP3 GT ISZERO PUSH2 0x437E JUMPI PUSH2 0x437D PUSH2 0x36DF JUMP JUMPDEST JUMPDEST PUSH2 0x4387 DUP3 PUSH2 0x3408 JUMP JUMPDEST SWAP1 POP PUSH1 0x20 DUP2 ADD SWAP1 POP SWAP2 SWAP1 POP JUMP JUMPDEST PUSH0 PUSH2 0x43A6 PUSH2 0x43A1 DUP5 PUSH2 0x4364 JUMP JUMPDEST PUSH2 0x373D JUMP JUMPDEST SWAP1 POP DUP3 DUP2 MSTORE PUSH1 0x20 DUP2 ADD DUP5 DUP5 DUP5 ADD GT ISZERO PUSH2 0x43C2 JUMPI PUSH2 0x43C1 PUSH2 0x3B84 JUMP JUMPDEST JUMPDEST PUSH2 0x43CD DUP5 DUP3 DUP6 PUSH2 0x33FA JUMP JUMPDEST POP SWAP4 SWAP3 POP POP POP JUMP JUMPDEST PUSH0 DUP3 PUSH1 0x1F DUP4 ADD SLT PUSH2 0x43E9 JUMPI PUSH2 0x43E8 PUSH2 0x36DB JUMP JUMPDEST JUMPDEST DUP2 CALLDATALOAD PUSH2 0x43F9 DUP5 DUP3 PUSH1 0x20 DUP7 ADD PUSH2 0x4394 JUMP JUMPDEST SWAP2 POP POP SWAP3 SWAP2 POP POP JUMP JUMPDEST PUSH0 DUP1 PUSH0 DUP1 PUSH0 DUP1 PUSH0 PUSH1 0xE0 DUP9 DUP11 SUB SLT ISZERO PUSH2 0x441D JUMPI PUSH2 0x441C PUSH2 0x346F JUMP JUMPDEST JUMPDEST PUSH0 DUP9 ADD CALLDATALOAD PUSH8 0xFFFFFFFFFFFFFFFF DUP2 GT ISZERO PUSH2 0x443A JUMPI PUSH2 0x4439 PUSH2 0x3473 JUMP JUMPDEST JUMPDEST PUSH2 0x4446 DUP11 DUP3 DUP12 ADD PUSH2 0x43D5 JUMP JUMPDEST SWAP8 POP POP PUSH1 0x20 DUP9 ADD CALLDATALOAD PUSH8 0xFFFFFFFFFFFFFFFF DUP2 GT ISZERO PUSH2 0x4467 JUMPI PUSH2 0x4466 PUSH2 0x3473 JUMP JUMPDEST JUMPDEST PUSH2 0x4473 DUP11 DUP3 DUP12 ADD PUSH2 0x43D5 JUMP JUMPDEST SWAP7 POP POP PUSH1 0x40 PUSH2 0x4484 DUP11 DUP3 DUP12 ADD PUSH2 0x4210 JUMP JUMPDEST SWAP6 POP POP PUSH1 0x60 PUSH2 0x4495 DUP11 DUP3 DUP12 ADD PUSH2 0x3B70 JUMP JUMPDEST SWAP5 POP POP PUSH1 0x80 PUSH2 0x44A6 DUP11 DUP3 DUP12 ADD PUSH2 0x4210 JUMP JUMPDEST SWAP4 POP POP PUSH1 0xA0 PUSH2 0x44B7 DUP11 DUP3 DUP12 ADD PUSH2 0x34BD JUMP JUMPDEST SWAP3 POP POP PUSH1 0xC0 DUP9 ADD CALLDATALOAD PUSH8 0xFFFFFFFFFFFFFFFF DUP2 GT ISZERO PUSH2 0x44D8 JUMPI PUSH2 0x44D7 PUSH2 0x3473 JUMP JUMPDEST JUMPDEST PUSH2 0x44E4 DUP11 DUP3 DUP12 ADD PUSH2 0x3BF9 JUMP JUMPDEST SWAP2 POP POP SWAP3 SWAP6 SWAP9 SWAP2 SWAP5 SWAP8 POP SWAP3 SWAP6 POP JUMP JUMPDEST PUSH0 DUP1 PUSH0 PUSH1 0x60 DUP5 DUP7 SUB SLT ISZERO PUSH2 0x450A JUMPI PUSH2 0x4509 PUSH2 0x346F JUMP JUMPDEST JUMPDEST PUSH0 DUP5 ADD CALLDATALOAD PUSH8 0xFFFFFFFFFFFFFFFF DUP2 GT ISZERO PUSH2 0x4527 JUMPI PUSH2 0x4526 PUSH2 0x3473 JUMP JUMPDEST JUMPDEST PUSH2 0x4533 DUP7 DUP3 DUP8 ADD PUSH2 0x37EE JUMP JUMPDEST SWAP4 POP POP PUSH1 0x20 DUP5 ADD CALLDATALOAD PUSH8 0xFFFFFFFFFFFFFFFF DUP2 GT ISZERO PUSH2 0x4554 JUMPI PUSH2 0x4553 PUSH2 0x3473 JUMP JUMPDEST JUMPDEST PUSH2 0x4560 DUP7 DUP3 DUP8 ADD PUSH2 0x37EE JUMP JUMPDEST SWAP3 POP POP PUSH1 0x40 DUP5 ADD CALLDATALOAD PUSH8 0xFFFFFFFFFFFFFFFF DUP2 GT ISZERO PUSH2 0x4581 JUMPI PUSH2 0x4580 PUSH2 0x3473 JUMP JUMPDEST JUMPDEST PUSH2 0x458D DUP7 DUP3 DUP8 ADD PUSH2 0x3F8E JUMP JUMPDEST SWAP2 POP POP SWAP3 POP SWAP3 POP SWAP3 JUMP JUMPDEST PUSH0 DUP1 PUSH0 PUSH1 0x60 DUP5 DUP7 SUB SLT ISZERO PUSH2 0x45AE JUMPI PUSH2 0x45AD PUSH2 0x346F JUMP JUMPDEST JUMPDEST PUSH0 PUSH2 0x45BB DUP7 DUP3 DUP8 ADD PUSH2 0x35FF JUMP JUMPDEST SWAP4 POP POP PUSH1 0x20 PUSH2 0x45CC DUP7 DUP3 DUP8 ADD PUSH2 0x35FF JUMP JUMPDEST SWAP3 POP POP PUSH1 0x40 DUP5 ADD CALLDATALOAD PUSH8 0xFFFFFFFFFFFFFFFF DUP2 GT ISZERO PUSH2 0x45ED JUMPI PUSH2 0x45EC PUSH2 0x3473 JUMP JUMPDEST JUMPDEST PUSH2 0x45F9 DUP7 DUP3 DUP8 ADD PUSH2 0x3BF9 JUMP JUMPDEST SWAP2 POP POP SWAP3 POP SWAP3 POP SWAP3 JUMP JUMPDEST PUSH0 DUP1 PUSH0 DUP1 PUSH1 0x80 DUP6 DUP8 SUB SLT ISZERO PUSH2 0x461B JUMPI PUSH2 0x461A PUSH2 0x346F JUMP JUMPDEST JUMPDEST PUSH0 PUSH2 0x4628 DUP8 DUP3 DUP9 ADD PUSH2 0x34BD JUMP JUMPDEST SWAP5 POP POP PUSH1 0x20 PUSH2 0x4639 DUP8 DUP3 DUP9 ADD PUSH2 0x35FF JUMP JUMPDEST SWAP4 POP POP PUSH1 0x40 PUSH2 0x464A DUP8 DUP3 DUP9 ADD PUSH2 0x3B70 JUMP JUMPDEST SWAP3 POP POP PUSH1 0x60 DUP6 ADD CALLDATALOAD PUSH8 0xFFFFFFFFFFFFFFFF DUP2 GT ISZERO PUSH2 0x466B JUMPI PUSH2 0x466A PUSH2 0x3473 JUMP JUMPDEST JUMPDEST PUSH2 0x4677 DUP8 DUP3 DUP9 ADD PUSH2 0x3BF9 JUMP JUMPDEST SWAP2 POP POP SWAP3 SWAP6 SWAP2 SWAP5 POP SWAP3 POP JUMP JUMPDEST PUSH0 PUSH1 0x20 DUP3 DUP5 SUB SLT ISZERO PUSH2 0x4698 JUMPI PUSH2 0x4697 PUSH2 0x346F JUMP JUMPDEST JUMPDEST PUSH0 DUP3 ADD CALLDATALOAD PUSH8 0xFFFFFFFFFFFFFFFF DUP2 GT ISZERO PUSH2 0x46B5 JUMPI PUSH2 0x46B4 PUSH2 0x3473 JUMP JUMPDEST JUMPDEST PUSH2 0x46C1 DUP5 DUP3 DUP6 ADD PUSH2 0x37EE JUMP JUMPDEST SWAP2 POP POP SWAP3 SWAP2 POP POP JUMP JUMPDEST PUSH2 0x46D3 DUP2 PUSH2 0x352D JUMP JUMPDEST DUP3 MSTORE POP POP JUMP JUMPDEST PUSH0 PUSH1 0x20 DUP3 ADD SWAP1 POP PUSH2 0x46EC PUSH0 DUP4 ADD DUP5 PUSH2 0x46CA JUMP JUMPDEST SWAP3 SWAP2 POP POP JUMP JUMPDEST PUSH0 DUP2 SWAP1 POP SWAP3 SWAP2 POP POP JUMP JUMPDEST PUSH0 PUSH2 0x4707 DUP4 DUP6 PUSH2 0x46F2 JUMP JUMPDEST SWAP4 POP PUSH2 0x4714 DUP4 DUP6 DUP5 PUSH2 0x33FA JUMP JUMPDEST DUP3 DUP5 ADD SWAP1 POP SWAP4 SWAP3 POP POP POP JUMP JUMPDEST PUSH0 DUP2 PUSH1 0x60 SHL SWAP1 POP SWAP2 SWAP1 POP JUMP JUMPDEST PUSH0 PUSH2 0x4736 DUP3 PUSH2 0x4720 JUMP JUMPDEST SWAP1 POP SWAP2 SWAP1 POP JUMP JUMPDEST PUSH0 PUSH2 0x4747 DUP3 PUSH2 0x472C JUMP JUMPDEST SWAP1 POP SWAP2 SWAP1 POP JUMP JUMPDEST PUSH2 0x475F PUSH2 0x475A DUP3 PUSH2 0x3496 JUMP JUMPDEST PUSH2 0x473D JUMP JUMPDEST DUP3 MSTORE POP POP JUMP JUMPDEST PUSH0 DUP2 SWAP1 POP SWAP2 SWAP1 POP JUMP JUMPDEST PUSH2 0x477F PUSH2 0x477A DUP3 PUSH2 0x34FC JUMP JUMPDEST PUSH2 0x4765 JUMP JUMPDEST DUP3 MSTORE POP POP JUMP JUMPDEST PUSH0 PUSH2 0x4791 DUP3 DUP7 DUP9 PUSH2 0x46FC JUMP JUMPDEST SWAP2 POP PUSH2 0x479D DUP3 DUP6 PUSH2 0x474E JUMP JUMPDEST PUSH1 0x14 DUP3 ADD SWAP2 POP PUSH2 0x47AD DUP3 DUP5 PUSH2 0x476E JUMP JUMPDEST PUSH1 0x20 DUP3 ADD SWAP2 POP DUP2 SWAP1 POP SWAP6 SWAP5 POP POP POP POP POP JUMP JUMPDEST PUSH0 PUSH2 0x47C9 DUP3 PUSH2 0x3651 JUMP JUMPDEST PUSH2 0x47D3 DUP2 DUP6 PUSH2 0x46F2 JUMP JUMPDEST SWAP4 POP PUSH2 0x47E3 DUP2 DUP6 PUSH1 0x20 DUP7 ADD PUSH2 0x365B JUMP JUMPDEST DUP1 DUP5 ADD SWAP2 POP POP SWAP3 SWAP2 POP POP JUMP JUMPDEST PUSH0 PUSH2 0x47FA DUP3 DUP5 PUSH2 0x47BF JUMP JUMPDEST SWAP2 POP DUP2 SWAP1 POP SWAP3 SWAP2 POP POP JUMP JUMPDEST PUSH32 0x4E487B7100000000000000000000000000000000000000000000000000000000 PUSH0 MSTORE PUSH1 0x32 PUSH1 0x4 MSTORE PUSH1 0x24 PUSH0 REVERT JUMPDEST PUSH2 0x483B DUP2 PUSH2 0x35E0 JUMP JUMPDEST DUP3 MSTORE POP POP JUMP JUMPDEST PUSH0 PUSH1 0x20 DUP3 ADD SWAP1 POP PUSH2 0x4854 PUSH0 DUP4 ADD DUP5 PUSH2 0x4832 JUMP JUMPDEST SWAP3 SWAP2 POP POP JUMP JUMPDEST PUSH32 0x4E487B7100000000000000000000000000000000000000000000000000000000 PUSH0 MSTORE PUSH1 0x11 PUSH1 0x4 MSTORE PUSH1 0x24 PUSH0 REVERT JUMPDEST PUSH0 PUSH2 0x4891 DUP3 PUSH2 0x34FC JUMP JUMPDEST SWAP2 POP PUSH32 0xFFFFFFFFFFFFFFFFFFFFFFFFFFFFFFFFFFFFFFFFFFFFFFFFFFFFFFFFFFFFFFFF DUP3 SUB PUSH2 0x48C3 JUMPI PUSH2 0x48C2 PUSH2 0x485A JUMP JUMPDEST JUMPDEST PUSH1 0x1 DUP3 ADD SWAP1 POP SWAP2 SWAP1 POP JUMP JUMPDEST PUSH0 PUSH1 0x40 DUP3 ADD SWAP1 POP PUSH2 0x48E1 PUSH0 DUP4 ADD DUP6 PUSH2 0x4832 JUMP JUMPDEST PUSH2 0x48EE PUSH1 0x20 DUP4 ADD DUP5 PUSH2 0x39DF JUMP JUMPDEST SWAP4 SWAP3 POP POP POP JUMP JUMPDEST PUSH0 DUP1 REVERT JUMPDEST PUSH0 DUP1 REVERT JUMPDEST PUSH0 DUP1 REVERT JUMPDEST PUSH0 DUP1 DUP4 CALLDATALOAD PUSH1 0x1 PUSH1 0x20 SUB DUP5 CALLDATASIZE SUB SUB DUP2 SLT PUSH2 0x491D JUMPI PUSH2 0x491C PUSH2 0x48F5 JUMP JUMPDEST JUMPDEST DUP1 DUP5 ADD SWAP3 POP DUP3 CALLDATALOAD SWAP2 POP PUSH8 0xFFFFFFFFFFFFFFFF DUP3 GT ISZERO PUSH2 0x493F JUMPI PUSH2 0x493E PUSH2 0x48F9 JUMP JUMPDEST JUMPDEST PUSH1 0x20 DUP4 ADD SWAP3 POP PUSH1 0x1 DUP3 MUL CALLDATASIZE SUB DUP4 SGT ISZERO PUSH2 0x495B JUMPI PUSH2 0x495A PUSH2 0x48FD JUMP JUMPDEST JUMPDEST POP SWAP3 POP SWAP3 SWAP1 POP JUMP JUMPDEST PUSH0 PUSH2 0x496F DUP3 DUP5 DUP7 PUSH2 0x46FC JUMP JUMPDEST SWAP2 POP DUP2 SWAP1 POP SWAP4 SWAP3 POP POP POP JUMP JUMPDEST PUSH0 PUSH1 0x60 DUP3 ADD SWAP1 POP PUSH2 0x498E PUSH0 DUP4 ADD DUP7 PUSH2 0x39DF JUMP JUMPDEST PUSH2 0x499B PUSH1 0x20 DUP4 ADD DUP6 PUSH2 0x4832 JUMP JUMPDEST PUSH2 0x49A8 PUSH1 0x40 DUP4 ADD DUP5 PUSH2 0x39DF JUMP JUMPDEST SWAP5 SWAP4 POP POP POP POP JUMP JUMPDEST PUSH0 PUSH1 0x40 DUP3 ADD SWAP1 POP PUSH2 0x49C3 PUSH0 DUP4 ADD DUP6 PUSH2 0x39DF JUMP JUMPDEST PUSH2 0x49D0 PUSH1 0x20 DUP4 ADD DUP5 PUSH2 0x4832 JUMP JUMPDEST SWAP4 SWAP3 POP POP POP JUMP JUMPDEST PUSH0 PUSH1 0x80 DUP3 ADD SWAP1 POP PUSH2 0x49EA PUSH0 DUP4 ADD DUP8 PUSH2 0x39DF JUMP JUMPDEST PUSH2 0x49F7 PUSH1 0x20 DUP4 ADD DUP7 PUSH2 0x4832 JUMP JUMPDEST PUSH2 0x4A04 PUSH1 0x40 DUP4 ADD DUP6 PUSH2 0x35B8 JUMP JUMPDEST DUP2 DUP2 SUB PUSH1 0x60 DUP4 ADD MSTORE PUSH2 0x4A16 DUP2 DUP5 PUSH2 0x3683 JUMP JUMPDEST SWAP1 POP SWAP6 SWAP5 POP POP POP POP POP JUMP JUMPDEST PUSH0 PUSH2 0x4A2B DUP3 PUSH2 0x34FC JUMP JUMPDEST SWAP2 POP PUSH2 0x4A36 DUP4 PUSH2 0x34FC JUMP JUMPDEST SWAP3 POP DUP3 DUP3 ADD SWAP1 POP DUP1 DUP3 GT ISZERO PUSH2 0x4A4E JUMPI PUSH2 0x4A4D PUSH2 0x485A JUMP JUMPDEST JUMPDEST SWAP3 SWAP2 POP POP JUMP JUMPDEST PUSH0 DUP2 MLOAD SWAP1 POP SWAP2 SWAP1 POP JUMP JUMPDEST PUSH0 DUP3 DUP3 MSTORE PUSH1 0x20 DUP3 ADD SWAP1 POP SWAP3 SWAP2 POP POP JUMP JUMPDEST PUSH0 PUSH2 0x4A78 DUP3 PUSH2 0x4A54 JUMP JUMPDEST PUSH2 0x4A82 DUP2 DUP6 PUSH2 0x4A5E JUMP JUMPDEST SWAP4 POP PUSH2 0x4A92 DUP2 DUP6 PUSH1 0x20 DUP7 ADD PUSH2 0x365B JUMP JUMPDEST PUSH2 0x4A9B DUP2 PUSH2 0x3408 JUMP JUMPDEST DUP5 ADD SWAP2 POP POP SWAP3 SWAP2 POP POP JUMP JUMPDEST PUSH2 0x4AAF DUP2 PUSH2 0x34FC JUMP JUMPDEST DUP3 MSTORE POP POP JUMP JUMPDEST PUSH2 0x4ABE DUP2 PUSH2 0x35AD JUMP JUMPDEST DUP3 MSTORE POP POP JUMP JUMPDEST PUSH2 0x4ACD DUP2 PUSH2 0x3496 JUMP JUMPDEST DUP3 MSTORE POP POP JUMP JUMPDEST PUSH0 DUP3 DUP3 MSTORE PUSH1 0x20 DUP3 ADD SWAP1 POP SWAP3 SWAP2 POP POP JUMP JUMPDEST PUSH0 PUSH2 0x4AED DUP3 PUSH2 0x3651 JUMP JUMPDEST PUSH2 0x4AF7 DUP2 DUP6 PUSH2 0x4AD3 JUMP JUMPDEST SWAP4 POP PUSH2 0x4B07 DUP2 DUP6 PUSH1 0x20 DUP7 ADD PUSH2 0x365B JUMP JUMPDEST PUSH2 0x4B10 DUP2 PUSH2 0x3408 JUMP JUMPDEST DUP5 ADD SWAP2 POP POP SWAP3 SWAP2 POP POP JUMP JUMPDEST PUSH0 PUSH1 0xE0 DUP3 ADD SWAP1 POP DUP2 DUP2 SUB PUSH0 DUP4 ADD MSTORE PUSH2 0x4B33 DUP2 DUP11 PUSH2 0x4A6E JUMP JUMPDEST SWAP1 POP DUP2 DUP2 SUB PUSH1 0x20 DUP4 ADD MSTORE PUSH2 0x4B47 DUP2 DUP10 PUSH2 0x4A6E JUMP JUMPDEST SWAP1 POP PUSH2 0x4B56 PUSH1 0x40 DUP4 ADD DUP9 PUSH2 0x4AA6 JUMP JUMPDEST PUSH2 0x4B63 PUSH1 0x60 DUP4 ADD DUP8 PUSH2 0x4AB5 JUMP JUMPDEST PUSH2 0x4B70 PUSH1 0x80 DUP4 ADD DUP7 PUSH2 0x4AA6 JUMP JUMPDEST PUSH2 0x4B7D PUSH1 0xA0 DUP4 ADD DUP6 PUSH2 0x4AC4 JUMP JUMPDEST DUP2 DUP2 SUB PUSH1 0xC0 DUP4 ADD MSTORE PUSH2 0x4B8F DUP2 DUP5 PUSH2 0x4AE3 JUMP JUMPDEST SWAP1 POP SWAP9 SWAP8 POP POP POP POP POP POP POP POP JUMP JUMPDEST PUSH0 DUP2 MLOAD SWAP1 POP PUSH2 0x4BAB DUP2 PUSH2 0x34A7 JUMP JUMPDEST SWAP3 SWAP2 POP POP JUMP JUMPDEST PUSH0 PUSH1 0x20 DUP3 DUP5 SUB SLT ISZERO PUSH2 0x4BC6 JUMPI PUSH2 0x4BC5 PUSH2 0x346F JUMP JUMPDEST JUMPDEST PUSH0 PUSH2 0x4BD3 DUP5 DUP3 DUP6 ADD PUSH2 0x4B9D JUMP JUMPDEST SWAP2 POP POP SWAP3 SWAP2 POP POP JUMP JUMPDEST PUSH0 PUSH1 0x60 DUP3 ADD SWAP1 POP PUSH2 0x4BEF PUSH0 DUP4 ADD DUP7 PUSH2 0x39DF JUMP JUMPDEST PUSH2 0x4BFC PUSH1 0x20 DUP4 ADD DUP6 PUSH2 0x39DF JUMP JUMPDEST PUSH2 0x4C09 PUSH1 0x40 DUP4 ADD DUP5 PUSH2 0x4832 JUMP JUMPDEST SWAP5 SWAP4 POP POP POP POP JUMP JUMPDEST PUSH0 DUP2 SWAP1 POP PUSH1 0x20 DUP3 ADD SWAP1 POP SWAP2 SWAP1 POP JUMP JUMPDEST PUSH0 PUSH32 0xFFFFFFFFFFFFFFFFFFFFFFFFFFFFFFFFFFFFFFFF000000000000000000000000 DUP3 AND SWAP1 POP SWAP2 SWAP1 POP JUMP JUMPDEST PUSH0 PUSH2 0x4C56 DUP3 MLOAD PUSH2 0x4C20 JUMP JUMPDEST DUP1 SWAP2 POP POP SWAP2 SWAP1 POP JUMP JUMPDEST PUSH0 DUP3 DUP3 SHL SWAP1 POP SWAP3 SWAP2 POP POP JUMP JUMPDEST PUSH0 PUSH2 0x4C75 DUP3 PUSH2 0x3651 JUMP JUMPDEST DUP3 PUSH2 0x4C7F DUP5 PUSH2 0x4C11 JUMP JUMPDEST SWAP1 POP PUSH2 0x4C8A DUP2 PUSH2 0x4C4B JUMP JUMPDEST SWAP3 POP PUSH1 0x14 DUP3 LT ISZERO PUSH2 0x4CCA JUMPI PUSH2 0x4CC5 PUSH32 0xFFFFFFFFFFFFFFFFFFFFFFFFFFFFFFFFFFFFFFFF000000000000000000000000 DUP4 PUSH1 0x14 SUB PUSH1 0x8 MUL PUSH2 0x4C5F JUMP JUMPDEST DUP4 AND SWAP3 POP JUMPDEST POP POP SWAP2 SWAP1 POP JUMP JUMPDEST PUSH0 PUSH1 0x60 DUP3 ADD SWAP1 POP PUSH2 0x4CE4 PUSH0 DUP4 ADD DUP7 PUSH2 0x4832 JUMP JUMPDEST PUSH2 0x4CF1 PUSH1 0x20 DUP4 ADD DUP6 PUSH2 0x39DF JUMP JUMPDEST PUSH2 0x4CFE PUSH1 0x40 DUP4 ADD DUP5 PUSH2 0x39DF JUMP JUMPDEST SWAP5 SWAP4 POP POP POP POP JUMP JUMPDEST PUSH0 PUSH1 0x60 DUP3 ADD SWAP1 POP PUSH2 0x4D19 PUSH0 DUP4 ADD DUP7 PUSH2 0x39DF JUMP JUMPDEST PUSH2 0x4D26 PUSH1 0x20 DUP4 ADD DUP6 PUSH2 0x35B8 JUMP JUMPDEST DUP2 DUP2 SUB PUSH1 0x40 DUP4 ADD MSTORE PUSH2 0x4D38 DUP2 DUP5 PUSH2 0x3683 JUMP JUMPDEST SWAP1 POP SWAP5 SWAP4 POP POP POP POP JUMP JUMPDEST PUSH0 PUSH1 0xA0 DUP3 ADD SWAP1 POP PUSH2 0x4D55 PUSH0 DUP4 ADD DUP9 PUSH2 0x39DF JUMP JUMPDEST PUSH2 0x4D62 PUSH1 0x20 DUP4 ADD DUP8 PUSH2 0x39DF JUMP JUMPDEST PUSH2 0x4D6F PUSH1 0x40 DUP4 ADD DUP7 PUSH2 0x39DF JUMP JUMPDEST PUSH2 0x4D7C PUSH1 0x60 DUP4 ADD DUP6 PUSH2 0x4832 JUMP JUMPDEST DUP2 DUP2 SUB PUSH1 0x80 DUP4 ADD MSTORE PUSH2 0x4D8E DUP2 DUP5 PUSH2 0x3683 JUMP JUMPDEST SWAP1 POP SWAP7 SWAP6 POP POP POP POP POP POP JUMP JUMPDEST PUSH32 0x4E487B7100000000000000000000000000000000000000000000000000000000 PUSH0 MSTORE PUSH1 0x22 PUSH1 0x4 MSTORE PUSH1 0x24 PUSH0 REVERT JUMPDEST PUSH0 PUSH1 0x2 DUP3 DIV SWAP1 POP PUSH1 0x1 DUP3 AND DUP1 PUSH2 0x4DDE JUMPI PUSH1 0x7F DUP3 AND SWAP2 POP JUMPDEST PUSH1 0x20 DUP3 LT DUP2 SUB PUSH2 0x4DF1 JUMPI PUSH2 0x4DF0 PUSH2 0x4D9A JUMP JUMPDEST JUMPDEST POP SWAP2 SWAP1 POP JUMP JUMPDEST PUSH0 PUSH1 0x40 DUP3 ADD SWAP1 POP PUSH2 0x4E0A PUSH0 DUP4 ADD DUP6 PUSH2 0x35B8 JUMP JUMPDEST DUP2 DUP2 SUB PUSH1 0x20 DUP4 ADD MSTORE PUSH2 0x4E1C DUP2 DUP5 PUSH2 0x3683 JUMP JUMPDEST SWAP1 POP SWAP4 SWAP3 POP POP POP JUMP JUMPDEST PUSH0 PUSH32 0xFFFFFFFFFFFFFFFFFFFF00000000000000000000000000000000000000000000 DUP3 AND SWAP1 POP SWAP2 SWAP1 POP JUMP JUMPDEST PUSH0 DUP2 SWAP1 POP SWAP2 SWAP1 POP JUMP JUMPDEST PUSH2 0x4E6A PUSH2 0x4E65 DUP3 PUSH2 0x4E25 JUMP JUMPDEST PUSH2 0x4E50 JUMP JUMPDEST DUP3 MSTORE POP POP JUMP JUMPDEST PUSH0 PUSH32 0xFFFF000000000000000000000000000000000000000000000000000000000000 DUP3 AND SWAP1 POP SWAP2 SWAP1 POP JUMP JUMPDEST PUSH0 DUP2 SWAP1 POP SWAP2 SWAP1 POP JUMP JUMPDEST PUSH2 0x4EB5 PUSH2 0x4EB0 DUP3 PUSH2 0x4E70 JUMP JUMPDEST PUSH2 0x4E9B JUMP JUMPDEST DUP3 MSTORE POP POP JUMP JUMPDEST PUSH0 DUP2 SWAP1 POP SWAP2 SWAP1 POP JUMP JUMPDEST PUSH2 0x4ED5 PUSH2 0x4ED0 DUP3 PUSH2 0x4C20 JUMP JUMPDEST PUSH2 0x4EBB JUMP JUMPDEST DUP3 MSTORE POP POP JUMP JUMPDEST PUSH0 PUSH2 0x4EE6 DUP3 DUP7 PUSH2 0x4E59 JUMP JUMPDEST PUSH1 0xA DUP3 ADD SWAP2 POP PUSH2 0x4EF6 DUP3 DUP6 PUSH2 0x4EA4 JUMP JUMPDEST PUSH1 0x2 DUP3 ADD SWAP2 POP PUSH2 0x4F06 DUP3 DUP5 PUSH2 0x4EC4 JUMP JUMPDEST PUSH1 0x14 DUP3 ADD SWAP2 POP DUP2 SWAP1 POP SWAP5 SWAP4 POP POP POP POP JUMP JUMPDEST PUSH0 PUSH2 0x4F22 DUP3 MLOAD PUSH2 0x35E0 JUMP JUMPDEST DUP1 SWAP2 POP POP SWAP2 SWAP1 POP JUMP JUMPDEST PUSH0 PUSH2 0x4F35 DUP3 PUSH2 0x3651 JUMP JUMPDEST DUP3 PUSH2 0x4F3F DUP5 PUSH2 0x4C11 JUMP JUMPDEST SWAP1 POP PUSH2 0x4F4A DUP2 PUSH2 0x4F17 JUMP JUMPDEST SWAP3 POP PUSH1 0x20 DUP3 LT ISZERO PUSH2 0x4F8A JUMPI PUSH2 0x4F85 PUSH32 0xFFFFFFFFFFFFFFFFFFFFFFFFFFFFFFFFFFFFFFFFFFFFFFFFFFFFFFFFFFFFFFFF DUP4 PUSH1 0x20 SUB PUSH1 0x8 MUL PUSH2 0x4C5F JUMP JUMPDEST DUP4 AND SWAP3 POP JUMPDEST POP POP SWAP2 SWAP1 POP JUMP JUMPDEST PUSH0 PUSH2 0x4FA3 PUSH2 0x4F9E DUP5 PUSH2 0x3B88 JUMP JUMPDEST PUSH2 0x373D JUMP JUMPDEST SWAP1 POP DUP3 DUP2 MSTORE PUSH1 0x20 DUP2 ADD DUP5 DUP5 DUP5 ADD GT ISZERO PUSH2 0x4FBF JUMPI PUSH2 0x4FBE PUSH2 0x3B84 JUMP JUMPDEST JUMPDEST PUSH2 0x4FCA DUP5 DUP3 DUP6 PUSH2 0x365B JUMP JUMPDEST POP SWAP4 SWAP3 POP POP POP JUMP JUMPDEST PUSH0 DUP3 PUSH1 0x1F DUP4 ADD SLT PUSH2 0x4FE6 JUMPI PUSH2 0x4FE5 PUSH2 0x36DB JUMP JUMPDEST JUMPDEST DUP2 MLOAD PUSH2 0x4FF6 DUP5 DUP3 PUSH1 0x20 DUP7 ADD PUSH2 0x4F91 JUMP JUMPDEST SWAP2 POP POP SWAP3 SWAP2 POP POP JUMP JUMPDEST PUSH0 PUSH1 0x20 DUP3 DUP5 SUB SLT ISZERO PUSH2 0x5014 JUMPI PUSH2 0x5013 PUSH2 0x346F JUMP JUMPDEST JUMPDEST PUSH0 DUP3 ADD MLOAD PUSH8 0xFFFFFFFFFFFFFFFF DUP2 GT ISZERO PUSH2 0x5031 JUMPI PUSH2 0x5030 PUSH2 0x3473 JUMP JUMPDEST JUMPDEST PUSH2 0x503D DUP5 DUP3 DUP6 ADD PUSH2 0x4FD2 JUMP JUMPDEST SWAP2 POP POP SWAP3 SWAP2 POP POP JUMP JUMPDEST PUSH0 PUSH1 0x40 DUP3 ADD SWAP1 POP PUSH2 0x5059 PUSH0 DUP4 ADD DUP6 PUSH2 0x4832 JUMP JUMPDEST DUP2 DUP2 SUB PUSH1 0x20 DUP4 ADD MSTORE PUSH2 0x506B DUP2 DUP5 PUSH2 0x3683 JUMP JUMPDEST SWAP1 POP SWAP4 SWAP3 POP POP POP JUMP JUMPDEST PUSH0 PUSH2 0x507E DUP3 PUSH2 0x34FC JUMP JUMPDEST SWAP2 POP PUSH2 0x5089 DUP4 PUSH2 0x34FC JUMP JUMPDEST SWAP3 POP DUP3 DUP3 SUB SWAP1 POP DUP2 DUP2 GT ISZERO PUSH2 0x50A1 JUMPI PUSH2 0x50A0 PUSH2 0x485A JUMP JUMPDEST JUMPDEST SWAP3 SWAP2 POP POP JUMP JUMPDEST PUSH32 0x4E487B7100000000000000000000000000000000000000000000000000000000 PUSH0 MSTORE PUSH1 0x31 PUSH1 0x4 MSTORE PUSH1 0x24 PUSH0 REVERT JUMPDEST PUSH0 DUP2 SWAP1 POP DUP2 PUSH0 MSTORE PUSH1 0x20 PUSH0 KECCAK256 SWAP1 POP SWAP2 SWAP1 POP JUMP JUMPDEST PUSH0 PUSH1 0x20 PUSH1 0x1F DUP4 ADD DIV SWAP1 POP SWAP2 SWAP1 POP JUMP JUMPDEST PUSH0 PUSH1 0x8 DUP4 MUL PUSH2 0x5124 PUSH32 0xFFFFFFFFFFFFFFFFFFFFFFFFFFFFFFFFFFFFFFFFFFFFFFFFFFFFFFFFFFFFFFFF DUP3 PUSH2 0x4C5F JUMP JUMPDEST PUSH2 0x512E DUP7 DUP4 PUSH2 0x4C5F JUMP JUMPDEST SWAP6 POP DUP1 NOT DUP5 AND SWAP4 POP DUP1 DUP7 AND DUP5 OR SWAP3 POP POP POP SWAP4 SWAP3 POP POP POP JUMP JUMPDEST PUSH0 DUP2 SWAP1 POP SWAP2 SWAP1 POP JUMP JUMPDEST PUSH0 PUSH2 0x5169 PUSH2 0x5164 PUSH2 0x515F DUP5 PUSH2 0x34FC JUMP JUMPDEST PUSH2 0x5146 JUMP JUMPDEST PUSH2 0x34FC JUMP JUMPDEST SWAP1 POP SWAP2 SWAP1 POP JUMP JUMPDEST PUSH0 DUP2 SWAP1 POP SWAP2 SWAP1 POP JUMP JUMPDEST PUSH2 0x5182 DUP4 PUSH2 0x514F JUMP JUMPDEST PUSH2 0x5196 PUSH2 0x518E DUP3 PUSH2 0x5170 JUMP JUMPDEST DUP5 DUP5 SLOAD PUSH2 0x50F5 JUMP JUMPDEST DUP3 SSTORE POP POP POP POP JUMP JUMPDEST PUSH0 SWAP1 JUMP JUMPDEST PUSH2 0x51AA PUSH2 0x519E JUMP JUMPDEST PUSH2 0x51B5 DUP2 DUP5 DUP5 PUSH2 0x5179 JUMP JUMPDEST POP POP POP JUMP JUMPDEST JUMPDEST DUP2 DUP2 LT ISZERO PUSH2 0x51D8 JUMPI PUSH2 0x51CD PUSH0 DUP3 PUSH2 0x51A2 JUMP JUMPDEST PUSH1 0x1 DUP2 ADD SWAP1 POP PUSH2 0x51BB JUMP JUMPDEST POP POP JUMP JUMPDEST PUSH1 0x1F DUP3 GT ISZERO PUSH2 0x521D JUMPI PUSH2 0x51EE DUP2 PUSH2 0x50D4 JUMP JUMPDEST PUSH2 0x51F7 DUP5 PUSH2 0x50E6 JUMP JUMPDEST DUP2 ADD PUSH1 0x20 DUP6 LT ISZERO PUSH2 0x5206 JUMPI DUP2 SWAP1 POP JUMPDEST PUSH2 0x521A PUSH2 0x5212 DUP6 PUSH2 0x50E6 JUMP JUMPDEST DUP4 ADD DUP3 PUSH2 0x51BA JUMP JUMPDEST POP POP JUMPDEST POP POP POP JUMP JUMPDEST PUSH0 DUP3 DUP3 SHR SWAP1 POP SWAP3 SWAP2 POP POP JUMP JUMPDEST PUSH0 PUSH2 0x523D PUSH0 NOT DUP5 PUSH1 0x8 MUL PUSH2 0x5222 JUMP JUMPDEST NOT DUP1 DUP4 AND SWAP2 POP POP SWAP3 SWAP2 POP POP JUMP JUMPDEST PUSH0 PUSH2 0x5255 DUP4 DUP4 PUSH2 0x522E JUMP JUMPDEST SWAP2 POP DUP3 PUSH1 0x2 MUL DUP3 OR SWAP1 POP SWAP3 SWAP2 POP POP JUMP JUMPDEST PUSH2 0x526E DUP3 PUSH2 0x3651 JUMP JUMPDEST PUSH8 0xFFFFFFFFFFFFFFFF DUP2 GT ISZERO PUSH2 0x5287 JUMPI PUSH2 0x5286 PUSH2 0x36DF JUMP JUMPDEST JUMPDEST PUSH2 0x5291 DUP3 SLOAD PUSH2 0x4DC7 JUMP JUMPDEST PUSH2 0x529C DUP3 DUP3 DUP6 PUSH2 0x51DC JUMP JUMPDEST PUSH0 PUSH1 0x20 SWAP1 POP PUSH1 0x1F DUP4 GT PUSH1 0x1 DUP2 EQ PUSH2 0x52CD JUMPI PUSH0 DUP5 ISZERO PUSH2 0x52BB JUMPI DUP3 DUP8 ADD MLOAD SWAP1 POP JUMPDEST PUSH2 0x52C5 DUP6 DUP3 PUSH2 0x524A JUMP JUMPDEST DUP7 SSTORE POP PUSH2 0x532C JUMP JUMPDEST PUSH1 0x1F NOT DUP5 AND PUSH2 0x52DB DUP7 PUSH2 0x50D4 JUMP JUMPDEST PUSH0 JUMPDEST DUP3 DUP2 LT ISZERO PUSH2 0x5302 JUMPI DUP5 DUP10 ADD MLOAD DUP3 SSTORE PUSH1 0x1 DUP3 ADD SWAP2 POP PUSH1 0x20 DUP6 ADD SWAP5 POP PUSH1 0x20 DUP2 ADD SWAP1 POP PUSH2 0x52DD JUMP JUMPDEST DUP7 DUP4 LT ISZERO PUSH2 0x531F JUMPI DUP5 DUP10 ADD MLOAD PUSH2 0x531B PUSH1 0x1F DUP10 AND DUP3 PUSH2 0x522E JUMP JUMPDEST DUP4 SSTORE POP JUMPDEST PUSH1 0x1 PUSH1 0x2 DUP9 MUL ADD DUP9 SSTORE POP POP POP JUMPDEST POP POP POP POP POP POP JUMP INVALID LOG2 PUSH5 0x6970667358 0x22 SLT KECCAK256 GASLIMIT LOG4 0xAC MUL 0xC9 ADDRESS 0xED CODESIZE PUSH5 0x1F99457318 0xF7 PUSH8 0x35E292A6AFB76637 PUSH28 0x49F32CF889171E64736F6C6343000814003300000000000000000000 "
		},
		"gasEstimates": {
			"creation": {
				"codeDepositCost": "4270800",
				"executionCost": "infinite",
				"totalCost": "infinite"
			},
			"external": {
				"": "infinite",
				"addLikes(address,address)": "infinite",
				"authorizeOperator(address,bytes32,bytes)": "infinite",
				"balanceOf(address)": "2976",
				"batchCalls(bytes[])": "infinite",
				"getData(bytes32)": "infinite",
				"getDataBatch(bytes32[])": "infinite",
				"getDataBatchForTokenIds(bytes32[],bytes32[])": "infinite",
				"getDataForTokenId(bytes32,bytes32)": "infinite",
				"getLikes(address)": "infinite",
				"getOperatorsOf(bytes32)": "infinite",
				"isMinter(address)": "3096",
				"isOneDay(address)": "infinite",
				"isOperatorFor(address,bytes32)": "infinite",
				"lastClaimed(address)": "2849",
				"likes(address,uint256)": "infinite",
				"mint(string,string,uint256,bool,uint256,address,bytes)": "infinite",
				"owner()": "2583",
				"renounceOwnership()": "infinite",
				"revokeOperator(address,bytes32,bool,bytes)": "infinite",
				"rewardAmount()": "2535",
				"setData(bytes32,bytes)": "infinite",
				"setDataBatch(bytes32[],bytes[])": "infinite",
				"setDataBatchForTokenIds(bytes32[],bytes32[],bytes[])": "infinite",
				"setDataForTokenId(bytes32,bytes32,bytes)": "infinite",
				"setRewardAmount(uint256)": "24831",
				"supportsInterface(bytes4)": "infinite",
				"tokenIdsOf(address)": "infinite",
				"tokenOwnerOf(bytes32)": "infinite",
				"totalSupply()": "2545",
				"transfer(address,address,bytes32,bool,bytes)": "infinite",
				"transferBatch(address[],address[],bytes32[],bool[],bytes[])": "infinite",
				"transferOwnership(address)": "infinite"
			},
			"internal": {
				"_getDataForTokenId(bytes32,bytes32)": "infinite",
				"_setDataForTokenId(bytes32,bytes32,bytes memory)": "infinite"
			}
		},
		"methodIdentifiers": {
			"addLikes(address,address)": "300fe77b",
			"authorizeOperator(address,bytes32,bytes)": "86a10ddd",
			"balanceOf(address)": "70a08231",
			"batchCalls(bytes[])": "6963d438",
			"getData(bytes32)": "54f6127f",
			"getDataBatch(bytes32[])": "dedff9c6",
			"getDataBatchForTokenIds(bytes32[],bytes32[])": "1d26fce6",
			"getDataForTokenId(bytes32,bytes32)": "16e023b3",
			"getLikes(address)": "cc18513f",
			"getOperatorsOf(bytes32)": "49a6078d",
			"isMinter(address)": "aa271e1a",
			"isOneDay(address)": "a45478b9",
			"isOperatorFor(address,bytes32)": "2a3654a4",
			"lastClaimed(address)": "013eba92",
			"likes(address,uint256)": "a2898a30",
			"mint(string,string,uint256,bool,uint256,address,bytes)": "b3b2981e",
			"owner()": "8da5cb5b",
			"renounceOwnership()": "715018a6",
			"revokeOperator(address,bytes32,bool,bytes)": "db8c9663",
			"rewardAmount()": "f7b2a7be",
			"setData(bytes32,bytes)": "7f23690c",
			"setDataBatch(bytes32[],bytes[])": "97902421",
			"setDataBatchForTokenIds(bytes32[],bytes32[],bytes[])": "be9f0e6f",
			"setDataForTokenId(bytes32,bytes32,bytes)": "d6c1407c",
			"setRewardAmount(uint256)": "a8a65a78",
			"supportsInterface(bytes4)": "01ffc9a7",
			"tokenIdsOf(address)": "a3b261f2",
			"tokenOwnerOf(bytes32)": "217b2270",
			"totalSupply()": "18160ddd",
			"transfer(address,address,bytes32,bool,bytes)": "511b6952",
			"transferBatch(address[],address[],bytes32[],bool[],bytes[])": "7e87632c",
			"transferOwnership(address)": "f2fde38b"
		}
	},
	"abi": [
		{
			"inputs": [
				{
					"internalType": "string",
					"name": "name_",
					"type": "string"
				},
				{
					"internalType": "string",
					"name": "symbol_",
					"type": "string"
				},
				{
					"internalType": "address",
					"name": "newOwner_",
					"type": "address"
				},
				{
					"internalType": "uint256",
					"name": "lsp4TokenType_",
					"type": "uint256"
				},
				{
					"internalType": "bytes",
					"name": "lsp4MetadataURI_",
					"type": "bytes"
				},
				{
					"internalType": "uint256",
					"name": "_rewardAmount",
					"type": "uint256"
				}
			],
			"stateMutability": "nonpayable",
			"type": "constructor"
		},
		{
			"inputs": [],
			"name": "ERC725Y_DataKeysValuesEmptyArray",
			"type": "error"
		},
		{
			"inputs": [],
			"name": "ERC725Y_DataKeysValuesLengthMismatch",
			"type": "error"
		},
		{
			"inputs": [],
			"name": "ERC725Y_MsgValueDisallowed",
			"type": "error"
		},
		{
			"inputs": [
				{
					"internalType": "bytes",
					"name": "storedData",
					"type": "bytes"
				}
			],
			"name": "InvalidExtensionAddress",
			"type": "error"
		},
		{
			"inputs": [
				{
					"internalType": "bytes",
					"name": "data",
					"type": "bytes"
				}
			],
			"name": "InvalidFunctionSelector",
			"type": "error"
		},
		{
			"inputs": [],
			"name": "LSP4TokenNameNotEditable",
			"type": "error"
		},
		{
			"inputs": [],
			"name": "LSP4TokenSymbolNotEditable",
			"type": "error"
		},
		{
			"inputs": [],
			"name": "LSP4TokenTypeNotEditable",
			"type": "error"
		},
		{
			"inputs": [
				{
					"internalType": "uint256",
					"name": "callIndex",
					"type": "uint256"
				}
			],
			"name": "LSP8BatchCallFailed",
			"type": "error"
		},
		{
			"inputs": [],
			"name": "LSP8CannotSendToAddressZero",
			"type": "error"
		},
		{
			"inputs": [],
			"name": "LSP8CannotUseAddressZeroAsOperator",
			"type": "error"
		},
		{
			"inputs": [],
			"name": "LSP8InvalidTransferBatch",
			"type": "error"
		},
		{
			"inputs": [
				{
					"internalType": "bytes32",
					"name": "tokenId",
					"type": "bytes32"
				}
			],
			"name": "LSP8NonExistentTokenId",
			"type": "error"
		},
		{
			"inputs": [
				{
					"internalType": "address",
					"name": "operator",
					"type": "address"
				},
				{
					"internalType": "bytes32",
					"name": "tokenId",
					"type": "bytes32"
				}
			],
			"name": "LSP8NonExistingOperator",
			"type": "error"
		},
		{
			"inputs": [
				{
					"internalType": "bytes32",
					"name": "tokenId",
					"type": "bytes32"
				},
				{
					"internalType": "address",
					"name": "caller",
					"type": "address"
				}
			],
			"name": "LSP8NotTokenOperator",
			"type": "error"
		},
		{
			"inputs": [
				{
					"internalType": "address",
					"name": "tokenOwner",
					"type": "address"
				},
				{
					"internalType": "bytes32",
					"name": "tokenId",
					"type": "bytes32"
				},
				{
					"internalType": "address",
					"name": "caller",
					"type": "address"
				}
			],
			"name": "LSP8NotTokenOwner",
			"type": "error"
		},
		{
			"inputs": [
				{
					"internalType": "address",
					"name": "tokenReceiver",
					"type": "address"
				}
			],
			"name": "LSP8NotifyTokenReceiverContractMissingLSP1Interface",
			"type": "error"
		},
		{
			"inputs": [
				{
					"internalType": "address",
					"name": "tokenReceiver",
					"type": "address"
				}
			],
			"name": "LSP8NotifyTokenReceiverIsEOA",
			"type": "error"
		},
		{
			"inputs": [
				{
					"internalType": "address",
					"name": "operator",
					"type": "address"
				},
				{
					"internalType": "bytes32",
					"name": "tokenId",
					"type": "bytes32"
				}
			],
			"name": "LSP8OperatorAlreadyAuthorized",
			"type": "error"
		},
		{
			"inputs": [
				{
					"internalType": "address",
					"name": "caller",
					"type": "address"
				},
				{
					"internalType": "address",
					"name": "tokenOwner",
					"type": "address"
				},
				{
					"internalType": "bytes32",
					"name": "tokenId",
					"type": "bytes32"
				}
			],
			"name": "LSP8RevokeOperatorNotAuthorized",
			"type": "error"
		},
		{
			"inputs": [],
			"name": "LSP8TokenContractCannotHoldValue",
			"type": "error"
		},
		{
			"inputs": [
				{
					"internalType": "bytes32",
					"name": "tokenId",
					"type": "bytes32"
				}
			],
			"name": "LSP8TokenIdAlreadyMinted",
			"type": "error"
		},
		{
			"inputs": [],
			"name": "LSP8TokenIdFormatNotEditable",
			"type": "error"
		},
		{
			"inputs": [],
			"name": "LSP8TokenIdsDataEmptyArray",
			"type": "error"
		},
		{
			"inputs": [],
			"name": "LSP8TokenIdsDataLengthMismatch",
			"type": "error"
		},
		{
			"inputs": [],
			"name": "LSP8TokenOwnerCannotBeOperator",
			"type": "error"
		},
		{
			"inputs": [
				{
					"internalType": "bytes32",
					"name": "tokenId",
					"type": "bytes32"
				},
				{
					"internalType": "address",
					"name": "oldOwner",
					"type": "address"
				},
				{
					"internalType": "address",
					"name": "newOwner",
					"type": "address"
				}
			],
			"name": "LSP8TokenOwnerChanged",
			"type": "error"
		},
		{
			"inputs": [
				{
					"internalType": "bytes4",
					"name": "functionSelector",
					"type": "bytes4"
				}
			],
			"name": "NoExtensionFoundForFunctionSelector",
			"type": "error"
		},
		{
			"inputs": [
				{
					"internalType": "address",
					"name": "callerAddress",
					"type": "address"
				}
			],
			"name": "OwnableCallerNotTheOwner",
			"type": "error"
		},
		{
			"inputs": [],
			"name": "OwnableCannotSetZeroAddressAsOwner",
			"type": "error"
		},
		{
			"anonymous": false,
			"inputs": [
				{
					"indexed": true,
					"internalType": "bytes32",
					"name": "dataKey",
					"type": "bytes32"
				},
				{
					"indexed": false,
					"internalType": "bytes",
					"name": "dataValue",
					"type": "bytes"
				}
			],
			"name": "DataChanged",
			"type": "event"
		},
		{
			"anonymous": false,
			"inputs": [
				{
					"indexed": true,
					"internalType": "address",
					"name": "operator",
					"type": "address"
				},
				{
					"indexed": true,
					"internalType": "address",
					"name": "tokenOwner",
					"type": "address"
				},
				{
					"indexed": true,
					"internalType": "bytes32",
					"name": "tokenId",
					"type": "bytes32"
				},
				{
					"indexed": false,
					"internalType": "bytes",
					"name": "operatorNotificationData",
					"type": "bytes"
				}
			],
			"name": "OperatorAuthorizationChanged",
			"type": "event"
		},
		{
			"anonymous": false,
			"inputs": [
				{
					"indexed": true,
					"internalType": "address",
					"name": "operator",
					"type": "address"
				},
				{
					"indexed": true,
					"internalType": "address",
					"name": "tokenOwner",
					"type": "address"
				},
				{
					"indexed": true,
					"internalType": "bytes32",
					"name": "tokenId",
					"type": "bytes32"
				},
				{
					"indexed": false,
					"internalType": "bool",
					"name": "notified",
					"type": "bool"
				},
				{
					"indexed": false,
					"internalType": "bytes",
					"name": "operatorNotificationData",
					"type": "bytes"
				}
			],
			"name": "OperatorRevoked",
			"type": "event"
		},
		{
			"anonymous": false,
			"inputs": [
				{
					"indexed": true,
					"internalType": "address",
					"name": "previousOwner",
					"type": "address"
				},
				{
					"indexed": true,
					"internalType": "address",
					"name": "newOwner",
					"type": "address"
				}
			],
			"name": "OwnershipTransferred",
			"type": "event"
		},
		{
			"anonymous": false,
			"inputs": [
				{
					"indexed": true,
					"internalType": "bytes32",
					"name": "tokenId",
					"type": "bytes32"
				},
				{
					"indexed": true,
					"internalType": "bytes32",
					"name": "dataKey",
					"type": "bytes32"
				},
				{
					"indexed": false,
					"internalType": "bytes",
					"name": "dataValue",
					"type": "bytes"
				}
			],
			"name": "TokenIdDataChanged",
			"type": "event"
		},
		{
			"anonymous": false,
			"inputs": [
				{
					"indexed": false,
					"internalType": "address",
					"name": "operator",
					"type": "address"
				},
				{
					"indexed": true,
					"internalType": "address",
					"name": "from",
					"type": "address"
				},
				{
					"indexed": true,
					"internalType": "address",
					"name": "to",
					"type": "address"
				},
				{
					"indexed": true,
					"internalType": "bytes32",
					"name": "tokenId",
					"type": "bytes32"
				},
				{
					"indexed": false,
					"internalType": "bool",
					"name": "force",
					"type": "bool"
				},
				{
					"indexed": false,
					"internalType": "bytes",
					"name": "data",
					"type": "bytes"
				}
			],
			"name": "Transfer",
			"type": "event"
		},
		{
			"stateMutability": "payable",
			"type": "fallback"
		},
		{
			"inputs": [
				{
					"internalType": "address",
					"name": "key",
					"type": "address"
				},
				{
					"internalType": "address",
					"name": "newAddress",
					"type": "address"
				}
			],
			"name": "addLikes",
			"outputs": [
				{
					"internalType": "bool",
					"name": "",
					"type": "bool"
				}
			],
			"stateMutability": "nonpayable",
			"type": "function"
		},
		{
			"inputs": [
				{
					"internalType": "address",
					"name": "operator",
					"type": "address"
				},
				{
					"internalType": "bytes32",
					"name": "tokenId",
					"type": "bytes32"
				},
				{
					"internalType": "bytes",
					"name": "operatorNotificationData",
					"type": "bytes"
				}
			],
			"name": "authorizeOperator",
			"outputs": [],
			"stateMutability": "nonpayable",
			"type": "function"
		},
		{
			"inputs": [
				{
					"internalType": "address",
					"name": "tokenOwner",
					"type": "address"
				}
			],
			"name": "balanceOf",
			"outputs": [
				{
					"internalType": "uint256",
					"name": "",
					"type": "uint256"
				}
			],
			"stateMutability": "view",
			"type": "function"
		},
		{
			"inputs": [
				{
					"internalType": "bytes[]",
					"name": "data",
					"type": "bytes[]"
				}
			],
			"name": "batchCalls",
			"outputs": [
				{
					"internalType": "bytes[]",
					"name": "results",
					"type": "bytes[]"
				}
			],
			"stateMutability": "nonpayable",
			"type": "function"
		},
		{
			"inputs": [
				{
					"internalType": "bytes32",
					"name": "dataKey",
					"type": "bytes32"
				}
			],
			"name": "getData",
			"outputs": [
				{
					"internalType": "bytes",
					"name": "dataValue",
					"type": "bytes"
				}
			],
			"stateMutability": "view",
			"type": "function"
		},
		{
			"inputs": [
				{
					"internalType": "bytes32[]",
					"name": "dataKeys",
					"type": "bytes32[]"
				}
			],
			"name": "getDataBatch",
			"outputs": [
				{
					"internalType": "bytes[]",
					"name": "dataValues",
					"type": "bytes[]"
				}
			],
			"stateMutability": "view",
			"type": "function"
		},
		{
			"inputs": [
				{
					"internalType": "bytes32[]",
					"name": "tokenIds",
					"type": "bytes32[]"
				},
				{
					"internalType": "bytes32[]",
					"name": "dataKeys",
					"type": "bytes32[]"
				}
			],
			"name": "getDataBatchForTokenIds",
			"outputs": [
				{
					"internalType": "bytes[]",
					"name": "dataValues",
					"type": "bytes[]"
				}
			],
			"stateMutability": "view",
			"type": "function"
		},
		{
			"inputs": [
				{
					"internalType": "bytes32",
					"name": "tokenId",
					"type": "bytes32"
				},
				{
					"internalType": "bytes32",
					"name": "dataKey",
					"type": "bytes32"
				}
			],
			"name": "getDataForTokenId",
			"outputs": [
				{
					"internalType": "bytes",
					"name": "dataValue",
					"type": "bytes"
				}
			],
			"stateMutability": "view",
			"type": "function"
		},
		{
			"inputs": [
				{
					"internalType": "address",
					"name": "key",
					"type": "address"
				}
			],
			"name": "getLikes",
			"outputs": [
				{
					"internalType": "address[]",
					"name": "",
					"type": "address[]"
				}
			],
			"stateMutability": "view",
			"type": "function"
		},
		{
			"inputs": [
				{
					"internalType": "bytes32",
					"name": "tokenId",
					"type": "bytes32"
				}
			],
			"name": "getOperatorsOf",
			"outputs": [
				{
					"internalType": "address[]",
					"name": "",
					"type": "address[]"
				}
			],
			"stateMutability": "view",
			"type": "function"
		},
		{
			"inputs": [
				{
					"internalType": "address",
					"name": "minter",
					"type": "address"
				}
			],
			"name": "isMinter",
			"outputs": [
				{
					"internalType": "bool",
					"name": "",
					"type": "bool"
				}
			],
			"stateMutability": "view",
			"type": "function"
		},
		{
			"inputs": [
				{
					"internalType": "address",
					"name": "minter",
					"type": "address"
				}
			],
			"name": "isOneDay",
			"outputs": [
				{
					"internalType": "bool",
					"name": "",
					"type": "bool"
				}
			],
			"stateMutability": "view",
			"type": "function"
		},
		{
			"inputs": [
				{
					"internalType": "address",
					"name": "operator",
					"type": "address"
				},
				{
					"internalType": "bytes32",
					"name": "tokenId",
					"type": "bytes32"
				}
			],
			"name": "isOperatorFor",
			"outputs": [
				{
					"internalType": "bool",
					"name": "",
					"type": "bool"
				}
			],
			"stateMutability": "view",
			"type": "function"
		},
		{
			"inputs": [
				{
					"internalType": "address",
					"name": "",
					"type": "address"
				}
			],
			"name": "lastClaimed",
			"outputs": [
				{
					"internalType": "uint256",
					"name": "",
					"type": "uint256"
				}
			],
			"stateMutability": "view",
			"type": "function"
		},
		{
			"inputs": [
				{
					"internalType": "address",
					"name": "",
					"type": "address"
				},
				{
					"internalType": "uint256",
					"name": "",
					"type": "uint256"
				}
			],
			"name": "likes",
			"outputs": [
				{
					"internalType": "address",
					"name": "",
					"type": "address"
				}
			],
			"stateMutability": "view",
			"type": "function"
		},
		{
			"inputs": [
				{
					"internalType": "string",
					"name": "nameOfLSP7_",
					"type": "string"
				},
				{
					"internalType": "string",
					"name": "symbolOfLSP7_",
					"type": "string"
				},
				{
					"internalType": "uint256",
					"name": "lsp4TokenType_",
					"type": "uint256"
				},
				{
					"internalType": "bool",
					"name": "isNonDivisible_",
					"type": "bool"
				},
				{
					"internalType": "uint256",
					"name": "totalSupplyOfLSP7_",
					"type": "uint256"
				},
				{
					"internalType": "address",
					"name": "receiverOfInitialTokens_",
					"type": "address"
				},
				{
					"internalType": "bytes",
					"name": "lsp4MetadataURIOfLSP7_",
					"type": "bytes"
				}
			],
			"name": "mint",
			"outputs": [
				{
					"internalType": "address",
					"name": "lsp7SubCollectionAddress",
					"type": "address"
				}
			],
			"stateMutability": "nonpayable",
			"type": "function"
		},
		{
			"inputs": [],
			"name": "owner",
			"outputs": [
				{
					"internalType": "address",
					"name": "",
					"type": "address"
				}
			],
			"stateMutability": "view",
			"type": "function"
		},
		{
			"inputs": [],
			"name": "renounceOwnership",
			"outputs": [],
			"stateMutability": "nonpayable",
			"type": "function"
		},
		{
			"inputs": [
				{
					"internalType": "address",
					"name": "operator",
					"type": "address"
				},
				{
					"internalType": "bytes32",
					"name": "tokenId",
					"type": "bytes32"
				},
				{
					"internalType": "bool",
					"name": "notify",
					"type": "bool"
				},
				{
					"internalType": "bytes",
					"name": "operatorNotificationData",
					"type": "bytes"
				}
			],
			"name": "revokeOperator",
			"outputs": [],
			"stateMutability": "nonpayable",
			"type": "function"
		},
		{
			"inputs": [],
			"name": "rewardAmount",
			"outputs": [
				{
					"internalType": "uint256",
					"name": "",
					"type": "uint256"
				}
			],
			"stateMutability": "view",
			"type": "function"
		},
		{
			"inputs": [
				{
					"internalType": "bytes32",
					"name": "dataKey",
					"type": "bytes32"
				},
				{
					"internalType": "bytes",
					"name": "dataValue",
					"type": "bytes"
				}
			],
			"name": "setData",
			"outputs": [],
			"stateMutability": "payable",
			"type": "function"
		},
		{
			"inputs": [
				{
					"internalType": "bytes32[]",
					"name": "dataKeys",
					"type": "bytes32[]"
				},
				{
					"internalType": "bytes[]",
					"name": "dataValues",
					"type": "bytes[]"
				}
			],
			"name": "setDataBatch",
			"outputs": [],
			"stateMutability": "payable",
			"type": "function"
		},
		{
			"inputs": [
				{
					"internalType": "bytes32[]",
					"name": "tokenIds",
					"type": "bytes32[]"
				},
				{
					"internalType": "bytes32[]",
					"name": "dataKeys",
					"type": "bytes32[]"
				},
				{
					"internalType": "bytes[]",
					"name": "dataValues",
					"type": "bytes[]"
				}
			],
			"name": "setDataBatchForTokenIds",
			"outputs": [],
			"stateMutability": "nonpayable",
			"type": "function"
		},
		{
			"inputs": [
				{
					"internalType": "bytes32",
					"name": "tokenId",
					"type": "bytes32"
				},
				{
					"internalType": "bytes32",
					"name": "dataKey",
					"type": "bytes32"
				},
				{
					"internalType": "bytes",
					"name": "dataValue",
					"type": "bytes"
				}
			],
			"name": "setDataForTokenId",
			"outputs": [],
			"stateMutability": "nonpayable",
			"type": "function"
		},
		{
			"inputs": [
				{
					"internalType": "uint256",
					"name": "_rewardAmount",
					"type": "uint256"
				}
			],
			"name": "setRewardAmount",
			"outputs": [],
			"stateMutability": "nonpayable",
			"type": "function"
		},
		{
			"inputs": [
				{
					"internalType": "bytes4",
					"name": "interfaceId",
					"type": "bytes4"
				}
			],
			"name": "supportsInterface",
			"outputs": [
				{
					"internalType": "bool",
					"name": "",
					"type": "bool"
				}
			],
			"stateMutability": "view",
			"type": "function"
		},
		{
			"inputs": [
				{
					"internalType": "address",
					"name": "tokenOwner",
					"type": "address"
				}
			],
			"name": "tokenIdsOf",
			"outputs": [
				{
					"internalType": "bytes32[]",
					"name": "",
					"type": "bytes32[]"
				}
			],
			"stateMutability": "view",
			"type": "function"
		},
		{
			"inputs": [
				{
					"internalType": "bytes32",
					"name": "tokenId",
					"type": "bytes32"
				}
			],
			"name": "tokenOwnerOf",
			"outputs": [
				{
					"internalType": "address",
					"name": "",
					"type": "address"
				}
			],
			"stateMutability": "view",
			"type": "function"
		},
		{
			"inputs": [],
			"name": "totalSupply",
			"outputs": [
				{
					"internalType": "uint256",
					"name": "",
					"type": "uint256"
				}
			],
			"stateMutability": "view",
			"type": "function"
		},
		{
			"inputs": [
				{
					"internalType": "address",
					"name": "from",
					"type": "address"
				},
				{
					"internalType": "address",
					"name": "to",
					"type": "address"
				},
				{
					"internalType": "bytes32",
					"name": "tokenId",
					"type": "bytes32"
				},
				{
					"internalType": "bool",
					"name": "force",
					"type": "bool"
				},
				{
					"internalType": "bytes",
					"name": "data",
					"type": "bytes"
				}
			],
			"name": "transfer",
			"outputs": [],
			"stateMutability": "nonpayable",
			"type": "function"
		},
		{
			"inputs": [
				{
					"internalType": "address[]",
					"name": "from",
					"type": "address[]"
				},
				{
					"internalType": "address[]",
					"name": "to",
					"type": "address[]"
				},
				{
					"internalType": "bytes32[]",
					"name": "tokenId",
					"type": "bytes32[]"
				},
				{
					"internalType": "bool[]",
					"name": "force",
					"type": "bool[]"
				},
				{
					"internalType": "bytes[]",
					"name": "data",
					"type": "bytes[]"
				}
			],
			"name": "transferBatch",
			"outputs": [],
			"stateMutability": "nonpayable",
			"type": "function"
		},
		{
			"inputs": [
				{
					"internalType": "address",
					"name": "newOwner",
					"type": "address"
				}
			],
			"name": "transferOwnership",
			"outputs": [],
			"stateMutability": "nonpayable",
			"type": "function"
		},
		{
			"stateMutability": "payable",
			"type": "receive"
		}
	]
}