{
	"data": {
		"bytecode": {
			"linkReferences": {
				"contracts/LSP8CollectionMinter.sol": {
					"LSP8CollectionMinter": [
						{
							"length": 20,
							"start": 9842
						}
					]
				}
			},
			"object": "608060405234801562000010575f80fd5b5060405162006574380380620065748339818101604052810190620000369190620008d3565b85858585600284848484815f73ffffffffffffffffffffffffffffffffffffffff168173ffffffffffffffffffffffffffffffffffffffff1603620000a7576040517f1ad8836c00000000000000000000000000000000000000000000000000000000815260040160405180910390fd5b620000b8816200028460201b60201c565b50620001227feafec4d89fa9619884b60000a4d96624a38f7ac2d8d9a604ecf07c12c77e480c5f1b6040518060400160405280600481526020017fa4d96624000000000000000000000000000000000000000000000000000000008152506200038360201b60201c565b620001567fdeba1e292f8ba88238e10ab3c7f88bd4be4fac56cad5194b6ecceaf653468af15f1b856200038360201b60201c565b6200018a7f2f0a68ab07768e01943a599e73362a0e17a63a72e94dd2e384d2c1d4db9327565f1b846200038360201b60201c565b620001df7fe0261fa95db2eb3b5439bd033cda66d56b96f92f243a8228fd87550ed7bdfdb35f1b82604051602001620001c49190620009d9565b6040516020818303038152906040526200038360201b60201c565b50505050620002387ff675e9361af1c1664c1868cfa3eb97672d6b1a513aa5b81dec34c9ee330e818d5f1b826040516020016200021d9190620009d9565b604051602081830303815290604052620003e260201b60201c565b5050505050620002717f9afb95cacc9f95858ec44aa8c3b685511002e30ae54415823f406128b85b238e5f1b83620003f860201b60201c565b8060078190555050505050505062000d78565b620002946200046a60201b60201c565b73ffffffffffffffffffffffffffffffffffffffff168173ffffffffffffffffffffffffffffffffffffffff161462000380578073ffffffffffffffffffffffffffffffffffffffff165f8054906101000a900473ffffffffffffffffffffffffffffffffffffffff1673ffffffffffffffffffffffffffffffffffffffff167f8be0079c531659141344cd1fd0a4f28419497f9722a3daafe3b4186f6b6457e060405160405180910390a3805f806101000a81548173ffffffffffffffffffffffffffffffffffffffff021916908373ffffffffffffffffffffffffffffffffffffffff1602179055505b50565b8060015f8481526020019081526020015f209081620003a3919062000c22565b50817fece574603820d07bc9b91f2a932baadf4628aabcb8afba49776529c14a6104b282604051620003d6919062000d56565b60405180910390a25050565b620003f482826200049160201b60201c565b5050565b7ff675e9361af1c1664c1868cfa3eb97672d6b1a513aa5b81dec34c9ee330e818d5f1b820362000454576040517f3664800a00000000000000000000000000000000000000000000000000000000815260040160405180910390fd5b620004668282620003e260201b60201c565b5050565b5f805f9054906101000a900473ffffffffffffffffffffffffffffffffffffffff16905090565b7fdeba1e292f8ba88238e10ab3c7f88bd4be4fac56cad5194b6ecceaf653468af15f1b8203620004ed576040517f85c169bd00000000000000000000000000000000000000000000000000000000815260040160405180910390fd5b7f2f0a68ab07768e01943a599e73362a0e17a63a72e94dd2e384d2c1d4db9327565f1b820362000549576040517f76755b3800000000000000000000000000000000000000000000000000000000815260040160405180910390fd5b7fe0261fa95db2eb3b5439bd033cda66d56b96f92f243a8228fd87550ed7bdfdb35f1b8203620005a5576040517f4ef6d7fb00000000000000000000000000000000000000000000000000000000815260040160405180910390fd5b8060015f8481526020019081526020015f209081620005c5919062000c22565b50817fece574603820d07bc9b91f2a932baadf4628aabcb8afba49776529c14a6104b282604051620005f8919062000d56565b60405180910390a25050565b5f604051905090565b5f80fd5b5f80fd5b5f80fd5b5f80fd5b5f601f19601f8301169050919050565b7f4e487b71000000000000000000000000000000000000000000000000000000005f52604160045260245ffd5b62000665826200061d565b810181811067ffffffffffffffff821117156200068757620006866200062d565b5b80604052505050565b5f6200069b62000604565b9050620006a982826200065a565b919050565b5f67ffffffffffffffff821115620006cb57620006ca6200062d565b5b620006d6826200061d565b9050602081019050919050565b5f5b8381101562000702578082015181840152602081019050620006e5565b5f8484015250505050565b5f620007236200071d84620006ae565b62000690565b90508281526020810184848401111562000742576200074162000619565b5b6200074f848285620006e3565b509392505050565b5f82601f8301126200076e576200076d62000615565b5b8151620007808482602086016200070d565b91505092915050565b5f73ffffffffffffffffffffffffffffffffffffffff82169050919050565b5f620007b48262000789565b9050919050565b620007c681620007a8565b8114620007d1575f80fd5b50565b5f81519050620007e481620007bb565b92915050565b5f819050919050565b620007fe81620007ea565b811462000809575f80fd5b50565b5f815190506200081c81620007f3565b92915050565b5f67ffffffffffffffff8211156200083f576200083e6200062d565b5b6200084a826200061d565b9050602081019050919050565b5f6200086d620008678462000822565b62000690565b9050828152602081018484840111156200088c576200088b62000619565b5b62000899848285620006e3565b509392505050565b5f82601f830112620008b857620008b762000615565b5b8151620008ca84826020860162000857565b91505092915050565b5f805f805f8060c08789031215620008f057620008ef6200060d565b5b5f87015167ffffffffffffffff81111562000910576200090f62000611565b5b6200091e89828a0162000757565b965050602087015167ffffffffffffffff81111562000942576200094162000611565b5b6200095089828a0162000757565b95505060406200096389828a01620007d4565b94505060606200097689828a016200080c565b935050608087015167ffffffffffffffff8111156200099a576200099962000611565b5b620009a889828a01620008a1565b92505060a0620009bb89828a016200080c565b9150509295509295509295565b620009d381620007ea565b82525050565b5f602082019050620009ee5f830184620009c8565b92915050565b5f81519050919050565b7f4e487b71000000000000000000000000000000000000000000000000000000005f52602260045260245ffd5b5f600282049050600182168062000a4357607f821691505b60208210810362000a595762000a58620009fe565b5b50919050565b5f819050815f5260205f209050919050565b5f6020601f8301049050919050565b5f82821b905092915050565b5f6008830262000abd7fffffffffffffffffffffffffffffffffffffffffffffffffffffffffffffffff8262000a80565b62000ac9868362000a80565b95508019841693508086168417925050509392505050565b5f819050919050565b5f62000b0a62000b0462000afe84620007ea565b62000ae1565b620007ea565b9050919050565b5f819050919050565b62000b258362000aea565b62000b3d62000b348262000b11565b84845462000a8c565b825550505050565b5f90565b62000b5362000b45565b62000b6081848462000b1a565b505050565b5b8181101562000b875762000b7b5f8262000b49565b60018101905062000b66565b5050565b601f82111562000bd65762000ba08162000a5f565b62000bab8462000a71565b8101602085101562000bbb578190505b62000bd362000bca8562000a71565b83018262000b65565b50505b505050565b5f82821c905092915050565b5f62000bf85f198460080262000bdb565b1980831691505092915050565b5f62000c12838362000be7565b9150826002028217905092915050565b62000c2d82620009f4565b67ffffffffffffffff81111562000c495762000c486200062d565b5b62000c55825462000a2b565b62000c6282828562000b8b565b5f60209050601f83116001811462000c98575f841562000c83578287015190505b62000c8f858262000c05565b86555062000cfe565b601f19841662000ca88662000a5f565b5f5b8281101562000cd15784890151825560018201915060208501945060208101905062000caa565b8683101562000cf1578489015162000ced601f89168262000be7565b8355505b6001600288020188555050505b505050505050565b5f82825260208201905092915050565b5f62000d2282620009f4565b62000d2e818562000d06565b935062000d40818560208601620006e3565b62000d4b816200061d565b840191505092915050565b5f6020820190508181035f83015262000d70818462000d16565b905092915050565b6157ee8062000d865f395ff3fe6080604052600436106101fc575f3560e01c80637aad1f7d1161010c578063b3b2981e1161009f578063db8c96631161006e578063db8c96631461087d578063dedff9c6146108a5578063f08e076d146108e1578063f2fde38b1461091d578063f7b2a7be1461094557610275565b8063b3b2981e146107b5578063be9f0e6f146107f1578063d54488fe14610819578063d6c1407c1461085557610275565b80638da5cb5b116100db5780638da5cb5b1461070b5780639790242114610735578063a3b261f214610751578063a8a65a781461078d57610275565b80637aad1f7d146106775780637e87632c1461069f5780637f23690c146106c757806386a10ddd146106e357610275565b80632a3654a41161018f57806354f6127f1161015e57806354f6127f146105715780635acc786e146105ad5780636963d438146105e957806370a0823114610625578063715018a61461066157610275565b80632a3654a41461049557806349a6078d146104d1578063511b69521461050d5780635283c4801461053557610275565b806316e023b3116101cb57806316e023b3146103b757806318160ddd146103f35780631d26fce61461041d578063217b22701461045957610275565b8063013eba92146102db57806301ffc9a714610317578063073c9695146103535780630c590f511461037b57610275565b36610275575f3403610243576040517fe5099ee300000000000000000000000000000000000000000000000000000000815260040161023a90613612565b60405180910390fd5b6040517f61f4944200000000000000000000000000000000000000000000000000000000815260040160405180910390fd5b5f36606060045f36905010156102c45782826040517fe5099ee30000000000000000000000000000000000000000000000000000000081526004016102bb92919061367a565b60405180910390fd5b6102ce838361096f565b9050915050805190602001f35b3480156102e6575f80fd5b5061030160048036038101906102fc9190613707565b610ae5565b60405161030e919061374a565b60405180910390f35b348015610322575f80fd5b5061033d600480360381019061033891906137b8565b610afa565b60405161034a91906137fd565b60405180910390f35b34801561035e575f80fd5b5061037960048036038101906103749190613991565b610b6a565b005b348015610386575f80fd5b506103a1600480360381019061039c9190613707565b610c90565b6040516103ae919061374a565b60405180910390f35b3480156103c2575f80fd5b506103dd60048036038101906103d89190613a11565b610cd6565b6040516103ea9190613ab9565b60405180910390f35b3480156103fe575f80fd5b50610407610cea565b604051610414919061374a565b60405180910390f35b348015610428575f80fd5b50610443600480360381019061043e9190613b9d565b610cf3565b6040516104509190613d16565b60405180910390f35b348015610464575f80fd5b5061047f600480360381019061047a9190613d36565b610dfa565b60405161048c9190613d70565b60405180910390f35b3480156104a0575f80fd5b506104bb60048036038101906104b69190613d89565b610ea8565b6040516104c891906137fd565b60405180910390f35b3480156104dc575f80fd5b506104f760048036038101906104f29190613d36565b610ebb565b6040516105049190613e7e565b60405180910390f35b348015610518575f80fd5b50610533600480360381019061052e9190613ec8565b610ee6565b005b348015610540575f80fd5b5061055b60048036038101906105569190613f5b565b610f47565b60405161056891906137fd565b60405180910390f35b34801561057c575f80fd5b5061059760048036038101906105929190613d36565b610f71565b6040516105a49190613ab9565b60405180910390f35b3480156105b8575f80fd5b506105d360048036038101906105ce9190613f99565b610f83565b6040516105e09190613d70565b60405180910390f35b3480156105f4575f80fd5b5061060f600480360381019061060a9190614030565b610fcb565b60405161061c9190613d16565b60405180910390f35b348015610630575f80fd5b5061064b60048036038101906106469190613707565b611141565b604051610658919061374a565b60405180910390f35b34801561066c575f80fd5b5061067561118e565b005b348015610682575f80fd5b5061069d60048036038101906106989190613d36565b6111a1565b005b3480156106aa575f80fd5b506106c560048036038101906106c091906142d9565b611354565b005b6106e160048036038101906106dc91906143dc565b611466565b005b3480156106ee575f80fd5b5061070960048036038101906107049190614436565b6114b5565b005b348015610716575f80fd5b5061071f61170b565b60405161072c9190613d70565b60405180910390f35b61074f600480360381019061074a91906144a2565b611732565b005b34801561075c575f80fd5b5061077760048036038101906107729190613707565b611841565b60405161078491906145cf565b60405180910390f35b348015610798575f80fd5b506107b360048036038101906107ae91906145ef565b61188f565b005b3480156107c0575f80fd5b506107db60048036038101906107d691906146b8565b6118a1565b6040516107e89190613d70565b60405180910390f35b3480156107fc575f80fd5b50610817600480360381019061081291906147a9565b611a9a565b005b348015610824575f80fd5b5061083f600480360381019061083a9190613d36565b611b9b565b60405161084c9190613e7e565b60405180910390f35b348015610860575f80fd5b5061087b6004803603810190610876919061484d565b611c37565b005b348015610888575f80fd5b506108a3600480360381019061089e91906148b9565b611c4f565b005b3480156108b0575f80fd5b506108cb60048036038101906108c69190614939565b611e1c565b6040516108d89190613d16565b60405180910390f35b3480156108ec575f80fd5b5061090760048036038101906109029190613707565b611ecc565b604051610914919061374a565b60405180910390f35b348015610928575f80fd5b50610943600480360381019061093e9190613707565b611ee1565b005b348015610950575f80fd5b50610959611f5a565b604051610966919061374a565b60405180910390f35b60605f61099e5f357fffffffff0000000000000000000000000000000000000000000000000000000016611f60565b5090505f73ffffffffffffffffffffffffffffffffffffffff168173ffffffffffffffffffffffffffffffffffffffff1603610a34575f357fffffffff00000000000000000000000000000000000000000000000000000000166040517fbb370b2b000000000000000000000000000000000000000000000000000000008152600401610a2b919061498f565b60405180910390fd5b5f808273ffffffffffffffffffffffffffffffffffffffff163487873334604051602001610a659493929190614a3b565b604051602081830303815290604052604051610a819190614aa5565b5f6040518083038185875af1925050503d805f8114610abb576040519150601f19603f3d011682016040523d82523d5f602084013e610ac0565b606091505b50915091508115610ad657809350505050610adf565b80518060208301fd5b92915050565b6008602052805f5260405f205f915090505481565b5f633a27170660e01b7bffffffffffffffffffffffffffffffffffffffffffffffffffffffff1916827bffffffffffffffffffffffffffffffffffffffffffffffffffffffff19161480610b535750610b5282612016565b5b80610b635750610b6282612076565b5b9050919050565b5f8211610bac576040517f08c379a0000000000000000000000000000000000000000000000000000000008152600401610ba390614b15565b60405180910390fd5b5f845f1c90508073ffffffffffffffffffffffffffffffffffffffff1663760d9bba3386866001876040518663ffffffff1660e01b8152600401610bf4959493929190614b33565b5f604051808303815f87803b158015610c0b575f80fd5b505af1158015610c1d573d5f803e3d5ffd5b50505050848473ffffffffffffffffffffffffffffffffffffffff163373ffffffffffffffffffffffffffffffffffffffff167f16f28f036659cc50493268cf426453374d9f751a0940dc150e214371e2bd1bdb8686604051610c81929190614b8b565b60405180910390a45050505050565b5f60095f8373ffffffffffffffffffffffffffffffffffffffff1673ffffffffffffffffffffffffffffffffffffffff1681526020019081526020015f20549050919050565b6060610ce283836120da565b905092915050565b5f600254905090565b60608151835114610d30576040517f2fa71dfe00000000000000000000000000000000000000000000000000000000815260040160405180910390fd5b825167ffffffffffffffff811115610d4b57610d4a61387b565b5b604051908082528060200260200182016040528015610d7e57816020015b6060815260200190600190039081610d695790505b5090505f5b8351811015610df357610dca848281518110610da257610da1614bb9565b5b6020026020010151848381518110610dbd57610dbc614bb9565b5b60200260200101516120da565b828281518110610ddd57610ddc614bb9565b5b6020026020010181905250806001019050610d83565b5092915050565b5f8060035f8481526020019081526020015f205f9054906101000a900473ffffffffffffffffffffffffffffffffffffffff1690505f73ffffffffffffffffffffffffffffffffffffffff168173ffffffffffffffffffffffffffffffffffffffff1603610e9f57826040517fae8f9a36000000000000000000000000000000000000000000000000000000008152600401610e969190614bf5565b60405180910390fd5b80915050919050565b5f610eb383836120ee565b905092915050565b6060610ec682612158565b610edf60055f8481526020019081526020015f206121a5565b9050919050565b610ef033846120ee565b610f335782336040517f1294d2a9000000000000000000000000000000000000000000000000000000008152600401610f2a929190614c0e565b60405180910390fd5b610f4085858585856121c4565b5050505050565b600b602052815f5260405f20602052805f5260405f205f915091509054906101000a900460ff1681565b6060610f7c826124ee565b9050919050565b600a602052815f5260405f208181548110610f9c575f80fd5b905f5260205f20015f915091509054906101000a900473ffffffffffffffffffffffffffffffffffffffff1681565b60608282905067ffffffffffffffff811115610fea57610fe961387b565b5b60405190808252806020026020018201604052801561101d57816020015b60608152602001906001900390816110085790505b5090505f5b8383905081101561113a575f803073ffffffffffffffffffffffffffffffffffffffff1686868581811061105957611058614bb9565b5b905060200281019061106b9190614c41565b604051611079929190614ca3565b5f60405180830381855af49150503d805f81146110b1576040519150601f19603f3d011682016040523d82523d5f602084013e6110b6565b606091505b50915091508161110e575f8151146110d15780518082602001fd5b826040517f234eb819000000000000000000000000000000000000000000000000000000008152600401611105919061374a565b60405180910390fd5b8084848151811061112257611121614bb9565b5b60200260200101819052508260010192505050611022565b5092915050565b5f61118760045f8473ffffffffffffffffffffffffffffffffffffffff1673ffffffffffffffffffffffffffffffffffffffff1681526020019081526020015f2061258f565b9050919050565b6111966125a2565b61119f5f61261b565b565b600b5f8281526020019081526020015f205f3373ffffffffffffffffffffffffffffffffffffffff1673ffffffffffffffffffffffffffffffffffffffff1681526020019081526020015f205f9054906101000a900460ff161561123a576040517f08c379a000000000000000000000000000000000000000000000000000000000815260040161123190614d05565b60405180910390fd5b600a5f8281526020019081526020015f2033908060018154018082558091505060019003905f5260205f20015f9091909190916101000a81548173ffffffffffffffffffffffffffffffffffffffff021916908373ffffffffffffffffffffffffffffffffffffffff1602179055506001600b5f8381526020019081526020015f205f3373ffffffffffffffffffffffffffffffffffffffff1673ffffffffffffffffffffffffffffffffffffffff1681526020019081526020015f205f6101000a81548160ff021916908315150217905550803373ffffffffffffffffffffffffffffffffffffffff167fcc9ad2f72ac43fccc2fbe8b5861dafdd6c56e8902f0c792ffeb4dcaffc4ea41760405160405180910390a350565b5f8551905084518114158061136a575083518114155b80611376575082518114155b80611382575081518114155b156113b9576040517f93a8311900000000000000000000000000000000000000000000000000000000815260040160405180910390fd5b5f5b8181101561145d576114528782815181106113d9576113d8614bb9565b5b60200260200101518783815181106113f4576113f3614bb9565b5b602002602001015187848151811061140f5761140e614bb9565b5b602002602001015187858151811061142a57611429614bb9565b5b602002602001015187868151811061144557611444614bb9565b5b6020026020010151610ee6565b8060010190506113bb565b50505050505050565b61146e6125a2565b5f34146114a7576040517ff36ba73700000000000000000000000000000000000000000000000000000000815260040160405180910390fd5b6114b18282612711565b5050565b5f6114bf83610dfa565b90503373ffffffffffffffffffffffffffffffffffffffff168173ffffffffffffffffffffffffffffffffffffffff1614611535578083336040517f5b271ea200000000000000000000000000000000000000000000000000000000815260040161152c93929190614d23565b60405180910390fd5b5f73ffffffffffffffffffffffffffffffffffffffff168473ffffffffffffffffffffffffffffffffffffffff160361159a576040517f9577b8b300000000000000000000000000000000000000000000000000000000815260040160405180910390fd5b8373ffffffffffffffffffffffffffffffffffffffff168173ffffffffffffffffffffffffffffffffffffffff16036115ff576040517f89fdad6200000000000000000000000000000000000000000000000000000000815260040160405180910390fd5b5f6116238560055f8781526020019081526020015f2061277a90919063ffffffff16565b9050806116695784846040517fa7626b68000000000000000000000000000000000000000000000000000000008152600401611660929190614d58565b60405180910390fd5b838273ffffffffffffffffffffffffffffffffffffffff168673ffffffffffffffffffffffffffffffffffffffff167f1b1b58aa2ec0cec2228b2d37124556d41f5a1f7b12f089171f896cc236671215866040516116c79190613ab9565b60405180910390a45f33856001866040516020016116e89493929190614d7f565b604051602081830303815290604052905061170386826127a7565b505050505050565b5f805f9054906101000a900473ffffffffffffffffffffffffffffffffffffffff16905090565b61173a6125a2565b5f3414611773576040517ff36ba73700000000000000000000000000000000000000000000000000000000815260040160405180910390fd5b80518251146117ae576040517f3bcc897900000000000000000000000000000000000000000000000000000000815260040160405180910390fd5b5f8251036117e8576040517f97da5f9500000000000000000000000000000000000000000000000000000000815260040160405180910390fd5b5f5b825181101561183c5761183183828151811061180957611808614bb9565b5b602002602001015183838151811061182457611823614bb9565b5b6020026020010151612711565b8060010190506117ea565b505050565b606061188860045f8473ffffffffffffffffffffffffffffffffffffffff1673ffffffffffffffffffffffffffffffffffffffff1681526020019081526020015f206127d8565b9050919050565b6118976125a2565b8060078190555050565b5f6118aa6127f7565b156118ea576040517f08c379a00000000000000000000000000000000000000000000000000000000081526004016118e190614e13565b60405180910390fd5b73__$58dfd55f33955099614ce920d5505ba750$__63b3b2981e898989898989896040518863ffffffff1660e01b815260040161192d9796959493929190614ef8565b602060405180830381865af4158015611948573d5f803e3d5ffd5b505050506040513d601f19601f8201168201806040525081019061196c9190614f8e565b90505f8173ffffffffffffffffffffffffffffffffffffffff165f1b90506119a53082600160405180602001604052805f81525061284b565b4260085f8673ffffffffffffffffffffffffffffffffffffffff1673ffffffffffffffffffffffffffffffffffffffff1681526020019081526020015f20819055504260095f8473ffffffffffffffffffffffffffffffffffffffff1673ffffffffffffffffffffffffffffffffffffffff1681526020019081526020015f20819055508173ffffffffffffffffffffffffffffffffffffffff163373ffffffffffffffffffffffffffffffffffffffff167fab8530f87dc9b59234c4623bf917212bb2536d647574c8e7e5da92c2ede0c9f842604051611a86919061374a565b60405180910390a350979650505050505050565b611aa26125a2565b81518351141580611ab557508051825114155b15611aec576040517f2fa71dfe00000000000000000000000000000000000000000000000000000000815260040160405180910390fd5b5f835103611b26576040517f80c9830500000000000000000000000000000000000000000000000000000000815260040160405180910390fd5b5f5b8351811015611b9557611b8a848281518110611b4757611b46614bb9565b5b6020026020010151848381518110611b6257611b61614bb9565b5b6020026020010151848481518110611b7d57611b7c614bb9565b5b6020026020010151612ab9565b806001019050611b28565b50505050565b6060600a5f8381526020019081526020015f20805480602002602001604051908101604052809291908181526020018280548015611c2b57602002820191905f5260205f20905b815f9054906101000a900473ffffffffffffffffffffffffffffffffffffffff1673ffffffffffffffffffffffffffffffffffffffff1681526020019060010190808311611be2575b50505050509050919050565b611c3f6125a2565b611c4a838383612ab9565b505050565b5f611c5984610dfa565b90508073ffffffffffffffffffffffffffffffffffffffff163373ffffffffffffffffffffffffffffffffffffffff1614611d03573373ffffffffffffffffffffffffffffffffffffffff168573ffffffffffffffffffffffffffffffffffffffff1614611d02573381856040517f760b5acd000000000000000000000000000000000000000000000000000000008152600401611cf993929190614fb9565b60405180910390fd5b5b5f73ffffffffffffffffffffffffffffffffffffffff168573ffffffffffffffffffffffffffffffffffffffff1603611d68576040517f9577b8b300000000000000000000000000000000000000000000000000000000815260040160405180910390fd5b8473ffffffffffffffffffffffffffffffffffffffff168173ffffffffffffffffffffffffffffffffffffffff1603611dcd576040517f89fdad6200000000000000000000000000000000000000000000000000000000815260040160405180910390fd5b611dda8582868686612b02565b8215611e15575f81855f85604051602001611df89493929190614d7f565b6040516020818303038152906040529050611e1386826127a7565b505b5050505050565b6060815167ffffffffffffffff811115611e3957611e3861387b565b5b604051908082528060200260200182016040528015611e6c57816020015b6060815260200190600190039081611e575790505b5090505f5b8251811015611ec657611e9d838281518110611e9057611e8f614bb9565b5b60200260200101516124ee565b828281518110611eb057611eaf614bb9565b5b6020026020010181905250806001019050611e71565b50919050565b6009602052805f5260405f205f915090505481565b611ee96125a2565b5f73ffffffffffffffffffffffffffffffffffffffff168173ffffffffffffffffffffffffffffffffffffffff1603611f4e576040517f1ad8836c00000000000000000000000000000000000000000000000000000000815260040160405180910390fd5b611f578161261b565b50565b60075481565b5f805f611f9969cee78b4094da8601109660b01b857bffffffffffffffffffffffffffffffffffffffffffffffffffffffff1916612bdc565b90505f611fa5826124ee565b90506014815114158015611fba57505f815114155b15611ffc57806040517f42bfe79f000000000000000000000000000000000000000000000000000000008152600401611ff39190613ab9565b60405180910390fd5b8061200690615048565b60601c6001935093505050915091565b5f63a918fa6b60e01b7bffffffffffffffffffffffffffffffffffffffffffffffffffffffff1916827bffffffffffffffffffffffffffffffffffffffffffffffffffffffff1916148061206f575061206e82612c1a565b5b9050919050565b5f806120886301ffc9a760e01b611f60565b5090505f73ffffffffffffffffffffffffffffffffffffffff168173ffffffffffffffffffffffffffffffffffffffff16036120c7575f9150506120d5565b6120d18184612c7a565b9150505b919050565b60606120e68383612d13565b905092915050565b5f6120f882610dfa565b73ffffffffffffffffffffffffffffffffffffffff168373ffffffffffffffffffffffffffffffffffffffff161480612150575061214f8360055f8581526020019081526020015f20612d9a90919063ffffffff16565b5b905092915050565b61216181612dc7565b6121a257806040517fae8f9a360000000000000000000000000000000000000000000000000000000081526004016121999190614bf5565b60405180910390fd5b50565b60605f6121b3835f01612e2f565b905060608190508092505050919050565b5f6121ce84610dfa565b90508573ffffffffffffffffffffffffffffffffffffffff168173ffffffffffffffffffffffffffffffffffffffff1614612244578084876040517f5b271ea200000000000000000000000000000000000000000000000000000000815260040161223b93929190614d23565b60405180910390fd5b5f73ffffffffffffffffffffffffffffffffffffffff168573ffffffffffffffffffffffffffffffffffffffff16036122a9576040517f24ecef4d00000000000000000000000000000000000000000000000000000000815260040160405180910390fd5b6122b586868685612e88565b5f6122bf85610dfa565b90508073ffffffffffffffffffffffffffffffffffffffff168273ffffffffffffffffffffffffffffffffffffffff1614612335578482826040517f5a9c31d300000000000000000000000000000000000000000000000000000000815260040161232c939291906150ae565b60405180910390fd5b61233f8786612e8e565b61238e8560045f8a73ffffffffffffffffffffffffffffffffffffffff1673ffffffffffffffffffffffffffffffffffffffff1681526020019081526020015f20612efc90919063ffffffff16565b506123de8560045f8973ffffffffffffffffffffffffffffffffffffffff1673ffffffffffffffffffffffffffffffffffffffff1681526020019081526020015f20612f1190919063ffffffff16565b508560035f8781526020019081526020015f205f6101000a81548173ffffffffffffffffffffffffffffffffffffffff021916908373ffffffffffffffffffffffffffffffffffffffff160217905550848673ffffffffffffffffffffffffffffffffffffffff168873ffffffffffffffffffffffffffffffffffffffff167fb333c813a7426a7a11e2b190cad52c44119421594b47f6f32ace6d8c7207b2bf338888604051612490939291906150e3565b60405180910390a46124a487878786612f26565b5f33888888876040516020016124be95949392919061511f565b60405160208183030381529060405290506124d98882612f2c565b6124e4878683612f5d565b5050505050505050565b606060015f8381526020019081526020015f20805461250c906151a4565b80601f0160208091040260200160405190810160405280929190818152602001828054612538906151a4565b80156125835780601f1061255a57610100808354040283529160200191612583565b820191905f5260205f20905b81548152906001019060200180831161256657829003601f168201915b50505050509050919050565b5f61259b825f016130bc565b9050919050565b3373ffffffffffffffffffffffffffffffffffffffff166125c161170b565b73ffffffffffffffffffffffffffffffffffffffff161461261957336040517fbf1169c50000000000000000000000000000000000000000000000000000000081526004016126109190613d70565b60405180910390fd5b565b61262361170b565b73ffffffffffffffffffffffffffffffffffffffff168173ffffffffffffffffffffffffffffffffffffffff161461270e578073ffffffffffffffffffffffffffffffffffffffff165f8054906101000a900473ffffffffffffffffffffffffffffffffffffffff1673ffffffffffffffffffffffffffffffffffffffff167f8be0079c531659141344cd1fd0a4f28419497f9722a3daafe3b4186f6b6457e060405160405180910390a3805f806101000a81548173ffffffffffffffffffffffffffffffffffffffff021916908373ffffffffffffffffffffffffffffffffffffffff1602179055505b50565b7ff675e9361af1c1664c1868cfa3eb97672d6b1a513aa5b81dec34c9ee330e818d5f1b820361276c576040517f3664800a00000000000000000000000000000000000000000000000000000000815260040160405180910390fd5b61277682826130cb565b5050565b5f61279f835f018373ffffffffffffffffffffffffffffffffffffffff165f1b6130d9565b905092915050565b6127d4827f8a1c15a8799f71b547e08e2bcb2e85257e81b0a07eee2ce6712549eef1f009705f1b83613140565b5050565b60605f6127e6835f01612e2f565b905060608190508092505050919050565b5f6201518060085f3373ffffffffffffffffffffffffffffffffffffffff1673ffffffffffffffffffffffffffffffffffffffff1681526020019081526020015f20546128449190615201565b4210905090565b5f73ffffffffffffffffffffffffffffffffffffffff168473ffffffffffffffffffffffffffffffffffffffff16036128b0576040517f24ecef4d00000000000000000000000000000000000000000000000000000000815260040160405180910390fd5b6128b983612dc7565b156128fb57826040517f34c7b5110000000000000000000000000000000000000000000000000000000081526004016128f29190614bf5565b60405180910390fd5b6129075f858584612e88565b61291083612dc7565b1561295257826040517f34c7b5110000000000000000000000000000000000000000000000000000000081526004016129499190614bf5565b60405180910390fd5b60025f815461296090615234565b919050819055506129b68360045f8773ffffffffffffffffffffffffffffffffffffffff1673ffffffffffffffffffffffffffffffffffffffff1681526020019081526020015f20612f1190919063ffffffff16565b508360035f8581526020019081526020015f205f6101000a81548173ffffffffffffffffffffffffffffffffffffffff021916908373ffffffffffffffffffffffffffffffffffffffff160217905550828473ffffffffffffffffffffffffffffffffffffffff165f73ffffffffffffffffffffffffffffffffffffffff167fb333c813a7426a7a11e2b190cad52c44119421594b47f6f32ace6d8c7207b2bf338686604051612a68939291906150e3565b60405180910390a4612a7c5f858584612f26565b5f335f868685604051602001612a9695949392919061511f565b6040516020818303038152906040529050612ab2858483612f5d565b5050505050565b612ac48383836131fa565b81837fa6e4251f855f750545fe414f120db91c76b88def14d120969e5bb2d3f05debbb83604051612af59190613ab9565b60405180910390a3505050565b5f612b268660055f8781526020019081526020015f2061326990919063ffffffff16565b905080612b6c5785846040517f4aa31a8c000000000000000000000000000000000000000000000000000000008152600401612b63929190614d58565b60405180910390fd5b838573ffffffffffffffffffffffffffffffffffffffff168773ffffffffffffffffffffffffffffffffffffffff167fc78cd419d6136f9f1c1c6aec1d3fae098cffaf8bc86314a8f2685e32fe574e3c8686604051612bcc92919061527b565b60405180910390a4505050505050565b5f80835f60f01b84604051602001612bf69392919061535f565b604051602081830303815290604052905080612c11906153af565b91505092915050565b5f63629aa69460e01b7bffffffffffffffffffffffffffffffffffffffffffffffffffffffff1916827bffffffffffffffffffffffffffffffffffffffffffffffffffffffff19161480612c735750612c7282613296565b5b9050919050565b5f8082604051602401612c8d919061498f565b6040516020818303038152906040526301ffc9a760e01b6020820180517bffffffffffffffffffffffffffffffffffffffffffffffffffffffff838183161783525050505090505f805f60205f8551602087018a617530fa92503d91505f519050828015612cfc575060208210155b8015612d0757505f81115b94505050505092915050565b6060825f1c73ffffffffffffffffffffffffffffffffffffffff166354f6127f836040518263ffffffff1660e01b8152600401612d509190614bf5565b5f60405180830381865afa158015612d6a573d5f803e3d5ffd5b505050506040513d5f823e3d601f19601f82011682018060405250810190612d929190615483565b905092915050565b5f612dbf835f018373ffffffffffffffffffffffffffffffffffffffff165f1b6132ff565b905092915050565b5f8073ffffffffffffffffffffffffffffffffffffffff1660035f8481526020019081526020015f205f9054906101000a900473ffffffffffffffffffffffffffffffffffffffff1673ffffffffffffffffffffffffffffffffffffffff1614159050919050565b6060815f01805480602002602001604051908101604052809291908181526020018280548015612e7c57602002820191905f5260205f20905b815481526020019060010190808311612e68575b50505050509050919050565b50505050565b5f60055f8381526020019081526020015f2090505f612eac8261331f565b90505f805b82811015612ef457612ecc5f8561333290919063ffffffff16565b9150612ee98287875f60405180602001604052805f815250612b02565b806001019050612eb1565b505050505050565b5f612f09835f0183613349565b905092915050565b5f612f1e835f01836130d9565b905092915050565b50505050565b612f59827fb23eae7e6d1564b295b4c3e3be402d9a2f0776c57bdf365903496f6fa481ab005f1b83613140565b5050565b612f6e83636bb56a1460e01b612c7a565b15613019578273ffffffffffffffffffffffffffffffffffffffff16636bb56a147f0b084a55ebf70fd3c06fd755269dac2212c4d3f0f4d09079780bfa50c1b2984d5f1b836040518363ffffffff1660e01b8152600401612fd09291906154ca565b5f604051808303815f875af1158015612feb573d5f803e3d5ffd5b505050506040513d5f823e3d601f19601f820116820180604052508101906130139190615483565b506130b7565b816130b6575f8373ffffffffffffffffffffffffffffffffffffffff163b1461307957826040517f4349776d0000000000000000000000000000000000000000000000000000000081526004016130709190613d70565b60405180910390fd5b826040517f031731370000000000000000000000000000000000000000000000000000000081526004016130ad9190613d70565b60405180910390fd5b5b505050565b5f815f01805490509050919050565b6130d58282613445565b5050565b5f6130e483836132ff565b61313657825f0182908060018154018082558091505060019003905f5260205f20015f9091909190915055825f0180549050836001015f8481526020019081526020015f20819055506001905061313a565b5f90505b92915050565b613170636bb56a1460e01b8473ffffffffffffffffffffffffffffffffffffffff16612c7a90919063ffffffff16565b156131f5578273ffffffffffffffffffffffffffffffffffffffff16636bb56a1483836040518363ffffffff1660e01b81526004016131b09291906154ca565b5f604051808303815f875af11580156131cb573d5f803e3d5ffd5b505050506040513d5f823e3d601f19601f820116820180604052508101906131f39190615483565b505b505050565b825f1c73ffffffffffffffffffffffffffffffffffffffff16637f23690c83836040518363ffffffff1660e01b81526004016132379291906154ca565b5f604051808303815f87803b15801561324e575f80fd5b505af1158015613260573d5f803e3d5ffd5b50505050505050565b5f61328e835f018373ffffffffffffffffffffffffffffffffffffffff165f1b613349565b905092915050565b5f7f01ffc9a7000000000000000000000000000000000000000000000000000000007bffffffffffffffffffffffffffffffffffffffffffffffffffffffff1916827bffffffffffffffffffffffffffffffffffffffffffffffffffffffff1916149050919050565b5f80836001015f8481526020019081526020015f20541415905092915050565b5f61332b825f016130bc565b9050919050565b5f61333f835f01836135b1565b5f1c905092915050565b5f80836001015f8481526020019081526020015f205490505f811461343a575f60018261337691906154f8565b90505f6001865f018054905061338c91906154f8565b90508082146133f2575f865f0182815481106133ab576133aa614bb9565b5b905f5260205f200154905080875f0184815481106133cc576133cb614bb9565b5b905f5260205f20018190555083876001015f8381526020019081526020015f2081905550505b855f018054806134055761340461552b565b5b600190038181905f5260205f20015f90559055856001015f8681526020019081526020015f205f90556001935050505061343f565b5f9150505b92915050565b7fdeba1e292f8ba88238e10ab3c7f88bd4be4fac56cad5194b6ecceaf653468af15f1b82036134a0576040517f85c169bd00000000000000000000000000000000000000000000000000000000815260040160405180910390fd5b7f2f0a68ab07768e01943a599e73362a0e17a63a72e94dd2e384d2c1d4db9327565f1b82036134fb576040517f76755b3800000000000000000000000000000000000000000000000000000000815260040160405180910390fd5b7fe0261fa95db2eb3b5439bd033cda66d56b96f92f243a8228fd87550ed7bdfdb35f1b8203613556576040517f4ef6d7fb00000000000000000000000000000000000000000000000000000000815260040160405180910390fd5b8060015f8481526020019081526020015f20908161357491906156e9565b50817fece574603820d07bc9b91f2a932baadf4628aabcb8afba49776529c14a6104b2826040516135a59190613ab9565b60405180910390a25050565b5f825f0182815481106135c7576135c6614bb9565b5b905f5260205f200154905092915050565b5f82825260208201905092915050565b5f8082015250565b5f6135fc6004836135d8565b9150613607826135e8565b602082019050919050565b5f6020820190508181035f830152613629816135f0565b9050919050565b828183375f83830152505050565b5f601f19601f8301169050919050565b5f61365983856135d8565b9350613666838584613630565b61366f8361363e565b840190509392505050565b5f6020820190508181035f83015261369381848661364e565b90509392505050565b5f604051905090565b5f80fd5b5f80fd5b5f73ffffffffffffffffffffffffffffffffffffffff82169050919050565b5f6136d6826136ad565b9050919050565b6136e6816136cc565b81146136f0575f80fd5b50565b5f81359050613701816136dd565b92915050565b5f6020828403121561371c5761371b6136a5565b5b5f613729848285016136f3565b91505092915050565b5f819050919050565b61374481613732565b82525050565b5f60208201905061375d5f83018461373b565b92915050565b5f7fffffffff0000000000000000000000000000000000000000000000000000000082169050919050565b61379781613763565b81146137a1575f80fd5b50565b5f813590506137b28161378e565b92915050565b5f602082840312156137cd576137cc6136a5565b5b5f6137da848285016137a4565b91505092915050565b5f8115159050919050565b6137f7816137e3565b82525050565b5f6020820190506138105f8301846137ee565b92915050565b5f819050919050565b61382881613816565b8114613832575f80fd5b50565b5f813590506138438161381f565b92915050565b61385281613732565b811461385c575f80fd5b50565b5f8135905061386d81613849565b92915050565b5f80fd5b5f80fd5b7f4e487b71000000000000000000000000000000000000000000000000000000005f52604160045260245ffd5b6138b18261363e565b810181811067ffffffffffffffff821117156138d0576138cf61387b565b5b80604052505050565b5f6138e261369c565b90506138ee82826138a8565b919050565b5f67ffffffffffffffff82111561390d5761390c61387b565b5b6139168261363e565b9050602081019050919050565b5f613935613930846138f3565b6138d9565b90508281526020810184848401111561395157613950613877565b5b61395c848285613630565b509392505050565b5f82601f83011261397857613977613873565b5b8135613988848260208601613923565b91505092915050565b5f805f80608085870312156139a9576139a86136a5565b5b5f6139b687828801613835565b94505060206139c7878288016136f3565b93505060406139d88782880161385f565b925050606085013567ffffffffffffffff8111156139f9576139f86136a9565b5b613a0587828801613964565b91505092959194509250565b5f8060408385031215613a2757613a266136a5565b5b5f613a3485828601613835565b9250506020613a4585828601613835565b9150509250929050565b5f81519050919050565b5f5b83811015613a76578082015181840152602081019050613a5b565b5f8484015250505050565b5f613a8b82613a4f565b613a9581856135d8565b9350613aa5818560208601613a59565b613aae8161363e565b840191505092915050565b5f6020820190508181035f830152613ad18184613a81565b905092915050565b5f67ffffffffffffffff821115613af357613af261387b565b5b602082029050602081019050919050565b5f80fd5b5f613b1a613b1584613ad9565b6138d9565b90508083825260208201905060208402830185811115613b3d57613b3c613b04565b5b835b81811015613b665780613b528882613835565b845260208401935050602081019050613b3f565b5050509392505050565b5f82601f830112613b8457613b83613873565b5b8135613b94848260208601613b08565b91505092915050565b5f8060408385031215613bb357613bb26136a5565b5b5f83013567ffffffffffffffff811115613bd057613bcf6136a9565b5b613bdc85828601613b70565b925050602083013567ffffffffffffffff811115613bfd57613bfc6136a9565b5b613c0985828601613b70565b9150509250929050565b5f81519050919050565b5f82825260208201905092915050565b5f819050602082019050919050565b5f82825260208201905092915050565b5f613c5682613a4f565b613c608185613c3c565b9350613c70818560208601613a59565b613c798161363e565b840191505092915050565b5f613c8f8383613c4c565b905092915050565b5f602082019050919050565b5f613cad82613c13565b613cb78185613c1d565b935083602082028501613cc985613c2d565b805f5b85811015613d045784840389528151613ce58582613c84565b9450613cf083613c97565b925060208a01995050600181019050613ccc565b50829750879550505050505092915050565b5f6020820190508181035f830152613d2e8184613ca3565b905092915050565b5f60208284031215613d4b57613d4a6136a5565b5b5f613d5884828501613835565b91505092915050565b613d6a816136cc565b82525050565b5f602082019050613d835f830184613d61565b92915050565b5f8060408385031215613d9f57613d9e6136a5565b5b5f613dac858286016136f3565b9250506020613dbd85828601613835565b9150509250929050565b5f81519050919050565b5f82825260208201905092915050565b5f819050602082019050919050565b613df9816136cc565b82525050565b5f613e0a8383613df0565b60208301905092915050565b5f602082019050919050565b5f613e2c82613dc7565b613e368185613dd1565b9350613e4183613de1565b805f5b83811015613e71578151613e588882613dff565b9750613e6383613e16565b925050600181019050613e44565b5085935050505092915050565b5f6020820190508181035f830152613e968184613e22565b905092915050565b613ea7816137e3565b8114613eb1575f80fd5b50565b5f81359050613ec281613e9e565b92915050565b5f805f805f60a08688031215613ee157613ee06136a5565b5b5f613eee888289016136f3565b9550506020613eff888289016136f3565b9450506040613f1088828901613835565b9350506060613f2188828901613eb4565b925050608086013567ffffffffffffffff811115613f4257613f416136a9565b5b613f4e88828901613964565b9150509295509295909350565b5f8060408385031215613f7157613f706136a5565b5b5f613f7e85828601613835565b9250506020613f8f858286016136f3565b9150509250929050565b5f8060408385031215613faf57613fae6136a5565b5b5f613fbc85828601613835565b9250506020613fcd8582860161385f565b9150509250929050565b5f80fd5b5f8083601f840112613ff057613fef613873565b5b8235905067ffffffffffffffff81111561400d5761400c613fd7565b5b60208301915083602082028301111561402957614028613b04565b5b9250929050565b5f8060208385031215614046576140456136a5565b5b5f83013567ffffffffffffffff811115614063576140626136a9565b5b61406f85828601613fdb565b92509250509250929050565b5f67ffffffffffffffff8211156140955761409461387b565b5b602082029050602081019050919050565b5f6140b86140b38461407b565b6138d9565b905080838252602082019050602084028301858111156140db576140da613b04565b5b835b8181101561410457806140f088826136f3565b8452602084019350506020810190506140dd565b5050509392505050565b5f82601f83011261412257614121613873565b5b81356141328482602086016140a6565b91505092915050565b5f67ffffffffffffffff8211156141555761415461387b565b5b602082029050602081019050919050565b5f6141786141738461413b565b6138d9565b9050808382526020820190506020840283018581111561419b5761419a613b04565b5b835b818110156141c457806141b08882613eb4565b84526020840193505060208101905061419d565b5050509392505050565b5f82601f8301126141e2576141e1613873565b5b81356141f2848260208601614166565b91505092915050565b5f67ffffffffffffffff8211156142155761421461387b565b5b602082029050602081019050919050565b5f614238614233846141fb565b6138d9565b9050808382526020820190506020840283018581111561425b5761425a613b04565b5b835b818110156142a257803567ffffffffffffffff8111156142805761427f613873565b5b80860161428d8982613964565b8552602085019450505060208101905061425d565b5050509392505050565b5f82601f8301126142c0576142bf613873565b5b81356142d0848260208601614226565b91505092915050565b5f805f805f60a086880312156142f2576142f16136a5565b5b5f86013567ffffffffffffffff81111561430f5761430e6136a9565b5b61431b8882890161410e565b955050602086013567ffffffffffffffff81111561433c5761433b6136a9565b5b6143488882890161410e565b945050604086013567ffffffffffffffff811115614369576143686136a9565b5b61437588828901613b70565b935050606086013567ffffffffffffffff811115614396576143956136a9565b5b6143a2888289016141ce565b925050608086013567ffffffffffffffff8111156143c3576143c26136a9565b5b6143cf888289016142ac565b9150509295509295909350565b5f80604083850312156143f2576143f16136a5565b5b5f6143ff85828601613835565b925050602083013567ffffffffffffffff8111156144205761441f6136a9565b5b61442c85828601613964565b9150509250929050565b5f805f6060848603121561444d5761444c6136a5565b5b5f61445a868287016136f3565b935050602061446b86828701613835565b925050604084013567ffffffffffffffff81111561448c5761448b6136a9565b5b61449886828701613964565b9150509250925092565b5f80604083850312156144b8576144b76136a5565b5b5f83013567ffffffffffffffff8111156144d5576144d46136a9565b5b6144e185828601613b70565b925050602083013567ffffffffffffffff811115614502576145016136a9565b5b61450e858286016142ac565b9150509250929050565b5f81519050919050565b5f82825260208201905092915050565b5f819050602082019050919050565b61454a81613816565b82525050565b5f61455b8383614541565b60208301905092915050565b5f602082019050919050565b5f61457d82614518565b6145878185614522565b935061459283614532565b805f5b838110156145c25781516145a98882614550565b97506145b483614567565b925050600181019050614595565b5085935050505092915050565b5f6020820190508181035f8301526145e78184614573565b905092915050565b5f60208284031215614604576146036136a5565b5b5f6146118482850161385f565b91505092915050565b5f67ffffffffffffffff8211156146345761463361387b565b5b61463d8261363e565b9050602081019050919050565b5f61465c6146578461461a565b6138d9565b90508281526020810184848401111561467857614677613877565b5b614683848285613630565b509392505050565b5f82601f83011261469f5761469e613873565b5b81356146af84826020860161464a565b91505092915050565b5f805f805f805f60e0888a0312156146d3576146d26136a5565b5b5f88013567ffffffffffffffff8111156146f0576146ef6136a9565b5b6146fc8a828b0161468b565b975050602088013567ffffffffffffffff81111561471d5761471c6136a9565b5b6147298a828b0161468b565b965050604061473a8a828b0161385f565b955050606061474b8a828b01613eb4565b945050608061475c8a828b0161385f565b93505060a061476d8a828b016136f3565b92505060c088013567ffffffffffffffff81111561478e5761478d6136a9565b5b61479a8a828b01613964565b91505092959891949750929550565b5f805f606084860312156147c0576147bf6136a5565b5b5f84013567ffffffffffffffff8111156147dd576147dc6136a9565b5b6147e986828701613b70565b935050602084013567ffffffffffffffff81111561480a576148096136a9565b5b61481686828701613b70565b925050604084013567ffffffffffffffff811115614837576148366136a9565b5b614843868287016142ac565b9150509250925092565b5f805f60608486031215614864576148636136a5565b5b5f61487186828701613835565b935050602061488286828701613835565b925050604084013567ffffffffffffffff8111156148a3576148a26136a9565b5b6148af86828701613964565b9150509250925092565b5f805f80608085870312156148d1576148d06136a5565b5b5f6148de878288016136f3565b94505060206148ef87828801613835565b935050604061490087828801613eb4565b925050606085013567ffffffffffffffff811115614921576149206136a9565b5b61492d87828801613964565b91505092959194509250565b5f6020828403121561494e5761494d6136a5565b5b5f82013567ffffffffffffffff81111561496b5761496a6136a9565b5b61497784828501613b70565b91505092915050565b61498981613763565b82525050565b5f6020820190506149a25f830184614980565b92915050565b5f81905092915050565b5f6149bd83856149a8565b93506149ca838584613630565b82840190509392505050565b5f8160601b9050919050565b5f6149ec826149d6565b9050919050565b5f6149fd826149e2565b9050919050565b614a15614a10826136cc565b6149f3565b82525050565b5f819050919050565b614a35614a3082613732565b614a1b565b82525050565b5f614a478286886149b2565b9150614a538285614a04565b601482019150614a638284614a24565b60208201915081905095945050505050565b5f614a7f82613a4f565b614a8981856149a8565b9350614a99818560208601613a59565b80840191505092915050565b5f614ab08284614a75565b915081905092915050565b5f82825260208201905092915050565b7f416d6f756e74206d7573742062652067726561746572207468616e207a65726f5f82015250565b5f614aff602083614abb565b9150614b0a82614acb565b602082019050919050565b5f6020820190508181035f830152614b2c81614af3565b9050919050565b5f60a082019050614b465f830188613d61565b614b536020830187613d61565b614b60604083018661373b565b614b6d60608301856137ee565b8181036080830152614b7f8184613a81565b90509695505050505050565b5f604082019050614b9e5f83018561373b565b8181036020830152614bb08184613a81565b90509392505050565b7f4e487b71000000000000000000000000000000000000000000000000000000005f52603260045260245ffd5b614bef81613816565b82525050565b5f602082019050614c085f830184614be6565b92915050565b5f604082019050614c215f830185614be6565b614c2e6020830184613d61565b9392505050565b5f80fd5b5f80fd5b5f80fd5b5f8083356001602003843603038112614c5d57614c5c614c35565b5b80840192508235915067ffffffffffffffff821115614c7f57614c7e614c39565b5b602083019250600182023603831315614c9b57614c9a614c3d565b5b509250929050565b5f614caf8284866149b2565b91508190509392505050565b7f596f752063616e206f6e6c79206c696b65206120746f6b656e206f6e636500005f82015250565b5f614cef601e83614abb565b9150614cfa82614cbb565b602082019050919050565b5f6020820190508181035f830152614d1c81614ce3565b9050919050565b5f606082019050614d365f830186613d61565b614d436020830185614be6565b614d506040830184613d61565b949350505050565b5f604082019050614d6b5f830185613d61565b614d786020830184614be6565b9392505050565b5f608082019050614d925f830187613d61565b614d9f6020830186614be6565b614dac60408301856137ee565b8181036060830152614dbe8184613a81565b905095945050505050565b7f4d696e74696e67206f6e6c79206f6e63652061206461790000000000000000005f82015250565b5f614dfd601783614abb565b9150614e0882614dc9565b602082019050919050565b5f6020820190508181035f830152614e2a81614df1565b9050919050565b5f81519050919050565b5f82825260208201905092915050565b5f614e5582614e31565b614e5f8185614e3b565b9350614e6f818560208601613a59565b614e788161363e565b840191505092915050565b614e8c81613732565b82525050565b614e9b816137e3565b82525050565b614eaa816136cc565b82525050565b5f82825260208201905092915050565b5f614eca82613a4f565b614ed48185614eb0565b9350614ee4818560208601613a59565b614eed8161363e565b840191505092915050565b5f60e0820190508181035f830152614f10818a614e4b565b90508181036020830152614f248189614e4b565b9050614f336040830188614e83565b614f406060830187614e92565b614f4d6080830186614e83565b614f5a60a0830185614ea1565b81810360c0830152614f6c8184614ec0565b905098975050505050505050565b5f81519050614f88816136dd565b92915050565b5f60208284031215614fa357614fa26136a5565b5b5f614fb084828501614f7a565b91505092915050565b5f606082019050614fcc5f830186613d61565b614fd96020830185613d61565b614fe66040830184614be6565b949350505050565b5f819050602082019050919050565b5f7fffffffffffffffffffffffffffffffffffffffff00000000000000000000000082169050919050565b5f6150338251614ffd565b80915050919050565b5f82821b905092915050565b5f61505282613a4f565b8261505c84614fee565b905061506781615028565b925060148210156150a7576150a27fffffffffffffffffffffffffffffffffffffffff0000000000000000000000008360140360080261503c565b831692505b5050919050565b5f6060820190506150c15f830186614be6565b6150ce6020830185613d61565b6150db6040830184613d61565b949350505050565b5f6060820190506150f65f830186613d61565b61510360208301856137ee565b81810360408301526151158184613a81565b9050949350505050565b5f60a0820190506151325f830188613d61565b61513f6020830187613d61565b61514c6040830186613d61565b6151596060830185614be6565b818103608083015261516b8184613a81565b90509695505050505050565b7f4e487b71000000000000000000000000000000000000000000000000000000005f52602260045260245ffd5b5f60028204905060018216806151bb57607f821691505b6020821081036151ce576151cd615177565b5b50919050565b7f4e487b71000000000000000000000000000000000000000000000000000000005f52601160045260245ffd5b5f61520b82613732565b915061521683613732565b925082820190508082111561522e5761522d6151d4565b5b92915050565b5f61523e82613732565b91507fffffffffffffffffffffffffffffffffffffffffffffffffffffffffffffffff82036152705761526f6151d4565b5b600182019050919050565b5f60408201905061528e5f8301856137ee565b81810360208301526152a08184613a81565b90509392505050565b5f7fffffffffffffffffffff0000000000000000000000000000000000000000000082169050919050565b5f819050919050565b6152ee6152e9826152a9565b6152d4565b82525050565b5f7fffff00000000000000000000000000000000000000000000000000000000000082169050919050565b5f819050919050565b615339615334826152f4565b61531f565b82525050565b5f819050919050565b61535961535482614ffd565b61533f565b82525050565b5f61536a82866152dd565b600a8201915061537a8285615328565b60028201915061538a8284615348565b601482019150819050949350505050565b5f6153a68251613816565b80915050919050565b5f6153b982613a4f565b826153c384614fee565b90506153ce8161539b565b9250602082101561540e576154097fffffffffffffffffffffffffffffffffffffffffffffffffffffffffffffffff8360200360080261503c565b831692505b5050919050565b5f615427615422846138f3565b6138d9565b90508281526020810184848401111561544357615442613877565b5b61544e848285613a59565b509392505050565b5f82601f83011261546a57615469613873565b5b815161547a848260208601615415565b91505092915050565b5f60208284031215615498576154976136a5565b5b5f82015167ffffffffffffffff8111156154b5576154b46136a9565b5b6154c184828501615456565b91505092915050565b5f6040820190506154dd5f830185614be6565b81810360208301526154ef8184613a81565b90509392505050565b5f61550282613732565b915061550d83613732565b9250828203905081811115615525576155246151d4565b5b92915050565b7f4e487b71000000000000000000000000000000000000000000000000000000005f52603160045260245ffd5b5f819050815f5260205f209050919050565b5f6020601f8301049050919050565b5f600883026155a87fffffffffffffffffffffffffffffffffffffffffffffffffffffffffffffffff8261503c565b6155b2868361503c565b95508019841693508086168417925050509392505050565b5f819050919050565b5f6155ed6155e86155e384613732565b6155ca565b613732565b9050919050565b5f819050919050565b615606836155d3565b61561a615612826155f4565b848454615579565b825550505050565b5f90565b61562e615622565b6156398184846155fd565b505050565b5b8181101561565c576156515f82615626565b60018101905061563f565b5050565b601f8211156156a15761567281615558565b61567b8461556a565b8101602085101561568a578190505b61569e6156968561556a565b83018261563e565b50505b505050565b5f82821c905092915050565b5f6156c15f19846008026156a6565b1980831691505092915050565b5f6156d983836156b2565b9150826002028217905092915050565b6156f282613a4f565b67ffffffffffffffff81111561570b5761570a61387b565b5b61571582546151a4565b615720828285615660565b5f60209050601f831160018114615751575f841561573f578287015190505b61574985826156ce565b8655506157b0565b601f19841661575f86615558565b5f5b8281101561578657848901518255600182019150602085019450602081019050615761565b868310156157a3578489015161579f601f8916826156b2565b8355505b6001600288020188555050505b50505050505056fea2646970667358221220d8314a2afba628d2cbb20bec9c182162b1a7014c5004e9b64b203ee33f7dc96b64736f6c63430008140033",
			"opcodes": "PUSH1 0x80 PUSH1 0x40 MSTORE CALLVALUE DUP1 ISZERO PUSH3 0x10 JUMPI PUSH0 DUP1 REVERT JUMPDEST POP PUSH1 0x40 MLOAD PUSH3 0x6574 CODESIZE SUB DUP1 PUSH3 0x6574 DUP4 CODECOPY DUP2 DUP2 ADD PUSH1 0x40 MSTORE DUP2 ADD SWAP1 PUSH3 0x36 SWAP2 SWAP1 PUSH3 0x8D3 JUMP JUMPDEST DUP6 DUP6 DUP6 DUP6 PUSH1 0x2 DUP5 DUP5 DUP5 DUP5 DUP2 PUSH0 PUSH20 0xFFFFFFFFFFFFFFFFFFFFFFFFFFFFFFFFFFFFFFFF AND DUP2 PUSH20 0xFFFFFFFFFFFFFFFFFFFFFFFFFFFFFFFFFFFFFFFF AND SUB PUSH3 0xA7 JUMPI PUSH1 0x40 MLOAD PUSH32 0x1AD8836C00000000000000000000000000000000000000000000000000000000 DUP2 MSTORE PUSH1 0x4 ADD PUSH1 0x40 MLOAD DUP1 SWAP2 SUB SWAP1 REVERT JUMPDEST PUSH3 0xB8 DUP2 PUSH3 0x284 PUSH1 0x20 SHL PUSH1 0x20 SHR JUMP JUMPDEST POP PUSH3 0x122 PUSH32 0xEAFEC4D89FA9619884B60000A4D96624A38F7AC2D8D9A604ECF07C12C77E480C PUSH0 SHL PUSH1 0x40 MLOAD DUP1 PUSH1 0x40 ADD PUSH1 0x40 MSTORE DUP1 PUSH1 0x4 DUP2 MSTORE PUSH1 0x20 ADD PUSH32 0xA4D9662400000000000000000000000000000000000000000000000000000000 DUP2 MSTORE POP PUSH3 0x383 PUSH1 0x20 SHL PUSH1 0x20 SHR JUMP JUMPDEST PUSH3 0x156 PUSH32 0xDEBA1E292F8BA88238E10AB3C7F88BD4BE4FAC56CAD5194B6ECCEAF653468AF1 PUSH0 SHL DUP6 PUSH3 0x383 PUSH1 0x20 SHL PUSH1 0x20 SHR JUMP JUMPDEST PUSH3 0x18A PUSH32 0x2F0A68AB07768E01943A599E73362A0E17A63A72E94DD2E384D2C1D4DB932756 PUSH0 SHL DUP5 PUSH3 0x383 PUSH1 0x20 SHL PUSH1 0x20 SHR JUMP JUMPDEST PUSH3 0x1DF PUSH32 0xE0261FA95DB2EB3B5439BD033CDA66D56B96F92F243A8228FD87550ED7BDFDB3 PUSH0 SHL DUP3 PUSH1 0x40 MLOAD PUSH1 0x20 ADD PUSH3 0x1C4 SWAP2 SWAP1 PUSH3 0x9D9 JUMP JUMPDEST PUSH1 0x40 MLOAD PUSH1 0x20 DUP2 DUP4 SUB SUB DUP2 MSTORE SWAP1 PUSH1 0x40 MSTORE PUSH3 0x383 PUSH1 0x20 SHL PUSH1 0x20 SHR JUMP JUMPDEST POP POP POP POP PUSH3 0x238 PUSH32 0xF675E9361AF1C1664C1868CFA3EB97672D6B1A513AA5B81DEC34C9EE330E818D PUSH0 SHL DUP3 PUSH1 0x40 MLOAD PUSH1 0x20 ADD PUSH3 0x21D SWAP2 SWAP1 PUSH3 0x9D9 JUMP JUMPDEST PUSH1 0x40 MLOAD PUSH1 0x20 DUP2 DUP4 SUB SUB DUP2 MSTORE SWAP1 PUSH1 0x40 MSTORE PUSH3 0x3E2 PUSH1 0x20 SHL PUSH1 0x20 SHR JUMP JUMPDEST POP POP POP POP POP PUSH3 0x271 PUSH32 0x9AFB95CACC9F95858EC44AA8C3B685511002E30AE54415823F406128B85B238E PUSH0 SHL DUP4 PUSH3 0x3F8 PUSH1 0x20 SHL PUSH1 0x20 SHR JUMP JUMPDEST DUP1 PUSH1 0x7 DUP2 SWAP1 SSTORE POP POP POP POP POP POP POP PUSH3 0xD78 JUMP JUMPDEST PUSH3 0x294 PUSH3 0x46A PUSH1 0x20 SHL PUSH1 0x20 SHR JUMP JUMPDEST PUSH20 0xFFFFFFFFFFFFFFFFFFFFFFFFFFFFFFFFFFFFFFFF AND DUP2 PUSH20 0xFFFFFFFFFFFFFFFFFFFFFFFFFFFFFFFFFFFFFFFF AND EQ PUSH3 0x380 JUMPI DUP1 PUSH20 0xFFFFFFFFFFFFFFFFFFFFFFFFFFFFFFFFFFFFFFFF AND PUSH0 DUP1 SLOAD SWAP1 PUSH2 0x100 EXP SWAP1 DIV PUSH20 0xFFFFFFFFFFFFFFFFFFFFFFFFFFFFFFFFFFFFFFFF AND PUSH20 0xFFFFFFFFFFFFFFFFFFFFFFFFFFFFFFFFFFFFFFFF AND PUSH32 0x8BE0079C531659141344CD1FD0A4F28419497F9722A3DAAFE3B4186F6B6457E0 PUSH1 0x40 MLOAD PUSH1 0x40 MLOAD DUP1 SWAP2 SUB SWAP1 LOG3 DUP1 PUSH0 DUP1 PUSH2 0x100 EXP DUP2 SLOAD DUP2 PUSH20 0xFFFFFFFFFFFFFFFFFFFFFFFFFFFFFFFFFFFFFFFF MUL NOT AND SWAP1 DUP4 PUSH20 0xFFFFFFFFFFFFFFFFFFFFFFFFFFFFFFFFFFFFFFFF AND MUL OR SWAP1 SSTORE POP JUMPDEST POP JUMP JUMPDEST DUP1 PUSH1 0x1 PUSH0 DUP5 DUP2 MSTORE PUSH1 0x20 ADD SWAP1 DUP2 MSTORE PUSH1 0x20 ADD PUSH0 KECCAK256 SWAP1 DUP2 PUSH3 0x3A3 SWAP2 SWAP1 PUSH3 0xC22 JUMP JUMPDEST POP DUP2 PUSH32 0xECE574603820D07BC9B91F2A932BAADF4628AABCB8AFBA49776529C14A6104B2 DUP3 PUSH1 0x40 MLOAD PUSH3 0x3D6 SWAP2 SWAP1 PUSH3 0xD56 JUMP JUMPDEST PUSH1 0x40 MLOAD DUP1 SWAP2 SUB SWAP1 LOG2 POP POP JUMP JUMPDEST PUSH3 0x3F4 DUP3 DUP3 PUSH3 0x491 PUSH1 0x20 SHL PUSH1 0x20 SHR JUMP JUMPDEST POP POP JUMP JUMPDEST PUSH32 0xF675E9361AF1C1664C1868CFA3EB97672D6B1A513AA5B81DEC34C9EE330E818D PUSH0 SHL DUP3 SUB PUSH3 0x454 JUMPI PUSH1 0x40 MLOAD PUSH32 0x3664800A00000000000000000000000000000000000000000000000000000000 DUP2 MSTORE PUSH1 0x4 ADD PUSH1 0x40 MLOAD DUP1 SWAP2 SUB SWAP1 REVERT JUMPDEST PUSH3 0x466 DUP3 DUP3 PUSH3 0x3E2 PUSH1 0x20 SHL PUSH1 0x20 SHR JUMP JUMPDEST POP POP JUMP JUMPDEST PUSH0 DUP1 PUSH0 SWAP1 SLOAD SWAP1 PUSH2 0x100 EXP SWAP1 DIV PUSH20 0xFFFFFFFFFFFFFFFFFFFFFFFFFFFFFFFFFFFFFFFF AND SWAP1 POP SWAP1 JUMP JUMPDEST PUSH32 0xDEBA1E292F8BA88238E10AB3C7F88BD4BE4FAC56CAD5194B6ECCEAF653468AF1 PUSH0 SHL DUP3 SUB PUSH3 0x4ED JUMPI PUSH1 0x40 MLOAD PUSH32 0x85C169BD00000000000000000000000000000000000000000000000000000000 DUP2 MSTORE PUSH1 0x4 ADD PUSH1 0x40 MLOAD DUP1 SWAP2 SUB SWAP1 REVERT JUMPDEST PUSH32 0x2F0A68AB07768E01943A599E73362A0E17A63A72E94DD2E384D2C1D4DB932756 PUSH0 SHL DUP3 SUB PUSH3 0x549 JUMPI PUSH1 0x40 MLOAD PUSH32 0x76755B3800000000000000000000000000000000000000000000000000000000 DUP2 MSTORE PUSH1 0x4 ADD PUSH1 0x40 MLOAD DUP1 SWAP2 SUB SWAP1 REVERT JUMPDEST PUSH32 0xE0261FA95DB2EB3B5439BD033CDA66D56B96F92F243A8228FD87550ED7BDFDB3 PUSH0 SHL DUP3 SUB PUSH3 0x5A5 JUMPI PUSH1 0x40 MLOAD PUSH32 0x4EF6D7FB00000000000000000000000000000000000000000000000000000000 DUP2 MSTORE PUSH1 0x4 ADD PUSH1 0x40 MLOAD DUP1 SWAP2 SUB SWAP1 REVERT JUMPDEST DUP1 PUSH1 0x1 PUSH0 DUP5 DUP2 MSTORE PUSH1 0x20 ADD SWAP1 DUP2 MSTORE PUSH1 0x20 ADD PUSH0 KECCAK256 SWAP1 DUP2 PUSH3 0x5C5 SWAP2 SWAP1 PUSH3 0xC22 JUMP JUMPDEST POP DUP2 PUSH32 0xECE574603820D07BC9B91F2A932BAADF4628AABCB8AFBA49776529C14A6104B2 DUP3 PUSH1 0x40 MLOAD PUSH3 0x5F8 SWAP2 SWAP1 PUSH3 0xD56 JUMP JUMPDEST PUSH1 0x40 MLOAD DUP1 SWAP2 SUB SWAP1 LOG2 POP POP JUMP JUMPDEST PUSH0 PUSH1 0x40 MLOAD SWAP1 POP SWAP1 JUMP JUMPDEST PUSH0 DUP1 REVERT JUMPDEST PUSH0 DUP1 REVERT JUMPDEST PUSH0 DUP1 REVERT JUMPDEST PUSH0 DUP1 REVERT JUMPDEST PUSH0 PUSH1 0x1F NOT PUSH1 0x1F DUP4 ADD AND SWAP1 POP SWAP2 SWAP1 POP JUMP JUMPDEST PUSH32 0x4E487B7100000000000000000000000000000000000000000000000000000000 PUSH0 MSTORE PUSH1 0x41 PUSH1 0x4 MSTORE PUSH1 0x24 PUSH0 REVERT JUMPDEST PUSH3 0x665 DUP3 PUSH3 0x61D JUMP JUMPDEST DUP2 ADD DUP2 DUP2 LT PUSH8 0xFFFFFFFFFFFFFFFF DUP3 GT OR ISZERO PUSH3 0x687 JUMPI PUSH3 0x686 PUSH3 0x62D JUMP JUMPDEST JUMPDEST DUP1 PUSH1 0x40 MSTORE POP POP POP JUMP JUMPDEST PUSH0 PUSH3 0x69B PUSH3 0x604 JUMP JUMPDEST SWAP1 POP PUSH3 0x6A9 DUP3 DUP3 PUSH3 0x65A JUMP JUMPDEST SWAP2 SWAP1 POP JUMP JUMPDEST PUSH0 PUSH8 0xFFFFFFFFFFFFFFFF DUP3 GT ISZERO PUSH3 0x6CB JUMPI PUSH3 0x6CA PUSH3 0x62D JUMP JUMPDEST JUMPDEST PUSH3 0x6D6 DUP3 PUSH3 0x61D JUMP JUMPDEST SWAP1 POP PUSH1 0x20 DUP2 ADD SWAP1 POP SWAP2 SWAP1 POP JUMP JUMPDEST PUSH0 JUMPDEST DUP4 DUP2 LT ISZERO PUSH3 0x702 JUMPI DUP1 DUP3 ADD MLOAD DUP2 DUP5 ADD MSTORE PUSH1 0x20 DUP2 ADD SWAP1 POP PUSH3 0x6E5 JUMP JUMPDEST PUSH0 DUP5 DUP5 ADD MSTORE POP POP POP POP JUMP JUMPDEST PUSH0 PUSH3 0x723 PUSH3 0x71D DUP5 PUSH3 0x6AE JUMP JUMPDEST PUSH3 0x690 JUMP JUMPDEST SWAP1 POP DUP3 DUP2 MSTORE PUSH1 0x20 DUP2 ADD DUP5 DUP5 DUP5 ADD GT ISZERO PUSH3 0x742 JUMPI PUSH3 0x741 PUSH3 0x619 JUMP JUMPDEST JUMPDEST PUSH3 0x74F DUP5 DUP3 DUP6 PUSH3 0x6E3 JUMP JUMPDEST POP SWAP4 SWAP3 POP POP POP JUMP JUMPDEST PUSH0 DUP3 PUSH1 0x1F DUP4 ADD SLT PUSH3 0x76E JUMPI PUSH3 0x76D PUSH3 0x615 JUMP JUMPDEST JUMPDEST DUP2 MLOAD PUSH3 0x780 DUP5 DUP3 PUSH1 0x20 DUP7 ADD PUSH3 0x70D JUMP JUMPDEST SWAP2 POP POP SWAP3 SWAP2 POP POP JUMP JUMPDEST PUSH0 PUSH20 0xFFFFFFFFFFFFFFFFFFFFFFFFFFFFFFFFFFFFFFFF DUP3 AND SWAP1 POP SWAP2 SWAP1 POP JUMP JUMPDEST PUSH0 PUSH3 0x7B4 DUP3 PUSH3 0x789 JUMP JUMPDEST SWAP1 POP SWAP2 SWAP1 POP JUMP JUMPDEST PUSH3 0x7C6 DUP2 PUSH3 0x7A8 JUMP JUMPDEST DUP2 EQ PUSH3 0x7D1 JUMPI PUSH0 DUP1 REVERT JUMPDEST POP JUMP JUMPDEST PUSH0 DUP2 MLOAD SWAP1 POP PUSH3 0x7E4 DUP2 PUSH3 0x7BB JUMP JUMPDEST SWAP3 SWAP2 POP POP JUMP JUMPDEST PUSH0 DUP2 SWAP1 POP SWAP2 SWAP1 POP JUMP JUMPDEST PUSH3 0x7FE DUP2 PUSH3 0x7EA JUMP JUMPDEST DUP2 EQ PUSH3 0x809 JUMPI PUSH0 DUP1 REVERT JUMPDEST POP JUMP JUMPDEST PUSH0 DUP2 MLOAD SWAP1 POP PUSH3 0x81C DUP2 PUSH3 0x7F3 JUMP JUMPDEST SWAP3 SWAP2 POP POP JUMP JUMPDEST PUSH0 PUSH8 0xFFFFFFFFFFFFFFFF DUP3 GT ISZERO PUSH3 0x83F JUMPI PUSH3 0x83E PUSH3 0x62D JUMP JUMPDEST JUMPDEST PUSH3 0x84A DUP3 PUSH3 0x61D JUMP JUMPDEST SWAP1 POP PUSH1 0x20 DUP2 ADD SWAP1 POP SWAP2 SWAP1 POP JUMP JUMPDEST PUSH0 PUSH3 0x86D PUSH3 0x867 DUP5 PUSH3 0x822 JUMP JUMPDEST PUSH3 0x690 JUMP JUMPDEST SWAP1 POP DUP3 DUP2 MSTORE PUSH1 0x20 DUP2 ADD DUP5 DUP5 DUP5 ADD GT ISZERO PUSH3 0x88C JUMPI PUSH3 0x88B PUSH3 0x619 JUMP JUMPDEST JUMPDEST PUSH3 0x899 DUP5 DUP3 DUP6 PUSH3 0x6E3 JUMP JUMPDEST POP SWAP4 SWAP3 POP POP POP JUMP JUMPDEST PUSH0 DUP3 PUSH1 0x1F DUP4 ADD SLT PUSH3 0x8B8 JUMPI PUSH3 0x8B7 PUSH3 0x615 JUMP JUMPDEST JUMPDEST DUP2 MLOAD PUSH3 0x8CA DUP5 DUP3 PUSH1 0x20 DUP7 ADD PUSH3 0x857 JUMP JUMPDEST SWAP2 POP POP SWAP3 SWAP2 POP POP JUMP JUMPDEST PUSH0 DUP1 PUSH0 DUP1 PUSH0 DUP1 PUSH1 0xC0 DUP8 DUP10 SUB SLT ISZERO PUSH3 0x8F0 JUMPI PUSH3 0x8EF PUSH3 0x60D JUMP JUMPDEST JUMPDEST PUSH0 DUP8 ADD MLOAD PUSH8 0xFFFFFFFFFFFFFFFF DUP2 GT ISZERO PUSH3 0x910 JUMPI PUSH3 0x90F PUSH3 0x611 JUMP JUMPDEST JUMPDEST PUSH3 0x91E DUP10 DUP3 DUP11 ADD PUSH3 0x757 JUMP JUMPDEST SWAP7 POP POP PUSH1 0x20 DUP8 ADD MLOAD PUSH8 0xFFFFFFFFFFFFFFFF DUP2 GT ISZERO PUSH3 0x942 JUMPI PUSH3 0x941 PUSH3 0x611 JUMP JUMPDEST JUMPDEST PUSH3 0x950 DUP10 DUP3 DUP11 ADD PUSH3 0x757 JUMP JUMPDEST SWAP6 POP POP PUSH1 0x40 PUSH3 0x963 DUP10 DUP3 DUP11 ADD PUSH3 0x7D4 JUMP JUMPDEST SWAP5 POP POP PUSH1 0x60 PUSH3 0x976 DUP10 DUP3 DUP11 ADD PUSH3 0x80C JUMP JUMPDEST SWAP4 POP POP PUSH1 0x80 DUP8 ADD MLOAD PUSH8 0xFFFFFFFFFFFFFFFF DUP2 GT ISZERO PUSH3 0x99A JUMPI PUSH3 0x999 PUSH3 0x611 JUMP JUMPDEST JUMPDEST PUSH3 0x9A8 DUP10 DUP3 DUP11 ADD PUSH3 0x8A1 JUMP JUMPDEST SWAP3 POP POP PUSH1 0xA0 PUSH3 0x9BB DUP10 DUP3 DUP11 ADD PUSH3 0x80C JUMP JUMPDEST SWAP2 POP POP SWAP3 SWAP6 POP SWAP3 SWAP6 POP SWAP3 SWAP6 JUMP JUMPDEST PUSH3 0x9D3 DUP2 PUSH3 0x7EA JUMP JUMPDEST DUP3 MSTORE POP POP JUMP JUMPDEST PUSH0 PUSH1 0x20 DUP3 ADD SWAP1 POP PUSH3 0x9EE PUSH0 DUP4 ADD DUP5 PUSH3 0x9C8 JUMP JUMPDEST SWAP3 SWAP2 POP POP JUMP JUMPDEST PUSH0 DUP2 MLOAD SWAP1 POP SWAP2 SWAP1 POP JUMP JUMPDEST PUSH32 0x4E487B7100000000000000000000000000000000000000000000000000000000 PUSH0 MSTORE PUSH1 0x22 PUSH1 0x4 MSTORE PUSH1 0x24 PUSH0 REVERT JUMPDEST PUSH0 PUSH1 0x2 DUP3 DIV SWAP1 POP PUSH1 0x1 DUP3 AND DUP1 PUSH3 0xA43 JUMPI PUSH1 0x7F DUP3 AND SWAP2 POP JUMPDEST PUSH1 0x20 DUP3 LT DUP2 SUB PUSH3 0xA59 JUMPI PUSH3 0xA58 PUSH3 0x9FE JUMP JUMPDEST JUMPDEST POP SWAP2 SWAP1 POP JUMP JUMPDEST PUSH0 DUP2 SWAP1 POP DUP2 PUSH0 MSTORE PUSH1 0x20 PUSH0 KECCAK256 SWAP1 POP SWAP2 SWAP1 POP JUMP JUMPDEST PUSH0 PUSH1 0x20 PUSH1 0x1F DUP4 ADD DIV SWAP1 POP SWAP2 SWAP1 POP JUMP JUMPDEST PUSH0 DUP3 DUP3 SHL SWAP1 POP SWAP3 SWAP2 POP POP JUMP JUMPDEST PUSH0 PUSH1 0x8 DUP4 MUL PUSH3 0xABD PUSH32 0xFFFFFFFFFFFFFFFFFFFFFFFFFFFFFFFFFFFFFFFFFFFFFFFFFFFFFFFFFFFFFFFF DUP3 PUSH3 0xA80 JUMP JUMPDEST PUSH3 0xAC9 DUP7 DUP4 PUSH3 0xA80 JUMP JUMPDEST SWAP6 POP DUP1 NOT DUP5 AND SWAP4 POP DUP1 DUP7 AND DUP5 OR SWAP3 POP POP POP SWAP4 SWAP3 POP POP POP JUMP JUMPDEST PUSH0 DUP2 SWAP1 POP SWAP2 SWAP1 POP JUMP JUMPDEST PUSH0 PUSH3 0xB0A PUSH3 0xB04 PUSH3 0xAFE DUP5 PUSH3 0x7EA JUMP JUMPDEST PUSH3 0xAE1 JUMP JUMPDEST PUSH3 0x7EA JUMP JUMPDEST SWAP1 POP SWAP2 SWAP1 POP JUMP JUMPDEST PUSH0 DUP2 SWAP1 POP SWAP2 SWAP1 POP JUMP JUMPDEST PUSH3 0xB25 DUP4 PUSH3 0xAEA JUMP JUMPDEST PUSH3 0xB3D PUSH3 0xB34 DUP3 PUSH3 0xB11 JUMP JUMPDEST DUP5 DUP5 SLOAD PUSH3 0xA8C JUMP JUMPDEST DUP3 SSTORE POP POP POP POP JUMP JUMPDEST PUSH0 SWAP1 JUMP JUMPDEST PUSH3 0xB53 PUSH3 0xB45 JUMP JUMPDEST PUSH3 0xB60 DUP2 DUP5 DUP5 PUSH3 0xB1A JUMP JUMPDEST POP POP POP JUMP JUMPDEST JUMPDEST DUP2 DUP2 LT ISZERO PUSH3 0xB87 JUMPI PUSH3 0xB7B PUSH0 DUP3 PUSH3 0xB49 JUMP JUMPDEST PUSH1 0x1 DUP2 ADD SWAP1 POP PUSH3 0xB66 JUMP JUMPDEST POP POP JUMP JUMPDEST PUSH1 0x1F DUP3 GT ISZERO PUSH3 0xBD6 JUMPI PUSH3 0xBA0 DUP2 PUSH3 0xA5F JUMP JUMPDEST PUSH3 0xBAB DUP5 PUSH3 0xA71 JUMP JUMPDEST DUP2 ADD PUSH1 0x20 DUP6 LT ISZERO PUSH3 0xBBB JUMPI DUP2 SWAP1 POP JUMPDEST PUSH3 0xBD3 PUSH3 0xBCA DUP6 PUSH3 0xA71 JUMP JUMPDEST DUP4 ADD DUP3 PUSH3 0xB65 JUMP JUMPDEST POP POP JUMPDEST POP POP POP JUMP JUMPDEST PUSH0 DUP3 DUP3 SHR SWAP1 POP SWAP3 SWAP2 POP POP JUMP JUMPDEST PUSH0 PUSH3 0xBF8 PUSH0 NOT DUP5 PUSH1 0x8 MUL PUSH3 0xBDB JUMP JUMPDEST NOT DUP1 DUP4 AND SWAP2 POP POP SWAP3 SWAP2 POP POP JUMP JUMPDEST PUSH0 PUSH3 0xC12 DUP4 DUP4 PUSH3 0xBE7 JUMP JUMPDEST SWAP2 POP DUP3 PUSH1 0x2 MUL DUP3 OR SWAP1 POP SWAP3 SWAP2 POP POP JUMP JUMPDEST PUSH3 0xC2D DUP3 PUSH3 0x9F4 JUMP JUMPDEST PUSH8 0xFFFFFFFFFFFFFFFF DUP2 GT ISZERO PUSH3 0xC49 JUMPI PUSH3 0xC48 PUSH3 0x62D JUMP JUMPDEST JUMPDEST PUSH3 0xC55 DUP3 SLOAD PUSH3 0xA2B JUMP JUMPDEST PUSH3 0xC62 DUP3 DUP3 DUP6 PUSH3 0xB8B JUMP JUMPDEST PUSH0 PUSH1 0x20 SWAP1 POP PUSH1 0x1F DUP4 GT PUSH1 0x1 DUP2 EQ PUSH3 0xC98 JUMPI PUSH0 DUP5 ISZERO PUSH3 0xC83 JUMPI DUP3 DUP8 ADD MLOAD SWAP1 POP JUMPDEST PUSH3 0xC8F DUP6 DUP3 PUSH3 0xC05 JUMP JUMPDEST DUP7 SSTORE POP PUSH3 0xCFE JUMP JUMPDEST PUSH1 0x1F NOT DUP5 AND PUSH3 0xCA8 DUP7 PUSH3 0xA5F JUMP JUMPDEST PUSH0 JUMPDEST DUP3 DUP2 LT ISZERO PUSH3 0xCD1 JUMPI DUP5 DUP10 ADD MLOAD DUP3 SSTORE PUSH1 0x1 DUP3 ADD SWAP2 POP PUSH1 0x20 DUP6 ADD SWAP5 POP PUSH1 0x20 DUP2 ADD SWAP1 POP PUSH3 0xCAA JUMP JUMPDEST DUP7 DUP4 LT ISZERO PUSH3 0xCF1 JUMPI DUP5 DUP10 ADD MLOAD PUSH3 0xCED PUSH1 0x1F DUP10 AND DUP3 PUSH3 0xBE7 JUMP JUMPDEST DUP4 SSTORE POP JUMPDEST PUSH1 0x1 PUSH1 0x2 DUP9 MUL ADD DUP9 SSTORE POP POP POP JUMPDEST POP POP POP POP POP POP JUMP JUMPDEST PUSH0 DUP3 DUP3 MSTORE PUSH1 0x20 DUP3 ADD SWAP1 POP SWAP3 SWAP2 POP POP JUMP JUMPDEST PUSH0 PUSH3 0xD22 DUP3 PUSH3 0x9F4 JUMP JUMPDEST PUSH3 0xD2E DUP2 DUP6 PUSH3 0xD06 JUMP JUMPDEST SWAP4 POP PUSH3 0xD40 DUP2 DUP6 PUSH1 0x20 DUP7 ADD PUSH3 0x6E3 JUMP JUMPDEST PUSH3 0xD4B DUP2 PUSH3 0x61D JUMP JUMPDEST DUP5 ADD SWAP2 POP POP SWAP3 SWAP2 POP POP JUMP JUMPDEST PUSH0 PUSH1 0x20 DUP3 ADD SWAP1 POP DUP2 DUP2 SUB PUSH0 DUP4 ADD MSTORE PUSH3 0xD70 DUP2 DUP5 PUSH3 0xD16 JUMP JUMPDEST SWAP1 POP SWAP3 SWAP2 POP POP JUMP JUMPDEST PUSH2 0x57EE DUP1 PUSH3 0xD86 PUSH0 CODECOPY PUSH0 RETURN INVALID PUSH1 0x80 PUSH1 0x40 MSTORE PUSH1 0x4 CALLDATASIZE LT PUSH2 0x1FC JUMPI PUSH0 CALLDATALOAD PUSH1 0xE0 SHR DUP1 PUSH4 0x7AAD1F7D GT PUSH2 0x10C JUMPI DUP1 PUSH4 0xB3B2981E GT PUSH2 0x9F JUMPI DUP1 PUSH4 0xDB8C9663 GT PUSH2 0x6E JUMPI DUP1 PUSH4 0xDB8C9663 EQ PUSH2 0x87D JUMPI DUP1 PUSH4 0xDEDFF9C6 EQ PUSH2 0x8A5 JUMPI DUP1 PUSH4 0xF08E076D EQ PUSH2 0x8E1 JUMPI DUP1 PUSH4 0xF2FDE38B EQ PUSH2 0x91D JUMPI DUP1 PUSH4 0xF7B2A7BE EQ PUSH2 0x945 JUMPI PUSH2 0x275 JUMP JUMPDEST DUP1 PUSH4 0xB3B2981E EQ PUSH2 0x7B5 JUMPI DUP1 PUSH4 0xBE9F0E6F EQ PUSH2 0x7F1 JUMPI DUP1 PUSH4 0xD54488FE EQ PUSH2 0x819 JUMPI DUP1 PUSH4 0xD6C1407C EQ PUSH2 0x855 JUMPI PUSH2 0x275 JUMP JUMPDEST DUP1 PUSH4 0x8DA5CB5B GT PUSH2 0xDB JUMPI DUP1 PUSH4 0x8DA5CB5B EQ PUSH2 0x70B JUMPI DUP1 PUSH4 0x97902421 EQ PUSH2 0x735 JUMPI DUP1 PUSH4 0xA3B261F2 EQ PUSH2 0x751 JUMPI DUP1 PUSH4 0xA8A65A78 EQ PUSH2 0x78D JUMPI PUSH2 0x275 JUMP JUMPDEST DUP1 PUSH4 0x7AAD1F7D EQ PUSH2 0x677 JUMPI DUP1 PUSH4 0x7E87632C EQ PUSH2 0x69F JUMPI DUP1 PUSH4 0x7F23690C EQ PUSH2 0x6C7 JUMPI DUP1 PUSH4 0x86A10DDD EQ PUSH2 0x6E3 JUMPI PUSH2 0x275 JUMP JUMPDEST DUP1 PUSH4 0x2A3654A4 GT PUSH2 0x18F JUMPI DUP1 PUSH4 0x54F6127F GT PUSH2 0x15E JUMPI DUP1 PUSH4 0x54F6127F EQ PUSH2 0x571 JUMPI DUP1 PUSH4 0x5ACC786E EQ PUSH2 0x5AD JUMPI DUP1 PUSH4 0x6963D438 EQ PUSH2 0x5E9 JUMPI DUP1 PUSH4 0x70A08231 EQ PUSH2 0x625 JUMPI DUP1 PUSH4 0x715018A6 EQ PUSH2 0x661 JUMPI PUSH2 0x275 JUMP JUMPDEST DUP1 PUSH4 0x2A3654A4 EQ PUSH2 0x495 JUMPI DUP1 PUSH4 0x49A6078D EQ PUSH2 0x4D1 JUMPI DUP1 PUSH4 0x511B6952 EQ PUSH2 0x50D JUMPI DUP1 PUSH4 0x5283C480 EQ PUSH2 0x535 JUMPI PUSH2 0x275 JUMP JUMPDEST DUP1 PUSH4 0x16E023B3 GT PUSH2 0x1CB JUMPI DUP1 PUSH4 0x16E023B3 EQ PUSH2 0x3B7 JUMPI DUP1 PUSH4 0x18160DDD EQ PUSH2 0x3F3 JUMPI DUP1 PUSH4 0x1D26FCE6 EQ PUSH2 0x41D JUMPI DUP1 PUSH4 0x217B2270 EQ PUSH2 0x459 JUMPI PUSH2 0x275 JUMP JUMPDEST DUP1 PUSH4 0x13EBA92 EQ PUSH2 0x2DB JUMPI DUP1 PUSH4 0x1FFC9A7 EQ PUSH2 0x317 JUMPI DUP1 PUSH4 0x73C9695 EQ PUSH2 0x353 JUMPI DUP1 PUSH4 0xC590F51 EQ PUSH2 0x37B JUMPI PUSH2 0x275 JUMP JUMPDEST CALLDATASIZE PUSH2 0x275 JUMPI PUSH0 CALLVALUE SUB PUSH2 0x243 JUMPI PUSH1 0x40 MLOAD PUSH32 0xE5099EE300000000000000000000000000000000000000000000000000000000 DUP2 MSTORE PUSH1 0x4 ADD PUSH2 0x23A SWAP1 PUSH2 0x3612 JUMP JUMPDEST PUSH1 0x40 MLOAD DUP1 SWAP2 SUB SWAP1 REVERT JUMPDEST PUSH1 0x40 MLOAD PUSH32 0x61F4944200000000000000000000000000000000000000000000000000000000 DUP2 MSTORE PUSH1 0x4 ADD PUSH1 0x40 MLOAD DUP1 SWAP2 SUB SWAP1 REVERT JUMPDEST PUSH0 CALLDATASIZE PUSH1 0x60 PUSH1 0x4 PUSH0 CALLDATASIZE SWAP1 POP LT ISZERO PUSH2 0x2C4 JUMPI DUP3 DUP3 PUSH1 0x40 MLOAD PUSH32 0xE5099EE300000000000000000000000000000000000000000000000000000000 DUP2 MSTORE PUSH1 0x4 ADD PUSH2 0x2BB SWAP3 SWAP2 SWAP1 PUSH2 0x367A JUMP JUMPDEST PUSH1 0x40 MLOAD DUP1 SWAP2 SUB SWAP1 REVERT JUMPDEST PUSH2 0x2CE DUP4 DUP4 PUSH2 0x96F JUMP JUMPDEST SWAP1 POP SWAP2 POP POP DUP1 MLOAD SWAP1 PUSH1 0x20 ADD RETURN JUMPDEST CALLVALUE DUP1 ISZERO PUSH2 0x2E6 JUMPI PUSH0 DUP1 REVERT JUMPDEST POP PUSH2 0x301 PUSH1 0x4 DUP1 CALLDATASIZE SUB DUP2 ADD SWAP1 PUSH2 0x2FC SWAP2 SWAP1 PUSH2 0x3707 JUMP JUMPDEST PUSH2 0xAE5 JUMP JUMPDEST PUSH1 0x40 MLOAD PUSH2 0x30E SWAP2 SWAP1 PUSH2 0x374A JUMP JUMPDEST PUSH1 0x40 MLOAD DUP1 SWAP2 SUB SWAP1 RETURN JUMPDEST CALLVALUE DUP1 ISZERO PUSH2 0x322 JUMPI PUSH0 DUP1 REVERT JUMPDEST POP PUSH2 0x33D PUSH1 0x4 DUP1 CALLDATASIZE SUB DUP2 ADD SWAP1 PUSH2 0x338 SWAP2 SWAP1 PUSH2 0x37B8 JUMP JUMPDEST PUSH2 0xAFA JUMP JUMPDEST PUSH1 0x40 MLOAD PUSH2 0x34A SWAP2 SWAP1 PUSH2 0x37FD JUMP JUMPDEST PUSH1 0x40 MLOAD DUP1 SWAP2 SUB SWAP1 RETURN JUMPDEST CALLVALUE DUP1 ISZERO PUSH2 0x35E JUMPI PUSH0 DUP1 REVERT JUMPDEST POP PUSH2 0x379 PUSH1 0x4 DUP1 CALLDATASIZE SUB DUP2 ADD SWAP1 PUSH2 0x374 SWAP2 SWAP1 PUSH2 0x3991 JUMP JUMPDEST PUSH2 0xB6A JUMP JUMPDEST STOP JUMPDEST CALLVALUE DUP1 ISZERO PUSH2 0x386 JUMPI PUSH0 DUP1 REVERT JUMPDEST POP PUSH2 0x3A1 PUSH1 0x4 DUP1 CALLDATASIZE SUB DUP2 ADD SWAP1 PUSH2 0x39C SWAP2 SWAP1 PUSH2 0x3707 JUMP JUMPDEST PUSH2 0xC90 JUMP JUMPDEST PUSH1 0x40 MLOAD PUSH2 0x3AE SWAP2 SWAP1 PUSH2 0x374A JUMP JUMPDEST PUSH1 0x40 MLOAD DUP1 SWAP2 SUB SWAP1 RETURN JUMPDEST CALLVALUE DUP1 ISZERO PUSH2 0x3C2 JUMPI PUSH0 DUP1 REVERT JUMPDEST POP PUSH2 0x3DD PUSH1 0x4 DUP1 CALLDATASIZE SUB DUP2 ADD SWAP1 PUSH2 0x3D8 SWAP2 SWAP1 PUSH2 0x3A11 JUMP JUMPDEST PUSH2 0xCD6 JUMP JUMPDEST PUSH1 0x40 MLOAD PUSH2 0x3EA SWAP2 SWAP1 PUSH2 0x3AB9 JUMP JUMPDEST PUSH1 0x40 MLOAD DUP1 SWAP2 SUB SWAP1 RETURN JUMPDEST CALLVALUE DUP1 ISZERO PUSH2 0x3FE JUMPI PUSH0 DUP1 REVERT JUMPDEST POP PUSH2 0x407 PUSH2 0xCEA JUMP JUMPDEST PUSH1 0x40 MLOAD PUSH2 0x414 SWAP2 SWAP1 PUSH2 0x374A JUMP JUMPDEST PUSH1 0x40 MLOAD DUP1 SWAP2 SUB SWAP1 RETURN JUMPDEST CALLVALUE DUP1 ISZERO PUSH2 0x428 JUMPI PUSH0 DUP1 REVERT JUMPDEST POP PUSH2 0x443 PUSH1 0x4 DUP1 CALLDATASIZE SUB DUP2 ADD SWAP1 PUSH2 0x43E SWAP2 SWAP1 PUSH2 0x3B9D JUMP JUMPDEST PUSH2 0xCF3 JUMP JUMPDEST PUSH1 0x40 MLOAD PUSH2 0x450 SWAP2 SWAP1 PUSH2 0x3D16 JUMP JUMPDEST PUSH1 0x40 MLOAD DUP1 SWAP2 SUB SWAP1 RETURN JUMPDEST CALLVALUE DUP1 ISZERO PUSH2 0x464 JUMPI PUSH0 DUP1 REVERT JUMPDEST POP PUSH2 0x47F PUSH1 0x4 DUP1 CALLDATASIZE SUB DUP2 ADD SWAP1 PUSH2 0x47A SWAP2 SWAP1 PUSH2 0x3D36 JUMP JUMPDEST PUSH2 0xDFA JUMP JUMPDEST PUSH1 0x40 MLOAD PUSH2 0x48C SWAP2 SWAP1 PUSH2 0x3D70 JUMP JUMPDEST PUSH1 0x40 MLOAD DUP1 SWAP2 SUB SWAP1 RETURN JUMPDEST CALLVALUE DUP1 ISZERO PUSH2 0x4A0 JUMPI PUSH0 DUP1 REVERT JUMPDEST POP PUSH2 0x4BB PUSH1 0x4 DUP1 CALLDATASIZE SUB DUP2 ADD SWAP1 PUSH2 0x4B6 SWAP2 SWAP1 PUSH2 0x3D89 JUMP JUMPDEST PUSH2 0xEA8 JUMP JUMPDEST PUSH1 0x40 MLOAD PUSH2 0x4C8 SWAP2 SWAP1 PUSH2 0x37FD JUMP JUMPDEST PUSH1 0x40 MLOAD DUP1 SWAP2 SUB SWAP1 RETURN JUMPDEST CALLVALUE DUP1 ISZERO PUSH2 0x4DC JUMPI PUSH0 DUP1 REVERT JUMPDEST POP PUSH2 0x4F7 PUSH1 0x4 DUP1 CALLDATASIZE SUB DUP2 ADD SWAP1 PUSH2 0x4F2 SWAP2 SWAP1 PUSH2 0x3D36 JUMP JUMPDEST PUSH2 0xEBB JUMP JUMPDEST PUSH1 0x40 MLOAD PUSH2 0x504 SWAP2 SWAP1 PUSH2 0x3E7E JUMP JUMPDEST PUSH1 0x40 MLOAD DUP1 SWAP2 SUB SWAP1 RETURN JUMPDEST CALLVALUE DUP1 ISZERO PUSH2 0x518 JUMPI PUSH0 DUP1 REVERT JUMPDEST POP PUSH2 0x533 PUSH1 0x4 DUP1 CALLDATASIZE SUB DUP2 ADD SWAP1 PUSH2 0x52E SWAP2 SWAP1 PUSH2 0x3EC8 JUMP JUMPDEST PUSH2 0xEE6 JUMP JUMPDEST STOP JUMPDEST CALLVALUE DUP1 ISZERO PUSH2 0x540 JUMPI PUSH0 DUP1 REVERT JUMPDEST POP PUSH2 0x55B PUSH1 0x4 DUP1 CALLDATASIZE SUB DUP2 ADD SWAP1 PUSH2 0x556 SWAP2 SWAP1 PUSH2 0x3F5B JUMP JUMPDEST PUSH2 0xF47 JUMP JUMPDEST PUSH1 0x40 MLOAD PUSH2 0x568 SWAP2 SWAP1 PUSH2 0x37FD JUMP JUMPDEST PUSH1 0x40 MLOAD DUP1 SWAP2 SUB SWAP1 RETURN JUMPDEST CALLVALUE DUP1 ISZERO PUSH2 0x57C JUMPI PUSH0 DUP1 REVERT JUMPDEST POP PUSH2 0x597 PUSH1 0x4 DUP1 CALLDATASIZE SUB DUP2 ADD SWAP1 PUSH2 0x592 SWAP2 SWAP1 PUSH2 0x3D36 JUMP JUMPDEST PUSH2 0xF71 JUMP JUMPDEST PUSH1 0x40 MLOAD PUSH2 0x5A4 SWAP2 SWAP1 PUSH2 0x3AB9 JUMP JUMPDEST PUSH1 0x40 MLOAD DUP1 SWAP2 SUB SWAP1 RETURN JUMPDEST CALLVALUE DUP1 ISZERO PUSH2 0x5B8 JUMPI PUSH0 DUP1 REVERT JUMPDEST POP PUSH2 0x5D3 PUSH1 0x4 DUP1 CALLDATASIZE SUB DUP2 ADD SWAP1 PUSH2 0x5CE SWAP2 SWAP1 PUSH2 0x3F99 JUMP JUMPDEST PUSH2 0xF83 JUMP JUMPDEST PUSH1 0x40 MLOAD PUSH2 0x5E0 SWAP2 SWAP1 PUSH2 0x3D70 JUMP JUMPDEST PUSH1 0x40 MLOAD DUP1 SWAP2 SUB SWAP1 RETURN JUMPDEST CALLVALUE DUP1 ISZERO PUSH2 0x5F4 JUMPI PUSH0 DUP1 REVERT JUMPDEST POP PUSH2 0x60F PUSH1 0x4 DUP1 CALLDATASIZE SUB DUP2 ADD SWAP1 PUSH2 0x60A SWAP2 SWAP1 PUSH2 0x4030 JUMP JUMPDEST PUSH2 0xFCB JUMP JUMPDEST PUSH1 0x40 MLOAD PUSH2 0x61C SWAP2 SWAP1 PUSH2 0x3D16 JUMP JUMPDEST PUSH1 0x40 MLOAD DUP1 SWAP2 SUB SWAP1 RETURN JUMPDEST CALLVALUE DUP1 ISZERO PUSH2 0x630 JUMPI PUSH0 DUP1 REVERT JUMPDEST POP PUSH2 0x64B PUSH1 0x4 DUP1 CALLDATASIZE SUB DUP2 ADD SWAP1 PUSH2 0x646 SWAP2 SWAP1 PUSH2 0x3707 JUMP JUMPDEST PUSH2 0x1141 JUMP JUMPDEST PUSH1 0x40 MLOAD PUSH2 0x658 SWAP2 SWAP1 PUSH2 0x374A JUMP JUMPDEST PUSH1 0x40 MLOAD DUP1 SWAP2 SUB SWAP1 RETURN JUMPDEST CALLVALUE DUP1 ISZERO PUSH2 0x66C JUMPI PUSH0 DUP1 REVERT JUMPDEST POP PUSH2 0x675 PUSH2 0x118E JUMP JUMPDEST STOP JUMPDEST CALLVALUE DUP1 ISZERO PUSH2 0x682 JUMPI PUSH0 DUP1 REVERT JUMPDEST POP PUSH2 0x69D PUSH1 0x4 DUP1 CALLDATASIZE SUB DUP2 ADD SWAP1 PUSH2 0x698 SWAP2 SWAP1 PUSH2 0x3D36 JUMP JUMPDEST PUSH2 0x11A1 JUMP JUMPDEST STOP JUMPDEST CALLVALUE DUP1 ISZERO PUSH2 0x6AA JUMPI PUSH0 DUP1 REVERT JUMPDEST POP PUSH2 0x6C5 PUSH1 0x4 DUP1 CALLDATASIZE SUB DUP2 ADD SWAP1 PUSH2 0x6C0 SWAP2 SWAP1 PUSH2 0x42D9 JUMP JUMPDEST PUSH2 0x1354 JUMP JUMPDEST STOP JUMPDEST PUSH2 0x6E1 PUSH1 0x4 DUP1 CALLDATASIZE SUB DUP2 ADD SWAP1 PUSH2 0x6DC SWAP2 SWAP1 PUSH2 0x43DC JUMP JUMPDEST PUSH2 0x1466 JUMP JUMPDEST STOP JUMPDEST CALLVALUE DUP1 ISZERO PUSH2 0x6EE JUMPI PUSH0 DUP1 REVERT JUMPDEST POP PUSH2 0x709 PUSH1 0x4 DUP1 CALLDATASIZE SUB DUP2 ADD SWAP1 PUSH2 0x704 SWAP2 SWAP1 PUSH2 0x4436 JUMP JUMPDEST PUSH2 0x14B5 JUMP JUMPDEST STOP JUMPDEST CALLVALUE DUP1 ISZERO PUSH2 0x716 JUMPI PUSH0 DUP1 REVERT JUMPDEST POP PUSH2 0x71F PUSH2 0x170B JUMP JUMPDEST PUSH1 0x40 MLOAD PUSH2 0x72C SWAP2 SWAP1 PUSH2 0x3D70 JUMP JUMPDEST PUSH1 0x40 MLOAD DUP1 SWAP2 SUB SWAP1 RETURN JUMPDEST PUSH2 0x74F PUSH1 0x4 DUP1 CALLDATASIZE SUB DUP2 ADD SWAP1 PUSH2 0x74A SWAP2 SWAP1 PUSH2 0x44A2 JUMP JUMPDEST PUSH2 0x1732 JUMP JUMPDEST STOP JUMPDEST CALLVALUE DUP1 ISZERO PUSH2 0x75C JUMPI PUSH0 DUP1 REVERT JUMPDEST POP PUSH2 0x777 PUSH1 0x4 DUP1 CALLDATASIZE SUB DUP2 ADD SWAP1 PUSH2 0x772 SWAP2 SWAP1 PUSH2 0x3707 JUMP JUMPDEST PUSH2 0x1841 JUMP JUMPDEST PUSH1 0x40 MLOAD PUSH2 0x784 SWAP2 SWAP1 PUSH2 0x45CF JUMP JUMPDEST PUSH1 0x40 MLOAD DUP1 SWAP2 SUB SWAP1 RETURN JUMPDEST CALLVALUE DUP1 ISZERO PUSH2 0x798 JUMPI PUSH0 DUP1 REVERT JUMPDEST POP PUSH2 0x7B3 PUSH1 0x4 DUP1 CALLDATASIZE SUB DUP2 ADD SWAP1 PUSH2 0x7AE SWAP2 SWAP1 PUSH2 0x45EF JUMP JUMPDEST PUSH2 0x188F JUMP JUMPDEST STOP JUMPDEST CALLVALUE DUP1 ISZERO PUSH2 0x7C0 JUMPI PUSH0 DUP1 REVERT JUMPDEST POP PUSH2 0x7DB PUSH1 0x4 DUP1 CALLDATASIZE SUB DUP2 ADD SWAP1 PUSH2 0x7D6 SWAP2 SWAP1 PUSH2 0x46B8 JUMP JUMPDEST PUSH2 0x18A1 JUMP JUMPDEST PUSH1 0x40 MLOAD PUSH2 0x7E8 SWAP2 SWAP1 PUSH2 0x3D70 JUMP JUMPDEST PUSH1 0x40 MLOAD DUP1 SWAP2 SUB SWAP1 RETURN JUMPDEST CALLVALUE DUP1 ISZERO PUSH2 0x7FC JUMPI PUSH0 DUP1 REVERT JUMPDEST POP PUSH2 0x817 PUSH1 0x4 DUP1 CALLDATASIZE SUB DUP2 ADD SWAP1 PUSH2 0x812 SWAP2 SWAP1 PUSH2 0x47A9 JUMP JUMPDEST PUSH2 0x1A9A JUMP JUMPDEST STOP JUMPDEST CALLVALUE DUP1 ISZERO PUSH2 0x824 JUMPI PUSH0 DUP1 REVERT JUMPDEST POP PUSH2 0x83F PUSH1 0x4 DUP1 CALLDATASIZE SUB DUP2 ADD SWAP1 PUSH2 0x83A SWAP2 SWAP1 PUSH2 0x3D36 JUMP JUMPDEST PUSH2 0x1B9B JUMP JUMPDEST PUSH1 0x40 MLOAD PUSH2 0x84C SWAP2 SWAP1 PUSH2 0x3E7E JUMP JUMPDEST PUSH1 0x40 MLOAD DUP1 SWAP2 SUB SWAP1 RETURN JUMPDEST CALLVALUE DUP1 ISZERO PUSH2 0x860 JUMPI PUSH0 DUP1 REVERT JUMPDEST POP PUSH2 0x87B PUSH1 0x4 DUP1 CALLDATASIZE SUB DUP2 ADD SWAP1 PUSH2 0x876 SWAP2 SWAP1 PUSH2 0x484D JUMP JUMPDEST PUSH2 0x1C37 JUMP JUMPDEST STOP JUMPDEST CALLVALUE DUP1 ISZERO PUSH2 0x888 JUMPI PUSH0 DUP1 REVERT JUMPDEST POP PUSH2 0x8A3 PUSH1 0x4 DUP1 CALLDATASIZE SUB DUP2 ADD SWAP1 PUSH2 0x89E SWAP2 SWAP1 PUSH2 0x48B9 JUMP JUMPDEST PUSH2 0x1C4F JUMP JUMPDEST STOP JUMPDEST CALLVALUE DUP1 ISZERO PUSH2 0x8B0 JUMPI PUSH0 DUP1 REVERT JUMPDEST POP PUSH2 0x8CB PUSH1 0x4 DUP1 CALLDATASIZE SUB DUP2 ADD SWAP1 PUSH2 0x8C6 SWAP2 SWAP1 PUSH2 0x4939 JUMP JUMPDEST PUSH2 0x1E1C JUMP JUMPDEST PUSH1 0x40 MLOAD PUSH2 0x8D8 SWAP2 SWAP1 PUSH2 0x3D16 JUMP JUMPDEST PUSH1 0x40 MLOAD DUP1 SWAP2 SUB SWAP1 RETURN JUMPDEST CALLVALUE DUP1 ISZERO PUSH2 0x8EC JUMPI PUSH0 DUP1 REVERT JUMPDEST POP PUSH2 0x907 PUSH1 0x4 DUP1 CALLDATASIZE SUB DUP2 ADD SWAP1 PUSH2 0x902 SWAP2 SWAP1 PUSH2 0x3707 JUMP JUMPDEST PUSH2 0x1ECC JUMP JUMPDEST PUSH1 0x40 MLOAD PUSH2 0x914 SWAP2 SWAP1 PUSH2 0x374A JUMP JUMPDEST PUSH1 0x40 MLOAD DUP1 SWAP2 SUB SWAP1 RETURN JUMPDEST CALLVALUE DUP1 ISZERO PUSH2 0x928 JUMPI PUSH0 DUP1 REVERT JUMPDEST POP PUSH2 0x943 PUSH1 0x4 DUP1 CALLDATASIZE SUB DUP2 ADD SWAP1 PUSH2 0x93E SWAP2 SWAP1 PUSH2 0x3707 JUMP JUMPDEST PUSH2 0x1EE1 JUMP JUMPDEST STOP JUMPDEST CALLVALUE DUP1 ISZERO PUSH2 0x950 JUMPI PUSH0 DUP1 REVERT JUMPDEST POP PUSH2 0x959 PUSH2 0x1F5A JUMP JUMPDEST PUSH1 0x40 MLOAD PUSH2 0x966 SWAP2 SWAP1 PUSH2 0x374A JUMP JUMPDEST PUSH1 0x40 MLOAD DUP1 SWAP2 SUB SWAP1 RETURN JUMPDEST PUSH1 0x60 PUSH0 PUSH2 0x99E PUSH0 CALLDATALOAD PUSH32 0xFFFFFFFF00000000000000000000000000000000000000000000000000000000 AND PUSH2 0x1F60 JUMP JUMPDEST POP SWAP1 POP PUSH0 PUSH20 0xFFFFFFFFFFFFFFFFFFFFFFFFFFFFFFFFFFFFFFFF AND DUP2 PUSH20 0xFFFFFFFFFFFFFFFFFFFFFFFFFFFFFFFFFFFFFFFF AND SUB PUSH2 0xA34 JUMPI PUSH0 CALLDATALOAD PUSH32 0xFFFFFFFF00000000000000000000000000000000000000000000000000000000 AND PUSH1 0x40 MLOAD PUSH32 0xBB370B2B00000000000000000000000000000000000000000000000000000000 DUP2 MSTORE PUSH1 0x4 ADD PUSH2 0xA2B SWAP2 SWAP1 PUSH2 0x498F JUMP JUMPDEST PUSH1 0x40 MLOAD DUP1 SWAP2 SUB SWAP1 REVERT JUMPDEST PUSH0 DUP1 DUP3 PUSH20 0xFFFFFFFFFFFFFFFFFFFFFFFFFFFFFFFFFFFFFFFF AND CALLVALUE DUP8 DUP8 CALLER CALLVALUE PUSH1 0x40 MLOAD PUSH1 0x20 ADD PUSH2 0xA65 SWAP5 SWAP4 SWAP3 SWAP2 SWAP1 PUSH2 0x4A3B JUMP JUMPDEST PUSH1 0x40 MLOAD PUSH1 0x20 DUP2 DUP4 SUB SUB DUP2 MSTORE SWAP1 PUSH1 0x40 MSTORE PUSH1 0x40 MLOAD PUSH2 0xA81 SWAP2 SWAP1 PUSH2 0x4AA5 JUMP JUMPDEST PUSH0 PUSH1 0x40 MLOAD DUP1 DUP4 SUB DUP2 DUP6 DUP8 GAS CALL SWAP3 POP POP POP RETURNDATASIZE DUP1 PUSH0 DUP2 EQ PUSH2 0xABB JUMPI PUSH1 0x40 MLOAD SWAP2 POP PUSH1 0x1F NOT PUSH1 0x3F RETURNDATASIZE ADD AND DUP3 ADD PUSH1 0x40 MSTORE RETURNDATASIZE DUP3 MSTORE RETURNDATASIZE PUSH0 PUSH1 0x20 DUP5 ADD RETURNDATACOPY PUSH2 0xAC0 JUMP JUMPDEST PUSH1 0x60 SWAP2 POP JUMPDEST POP SWAP2 POP SWAP2 POP DUP2 ISZERO PUSH2 0xAD6 JUMPI DUP1 SWAP4 POP POP POP POP PUSH2 0xADF JUMP JUMPDEST DUP1 MLOAD DUP1 PUSH1 0x20 DUP4 ADD REVERT JUMPDEST SWAP3 SWAP2 POP POP JUMP JUMPDEST PUSH1 0x8 PUSH1 0x20 MSTORE DUP1 PUSH0 MSTORE PUSH1 0x40 PUSH0 KECCAK256 PUSH0 SWAP2 POP SWAP1 POP SLOAD DUP2 JUMP JUMPDEST PUSH0 PUSH4 0x3A271706 PUSH1 0xE0 SHL PUSH28 0xFFFFFFFFFFFFFFFFFFFFFFFFFFFFFFFFFFFFFFFFFFFFFFFFFFFFFFFF NOT AND DUP3 PUSH28 0xFFFFFFFFFFFFFFFFFFFFFFFFFFFFFFFFFFFFFFFFFFFFFFFFFFFFFFFF NOT AND EQ DUP1 PUSH2 0xB53 JUMPI POP PUSH2 0xB52 DUP3 PUSH2 0x2016 JUMP JUMPDEST JUMPDEST DUP1 PUSH2 0xB63 JUMPI POP PUSH2 0xB62 DUP3 PUSH2 0x2076 JUMP JUMPDEST JUMPDEST SWAP1 POP SWAP2 SWAP1 POP JUMP JUMPDEST PUSH0 DUP3 GT PUSH2 0xBAC JUMPI PUSH1 0x40 MLOAD PUSH32 0x8C379A000000000000000000000000000000000000000000000000000000000 DUP2 MSTORE PUSH1 0x4 ADD PUSH2 0xBA3 SWAP1 PUSH2 0x4B15 JUMP JUMPDEST PUSH1 0x40 MLOAD DUP1 SWAP2 SUB SWAP1 REVERT JUMPDEST PUSH0 DUP5 PUSH0 SHR SWAP1 POP DUP1 PUSH20 0xFFFFFFFFFFFFFFFFFFFFFFFFFFFFFFFFFFFFFFFF AND PUSH4 0x760D9BBA CALLER DUP7 DUP7 PUSH1 0x1 DUP8 PUSH1 0x40 MLOAD DUP7 PUSH4 0xFFFFFFFF AND PUSH1 0xE0 SHL DUP2 MSTORE PUSH1 0x4 ADD PUSH2 0xBF4 SWAP6 SWAP5 SWAP4 SWAP3 SWAP2 SWAP1 PUSH2 0x4B33 JUMP JUMPDEST PUSH0 PUSH1 0x40 MLOAD DUP1 DUP4 SUB DUP2 PUSH0 DUP8 DUP1 EXTCODESIZE ISZERO DUP1 ISZERO PUSH2 0xC0B JUMPI PUSH0 DUP1 REVERT JUMPDEST POP GAS CALL ISZERO DUP1 ISZERO PUSH2 0xC1D JUMPI RETURNDATASIZE PUSH0 DUP1 RETURNDATACOPY RETURNDATASIZE PUSH0 REVERT JUMPDEST POP POP POP POP DUP5 DUP5 PUSH20 0xFFFFFFFFFFFFFFFFFFFFFFFFFFFFFFFFFFFFFFFF AND CALLER PUSH20 0xFFFFFFFFFFFFFFFFFFFFFFFFFFFFFFFFFFFFFFFF AND PUSH32 0x16F28F036659CC50493268CF426453374D9F751A0940DC150E214371E2BD1BDB DUP7 DUP7 PUSH1 0x40 MLOAD PUSH2 0xC81 SWAP3 SWAP2 SWAP1 PUSH2 0x4B8B JUMP JUMPDEST PUSH1 0x40 MLOAD DUP1 SWAP2 SUB SWAP1 LOG4 POP POP POP POP POP JUMP JUMPDEST PUSH0 PUSH1 0x9 PUSH0 DUP4 PUSH20 0xFFFFFFFFFFFFFFFFFFFFFFFFFFFFFFFFFFFFFFFF AND PUSH20 0xFFFFFFFFFFFFFFFFFFFFFFFFFFFFFFFFFFFFFFFF AND DUP2 MSTORE PUSH1 0x20 ADD SWAP1 DUP2 MSTORE PUSH1 0x20 ADD PUSH0 KECCAK256 SLOAD SWAP1 POP SWAP2 SWAP1 POP JUMP JUMPDEST PUSH1 0x60 PUSH2 0xCE2 DUP4 DUP4 PUSH2 0x20DA JUMP JUMPDEST SWAP1 POP SWAP3 SWAP2 POP POP JUMP JUMPDEST PUSH0 PUSH1 0x2 SLOAD SWAP1 POP SWAP1 JUMP JUMPDEST PUSH1 0x60 DUP2 MLOAD DUP4 MLOAD EQ PUSH2 0xD30 JUMPI PUSH1 0x40 MLOAD PUSH32 0x2FA71DFE00000000000000000000000000000000000000000000000000000000 DUP2 MSTORE PUSH1 0x4 ADD PUSH1 0x40 MLOAD DUP1 SWAP2 SUB SWAP1 REVERT JUMPDEST DUP3 MLOAD PUSH8 0xFFFFFFFFFFFFFFFF DUP2 GT ISZERO PUSH2 0xD4B JUMPI PUSH2 0xD4A PUSH2 0x387B JUMP JUMPDEST JUMPDEST PUSH1 0x40 MLOAD SWAP1 DUP1 DUP3 MSTORE DUP1 PUSH1 0x20 MUL PUSH1 0x20 ADD DUP3 ADD PUSH1 0x40 MSTORE DUP1 ISZERO PUSH2 0xD7E JUMPI DUP2 PUSH1 0x20 ADD JUMPDEST PUSH1 0x60 DUP2 MSTORE PUSH1 0x20 ADD SWAP1 PUSH1 0x1 SWAP1 SUB SWAP1 DUP2 PUSH2 0xD69 JUMPI SWAP1 POP JUMPDEST POP SWAP1 POP PUSH0 JUMPDEST DUP4 MLOAD DUP2 LT ISZERO PUSH2 0xDF3 JUMPI PUSH2 0xDCA DUP5 DUP3 DUP2 MLOAD DUP2 LT PUSH2 0xDA2 JUMPI PUSH2 0xDA1 PUSH2 0x4BB9 JUMP JUMPDEST JUMPDEST PUSH1 0x20 MUL PUSH1 0x20 ADD ADD MLOAD DUP5 DUP4 DUP2 MLOAD DUP2 LT PUSH2 0xDBD JUMPI PUSH2 0xDBC PUSH2 0x4BB9 JUMP JUMPDEST JUMPDEST PUSH1 0x20 MUL PUSH1 0x20 ADD ADD MLOAD PUSH2 0x20DA JUMP JUMPDEST DUP3 DUP3 DUP2 MLOAD DUP2 LT PUSH2 0xDDD JUMPI PUSH2 0xDDC PUSH2 0x4BB9 JUMP JUMPDEST JUMPDEST PUSH1 0x20 MUL PUSH1 0x20 ADD ADD DUP2 SWAP1 MSTORE POP DUP1 PUSH1 0x1 ADD SWAP1 POP PUSH2 0xD83 JUMP JUMPDEST POP SWAP3 SWAP2 POP POP JUMP JUMPDEST PUSH0 DUP1 PUSH1 0x3 PUSH0 DUP5 DUP2 MSTORE PUSH1 0x20 ADD SWAP1 DUP2 MSTORE PUSH1 0x20 ADD PUSH0 KECCAK256 PUSH0 SWAP1 SLOAD SWAP1 PUSH2 0x100 EXP SWAP1 DIV PUSH20 0xFFFFFFFFFFFFFFFFFFFFFFFFFFFFFFFFFFFFFFFF AND SWAP1 POP PUSH0 PUSH20 0xFFFFFFFFFFFFFFFFFFFFFFFFFFFFFFFFFFFFFFFF AND DUP2 PUSH20 0xFFFFFFFFFFFFFFFFFFFFFFFFFFFFFFFFFFFFFFFF AND SUB PUSH2 0xE9F JUMPI DUP3 PUSH1 0x40 MLOAD PUSH32 0xAE8F9A3600000000000000000000000000000000000000000000000000000000 DUP2 MSTORE PUSH1 0x4 ADD PUSH2 0xE96 SWAP2 SWAP1 PUSH2 0x4BF5 JUMP JUMPDEST PUSH1 0x40 MLOAD DUP1 SWAP2 SUB SWAP1 REVERT JUMPDEST DUP1 SWAP2 POP POP SWAP2 SWAP1 POP JUMP JUMPDEST PUSH0 PUSH2 0xEB3 DUP4 DUP4 PUSH2 0x20EE JUMP JUMPDEST SWAP1 POP SWAP3 SWAP2 POP POP JUMP JUMPDEST PUSH1 0x60 PUSH2 0xEC6 DUP3 PUSH2 0x2158 JUMP JUMPDEST PUSH2 0xEDF PUSH1 0x5 PUSH0 DUP5 DUP2 MSTORE PUSH1 0x20 ADD SWAP1 DUP2 MSTORE PUSH1 0x20 ADD PUSH0 KECCAK256 PUSH2 0x21A5 JUMP JUMPDEST SWAP1 POP SWAP2 SWAP1 POP JUMP JUMPDEST PUSH2 0xEF0 CALLER DUP5 PUSH2 0x20EE JUMP JUMPDEST PUSH2 0xF33 JUMPI DUP3 CALLER PUSH1 0x40 MLOAD PUSH32 0x1294D2A900000000000000000000000000000000000000000000000000000000 DUP2 MSTORE PUSH1 0x4 ADD PUSH2 0xF2A SWAP3 SWAP2 SWAP1 PUSH2 0x4C0E JUMP JUMPDEST PUSH1 0x40 MLOAD DUP1 SWAP2 SUB SWAP1 REVERT JUMPDEST PUSH2 0xF40 DUP6 DUP6 DUP6 DUP6 DUP6 PUSH2 0x21C4 JUMP JUMPDEST POP POP POP POP POP JUMP JUMPDEST PUSH1 0xB PUSH1 0x20 MSTORE DUP2 PUSH0 MSTORE PUSH1 0x40 PUSH0 KECCAK256 PUSH1 0x20 MSTORE DUP1 PUSH0 MSTORE PUSH1 0x40 PUSH0 KECCAK256 PUSH0 SWAP2 POP SWAP2 POP SWAP1 SLOAD SWAP1 PUSH2 0x100 EXP SWAP1 DIV PUSH1 0xFF AND DUP2 JUMP JUMPDEST PUSH1 0x60 PUSH2 0xF7C DUP3 PUSH2 0x24EE JUMP JUMPDEST SWAP1 POP SWAP2 SWAP1 POP JUMP JUMPDEST PUSH1 0xA PUSH1 0x20 MSTORE DUP2 PUSH0 MSTORE PUSH1 0x40 PUSH0 KECCAK256 DUP2 DUP2 SLOAD DUP2 LT PUSH2 0xF9C JUMPI PUSH0 DUP1 REVERT JUMPDEST SWAP1 PUSH0 MSTORE PUSH1 0x20 PUSH0 KECCAK256 ADD PUSH0 SWAP2 POP SWAP2 POP SWAP1 SLOAD SWAP1 PUSH2 0x100 EXP SWAP1 DIV PUSH20 0xFFFFFFFFFFFFFFFFFFFFFFFFFFFFFFFFFFFFFFFF AND DUP2 JUMP JUMPDEST PUSH1 0x60 DUP3 DUP3 SWAP1 POP PUSH8 0xFFFFFFFFFFFFFFFF DUP2 GT ISZERO PUSH2 0xFEA JUMPI PUSH2 0xFE9 PUSH2 0x387B JUMP JUMPDEST JUMPDEST PUSH1 0x40 MLOAD SWAP1 DUP1 DUP3 MSTORE DUP1 PUSH1 0x20 MUL PUSH1 0x20 ADD DUP3 ADD PUSH1 0x40 MSTORE DUP1 ISZERO PUSH2 0x101D JUMPI DUP2 PUSH1 0x20 ADD JUMPDEST PUSH1 0x60 DUP2 MSTORE PUSH1 0x20 ADD SWAP1 PUSH1 0x1 SWAP1 SUB SWAP1 DUP2 PUSH2 0x1008 JUMPI SWAP1 POP JUMPDEST POP SWAP1 POP PUSH0 JUMPDEST DUP4 DUP4 SWAP1 POP DUP2 LT ISZERO PUSH2 0x113A JUMPI PUSH0 DUP1 ADDRESS PUSH20 0xFFFFFFFFFFFFFFFFFFFFFFFFFFFFFFFFFFFFFFFF AND DUP7 DUP7 DUP6 DUP2 DUP2 LT PUSH2 0x1059 JUMPI PUSH2 0x1058 PUSH2 0x4BB9 JUMP JUMPDEST JUMPDEST SWAP1 POP PUSH1 0x20 MUL DUP2 ADD SWAP1 PUSH2 0x106B SWAP2 SWAP1 PUSH2 0x4C41 JUMP JUMPDEST PUSH1 0x40 MLOAD PUSH2 0x1079 SWAP3 SWAP2 SWAP1 PUSH2 0x4CA3 JUMP JUMPDEST PUSH0 PUSH1 0x40 MLOAD DUP1 DUP4 SUB DUP2 DUP6 GAS DELEGATECALL SWAP2 POP POP RETURNDATASIZE DUP1 PUSH0 DUP2 EQ PUSH2 0x10B1 JUMPI PUSH1 0x40 MLOAD SWAP2 POP PUSH1 0x1F NOT PUSH1 0x3F RETURNDATASIZE ADD AND DUP3 ADD PUSH1 0x40 MSTORE RETURNDATASIZE DUP3 MSTORE RETURNDATASIZE PUSH0 PUSH1 0x20 DUP5 ADD RETURNDATACOPY PUSH2 0x10B6 JUMP JUMPDEST PUSH1 0x60 SWAP2 POP JUMPDEST POP SWAP2 POP SWAP2 POP DUP2 PUSH2 0x110E JUMPI PUSH0 DUP2 MLOAD EQ PUSH2 0x10D1 JUMPI DUP1 MLOAD DUP1 DUP3 PUSH1 0x20 ADD REVERT JUMPDEST DUP3 PUSH1 0x40 MLOAD PUSH32 0x234EB81900000000000000000000000000000000000000000000000000000000 DUP2 MSTORE PUSH1 0x4 ADD PUSH2 0x1105 SWAP2 SWAP1 PUSH2 0x374A JUMP JUMPDEST PUSH1 0x40 MLOAD DUP1 SWAP2 SUB SWAP1 REVERT JUMPDEST DUP1 DUP5 DUP5 DUP2 MLOAD DUP2 LT PUSH2 0x1122 JUMPI PUSH2 0x1121 PUSH2 0x4BB9 JUMP JUMPDEST JUMPDEST PUSH1 0x20 MUL PUSH1 0x20 ADD ADD DUP2 SWAP1 MSTORE POP DUP3 PUSH1 0x1 ADD SWAP3 POP POP POP PUSH2 0x1022 JUMP JUMPDEST POP SWAP3 SWAP2 POP POP JUMP JUMPDEST PUSH0 PUSH2 0x1187 PUSH1 0x4 PUSH0 DUP5 PUSH20 0xFFFFFFFFFFFFFFFFFFFFFFFFFFFFFFFFFFFFFFFF AND PUSH20 0xFFFFFFFFFFFFFFFFFFFFFFFFFFFFFFFFFFFFFFFF AND DUP2 MSTORE PUSH1 0x20 ADD SWAP1 DUP2 MSTORE PUSH1 0x20 ADD PUSH0 KECCAK256 PUSH2 0x258F JUMP JUMPDEST SWAP1 POP SWAP2 SWAP1 POP JUMP JUMPDEST PUSH2 0x1196 PUSH2 0x25A2 JUMP JUMPDEST PUSH2 0x119F PUSH0 PUSH2 0x261B JUMP JUMPDEST JUMP JUMPDEST PUSH1 0xB PUSH0 DUP3 DUP2 MSTORE PUSH1 0x20 ADD SWAP1 DUP2 MSTORE PUSH1 0x20 ADD PUSH0 KECCAK256 PUSH0 CALLER PUSH20 0xFFFFFFFFFFFFFFFFFFFFFFFFFFFFFFFFFFFFFFFF AND PUSH20 0xFFFFFFFFFFFFFFFFFFFFFFFFFFFFFFFFFFFFFFFF AND DUP2 MSTORE PUSH1 0x20 ADD SWAP1 DUP2 MSTORE PUSH1 0x20 ADD PUSH0 KECCAK256 PUSH0 SWAP1 SLOAD SWAP1 PUSH2 0x100 EXP SWAP1 DIV PUSH1 0xFF AND ISZERO PUSH2 0x123A JUMPI PUSH1 0x40 MLOAD PUSH32 0x8C379A000000000000000000000000000000000000000000000000000000000 DUP2 MSTORE PUSH1 0x4 ADD PUSH2 0x1231 SWAP1 PUSH2 0x4D05 JUMP JUMPDEST PUSH1 0x40 MLOAD DUP1 SWAP2 SUB SWAP1 REVERT JUMPDEST PUSH1 0xA PUSH0 DUP3 DUP2 MSTORE PUSH1 0x20 ADD SWAP1 DUP2 MSTORE PUSH1 0x20 ADD PUSH0 KECCAK256 CALLER SWAP1 DUP1 PUSH1 0x1 DUP2 SLOAD ADD DUP1 DUP3 SSTORE DUP1 SWAP2 POP POP PUSH1 0x1 SWAP1 SUB SWAP1 PUSH0 MSTORE PUSH1 0x20 PUSH0 KECCAK256 ADD PUSH0 SWAP1 SWAP2 SWAP1 SWAP2 SWAP1 SWAP2 PUSH2 0x100 EXP DUP2 SLOAD DUP2 PUSH20 0xFFFFFFFFFFFFFFFFFFFFFFFFFFFFFFFFFFFFFFFF MUL NOT AND SWAP1 DUP4 PUSH20 0xFFFFFFFFFFFFFFFFFFFFFFFFFFFFFFFFFFFFFFFF AND MUL OR SWAP1 SSTORE POP PUSH1 0x1 PUSH1 0xB PUSH0 DUP4 DUP2 MSTORE PUSH1 0x20 ADD SWAP1 DUP2 MSTORE PUSH1 0x20 ADD PUSH0 KECCAK256 PUSH0 CALLER PUSH20 0xFFFFFFFFFFFFFFFFFFFFFFFFFFFFFFFFFFFFFFFF AND PUSH20 0xFFFFFFFFFFFFFFFFFFFFFFFFFFFFFFFFFFFFFFFF AND DUP2 MSTORE PUSH1 0x20 ADD SWAP1 DUP2 MSTORE PUSH1 0x20 ADD PUSH0 KECCAK256 PUSH0 PUSH2 0x100 EXP DUP2 SLOAD DUP2 PUSH1 0xFF MUL NOT AND SWAP1 DUP4 ISZERO ISZERO MUL OR SWAP1 SSTORE POP DUP1 CALLER PUSH20 0xFFFFFFFFFFFFFFFFFFFFFFFFFFFFFFFFFFFFFFFF AND PUSH32 0xCC9AD2F72AC43FCCC2FBE8B5861DAFDD6C56E8902F0C792FFEB4DCAFFC4EA417 PUSH1 0x40 MLOAD PUSH1 0x40 MLOAD DUP1 SWAP2 SUB SWAP1 LOG3 POP JUMP JUMPDEST PUSH0 DUP6 MLOAD SWAP1 POP DUP5 MLOAD DUP2 EQ ISZERO DUP1 PUSH2 0x136A JUMPI POP DUP4 MLOAD DUP2 EQ ISZERO JUMPDEST DUP1 PUSH2 0x1376 JUMPI POP DUP3 MLOAD DUP2 EQ ISZERO JUMPDEST DUP1 PUSH2 0x1382 JUMPI POP DUP2 MLOAD DUP2 EQ ISZERO JUMPDEST ISZERO PUSH2 0x13B9 JUMPI PUSH1 0x40 MLOAD PUSH32 0x93A8311900000000000000000000000000000000000000000000000000000000 DUP2 MSTORE PUSH1 0x4 ADD PUSH1 0x40 MLOAD DUP1 SWAP2 SUB SWAP1 REVERT JUMPDEST PUSH0 JUMPDEST DUP2 DUP2 LT ISZERO PUSH2 0x145D JUMPI PUSH2 0x1452 DUP8 DUP3 DUP2 MLOAD DUP2 LT PUSH2 0x13D9 JUMPI PUSH2 0x13D8 PUSH2 0x4BB9 JUMP JUMPDEST JUMPDEST PUSH1 0x20 MUL PUSH1 0x20 ADD ADD MLOAD DUP8 DUP4 DUP2 MLOAD DUP2 LT PUSH2 0x13F4 JUMPI PUSH2 0x13F3 PUSH2 0x4BB9 JUMP JUMPDEST JUMPDEST PUSH1 0x20 MUL PUSH1 0x20 ADD ADD MLOAD DUP8 DUP5 DUP2 MLOAD DUP2 LT PUSH2 0x140F JUMPI PUSH2 0x140E PUSH2 0x4BB9 JUMP JUMPDEST JUMPDEST PUSH1 0x20 MUL PUSH1 0x20 ADD ADD MLOAD DUP8 DUP6 DUP2 MLOAD DUP2 LT PUSH2 0x142A JUMPI PUSH2 0x1429 PUSH2 0x4BB9 JUMP JUMPDEST JUMPDEST PUSH1 0x20 MUL PUSH1 0x20 ADD ADD MLOAD DUP8 DUP7 DUP2 MLOAD DUP2 LT PUSH2 0x1445 JUMPI PUSH2 0x1444 PUSH2 0x4BB9 JUMP JUMPDEST JUMPDEST PUSH1 0x20 MUL PUSH1 0x20 ADD ADD MLOAD PUSH2 0xEE6 JUMP JUMPDEST DUP1 PUSH1 0x1 ADD SWAP1 POP PUSH2 0x13BB JUMP JUMPDEST POP POP POP POP POP POP POP JUMP JUMPDEST PUSH2 0x146E PUSH2 0x25A2 JUMP JUMPDEST PUSH0 CALLVALUE EQ PUSH2 0x14A7 JUMPI PUSH1 0x40 MLOAD PUSH32 0xF36BA73700000000000000000000000000000000000000000000000000000000 DUP2 MSTORE PUSH1 0x4 ADD PUSH1 0x40 MLOAD DUP1 SWAP2 SUB SWAP1 REVERT JUMPDEST PUSH2 0x14B1 DUP3 DUP3 PUSH2 0x2711 JUMP JUMPDEST POP POP JUMP JUMPDEST PUSH0 PUSH2 0x14BF DUP4 PUSH2 0xDFA JUMP JUMPDEST SWAP1 POP CALLER PUSH20 0xFFFFFFFFFFFFFFFFFFFFFFFFFFFFFFFFFFFFFFFF AND DUP2 PUSH20 0xFFFFFFFFFFFFFFFFFFFFFFFFFFFFFFFFFFFFFFFF AND EQ PUSH2 0x1535 JUMPI DUP1 DUP4 CALLER PUSH1 0x40 MLOAD PUSH32 0x5B271EA200000000000000000000000000000000000000000000000000000000 DUP2 MSTORE PUSH1 0x4 ADD PUSH2 0x152C SWAP4 SWAP3 SWAP2 SWAP1 PUSH2 0x4D23 JUMP JUMPDEST PUSH1 0x40 MLOAD DUP1 SWAP2 SUB SWAP1 REVERT JUMPDEST PUSH0 PUSH20 0xFFFFFFFFFFFFFFFFFFFFFFFFFFFFFFFFFFFFFFFF AND DUP5 PUSH20 0xFFFFFFFFFFFFFFFFFFFFFFFFFFFFFFFFFFFFFFFF AND SUB PUSH2 0x159A JUMPI PUSH1 0x40 MLOAD PUSH32 0x9577B8B300000000000000000000000000000000000000000000000000000000 DUP2 MSTORE PUSH1 0x4 ADD PUSH1 0x40 MLOAD DUP1 SWAP2 SUB SWAP1 REVERT JUMPDEST DUP4 PUSH20 0xFFFFFFFFFFFFFFFFFFFFFFFFFFFFFFFFFFFFFFFF AND DUP2 PUSH20 0xFFFFFFFFFFFFFFFFFFFFFFFFFFFFFFFFFFFFFFFF AND SUB PUSH2 0x15FF JUMPI PUSH1 0x40 MLOAD PUSH32 0x89FDAD6200000000000000000000000000000000000000000000000000000000 DUP2 MSTORE PUSH1 0x4 ADD PUSH1 0x40 MLOAD DUP1 SWAP2 SUB SWAP1 REVERT JUMPDEST PUSH0 PUSH2 0x1623 DUP6 PUSH1 0x5 PUSH0 DUP8 DUP2 MSTORE PUSH1 0x20 ADD SWAP1 DUP2 MSTORE PUSH1 0x20 ADD PUSH0 KECCAK256 PUSH2 0x277A SWAP1 SWAP2 SWAP1 PUSH4 0xFFFFFFFF AND JUMP JUMPDEST SWAP1 POP DUP1 PUSH2 0x1669 JUMPI DUP5 DUP5 PUSH1 0x40 MLOAD PUSH32 0xA7626B6800000000000000000000000000000000000000000000000000000000 DUP2 MSTORE PUSH1 0x4 ADD PUSH2 0x1660 SWAP3 SWAP2 SWAP1 PUSH2 0x4D58 JUMP JUMPDEST PUSH1 0x40 MLOAD DUP1 SWAP2 SUB SWAP1 REVERT JUMPDEST DUP4 DUP3 PUSH20 0xFFFFFFFFFFFFFFFFFFFFFFFFFFFFFFFFFFFFFFFF AND DUP7 PUSH20 0xFFFFFFFFFFFFFFFFFFFFFFFFFFFFFFFFFFFFFFFF AND PUSH32 0x1B1B58AA2EC0CEC2228B2D37124556D41F5A1F7B12F089171F896CC236671215 DUP7 PUSH1 0x40 MLOAD PUSH2 0x16C7 SWAP2 SWAP1 PUSH2 0x3AB9 JUMP JUMPDEST PUSH1 0x40 MLOAD DUP1 SWAP2 SUB SWAP1 LOG4 PUSH0 CALLER DUP6 PUSH1 0x1 DUP7 PUSH1 0x40 MLOAD PUSH1 0x20 ADD PUSH2 0x16E8 SWAP5 SWAP4 SWAP3 SWAP2 SWAP1 PUSH2 0x4D7F JUMP JUMPDEST PUSH1 0x40 MLOAD PUSH1 0x20 DUP2 DUP4 SUB SUB DUP2 MSTORE SWAP1 PUSH1 0x40 MSTORE SWAP1 POP PUSH2 0x1703 DUP7 DUP3 PUSH2 0x27A7 JUMP JUMPDEST POP POP POP POP POP POP JUMP JUMPDEST PUSH0 DUP1 PUSH0 SWAP1 SLOAD SWAP1 PUSH2 0x100 EXP SWAP1 DIV PUSH20 0xFFFFFFFFFFFFFFFFFFFFFFFFFFFFFFFFFFFFFFFF AND SWAP1 POP SWAP1 JUMP JUMPDEST PUSH2 0x173A PUSH2 0x25A2 JUMP JUMPDEST PUSH0 CALLVALUE EQ PUSH2 0x1773 JUMPI PUSH1 0x40 MLOAD PUSH32 0xF36BA73700000000000000000000000000000000000000000000000000000000 DUP2 MSTORE PUSH1 0x4 ADD PUSH1 0x40 MLOAD DUP1 SWAP2 SUB SWAP1 REVERT JUMPDEST DUP1 MLOAD DUP3 MLOAD EQ PUSH2 0x17AE JUMPI PUSH1 0x40 MLOAD PUSH32 0x3BCC897900000000000000000000000000000000000000000000000000000000 DUP2 MSTORE PUSH1 0x4 ADD PUSH1 0x40 MLOAD DUP1 SWAP2 SUB SWAP1 REVERT JUMPDEST PUSH0 DUP3 MLOAD SUB PUSH2 0x17E8 JUMPI PUSH1 0x40 MLOAD PUSH32 0x97DA5F9500000000000000000000000000000000000000000000000000000000 DUP2 MSTORE PUSH1 0x4 ADD PUSH1 0x40 MLOAD DUP1 SWAP2 SUB SWAP1 REVERT JUMPDEST PUSH0 JUMPDEST DUP3 MLOAD DUP2 LT ISZERO PUSH2 0x183C JUMPI PUSH2 0x1831 DUP4 DUP3 DUP2 MLOAD DUP2 LT PUSH2 0x1809 JUMPI PUSH2 0x1808 PUSH2 0x4BB9 JUMP JUMPDEST JUMPDEST PUSH1 0x20 MUL PUSH1 0x20 ADD ADD MLOAD DUP4 DUP4 DUP2 MLOAD DUP2 LT PUSH2 0x1824 JUMPI PUSH2 0x1823 PUSH2 0x4BB9 JUMP JUMPDEST JUMPDEST PUSH1 0x20 MUL PUSH1 0x20 ADD ADD MLOAD PUSH2 0x2711 JUMP JUMPDEST DUP1 PUSH1 0x1 ADD SWAP1 POP PUSH2 0x17EA JUMP JUMPDEST POP POP POP JUMP JUMPDEST PUSH1 0x60 PUSH2 0x1888 PUSH1 0x4 PUSH0 DUP5 PUSH20 0xFFFFFFFFFFFFFFFFFFFFFFFFFFFFFFFFFFFFFFFF AND PUSH20 0xFFFFFFFFFFFFFFFFFFFFFFFFFFFFFFFFFFFFFFFF AND DUP2 MSTORE PUSH1 0x20 ADD SWAP1 DUP2 MSTORE PUSH1 0x20 ADD PUSH0 KECCAK256 PUSH2 0x27D8 JUMP JUMPDEST SWAP1 POP SWAP2 SWAP1 POP JUMP JUMPDEST PUSH2 0x1897 PUSH2 0x25A2 JUMP JUMPDEST DUP1 PUSH1 0x7 DUP2 SWAP1 SSTORE POP POP JUMP JUMPDEST PUSH0 PUSH2 0x18AA PUSH2 0x27F7 JUMP JUMPDEST ISZERO PUSH2 0x18EA JUMPI PUSH1 0x40 MLOAD PUSH32 0x8C379A000000000000000000000000000000000000000000000000000000000 DUP2 MSTORE PUSH1 0x4 ADD PUSH2 0x18E1 SWAP1 PUSH2 0x4E13 JUMP JUMPDEST PUSH1 0x40 MLOAD DUP1 SWAP2 SUB SWAP1 REVERT JUMPDEST PUSH20 0x0 PUSH4 0xB3B2981E DUP10 DUP10 DUP10 DUP10 DUP10 DUP10 DUP10 PUSH1 0x40 MLOAD DUP9 PUSH4 0xFFFFFFFF AND PUSH1 0xE0 SHL DUP2 MSTORE PUSH1 0x4 ADD PUSH2 0x192D SWAP8 SWAP7 SWAP6 SWAP5 SWAP4 SWAP3 SWAP2 SWAP1 PUSH2 0x4EF8 JUMP JUMPDEST PUSH1 0x20 PUSH1 0x40 MLOAD DUP1 DUP4 SUB DUP2 DUP7 GAS DELEGATECALL ISZERO DUP1 ISZERO PUSH2 0x1948 JUMPI RETURNDATASIZE PUSH0 DUP1 RETURNDATACOPY RETURNDATASIZE PUSH0 REVERT JUMPDEST POP POP POP POP PUSH1 0x40 MLOAD RETURNDATASIZE PUSH1 0x1F NOT PUSH1 0x1F DUP3 ADD AND DUP3 ADD DUP1 PUSH1 0x40 MSTORE POP DUP2 ADD SWAP1 PUSH2 0x196C SWAP2 SWAP1 PUSH2 0x4F8E JUMP JUMPDEST SWAP1 POP PUSH0 DUP2 PUSH20 0xFFFFFFFFFFFFFFFFFFFFFFFFFFFFFFFFFFFFFFFF AND PUSH0 SHL SWAP1 POP PUSH2 0x19A5 ADDRESS DUP3 PUSH1 0x1 PUSH1 0x40 MLOAD DUP1 PUSH1 0x20 ADD PUSH1 0x40 MSTORE DUP1 PUSH0 DUP2 MSTORE POP PUSH2 0x284B JUMP JUMPDEST TIMESTAMP PUSH1 0x8 PUSH0 DUP7 PUSH20 0xFFFFFFFFFFFFFFFFFFFFFFFFFFFFFFFFFFFFFFFF AND PUSH20 0xFFFFFFFFFFFFFFFFFFFFFFFFFFFFFFFFFFFFFFFF AND DUP2 MSTORE PUSH1 0x20 ADD SWAP1 DUP2 MSTORE PUSH1 0x20 ADD PUSH0 KECCAK256 DUP2 SWAP1 SSTORE POP TIMESTAMP PUSH1 0x9 PUSH0 DUP5 PUSH20 0xFFFFFFFFFFFFFFFFFFFFFFFFFFFFFFFFFFFFFFFF AND PUSH20 0xFFFFFFFFFFFFFFFFFFFFFFFFFFFFFFFFFFFFFFFF AND DUP2 MSTORE PUSH1 0x20 ADD SWAP1 DUP2 MSTORE PUSH1 0x20 ADD PUSH0 KECCAK256 DUP2 SWAP1 SSTORE POP DUP2 PUSH20 0xFFFFFFFFFFFFFFFFFFFFFFFFFFFFFFFFFFFFFFFF AND CALLER PUSH20 0xFFFFFFFFFFFFFFFFFFFFFFFFFFFFFFFFFFFFFFFF AND PUSH32 0xAB8530F87DC9B59234C4623BF917212BB2536D647574C8E7E5DA92C2EDE0C9F8 TIMESTAMP PUSH1 0x40 MLOAD PUSH2 0x1A86 SWAP2 SWAP1 PUSH2 0x374A JUMP JUMPDEST PUSH1 0x40 MLOAD DUP1 SWAP2 SUB SWAP1 LOG3 POP SWAP8 SWAP7 POP POP POP POP POP POP POP JUMP JUMPDEST PUSH2 0x1AA2 PUSH2 0x25A2 JUMP JUMPDEST DUP2 MLOAD DUP4 MLOAD EQ ISZERO DUP1 PUSH2 0x1AB5 JUMPI POP DUP1 MLOAD DUP3 MLOAD EQ ISZERO JUMPDEST ISZERO PUSH2 0x1AEC JUMPI PUSH1 0x40 MLOAD PUSH32 0x2FA71DFE00000000000000000000000000000000000000000000000000000000 DUP2 MSTORE PUSH1 0x4 ADD PUSH1 0x40 MLOAD DUP1 SWAP2 SUB SWAP1 REVERT JUMPDEST PUSH0 DUP4 MLOAD SUB PUSH2 0x1B26 JUMPI PUSH1 0x40 MLOAD PUSH32 0x80C9830500000000000000000000000000000000000000000000000000000000 DUP2 MSTORE PUSH1 0x4 ADD PUSH1 0x40 MLOAD DUP1 SWAP2 SUB SWAP1 REVERT JUMPDEST PUSH0 JUMPDEST DUP4 MLOAD DUP2 LT ISZERO PUSH2 0x1B95 JUMPI PUSH2 0x1B8A DUP5 DUP3 DUP2 MLOAD DUP2 LT PUSH2 0x1B47 JUMPI PUSH2 0x1B46 PUSH2 0x4BB9 JUMP JUMPDEST JUMPDEST PUSH1 0x20 MUL PUSH1 0x20 ADD ADD MLOAD DUP5 DUP4 DUP2 MLOAD DUP2 LT PUSH2 0x1B62 JUMPI PUSH2 0x1B61 PUSH2 0x4BB9 JUMP JUMPDEST JUMPDEST PUSH1 0x20 MUL PUSH1 0x20 ADD ADD MLOAD DUP5 DUP5 DUP2 MLOAD DUP2 LT PUSH2 0x1B7D JUMPI PUSH2 0x1B7C PUSH2 0x4BB9 JUMP JUMPDEST JUMPDEST PUSH1 0x20 MUL PUSH1 0x20 ADD ADD MLOAD PUSH2 0x2AB9 JUMP JUMPDEST DUP1 PUSH1 0x1 ADD SWAP1 POP PUSH2 0x1B28 JUMP JUMPDEST POP POP POP POP JUMP JUMPDEST PUSH1 0x60 PUSH1 0xA PUSH0 DUP4 DUP2 MSTORE PUSH1 0x20 ADD SWAP1 DUP2 MSTORE PUSH1 0x20 ADD PUSH0 KECCAK256 DUP1 SLOAD DUP1 PUSH1 0x20 MUL PUSH1 0x20 ADD PUSH1 0x40 MLOAD SWAP1 DUP2 ADD PUSH1 0x40 MSTORE DUP1 SWAP3 SWAP2 SWAP1 DUP2 DUP2 MSTORE PUSH1 0x20 ADD DUP3 DUP1 SLOAD DUP1 ISZERO PUSH2 0x1C2B JUMPI PUSH1 0x20 MUL DUP3 ADD SWAP2 SWAP1 PUSH0 MSTORE PUSH1 0x20 PUSH0 KECCAK256 SWAP1 JUMPDEST DUP2 PUSH0 SWAP1 SLOAD SWAP1 PUSH2 0x100 EXP SWAP1 DIV PUSH20 0xFFFFFFFFFFFFFFFFFFFFFFFFFFFFFFFFFFFFFFFF AND PUSH20 0xFFFFFFFFFFFFFFFFFFFFFFFFFFFFFFFFFFFFFFFF AND DUP2 MSTORE PUSH1 0x20 ADD SWAP1 PUSH1 0x1 ADD SWAP1 DUP1 DUP4 GT PUSH2 0x1BE2 JUMPI JUMPDEST POP POP POP POP POP SWAP1 POP SWAP2 SWAP1 POP JUMP JUMPDEST PUSH2 0x1C3F PUSH2 0x25A2 JUMP JUMPDEST PUSH2 0x1C4A DUP4 DUP4 DUP4 PUSH2 0x2AB9 JUMP JUMPDEST POP POP POP JUMP JUMPDEST PUSH0 PUSH2 0x1C59 DUP5 PUSH2 0xDFA JUMP JUMPDEST SWAP1 POP DUP1 PUSH20 0xFFFFFFFFFFFFFFFFFFFFFFFFFFFFFFFFFFFFFFFF AND CALLER PUSH20 0xFFFFFFFFFFFFFFFFFFFFFFFFFFFFFFFFFFFFFFFF AND EQ PUSH2 0x1D03 JUMPI CALLER PUSH20 0xFFFFFFFFFFFFFFFFFFFFFFFFFFFFFFFFFFFFFFFF AND DUP6 PUSH20 0xFFFFFFFFFFFFFFFFFFFFFFFFFFFFFFFFFFFFFFFF AND EQ PUSH2 0x1D02 JUMPI CALLER DUP2 DUP6 PUSH1 0x40 MLOAD PUSH32 0x760B5ACD00000000000000000000000000000000000000000000000000000000 DUP2 MSTORE PUSH1 0x4 ADD PUSH2 0x1CF9 SWAP4 SWAP3 SWAP2 SWAP1 PUSH2 0x4FB9 JUMP JUMPDEST PUSH1 0x40 MLOAD DUP1 SWAP2 SUB SWAP1 REVERT JUMPDEST JUMPDEST PUSH0 PUSH20 0xFFFFFFFFFFFFFFFFFFFFFFFFFFFFFFFFFFFFFFFF AND DUP6 PUSH20 0xFFFFFFFFFFFFFFFFFFFFFFFFFFFFFFFFFFFFFFFF AND SUB PUSH2 0x1D68 JUMPI PUSH1 0x40 MLOAD PUSH32 0x9577B8B300000000000000000000000000000000000000000000000000000000 DUP2 MSTORE PUSH1 0x4 ADD PUSH1 0x40 MLOAD DUP1 SWAP2 SUB SWAP1 REVERT JUMPDEST DUP5 PUSH20 0xFFFFFFFFFFFFFFFFFFFFFFFFFFFFFFFFFFFFFFFF AND DUP2 PUSH20 0xFFFFFFFFFFFFFFFFFFFFFFFFFFFFFFFFFFFFFFFF AND SUB PUSH2 0x1DCD JUMPI PUSH1 0x40 MLOAD PUSH32 0x89FDAD6200000000000000000000000000000000000000000000000000000000 DUP2 MSTORE PUSH1 0x4 ADD PUSH1 0x40 MLOAD DUP1 SWAP2 SUB SWAP1 REVERT JUMPDEST PUSH2 0x1DDA DUP6 DUP3 DUP7 DUP7 DUP7 PUSH2 0x2B02 JUMP JUMPDEST DUP3 ISZERO PUSH2 0x1E15 JUMPI PUSH0 DUP2 DUP6 PUSH0 DUP6 PUSH1 0x40 MLOAD PUSH1 0x20 ADD PUSH2 0x1DF8 SWAP5 SWAP4 SWAP3 SWAP2 SWAP1 PUSH2 0x4D7F JUMP JUMPDEST PUSH1 0x40 MLOAD PUSH1 0x20 DUP2 DUP4 SUB SUB DUP2 MSTORE SWAP1 PUSH1 0x40 MSTORE SWAP1 POP PUSH2 0x1E13 DUP7 DUP3 PUSH2 0x27A7 JUMP JUMPDEST POP JUMPDEST POP POP POP POP POP JUMP JUMPDEST PUSH1 0x60 DUP2 MLOAD PUSH8 0xFFFFFFFFFFFFFFFF DUP2 GT ISZERO PUSH2 0x1E39 JUMPI PUSH2 0x1E38 PUSH2 0x387B JUMP JUMPDEST JUMPDEST PUSH1 0x40 MLOAD SWAP1 DUP1 DUP3 MSTORE DUP1 PUSH1 0x20 MUL PUSH1 0x20 ADD DUP3 ADD PUSH1 0x40 MSTORE DUP1 ISZERO PUSH2 0x1E6C JUMPI DUP2 PUSH1 0x20 ADD JUMPDEST PUSH1 0x60 DUP2 MSTORE PUSH1 0x20 ADD SWAP1 PUSH1 0x1 SWAP1 SUB SWAP1 DUP2 PUSH2 0x1E57 JUMPI SWAP1 POP JUMPDEST POP SWAP1 POP PUSH0 JUMPDEST DUP3 MLOAD DUP2 LT ISZERO PUSH2 0x1EC6 JUMPI PUSH2 0x1E9D DUP4 DUP3 DUP2 MLOAD DUP2 LT PUSH2 0x1E90 JUMPI PUSH2 0x1E8F PUSH2 0x4BB9 JUMP JUMPDEST JUMPDEST PUSH1 0x20 MUL PUSH1 0x20 ADD ADD MLOAD PUSH2 0x24EE JUMP JUMPDEST DUP3 DUP3 DUP2 MLOAD DUP2 LT PUSH2 0x1EB0 JUMPI PUSH2 0x1EAF PUSH2 0x4BB9 JUMP JUMPDEST JUMPDEST PUSH1 0x20 MUL PUSH1 0x20 ADD ADD DUP2 SWAP1 MSTORE POP DUP1 PUSH1 0x1 ADD SWAP1 POP PUSH2 0x1E71 JUMP JUMPDEST POP SWAP2 SWAP1 POP JUMP JUMPDEST PUSH1 0x9 PUSH1 0x20 MSTORE DUP1 PUSH0 MSTORE PUSH1 0x40 PUSH0 KECCAK256 PUSH0 SWAP2 POP SWAP1 POP SLOAD DUP2 JUMP JUMPDEST PUSH2 0x1EE9 PUSH2 0x25A2 JUMP JUMPDEST PUSH0 PUSH20 0xFFFFFFFFFFFFFFFFFFFFFFFFFFFFFFFFFFFFFFFF AND DUP2 PUSH20 0xFFFFFFFFFFFFFFFFFFFFFFFFFFFFFFFFFFFFFFFF AND SUB PUSH2 0x1F4E JUMPI PUSH1 0x40 MLOAD PUSH32 0x1AD8836C00000000000000000000000000000000000000000000000000000000 DUP2 MSTORE PUSH1 0x4 ADD PUSH1 0x40 MLOAD DUP1 SWAP2 SUB SWAP1 REVERT JUMPDEST PUSH2 0x1F57 DUP2 PUSH2 0x261B JUMP JUMPDEST POP JUMP JUMPDEST PUSH1 0x7 SLOAD DUP2 JUMP JUMPDEST PUSH0 DUP1 PUSH0 PUSH2 0x1F99 PUSH10 0xCEE78B4094DA86011096 PUSH1 0xB0 SHL DUP6 PUSH28 0xFFFFFFFFFFFFFFFFFFFFFFFFFFFFFFFFFFFFFFFFFFFFFFFFFFFFFFFF NOT AND PUSH2 0x2BDC JUMP JUMPDEST SWAP1 POP PUSH0 PUSH2 0x1FA5 DUP3 PUSH2 0x24EE JUMP JUMPDEST SWAP1 POP PUSH1 0x14 DUP2 MLOAD EQ ISZERO DUP1 ISZERO PUSH2 0x1FBA JUMPI POP PUSH0 DUP2 MLOAD EQ ISZERO JUMPDEST ISZERO PUSH2 0x1FFC JUMPI DUP1 PUSH1 0x40 MLOAD PUSH32 0x42BFE79F00000000000000000000000000000000000000000000000000000000 DUP2 MSTORE PUSH1 0x4 ADD PUSH2 0x1FF3 SWAP2 SWAP1 PUSH2 0x3AB9 JUMP JUMPDEST PUSH1 0x40 MLOAD DUP1 SWAP2 SUB SWAP1 REVERT JUMPDEST DUP1 PUSH2 0x2006 SWAP1 PUSH2 0x5048 JUMP JUMPDEST PUSH1 0x60 SHR PUSH1 0x1 SWAP4 POP SWAP4 POP POP POP SWAP2 POP SWAP2 JUMP JUMPDEST PUSH0 PUSH4 0xA918FA6B PUSH1 0xE0 SHL PUSH28 0xFFFFFFFFFFFFFFFFFFFFFFFFFFFFFFFFFFFFFFFFFFFFFFFFFFFFFFFF NOT AND DUP3 PUSH28 0xFFFFFFFFFFFFFFFFFFFFFFFFFFFFFFFFFFFFFFFFFFFFFFFFFFFFFFFF NOT AND EQ DUP1 PUSH2 0x206F JUMPI POP PUSH2 0x206E DUP3 PUSH2 0x2C1A JUMP JUMPDEST JUMPDEST SWAP1 POP SWAP2 SWAP1 POP JUMP JUMPDEST PUSH0 DUP1 PUSH2 0x2088 PUSH4 0x1FFC9A7 PUSH1 0xE0 SHL PUSH2 0x1F60 JUMP JUMPDEST POP SWAP1 POP PUSH0 PUSH20 0xFFFFFFFFFFFFFFFFFFFFFFFFFFFFFFFFFFFFFFFF AND DUP2 PUSH20 0xFFFFFFFFFFFFFFFFFFFFFFFFFFFFFFFFFFFFFFFF AND SUB PUSH2 0x20C7 JUMPI PUSH0 SWAP2 POP POP PUSH2 0x20D5 JUMP JUMPDEST PUSH2 0x20D1 DUP2 DUP5 PUSH2 0x2C7A JUMP JUMPDEST SWAP2 POP POP JUMPDEST SWAP2 SWAP1 POP JUMP JUMPDEST PUSH1 0x60 PUSH2 0x20E6 DUP4 DUP4 PUSH2 0x2D13 JUMP JUMPDEST SWAP1 POP SWAP3 SWAP2 POP POP JUMP JUMPDEST PUSH0 PUSH2 0x20F8 DUP3 PUSH2 0xDFA JUMP JUMPDEST PUSH20 0xFFFFFFFFFFFFFFFFFFFFFFFFFFFFFFFFFFFFFFFF AND DUP4 PUSH20 0xFFFFFFFFFFFFFFFFFFFFFFFFFFFFFFFFFFFFFFFF AND EQ DUP1 PUSH2 0x2150 JUMPI POP PUSH2 0x214F DUP4 PUSH1 0x5 PUSH0 DUP6 DUP2 MSTORE PUSH1 0x20 ADD SWAP1 DUP2 MSTORE PUSH1 0x20 ADD PUSH0 KECCAK256 PUSH2 0x2D9A SWAP1 SWAP2 SWAP1 PUSH4 0xFFFFFFFF AND JUMP JUMPDEST JUMPDEST SWAP1 POP SWAP3 SWAP2 POP POP JUMP JUMPDEST PUSH2 0x2161 DUP2 PUSH2 0x2DC7 JUMP JUMPDEST PUSH2 0x21A2 JUMPI DUP1 PUSH1 0x40 MLOAD PUSH32 0xAE8F9A3600000000000000000000000000000000000000000000000000000000 DUP2 MSTORE PUSH1 0x4 ADD PUSH2 0x2199 SWAP2 SWAP1 PUSH2 0x4BF5 JUMP JUMPDEST PUSH1 0x40 MLOAD DUP1 SWAP2 SUB SWAP1 REVERT JUMPDEST POP JUMP JUMPDEST PUSH1 0x60 PUSH0 PUSH2 0x21B3 DUP4 PUSH0 ADD PUSH2 0x2E2F JUMP JUMPDEST SWAP1 POP PUSH1 0x60 DUP2 SWAP1 POP DUP1 SWAP3 POP POP POP SWAP2 SWAP1 POP JUMP JUMPDEST PUSH0 PUSH2 0x21CE DUP5 PUSH2 0xDFA JUMP JUMPDEST SWAP1 POP DUP6 PUSH20 0xFFFFFFFFFFFFFFFFFFFFFFFFFFFFFFFFFFFFFFFF AND DUP2 PUSH20 0xFFFFFFFFFFFFFFFFFFFFFFFFFFFFFFFFFFFFFFFF AND EQ PUSH2 0x2244 JUMPI DUP1 DUP5 DUP8 PUSH1 0x40 MLOAD PUSH32 0x5B271EA200000000000000000000000000000000000000000000000000000000 DUP2 MSTORE PUSH1 0x4 ADD PUSH2 0x223B SWAP4 SWAP3 SWAP2 SWAP1 PUSH2 0x4D23 JUMP JUMPDEST PUSH1 0x40 MLOAD DUP1 SWAP2 SUB SWAP1 REVERT JUMPDEST PUSH0 PUSH20 0xFFFFFFFFFFFFFFFFFFFFFFFFFFFFFFFFFFFFFFFF AND DUP6 PUSH20 0xFFFFFFFFFFFFFFFFFFFFFFFFFFFFFFFFFFFFFFFF AND SUB PUSH2 0x22A9 JUMPI PUSH1 0x40 MLOAD PUSH32 0x24ECEF4D00000000000000000000000000000000000000000000000000000000 DUP2 MSTORE PUSH1 0x4 ADD PUSH1 0x40 MLOAD DUP1 SWAP2 SUB SWAP1 REVERT JUMPDEST PUSH2 0x22B5 DUP7 DUP7 DUP7 DUP6 PUSH2 0x2E88 JUMP JUMPDEST PUSH0 PUSH2 0x22BF DUP6 PUSH2 0xDFA JUMP JUMPDEST SWAP1 POP DUP1 PUSH20 0xFFFFFFFFFFFFFFFFFFFFFFFFFFFFFFFFFFFFFFFF AND DUP3 PUSH20 0xFFFFFFFFFFFFFFFFFFFFFFFFFFFFFFFFFFFFFFFF AND EQ PUSH2 0x2335 JUMPI DUP5 DUP3 DUP3 PUSH1 0x40 MLOAD PUSH32 0x5A9C31D300000000000000000000000000000000000000000000000000000000 DUP2 MSTORE PUSH1 0x4 ADD PUSH2 0x232C SWAP4 SWAP3 SWAP2 SWAP1 PUSH2 0x50AE JUMP JUMPDEST PUSH1 0x40 MLOAD DUP1 SWAP2 SUB SWAP1 REVERT JUMPDEST PUSH2 0x233F DUP8 DUP7 PUSH2 0x2E8E JUMP JUMPDEST PUSH2 0x238E DUP6 PUSH1 0x4 PUSH0 DUP11 PUSH20 0xFFFFFFFFFFFFFFFFFFFFFFFFFFFFFFFFFFFFFFFF AND PUSH20 0xFFFFFFFFFFFFFFFFFFFFFFFFFFFFFFFFFFFFFFFF AND DUP2 MSTORE PUSH1 0x20 ADD SWAP1 DUP2 MSTORE PUSH1 0x20 ADD PUSH0 KECCAK256 PUSH2 0x2EFC SWAP1 SWAP2 SWAP1 PUSH4 0xFFFFFFFF AND JUMP JUMPDEST POP PUSH2 0x23DE DUP6 PUSH1 0x4 PUSH0 DUP10 PUSH20 0xFFFFFFFFFFFFFFFFFFFFFFFFFFFFFFFFFFFFFFFF AND PUSH20 0xFFFFFFFFFFFFFFFFFFFFFFFFFFFFFFFFFFFFFFFF AND DUP2 MSTORE PUSH1 0x20 ADD SWAP1 DUP2 MSTORE PUSH1 0x20 ADD PUSH0 KECCAK256 PUSH2 0x2F11 SWAP1 SWAP2 SWAP1 PUSH4 0xFFFFFFFF AND JUMP JUMPDEST POP DUP6 PUSH1 0x3 PUSH0 DUP8 DUP2 MSTORE PUSH1 0x20 ADD SWAP1 DUP2 MSTORE PUSH1 0x20 ADD PUSH0 KECCAK256 PUSH0 PUSH2 0x100 EXP DUP2 SLOAD DUP2 PUSH20 0xFFFFFFFFFFFFFFFFFFFFFFFFFFFFFFFFFFFFFFFF MUL NOT AND SWAP1 DUP4 PUSH20 0xFFFFFFFFFFFFFFFFFFFFFFFFFFFFFFFFFFFFFFFF AND MUL OR SWAP1 SSTORE POP DUP5 DUP7 PUSH20 0xFFFFFFFFFFFFFFFFFFFFFFFFFFFFFFFFFFFFFFFF AND DUP9 PUSH20 0xFFFFFFFFFFFFFFFFFFFFFFFFFFFFFFFFFFFFFFFF AND PUSH32 0xB333C813A7426A7A11E2B190CAD52C44119421594B47F6F32ACE6D8C7207B2BF CALLER DUP9 DUP9 PUSH1 0x40 MLOAD PUSH2 0x2490 SWAP4 SWAP3 SWAP2 SWAP1 PUSH2 0x50E3 JUMP JUMPDEST PUSH1 0x40 MLOAD DUP1 SWAP2 SUB SWAP1 LOG4 PUSH2 0x24A4 DUP8 DUP8 DUP8 DUP7 PUSH2 0x2F26 JUMP JUMPDEST PUSH0 CALLER DUP9 DUP9 DUP9 DUP8 PUSH1 0x40 MLOAD PUSH1 0x20 ADD PUSH2 0x24BE SWAP6 SWAP5 SWAP4 SWAP3 SWAP2 SWAP1 PUSH2 0x511F JUMP JUMPDEST PUSH1 0x40 MLOAD PUSH1 0x20 DUP2 DUP4 SUB SUB DUP2 MSTORE SWAP1 PUSH1 0x40 MSTORE SWAP1 POP PUSH2 0x24D9 DUP9 DUP3 PUSH2 0x2F2C JUMP JUMPDEST PUSH2 0x24E4 DUP8 DUP7 DUP4 PUSH2 0x2F5D JUMP JUMPDEST POP POP POP POP POP POP POP POP JUMP JUMPDEST PUSH1 0x60 PUSH1 0x1 PUSH0 DUP4 DUP2 MSTORE PUSH1 0x20 ADD SWAP1 DUP2 MSTORE PUSH1 0x20 ADD PUSH0 KECCAK256 DUP1 SLOAD PUSH2 0x250C SWAP1 PUSH2 0x51A4 JUMP JUMPDEST DUP1 PUSH1 0x1F ADD PUSH1 0x20 DUP1 SWAP2 DIV MUL PUSH1 0x20 ADD PUSH1 0x40 MLOAD SWAP1 DUP2 ADD PUSH1 0x40 MSTORE DUP1 SWAP3 SWAP2 SWAP1 DUP2 DUP2 MSTORE PUSH1 0x20 ADD DUP3 DUP1 SLOAD PUSH2 0x2538 SWAP1 PUSH2 0x51A4 JUMP JUMPDEST DUP1 ISZERO PUSH2 0x2583 JUMPI DUP1 PUSH1 0x1F LT PUSH2 0x255A JUMPI PUSH2 0x100 DUP1 DUP4 SLOAD DIV MUL DUP4 MSTORE SWAP2 PUSH1 0x20 ADD SWAP2 PUSH2 0x2583 JUMP JUMPDEST DUP3 ADD SWAP2 SWAP1 PUSH0 MSTORE PUSH1 0x20 PUSH0 KECCAK256 SWAP1 JUMPDEST DUP2 SLOAD DUP2 MSTORE SWAP1 PUSH1 0x1 ADD SWAP1 PUSH1 0x20 ADD DUP1 DUP4 GT PUSH2 0x2566 JUMPI DUP3 SWAP1 SUB PUSH1 0x1F AND DUP3 ADD SWAP2 JUMPDEST POP POP POP POP POP SWAP1 POP SWAP2 SWAP1 POP JUMP JUMPDEST PUSH0 PUSH2 0x259B DUP3 PUSH0 ADD PUSH2 0x30BC JUMP JUMPDEST SWAP1 POP SWAP2 SWAP1 POP JUMP JUMPDEST CALLER PUSH20 0xFFFFFFFFFFFFFFFFFFFFFFFFFFFFFFFFFFFFFFFF AND PUSH2 0x25C1 PUSH2 0x170B JUMP JUMPDEST PUSH20 0xFFFFFFFFFFFFFFFFFFFFFFFFFFFFFFFFFFFFFFFF AND EQ PUSH2 0x2619 JUMPI CALLER PUSH1 0x40 MLOAD PUSH32 0xBF1169C500000000000000000000000000000000000000000000000000000000 DUP2 MSTORE PUSH1 0x4 ADD PUSH2 0x2610 SWAP2 SWAP1 PUSH2 0x3D70 JUMP JUMPDEST PUSH1 0x40 MLOAD DUP1 SWAP2 SUB SWAP1 REVERT JUMPDEST JUMP JUMPDEST PUSH2 0x2623 PUSH2 0x170B JUMP JUMPDEST PUSH20 0xFFFFFFFFFFFFFFFFFFFFFFFFFFFFFFFFFFFFFFFF AND DUP2 PUSH20 0xFFFFFFFFFFFFFFFFFFFFFFFFFFFFFFFFFFFFFFFF AND EQ PUSH2 0x270E JUMPI DUP1 PUSH20 0xFFFFFFFFFFFFFFFFFFFFFFFFFFFFFFFFFFFFFFFF AND PUSH0 DUP1 SLOAD SWAP1 PUSH2 0x100 EXP SWAP1 DIV PUSH20 0xFFFFFFFFFFFFFFFFFFFFFFFFFFFFFFFFFFFFFFFF AND PUSH20 0xFFFFFFFFFFFFFFFFFFFFFFFFFFFFFFFFFFFFFFFF AND PUSH32 0x8BE0079C531659141344CD1FD0A4F28419497F9722A3DAAFE3B4186F6B6457E0 PUSH1 0x40 MLOAD PUSH1 0x40 MLOAD DUP1 SWAP2 SUB SWAP1 LOG3 DUP1 PUSH0 DUP1 PUSH2 0x100 EXP DUP2 SLOAD DUP2 PUSH20 0xFFFFFFFFFFFFFFFFFFFFFFFFFFFFFFFFFFFFFFFF MUL NOT AND SWAP1 DUP4 PUSH20 0xFFFFFFFFFFFFFFFFFFFFFFFFFFFFFFFFFFFFFFFF AND MUL OR SWAP1 SSTORE POP JUMPDEST POP JUMP JUMPDEST PUSH32 0xF675E9361AF1C1664C1868CFA3EB97672D6B1A513AA5B81DEC34C9EE330E818D PUSH0 SHL DUP3 SUB PUSH2 0x276C JUMPI PUSH1 0x40 MLOAD PUSH32 0x3664800A00000000000000000000000000000000000000000000000000000000 DUP2 MSTORE PUSH1 0x4 ADD PUSH1 0x40 MLOAD DUP1 SWAP2 SUB SWAP1 REVERT JUMPDEST PUSH2 0x2776 DUP3 DUP3 PUSH2 0x30CB JUMP JUMPDEST POP POP JUMP JUMPDEST PUSH0 PUSH2 0x279F DUP4 PUSH0 ADD DUP4 PUSH20 0xFFFFFFFFFFFFFFFFFFFFFFFFFFFFFFFFFFFFFFFF AND PUSH0 SHL PUSH2 0x30D9 JUMP JUMPDEST SWAP1 POP SWAP3 SWAP2 POP POP JUMP JUMPDEST PUSH2 0x27D4 DUP3 PUSH32 0x8A1C15A8799F71B547E08E2BCB2E85257E81B0A07EEE2CE6712549EEF1F00970 PUSH0 SHL DUP4 PUSH2 0x3140 JUMP JUMPDEST POP POP JUMP JUMPDEST PUSH1 0x60 PUSH0 PUSH2 0x27E6 DUP4 PUSH0 ADD PUSH2 0x2E2F JUMP JUMPDEST SWAP1 POP PUSH1 0x60 DUP2 SWAP1 POP DUP1 SWAP3 POP POP POP SWAP2 SWAP1 POP JUMP JUMPDEST PUSH0 PUSH3 0x15180 PUSH1 0x8 PUSH0 CALLER PUSH20 0xFFFFFFFFFFFFFFFFFFFFFFFFFFFFFFFFFFFFFFFF AND PUSH20 0xFFFFFFFFFFFFFFFFFFFFFFFFFFFFFFFFFFFFFFFF AND DUP2 MSTORE PUSH1 0x20 ADD SWAP1 DUP2 MSTORE PUSH1 0x20 ADD PUSH0 KECCAK256 SLOAD PUSH2 0x2844 SWAP2 SWAP1 PUSH2 0x5201 JUMP JUMPDEST TIMESTAMP LT SWAP1 POP SWAP1 JUMP JUMPDEST PUSH0 PUSH20 0xFFFFFFFFFFFFFFFFFFFFFFFFFFFFFFFFFFFFFFFF AND DUP5 PUSH20 0xFFFFFFFFFFFFFFFFFFFFFFFFFFFFFFFFFFFFFFFF AND SUB PUSH2 0x28B0 JUMPI PUSH1 0x40 MLOAD PUSH32 0x24ECEF4D00000000000000000000000000000000000000000000000000000000 DUP2 MSTORE PUSH1 0x4 ADD PUSH1 0x40 MLOAD DUP1 SWAP2 SUB SWAP1 REVERT JUMPDEST PUSH2 0x28B9 DUP4 PUSH2 0x2DC7 JUMP JUMPDEST ISZERO PUSH2 0x28FB JUMPI DUP3 PUSH1 0x40 MLOAD PUSH32 0x34C7B51100000000000000000000000000000000000000000000000000000000 DUP2 MSTORE PUSH1 0x4 ADD PUSH2 0x28F2 SWAP2 SWAP1 PUSH2 0x4BF5 JUMP JUMPDEST PUSH1 0x40 MLOAD DUP1 SWAP2 SUB SWAP1 REVERT JUMPDEST PUSH2 0x2907 PUSH0 DUP6 DUP6 DUP5 PUSH2 0x2E88 JUMP JUMPDEST PUSH2 0x2910 DUP4 PUSH2 0x2DC7 JUMP JUMPDEST ISZERO PUSH2 0x2952 JUMPI DUP3 PUSH1 0x40 MLOAD PUSH32 0x34C7B51100000000000000000000000000000000000000000000000000000000 DUP2 MSTORE PUSH1 0x4 ADD PUSH2 0x2949 SWAP2 SWAP1 PUSH2 0x4BF5 JUMP JUMPDEST PUSH1 0x40 MLOAD DUP1 SWAP2 SUB SWAP1 REVERT JUMPDEST PUSH1 0x2 PUSH0 DUP2 SLOAD PUSH2 0x2960 SWAP1 PUSH2 0x5234 JUMP JUMPDEST SWAP2 SWAP1 POP DUP2 SWAP1 SSTORE POP PUSH2 0x29B6 DUP4 PUSH1 0x4 PUSH0 DUP8 PUSH20 0xFFFFFFFFFFFFFFFFFFFFFFFFFFFFFFFFFFFFFFFF AND PUSH20 0xFFFFFFFFFFFFFFFFFFFFFFFFFFFFFFFFFFFFFFFF AND DUP2 MSTORE PUSH1 0x20 ADD SWAP1 DUP2 MSTORE PUSH1 0x20 ADD PUSH0 KECCAK256 PUSH2 0x2F11 SWAP1 SWAP2 SWAP1 PUSH4 0xFFFFFFFF AND JUMP JUMPDEST POP DUP4 PUSH1 0x3 PUSH0 DUP6 DUP2 MSTORE PUSH1 0x20 ADD SWAP1 DUP2 MSTORE PUSH1 0x20 ADD PUSH0 KECCAK256 PUSH0 PUSH2 0x100 EXP DUP2 SLOAD DUP2 PUSH20 0xFFFFFFFFFFFFFFFFFFFFFFFFFFFFFFFFFFFFFFFF MUL NOT AND SWAP1 DUP4 PUSH20 0xFFFFFFFFFFFFFFFFFFFFFFFFFFFFFFFFFFFFFFFF AND MUL OR SWAP1 SSTORE POP DUP3 DUP5 PUSH20 0xFFFFFFFFFFFFFFFFFFFFFFFFFFFFFFFFFFFFFFFF AND PUSH0 PUSH20 0xFFFFFFFFFFFFFFFFFFFFFFFFFFFFFFFFFFFFFFFF AND PUSH32 0xB333C813A7426A7A11E2B190CAD52C44119421594B47F6F32ACE6D8C7207B2BF CALLER DUP7 DUP7 PUSH1 0x40 MLOAD PUSH2 0x2A68 SWAP4 SWAP3 SWAP2 SWAP1 PUSH2 0x50E3 JUMP JUMPDEST PUSH1 0x40 MLOAD DUP1 SWAP2 SUB SWAP1 LOG4 PUSH2 0x2A7C PUSH0 DUP6 DUP6 DUP5 PUSH2 0x2F26 JUMP JUMPDEST PUSH0 CALLER PUSH0 DUP7 DUP7 DUP6 PUSH1 0x40 MLOAD PUSH1 0x20 ADD PUSH2 0x2A96 SWAP6 SWAP5 SWAP4 SWAP3 SWAP2 SWAP1 PUSH2 0x511F JUMP JUMPDEST PUSH1 0x40 MLOAD PUSH1 0x20 DUP2 DUP4 SUB SUB DUP2 MSTORE SWAP1 PUSH1 0x40 MSTORE SWAP1 POP PUSH2 0x2AB2 DUP6 DUP5 DUP4 PUSH2 0x2F5D JUMP JUMPDEST POP POP POP POP POP JUMP JUMPDEST PUSH2 0x2AC4 DUP4 DUP4 DUP4 PUSH2 0x31FA JUMP JUMPDEST DUP2 DUP4 PUSH32 0xA6E4251F855F750545FE414F120DB91C76B88DEF14D120969E5BB2D3F05DEBBB DUP4 PUSH1 0x40 MLOAD PUSH2 0x2AF5 SWAP2 SWAP1 PUSH2 0x3AB9 JUMP JUMPDEST PUSH1 0x40 MLOAD DUP1 SWAP2 SUB SWAP1 LOG3 POP POP POP JUMP JUMPDEST PUSH0 PUSH2 0x2B26 DUP7 PUSH1 0x5 PUSH0 DUP8 DUP2 MSTORE PUSH1 0x20 ADD SWAP1 DUP2 MSTORE PUSH1 0x20 ADD PUSH0 KECCAK256 PUSH2 0x3269 SWAP1 SWAP2 SWAP1 PUSH4 0xFFFFFFFF AND JUMP JUMPDEST SWAP1 POP DUP1 PUSH2 0x2B6C JUMPI DUP6 DUP5 PUSH1 0x40 MLOAD PUSH32 0x4AA31A8C00000000000000000000000000000000000000000000000000000000 DUP2 MSTORE PUSH1 0x4 ADD PUSH2 0x2B63 SWAP3 SWAP2 SWAP1 PUSH2 0x4D58 JUMP JUMPDEST PUSH1 0x40 MLOAD DUP1 SWAP2 SUB SWAP1 REVERT JUMPDEST DUP4 DUP6 PUSH20 0xFFFFFFFFFFFFFFFFFFFFFFFFFFFFFFFFFFFFFFFF AND DUP8 PUSH20 0xFFFFFFFFFFFFFFFFFFFFFFFFFFFFFFFFFFFFFFFF AND PUSH32 0xC78CD419D6136F9F1C1C6AEC1D3FAE098CFFAF8BC86314A8F2685E32FE574E3C DUP7 DUP7 PUSH1 0x40 MLOAD PUSH2 0x2BCC SWAP3 SWAP2 SWAP1 PUSH2 0x527B JUMP JUMPDEST PUSH1 0x40 MLOAD DUP1 SWAP2 SUB SWAP1 LOG4 POP POP POP POP POP POP JUMP JUMPDEST PUSH0 DUP1 DUP4 PUSH0 PUSH1 0xF0 SHL DUP5 PUSH1 0x40 MLOAD PUSH1 0x20 ADD PUSH2 0x2BF6 SWAP4 SWAP3 SWAP2 SWAP1 PUSH2 0x535F JUMP JUMPDEST PUSH1 0x40 MLOAD PUSH1 0x20 DUP2 DUP4 SUB SUB DUP2 MSTORE SWAP1 PUSH1 0x40 MSTORE SWAP1 POP DUP1 PUSH2 0x2C11 SWAP1 PUSH2 0x53AF JUMP JUMPDEST SWAP2 POP POP SWAP3 SWAP2 POP POP JUMP JUMPDEST PUSH0 PUSH4 0x629AA694 PUSH1 0xE0 SHL PUSH28 0xFFFFFFFFFFFFFFFFFFFFFFFFFFFFFFFFFFFFFFFFFFFFFFFFFFFFFFFF NOT AND DUP3 PUSH28 0xFFFFFFFFFFFFFFFFFFFFFFFFFFFFFFFFFFFFFFFFFFFFFFFFFFFFFFFF NOT AND EQ DUP1 PUSH2 0x2C73 JUMPI POP PUSH2 0x2C72 DUP3 PUSH2 0x3296 JUMP JUMPDEST JUMPDEST SWAP1 POP SWAP2 SWAP1 POP JUMP JUMPDEST PUSH0 DUP1 DUP3 PUSH1 0x40 MLOAD PUSH1 0x24 ADD PUSH2 0x2C8D SWAP2 SWAP1 PUSH2 0x498F JUMP JUMPDEST PUSH1 0x40 MLOAD PUSH1 0x20 DUP2 DUP4 SUB SUB DUP2 MSTORE SWAP1 PUSH1 0x40 MSTORE PUSH4 0x1FFC9A7 PUSH1 0xE0 SHL PUSH1 0x20 DUP3 ADD DUP1 MLOAD PUSH28 0xFFFFFFFFFFFFFFFFFFFFFFFFFFFFFFFFFFFFFFFFFFFFFFFFFFFFFFFF DUP4 DUP2 DUP4 AND OR DUP4 MSTORE POP POP POP POP SWAP1 POP PUSH0 DUP1 PUSH0 PUSH1 0x20 PUSH0 DUP6 MLOAD PUSH1 0x20 DUP8 ADD DUP11 PUSH2 0x7530 STATICCALL SWAP3 POP RETURNDATASIZE SWAP2 POP PUSH0 MLOAD SWAP1 POP DUP3 DUP1 ISZERO PUSH2 0x2CFC JUMPI POP PUSH1 0x20 DUP3 LT ISZERO JUMPDEST DUP1 ISZERO PUSH2 0x2D07 JUMPI POP PUSH0 DUP2 GT JUMPDEST SWAP5 POP POP POP POP POP SWAP3 SWAP2 POP POP JUMP JUMPDEST PUSH1 0x60 DUP3 PUSH0 SHR PUSH20 0xFFFFFFFFFFFFFFFFFFFFFFFFFFFFFFFFFFFFFFFF AND PUSH4 0x54F6127F DUP4 PUSH1 0x40 MLOAD DUP3 PUSH4 0xFFFFFFFF AND PUSH1 0xE0 SHL DUP2 MSTORE PUSH1 0x4 ADD PUSH2 0x2D50 SWAP2 SWAP1 PUSH2 0x4BF5 JUMP JUMPDEST PUSH0 PUSH1 0x40 MLOAD DUP1 DUP4 SUB DUP2 DUP7 GAS STATICCALL ISZERO DUP1 ISZERO PUSH2 0x2D6A JUMPI RETURNDATASIZE PUSH0 DUP1 RETURNDATACOPY RETURNDATASIZE PUSH0 REVERT JUMPDEST POP POP POP POP PUSH1 0x40 MLOAD RETURNDATASIZE PUSH0 DUP3 RETURNDATACOPY RETURNDATASIZE PUSH1 0x1F NOT PUSH1 0x1F DUP3 ADD AND DUP3 ADD DUP1 PUSH1 0x40 MSTORE POP DUP2 ADD SWAP1 PUSH2 0x2D92 SWAP2 SWAP1 PUSH2 0x5483 JUMP JUMPDEST SWAP1 POP SWAP3 SWAP2 POP POP JUMP JUMPDEST PUSH0 PUSH2 0x2DBF DUP4 PUSH0 ADD DUP4 PUSH20 0xFFFFFFFFFFFFFFFFFFFFFFFFFFFFFFFFFFFFFFFF AND PUSH0 SHL PUSH2 0x32FF JUMP JUMPDEST SWAP1 POP SWAP3 SWAP2 POP POP JUMP JUMPDEST PUSH0 DUP1 PUSH20 0xFFFFFFFFFFFFFFFFFFFFFFFFFFFFFFFFFFFFFFFF AND PUSH1 0x3 PUSH0 DUP5 DUP2 MSTORE PUSH1 0x20 ADD SWAP1 DUP2 MSTORE PUSH1 0x20 ADD PUSH0 KECCAK256 PUSH0 SWAP1 SLOAD SWAP1 PUSH2 0x100 EXP SWAP1 DIV PUSH20 0xFFFFFFFFFFFFFFFFFFFFFFFFFFFFFFFFFFFFFFFF AND PUSH20 0xFFFFFFFFFFFFFFFFFFFFFFFFFFFFFFFFFFFFFFFF AND EQ ISZERO SWAP1 POP SWAP2 SWAP1 POP JUMP JUMPDEST PUSH1 0x60 DUP2 PUSH0 ADD DUP1 SLOAD DUP1 PUSH1 0x20 MUL PUSH1 0x20 ADD PUSH1 0x40 MLOAD SWAP1 DUP2 ADD PUSH1 0x40 MSTORE DUP1 SWAP3 SWAP2 SWAP1 DUP2 DUP2 MSTORE PUSH1 0x20 ADD DUP3 DUP1 SLOAD DUP1 ISZERO PUSH2 0x2E7C JUMPI PUSH1 0x20 MUL DUP3 ADD SWAP2 SWAP1 PUSH0 MSTORE PUSH1 0x20 PUSH0 KECCAK256 SWAP1 JUMPDEST DUP2 SLOAD DUP2 MSTORE PUSH1 0x20 ADD SWAP1 PUSH1 0x1 ADD SWAP1 DUP1 DUP4 GT PUSH2 0x2E68 JUMPI JUMPDEST POP POP POP POP POP SWAP1 POP SWAP2 SWAP1 POP JUMP JUMPDEST POP POP POP POP JUMP JUMPDEST PUSH0 PUSH1 0x5 PUSH0 DUP4 DUP2 MSTORE PUSH1 0x20 ADD SWAP1 DUP2 MSTORE PUSH1 0x20 ADD PUSH0 KECCAK256 SWAP1 POP PUSH0 PUSH2 0x2EAC DUP3 PUSH2 0x331F JUMP JUMPDEST SWAP1 POP PUSH0 DUP1 JUMPDEST DUP3 DUP2 LT ISZERO PUSH2 0x2EF4 JUMPI PUSH2 0x2ECC PUSH0 DUP6 PUSH2 0x3332 SWAP1 SWAP2 SWAP1 PUSH4 0xFFFFFFFF AND JUMP JUMPDEST SWAP2 POP PUSH2 0x2EE9 DUP3 DUP8 DUP8 PUSH0 PUSH1 0x40 MLOAD DUP1 PUSH1 0x20 ADD PUSH1 0x40 MSTORE DUP1 PUSH0 DUP2 MSTORE POP PUSH2 0x2B02 JUMP JUMPDEST DUP1 PUSH1 0x1 ADD SWAP1 POP PUSH2 0x2EB1 JUMP JUMPDEST POP POP POP POP POP POP JUMP JUMPDEST PUSH0 PUSH2 0x2F09 DUP4 PUSH0 ADD DUP4 PUSH2 0x3349 JUMP JUMPDEST SWAP1 POP SWAP3 SWAP2 POP POP JUMP JUMPDEST PUSH0 PUSH2 0x2F1E DUP4 PUSH0 ADD DUP4 PUSH2 0x30D9 JUMP JUMPDEST SWAP1 POP SWAP3 SWAP2 POP POP JUMP JUMPDEST POP POP POP POP JUMP JUMPDEST PUSH2 0x2F59 DUP3 PUSH32 0xB23EAE7E6D1564B295B4C3E3BE402D9A2F0776C57BDF365903496F6FA481AB00 PUSH0 SHL DUP4 PUSH2 0x3140 JUMP JUMPDEST POP POP JUMP JUMPDEST PUSH2 0x2F6E DUP4 PUSH4 0x6BB56A14 PUSH1 0xE0 SHL PUSH2 0x2C7A JUMP JUMPDEST ISZERO PUSH2 0x3019 JUMPI DUP3 PUSH20 0xFFFFFFFFFFFFFFFFFFFFFFFFFFFFFFFFFFFFFFFF AND PUSH4 0x6BB56A14 PUSH32 0xB084A55EBF70FD3C06FD755269DAC2212C4D3F0F4D09079780BFA50C1B2984D PUSH0 SHL DUP4 PUSH1 0x40 MLOAD DUP4 PUSH4 0xFFFFFFFF AND PUSH1 0xE0 SHL DUP2 MSTORE PUSH1 0x4 ADD PUSH2 0x2FD0 SWAP3 SWAP2 SWAP1 PUSH2 0x54CA JUMP JUMPDEST PUSH0 PUSH1 0x40 MLOAD DUP1 DUP4 SUB DUP2 PUSH0 DUP8 GAS CALL ISZERO DUP1 ISZERO PUSH2 0x2FEB JUMPI RETURNDATASIZE PUSH0 DUP1 RETURNDATACOPY RETURNDATASIZE PUSH0 REVERT JUMPDEST POP POP POP POP PUSH1 0x40 MLOAD RETURNDATASIZE PUSH0 DUP3 RETURNDATACOPY RETURNDATASIZE PUSH1 0x1F NOT PUSH1 0x1F DUP3 ADD AND DUP3 ADD DUP1 PUSH1 0x40 MSTORE POP DUP2 ADD SWAP1 PUSH2 0x3013 SWAP2 SWAP1 PUSH2 0x5483 JUMP JUMPDEST POP PUSH2 0x30B7 JUMP JUMPDEST DUP2 PUSH2 0x30B6 JUMPI PUSH0 DUP4 PUSH20 0xFFFFFFFFFFFFFFFFFFFFFFFFFFFFFFFFFFFFFFFF AND EXTCODESIZE EQ PUSH2 0x3079 JUMPI DUP3 PUSH1 0x40 MLOAD PUSH32 0x4349776D00000000000000000000000000000000000000000000000000000000 DUP2 MSTORE PUSH1 0x4 ADD PUSH2 0x3070 SWAP2 SWAP1 PUSH2 0x3D70 JUMP JUMPDEST PUSH1 0x40 MLOAD DUP1 SWAP2 SUB SWAP1 REVERT JUMPDEST DUP3 PUSH1 0x40 MLOAD PUSH32 0x317313700000000000000000000000000000000000000000000000000000000 DUP2 MSTORE PUSH1 0x4 ADD PUSH2 0x30AD SWAP2 SWAP1 PUSH2 0x3D70 JUMP JUMPDEST PUSH1 0x40 MLOAD DUP1 SWAP2 SUB SWAP1 REVERT JUMPDEST JUMPDEST POP POP POP JUMP JUMPDEST PUSH0 DUP2 PUSH0 ADD DUP1 SLOAD SWAP1 POP SWAP1 POP SWAP2 SWAP1 POP JUMP JUMPDEST PUSH2 0x30D5 DUP3 DUP3 PUSH2 0x3445 JUMP JUMPDEST POP POP JUMP JUMPDEST PUSH0 PUSH2 0x30E4 DUP4 DUP4 PUSH2 0x32FF JUMP JUMPDEST PUSH2 0x3136 JUMPI DUP3 PUSH0 ADD DUP3 SWAP1 DUP1 PUSH1 0x1 DUP2 SLOAD ADD DUP1 DUP3 SSTORE DUP1 SWAP2 POP POP PUSH1 0x1 SWAP1 SUB SWAP1 PUSH0 MSTORE PUSH1 0x20 PUSH0 KECCAK256 ADD PUSH0 SWAP1 SWAP2 SWAP1 SWAP2 SWAP1 SWAP2 POP SSTORE DUP3 PUSH0 ADD DUP1 SLOAD SWAP1 POP DUP4 PUSH1 0x1 ADD PUSH0 DUP5 DUP2 MSTORE PUSH1 0x20 ADD SWAP1 DUP2 MSTORE PUSH1 0x20 ADD PUSH0 KECCAK256 DUP2 SWAP1 SSTORE POP PUSH1 0x1 SWAP1 POP PUSH2 0x313A JUMP JUMPDEST PUSH0 SWAP1 POP JUMPDEST SWAP3 SWAP2 POP POP JUMP JUMPDEST PUSH2 0x3170 PUSH4 0x6BB56A14 PUSH1 0xE0 SHL DUP5 PUSH20 0xFFFFFFFFFFFFFFFFFFFFFFFFFFFFFFFFFFFFFFFF AND PUSH2 0x2C7A SWAP1 SWAP2 SWAP1 PUSH4 0xFFFFFFFF AND JUMP JUMPDEST ISZERO PUSH2 0x31F5 JUMPI DUP3 PUSH20 0xFFFFFFFFFFFFFFFFFFFFFFFFFFFFFFFFFFFFFFFF AND PUSH4 0x6BB56A14 DUP4 DUP4 PUSH1 0x40 MLOAD DUP4 PUSH4 0xFFFFFFFF AND PUSH1 0xE0 SHL DUP2 MSTORE PUSH1 0x4 ADD PUSH2 0x31B0 SWAP3 SWAP2 SWAP1 PUSH2 0x54CA JUMP JUMPDEST PUSH0 PUSH1 0x40 MLOAD DUP1 DUP4 SUB DUP2 PUSH0 DUP8 GAS CALL ISZERO DUP1 ISZERO PUSH2 0x31CB JUMPI RETURNDATASIZE PUSH0 DUP1 RETURNDATACOPY RETURNDATASIZE PUSH0 REVERT JUMPDEST POP POP POP POP PUSH1 0x40 MLOAD RETURNDATASIZE PUSH0 DUP3 RETURNDATACOPY RETURNDATASIZE PUSH1 0x1F NOT PUSH1 0x1F DUP3 ADD AND DUP3 ADD DUP1 PUSH1 0x40 MSTORE POP DUP2 ADD SWAP1 PUSH2 0x31F3 SWAP2 SWAP1 PUSH2 0x5483 JUMP JUMPDEST POP JUMPDEST POP POP POP JUMP JUMPDEST DUP3 PUSH0 SHR PUSH20 0xFFFFFFFFFFFFFFFFFFFFFFFFFFFFFFFFFFFFFFFF AND PUSH4 0x7F23690C DUP4 DUP4 PUSH1 0x40 MLOAD DUP4 PUSH4 0xFFFFFFFF AND PUSH1 0xE0 SHL DUP2 MSTORE PUSH1 0x4 ADD PUSH2 0x3237 SWAP3 SWAP2 SWAP1 PUSH2 0x54CA JUMP JUMPDEST PUSH0 PUSH1 0x40 MLOAD DUP1 DUP4 SUB DUP2 PUSH0 DUP8 DUP1 EXTCODESIZE ISZERO DUP1 ISZERO PUSH2 0x324E JUMPI PUSH0 DUP1 REVERT JUMPDEST POP GAS CALL ISZERO DUP1 ISZERO PUSH2 0x3260 JUMPI RETURNDATASIZE PUSH0 DUP1 RETURNDATACOPY RETURNDATASIZE PUSH0 REVERT JUMPDEST POP POP POP POP POP POP POP JUMP JUMPDEST PUSH0 PUSH2 0x328E DUP4 PUSH0 ADD DUP4 PUSH20 0xFFFFFFFFFFFFFFFFFFFFFFFFFFFFFFFFFFFFFFFF AND PUSH0 SHL PUSH2 0x3349 JUMP JUMPDEST SWAP1 POP SWAP3 SWAP2 POP POP JUMP JUMPDEST PUSH0 PUSH32 0x1FFC9A700000000000000000000000000000000000000000000000000000000 PUSH28 0xFFFFFFFFFFFFFFFFFFFFFFFFFFFFFFFFFFFFFFFFFFFFFFFFFFFFFFFF NOT AND DUP3 PUSH28 0xFFFFFFFFFFFFFFFFFFFFFFFFFFFFFFFFFFFFFFFFFFFFFFFFFFFFFFFF NOT AND EQ SWAP1 POP SWAP2 SWAP1 POP JUMP JUMPDEST PUSH0 DUP1 DUP4 PUSH1 0x1 ADD PUSH0 DUP5 DUP2 MSTORE PUSH1 0x20 ADD SWAP1 DUP2 MSTORE PUSH1 0x20 ADD PUSH0 KECCAK256 SLOAD EQ ISZERO SWAP1 POP SWAP3 SWAP2 POP POP JUMP JUMPDEST PUSH0 PUSH2 0x332B DUP3 PUSH0 ADD PUSH2 0x30BC JUMP JUMPDEST SWAP1 POP SWAP2 SWAP1 POP JUMP JUMPDEST PUSH0 PUSH2 0x333F DUP4 PUSH0 ADD DUP4 PUSH2 0x35B1 JUMP JUMPDEST PUSH0 SHR SWAP1 POP SWAP3 SWAP2 POP POP JUMP JUMPDEST PUSH0 DUP1 DUP4 PUSH1 0x1 ADD PUSH0 DUP5 DUP2 MSTORE PUSH1 0x20 ADD SWAP1 DUP2 MSTORE PUSH1 0x20 ADD PUSH0 KECCAK256 SLOAD SWAP1 POP PUSH0 DUP2 EQ PUSH2 0x343A JUMPI PUSH0 PUSH1 0x1 DUP3 PUSH2 0x3376 SWAP2 SWAP1 PUSH2 0x54F8 JUMP JUMPDEST SWAP1 POP PUSH0 PUSH1 0x1 DUP7 PUSH0 ADD DUP1 SLOAD SWAP1 POP PUSH2 0x338C SWAP2 SWAP1 PUSH2 0x54F8 JUMP JUMPDEST SWAP1 POP DUP1 DUP3 EQ PUSH2 0x33F2 JUMPI PUSH0 DUP7 PUSH0 ADD DUP3 DUP2 SLOAD DUP2 LT PUSH2 0x33AB JUMPI PUSH2 0x33AA PUSH2 0x4BB9 JUMP JUMPDEST JUMPDEST SWAP1 PUSH0 MSTORE PUSH1 0x20 PUSH0 KECCAK256 ADD SLOAD SWAP1 POP DUP1 DUP8 PUSH0 ADD DUP5 DUP2 SLOAD DUP2 LT PUSH2 0x33CC JUMPI PUSH2 0x33CB PUSH2 0x4BB9 JUMP JUMPDEST JUMPDEST SWAP1 PUSH0 MSTORE PUSH1 0x20 PUSH0 KECCAK256 ADD DUP2 SWAP1 SSTORE POP DUP4 DUP8 PUSH1 0x1 ADD PUSH0 DUP4 DUP2 MSTORE PUSH1 0x20 ADD SWAP1 DUP2 MSTORE PUSH1 0x20 ADD PUSH0 KECCAK256 DUP2 SWAP1 SSTORE POP POP JUMPDEST DUP6 PUSH0 ADD DUP1 SLOAD DUP1 PUSH2 0x3405 JUMPI PUSH2 0x3404 PUSH2 0x552B JUMP JUMPDEST JUMPDEST PUSH1 0x1 SWAP1 SUB DUP2 DUP2 SWAP1 PUSH0 MSTORE PUSH1 0x20 PUSH0 KECCAK256 ADD PUSH0 SWAP1 SSTORE SWAP1 SSTORE DUP6 PUSH1 0x1 ADD PUSH0 DUP7 DUP2 MSTORE PUSH1 0x20 ADD SWAP1 DUP2 MSTORE PUSH1 0x20 ADD PUSH0 KECCAK256 PUSH0 SWAP1 SSTORE PUSH1 0x1 SWAP4 POP POP POP POP PUSH2 0x343F JUMP JUMPDEST PUSH0 SWAP2 POP POP JUMPDEST SWAP3 SWAP2 POP POP JUMP JUMPDEST PUSH32 0xDEBA1E292F8BA88238E10AB3C7F88BD4BE4FAC56CAD5194B6ECCEAF653468AF1 PUSH0 SHL DUP3 SUB PUSH2 0x34A0 JUMPI PUSH1 0x40 MLOAD PUSH32 0x85C169BD00000000000000000000000000000000000000000000000000000000 DUP2 MSTORE PUSH1 0x4 ADD PUSH1 0x40 MLOAD DUP1 SWAP2 SUB SWAP1 REVERT JUMPDEST PUSH32 0x2F0A68AB07768E01943A599E73362A0E17A63A72E94DD2E384D2C1D4DB932756 PUSH0 SHL DUP3 SUB PUSH2 0x34FB JUMPI PUSH1 0x40 MLOAD PUSH32 0x76755B3800000000000000000000000000000000000000000000000000000000 DUP2 MSTORE PUSH1 0x4 ADD PUSH1 0x40 MLOAD DUP1 SWAP2 SUB SWAP1 REVERT JUMPDEST PUSH32 0xE0261FA95DB2EB3B5439BD033CDA66D56B96F92F243A8228FD87550ED7BDFDB3 PUSH0 SHL DUP3 SUB PUSH2 0x3556 JUMPI PUSH1 0x40 MLOAD PUSH32 0x4EF6D7FB00000000000000000000000000000000000000000000000000000000 DUP2 MSTORE PUSH1 0x4 ADD PUSH1 0x40 MLOAD DUP1 SWAP2 SUB SWAP1 REVERT JUMPDEST DUP1 PUSH1 0x1 PUSH0 DUP5 DUP2 MSTORE PUSH1 0x20 ADD SWAP1 DUP2 MSTORE PUSH1 0x20 ADD PUSH0 KECCAK256 SWAP1 DUP2 PUSH2 0x3574 SWAP2 SWAP1 PUSH2 0x56E9 JUMP JUMPDEST POP DUP2 PUSH32 0xECE574603820D07BC9B91F2A932BAADF4628AABCB8AFBA49776529C14A6104B2 DUP3 PUSH1 0x40 MLOAD PUSH2 0x35A5 SWAP2 SWAP1 PUSH2 0x3AB9 JUMP JUMPDEST PUSH1 0x40 MLOAD DUP1 SWAP2 SUB SWAP1 LOG2 POP POP JUMP JUMPDEST PUSH0 DUP3 PUSH0 ADD DUP3 DUP2 SLOAD DUP2 LT PUSH2 0x35C7 JUMPI PUSH2 0x35C6 PUSH2 0x4BB9 JUMP JUMPDEST JUMPDEST SWAP1 PUSH0 MSTORE PUSH1 0x20 PUSH0 KECCAK256 ADD SLOAD SWAP1 POP SWAP3 SWAP2 POP POP JUMP JUMPDEST PUSH0 DUP3 DUP3 MSTORE PUSH1 0x20 DUP3 ADD SWAP1 POP SWAP3 SWAP2 POP POP JUMP JUMPDEST PUSH0 DUP1 DUP3 ADD MSTORE POP JUMP JUMPDEST PUSH0 PUSH2 0x35FC PUSH1 0x4 DUP4 PUSH2 0x35D8 JUMP JUMPDEST SWAP2 POP PUSH2 0x3607 DUP3 PUSH2 0x35E8 JUMP JUMPDEST PUSH1 0x20 DUP3 ADD SWAP1 POP SWAP2 SWAP1 POP JUMP JUMPDEST PUSH0 PUSH1 0x20 DUP3 ADD SWAP1 POP DUP2 DUP2 SUB PUSH0 DUP4 ADD MSTORE PUSH2 0x3629 DUP2 PUSH2 0x35F0 JUMP JUMPDEST SWAP1 POP SWAP2 SWAP1 POP JUMP JUMPDEST DUP3 DUP2 DUP4 CALLDATACOPY PUSH0 DUP4 DUP4 ADD MSTORE POP POP POP JUMP JUMPDEST PUSH0 PUSH1 0x1F NOT PUSH1 0x1F DUP4 ADD AND SWAP1 POP SWAP2 SWAP1 POP JUMP JUMPDEST PUSH0 PUSH2 0x3659 DUP4 DUP6 PUSH2 0x35D8 JUMP JUMPDEST SWAP4 POP PUSH2 0x3666 DUP4 DUP6 DUP5 PUSH2 0x3630 JUMP JUMPDEST PUSH2 0x366F DUP4 PUSH2 0x363E JUMP JUMPDEST DUP5 ADD SWAP1 POP SWAP4 SWAP3 POP POP POP JUMP JUMPDEST PUSH0 PUSH1 0x20 DUP3 ADD SWAP1 POP DUP2 DUP2 SUB PUSH0 DUP4 ADD MSTORE PUSH2 0x3693 DUP2 DUP5 DUP7 PUSH2 0x364E JUMP JUMPDEST SWAP1 POP SWAP4 SWAP3 POP POP POP JUMP JUMPDEST PUSH0 PUSH1 0x40 MLOAD SWAP1 POP SWAP1 JUMP JUMPDEST PUSH0 DUP1 REVERT JUMPDEST PUSH0 DUP1 REVERT JUMPDEST PUSH0 PUSH20 0xFFFFFFFFFFFFFFFFFFFFFFFFFFFFFFFFFFFFFFFF DUP3 AND SWAP1 POP SWAP2 SWAP1 POP JUMP JUMPDEST PUSH0 PUSH2 0x36D6 DUP3 PUSH2 0x36AD JUMP JUMPDEST SWAP1 POP SWAP2 SWAP1 POP JUMP JUMPDEST PUSH2 0x36E6 DUP2 PUSH2 0x36CC JUMP JUMPDEST DUP2 EQ PUSH2 0x36F0 JUMPI PUSH0 DUP1 REVERT JUMPDEST POP JUMP JUMPDEST PUSH0 DUP2 CALLDATALOAD SWAP1 POP PUSH2 0x3701 DUP2 PUSH2 0x36DD JUMP JUMPDEST SWAP3 SWAP2 POP POP JUMP JUMPDEST PUSH0 PUSH1 0x20 DUP3 DUP5 SUB SLT ISZERO PUSH2 0x371C JUMPI PUSH2 0x371B PUSH2 0x36A5 JUMP JUMPDEST JUMPDEST PUSH0 PUSH2 0x3729 DUP5 DUP3 DUP6 ADD PUSH2 0x36F3 JUMP JUMPDEST SWAP2 POP POP SWAP3 SWAP2 POP POP JUMP JUMPDEST PUSH0 DUP2 SWAP1 POP SWAP2 SWAP1 POP JUMP JUMPDEST PUSH2 0x3744 DUP2 PUSH2 0x3732 JUMP JUMPDEST DUP3 MSTORE POP POP JUMP JUMPDEST PUSH0 PUSH1 0x20 DUP3 ADD SWAP1 POP PUSH2 0x375D PUSH0 DUP4 ADD DUP5 PUSH2 0x373B JUMP JUMPDEST SWAP3 SWAP2 POP POP JUMP JUMPDEST PUSH0 PUSH32 0xFFFFFFFF00000000000000000000000000000000000000000000000000000000 DUP3 AND SWAP1 POP SWAP2 SWAP1 POP JUMP JUMPDEST PUSH2 0x3797 DUP2 PUSH2 0x3763 JUMP JUMPDEST DUP2 EQ PUSH2 0x37A1 JUMPI PUSH0 DUP1 REVERT JUMPDEST POP JUMP JUMPDEST PUSH0 DUP2 CALLDATALOAD SWAP1 POP PUSH2 0x37B2 DUP2 PUSH2 0x378E JUMP JUMPDEST SWAP3 SWAP2 POP POP JUMP JUMPDEST PUSH0 PUSH1 0x20 DUP3 DUP5 SUB SLT ISZERO PUSH2 0x37CD JUMPI PUSH2 0x37CC PUSH2 0x36A5 JUMP JUMPDEST JUMPDEST PUSH0 PUSH2 0x37DA DUP5 DUP3 DUP6 ADD PUSH2 0x37A4 JUMP JUMPDEST SWAP2 POP POP SWAP3 SWAP2 POP POP JUMP JUMPDEST PUSH0 DUP2 ISZERO ISZERO SWAP1 POP SWAP2 SWAP1 POP JUMP JUMPDEST PUSH2 0x37F7 DUP2 PUSH2 0x37E3 JUMP JUMPDEST DUP3 MSTORE POP POP JUMP JUMPDEST PUSH0 PUSH1 0x20 DUP3 ADD SWAP1 POP PUSH2 0x3810 PUSH0 DUP4 ADD DUP5 PUSH2 0x37EE JUMP JUMPDEST SWAP3 SWAP2 POP POP JUMP JUMPDEST PUSH0 DUP2 SWAP1 POP SWAP2 SWAP1 POP JUMP JUMPDEST PUSH2 0x3828 DUP2 PUSH2 0x3816 JUMP JUMPDEST DUP2 EQ PUSH2 0x3832 JUMPI PUSH0 DUP1 REVERT JUMPDEST POP JUMP JUMPDEST PUSH0 DUP2 CALLDATALOAD SWAP1 POP PUSH2 0x3843 DUP2 PUSH2 0x381F JUMP JUMPDEST SWAP3 SWAP2 POP POP JUMP JUMPDEST PUSH2 0x3852 DUP2 PUSH2 0x3732 JUMP JUMPDEST DUP2 EQ PUSH2 0x385C JUMPI PUSH0 DUP1 REVERT JUMPDEST POP JUMP JUMPDEST PUSH0 DUP2 CALLDATALOAD SWAP1 POP PUSH2 0x386D DUP2 PUSH2 0x3849 JUMP JUMPDEST SWAP3 SWAP2 POP POP JUMP JUMPDEST PUSH0 DUP1 REVERT JUMPDEST PUSH0 DUP1 REVERT JUMPDEST PUSH32 0x4E487B7100000000000000000000000000000000000000000000000000000000 PUSH0 MSTORE PUSH1 0x41 PUSH1 0x4 MSTORE PUSH1 0x24 PUSH0 REVERT JUMPDEST PUSH2 0x38B1 DUP3 PUSH2 0x363E JUMP JUMPDEST DUP2 ADD DUP2 DUP2 LT PUSH8 0xFFFFFFFFFFFFFFFF DUP3 GT OR ISZERO PUSH2 0x38D0 JUMPI PUSH2 0x38CF PUSH2 0x387B JUMP JUMPDEST JUMPDEST DUP1 PUSH1 0x40 MSTORE POP POP POP JUMP JUMPDEST PUSH0 PUSH2 0x38E2 PUSH2 0x369C JUMP JUMPDEST SWAP1 POP PUSH2 0x38EE DUP3 DUP3 PUSH2 0x38A8 JUMP JUMPDEST SWAP2 SWAP1 POP JUMP JUMPDEST PUSH0 PUSH8 0xFFFFFFFFFFFFFFFF DUP3 GT ISZERO PUSH2 0x390D JUMPI PUSH2 0x390C PUSH2 0x387B JUMP JUMPDEST JUMPDEST PUSH2 0x3916 DUP3 PUSH2 0x363E JUMP JUMPDEST SWAP1 POP PUSH1 0x20 DUP2 ADD SWAP1 POP SWAP2 SWAP1 POP JUMP JUMPDEST PUSH0 PUSH2 0x3935 PUSH2 0x3930 DUP5 PUSH2 0x38F3 JUMP JUMPDEST PUSH2 0x38D9 JUMP JUMPDEST SWAP1 POP DUP3 DUP2 MSTORE PUSH1 0x20 DUP2 ADD DUP5 DUP5 DUP5 ADD GT ISZERO PUSH2 0x3951 JUMPI PUSH2 0x3950 PUSH2 0x3877 JUMP JUMPDEST JUMPDEST PUSH2 0x395C DUP5 DUP3 DUP6 PUSH2 0x3630 JUMP JUMPDEST POP SWAP4 SWAP3 POP POP POP JUMP JUMPDEST PUSH0 DUP3 PUSH1 0x1F DUP4 ADD SLT PUSH2 0x3978 JUMPI PUSH2 0x3977 PUSH2 0x3873 JUMP JUMPDEST JUMPDEST DUP2 CALLDATALOAD PUSH2 0x3988 DUP5 DUP3 PUSH1 0x20 DUP7 ADD PUSH2 0x3923 JUMP JUMPDEST SWAP2 POP POP SWAP3 SWAP2 POP POP JUMP JUMPDEST PUSH0 DUP1 PUSH0 DUP1 PUSH1 0x80 DUP6 DUP8 SUB SLT ISZERO PUSH2 0x39A9 JUMPI PUSH2 0x39A8 PUSH2 0x36A5 JUMP JUMPDEST JUMPDEST PUSH0 PUSH2 0x39B6 DUP8 DUP3 DUP9 ADD PUSH2 0x3835 JUMP JUMPDEST SWAP5 POP POP PUSH1 0x20 PUSH2 0x39C7 DUP8 DUP3 DUP9 ADD PUSH2 0x36F3 JUMP JUMPDEST SWAP4 POP POP PUSH1 0x40 PUSH2 0x39D8 DUP8 DUP3 DUP9 ADD PUSH2 0x385F JUMP JUMPDEST SWAP3 POP POP PUSH1 0x60 DUP6 ADD CALLDATALOAD PUSH8 0xFFFFFFFFFFFFFFFF DUP2 GT ISZERO PUSH2 0x39F9 JUMPI PUSH2 0x39F8 PUSH2 0x36A9 JUMP JUMPDEST JUMPDEST PUSH2 0x3A05 DUP8 DUP3 DUP9 ADD PUSH2 0x3964 JUMP JUMPDEST SWAP2 POP POP SWAP3 SWAP6 SWAP2 SWAP5 POP SWAP3 POP JUMP JUMPDEST PUSH0 DUP1 PUSH1 0x40 DUP4 DUP6 SUB SLT ISZERO PUSH2 0x3A27 JUMPI PUSH2 0x3A26 PUSH2 0x36A5 JUMP JUMPDEST JUMPDEST PUSH0 PUSH2 0x3A34 DUP6 DUP3 DUP7 ADD PUSH2 0x3835 JUMP JUMPDEST SWAP3 POP POP PUSH1 0x20 PUSH2 0x3A45 DUP6 DUP3 DUP7 ADD PUSH2 0x3835 JUMP JUMPDEST SWAP2 POP POP SWAP3 POP SWAP3 SWAP1 POP JUMP JUMPDEST PUSH0 DUP2 MLOAD SWAP1 POP SWAP2 SWAP1 POP JUMP JUMPDEST PUSH0 JUMPDEST DUP4 DUP2 LT ISZERO PUSH2 0x3A76 JUMPI DUP1 DUP3 ADD MLOAD DUP2 DUP5 ADD MSTORE PUSH1 0x20 DUP2 ADD SWAP1 POP PUSH2 0x3A5B JUMP JUMPDEST PUSH0 DUP5 DUP5 ADD MSTORE POP POP POP POP JUMP JUMPDEST PUSH0 PUSH2 0x3A8B DUP3 PUSH2 0x3A4F JUMP JUMPDEST PUSH2 0x3A95 DUP2 DUP6 PUSH2 0x35D8 JUMP JUMPDEST SWAP4 POP PUSH2 0x3AA5 DUP2 DUP6 PUSH1 0x20 DUP7 ADD PUSH2 0x3A59 JUMP JUMPDEST PUSH2 0x3AAE DUP2 PUSH2 0x363E JUMP JUMPDEST DUP5 ADD SWAP2 POP POP SWAP3 SWAP2 POP POP JUMP JUMPDEST PUSH0 PUSH1 0x20 DUP3 ADD SWAP1 POP DUP2 DUP2 SUB PUSH0 DUP4 ADD MSTORE PUSH2 0x3AD1 DUP2 DUP5 PUSH2 0x3A81 JUMP JUMPDEST SWAP1 POP SWAP3 SWAP2 POP POP JUMP JUMPDEST PUSH0 PUSH8 0xFFFFFFFFFFFFFFFF DUP3 GT ISZERO PUSH2 0x3AF3 JUMPI PUSH2 0x3AF2 PUSH2 0x387B JUMP JUMPDEST JUMPDEST PUSH1 0x20 DUP3 MUL SWAP1 POP PUSH1 0x20 DUP2 ADD SWAP1 POP SWAP2 SWAP1 POP JUMP JUMPDEST PUSH0 DUP1 REVERT JUMPDEST PUSH0 PUSH2 0x3B1A PUSH2 0x3B15 DUP5 PUSH2 0x3AD9 JUMP JUMPDEST PUSH2 0x38D9 JUMP JUMPDEST SWAP1 POP DUP1 DUP4 DUP3 MSTORE PUSH1 0x20 DUP3 ADD SWAP1 POP PUSH1 0x20 DUP5 MUL DUP4 ADD DUP6 DUP2 GT ISZERO PUSH2 0x3B3D JUMPI PUSH2 0x3B3C PUSH2 0x3B04 JUMP JUMPDEST JUMPDEST DUP4 JUMPDEST DUP2 DUP2 LT ISZERO PUSH2 0x3B66 JUMPI DUP1 PUSH2 0x3B52 DUP9 DUP3 PUSH2 0x3835 JUMP JUMPDEST DUP5 MSTORE PUSH1 0x20 DUP5 ADD SWAP4 POP POP PUSH1 0x20 DUP2 ADD SWAP1 POP PUSH2 0x3B3F JUMP JUMPDEST POP POP POP SWAP4 SWAP3 POP POP POP JUMP JUMPDEST PUSH0 DUP3 PUSH1 0x1F DUP4 ADD SLT PUSH2 0x3B84 JUMPI PUSH2 0x3B83 PUSH2 0x3873 JUMP JUMPDEST JUMPDEST DUP2 CALLDATALOAD PUSH2 0x3B94 DUP5 DUP3 PUSH1 0x20 DUP7 ADD PUSH2 0x3B08 JUMP JUMPDEST SWAP2 POP POP SWAP3 SWAP2 POP POP JUMP JUMPDEST PUSH0 DUP1 PUSH1 0x40 DUP4 DUP6 SUB SLT ISZERO PUSH2 0x3BB3 JUMPI PUSH2 0x3BB2 PUSH2 0x36A5 JUMP JUMPDEST JUMPDEST PUSH0 DUP4 ADD CALLDATALOAD PUSH8 0xFFFFFFFFFFFFFFFF DUP2 GT ISZERO PUSH2 0x3BD0 JUMPI PUSH2 0x3BCF PUSH2 0x36A9 JUMP JUMPDEST JUMPDEST PUSH2 0x3BDC DUP6 DUP3 DUP7 ADD PUSH2 0x3B70 JUMP JUMPDEST SWAP3 POP POP PUSH1 0x20 DUP4 ADD CALLDATALOAD PUSH8 0xFFFFFFFFFFFFFFFF DUP2 GT ISZERO PUSH2 0x3BFD JUMPI PUSH2 0x3BFC PUSH2 0x36A9 JUMP JUMPDEST JUMPDEST PUSH2 0x3C09 DUP6 DUP3 DUP7 ADD PUSH2 0x3B70 JUMP JUMPDEST SWAP2 POP POP SWAP3 POP SWAP3 SWAP1 POP JUMP JUMPDEST PUSH0 DUP2 MLOAD SWAP1 POP SWAP2 SWAP1 POP JUMP JUMPDEST PUSH0 DUP3 DUP3 MSTORE PUSH1 0x20 DUP3 ADD SWAP1 POP SWAP3 SWAP2 POP POP JUMP JUMPDEST PUSH0 DUP2 SWAP1 POP PUSH1 0x20 DUP3 ADD SWAP1 POP SWAP2 SWAP1 POP JUMP JUMPDEST PUSH0 DUP3 DUP3 MSTORE PUSH1 0x20 DUP3 ADD SWAP1 POP SWAP3 SWAP2 POP POP JUMP JUMPDEST PUSH0 PUSH2 0x3C56 DUP3 PUSH2 0x3A4F JUMP JUMPDEST PUSH2 0x3C60 DUP2 DUP6 PUSH2 0x3C3C JUMP JUMPDEST SWAP4 POP PUSH2 0x3C70 DUP2 DUP6 PUSH1 0x20 DUP7 ADD PUSH2 0x3A59 JUMP JUMPDEST PUSH2 0x3C79 DUP2 PUSH2 0x363E JUMP JUMPDEST DUP5 ADD SWAP2 POP POP SWAP3 SWAP2 POP POP JUMP JUMPDEST PUSH0 PUSH2 0x3C8F DUP4 DUP4 PUSH2 0x3C4C JUMP JUMPDEST SWAP1 POP SWAP3 SWAP2 POP POP JUMP JUMPDEST PUSH0 PUSH1 0x20 DUP3 ADD SWAP1 POP SWAP2 SWAP1 POP JUMP JUMPDEST PUSH0 PUSH2 0x3CAD DUP3 PUSH2 0x3C13 JUMP JUMPDEST PUSH2 0x3CB7 DUP2 DUP6 PUSH2 0x3C1D JUMP JUMPDEST SWAP4 POP DUP4 PUSH1 0x20 DUP3 MUL DUP6 ADD PUSH2 0x3CC9 DUP6 PUSH2 0x3C2D JUMP JUMPDEST DUP1 PUSH0 JUMPDEST DUP6 DUP2 LT ISZERO PUSH2 0x3D04 JUMPI DUP5 DUP5 SUB DUP10 MSTORE DUP2 MLOAD PUSH2 0x3CE5 DUP6 DUP3 PUSH2 0x3C84 JUMP JUMPDEST SWAP5 POP PUSH2 0x3CF0 DUP4 PUSH2 0x3C97 JUMP JUMPDEST SWAP3 POP PUSH1 0x20 DUP11 ADD SWAP10 POP POP PUSH1 0x1 DUP2 ADD SWAP1 POP PUSH2 0x3CCC JUMP JUMPDEST POP DUP3 SWAP8 POP DUP8 SWAP6 POP POP POP POP POP POP SWAP3 SWAP2 POP POP JUMP JUMPDEST PUSH0 PUSH1 0x20 DUP3 ADD SWAP1 POP DUP2 DUP2 SUB PUSH0 DUP4 ADD MSTORE PUSH2 0x3D2E DUP2 DUP5 PUSH2 0x3CA3 JUMP JUMPDEST SWAP1 POP SWAP3 SWAP2 POP POP JUMP JUMPDEST PUSH0 PUSH1 0x20 DUP3 DUP5 SUB SLT ISZERO PUSH2 0x3D4B JUMPI PUSH2 0x3D4A PUSH2 0x36A5 JUMP JUMPDEST JUMPDEST PUSH0 PUSH2 0x3D58 DUP5 DUP3 DUP6 ADD PUSH2 0x3835 JUMP JUMPDEST SWAP2 POP POP SWAP3 SWAP2 POP POP JUMP JUMPDEST PUSH2 0x3D6A DUP2 PUSH2 0x36CC JUMP JUMPDEST DUP3 MSTORE POP POP JUMP JUMPDEST PUSH0 PUSH1 0x20 DUP3 ADD SWAP1 POP PUSH2 0x3D83 PUSH0 DUP4 ADD DUP5 PUSH2 0x3D61 JUMP JUMPDEST SWAP3 SWAP2 POP POP JUMP JUMPDEST PUSH0 DUP1 PUSH1 0x40 DUP4 DUP6 SUB SLT ISZERO PUSH2 0x3D9F JUMPI PUSH2 0x3D9E PUSH2 0x36A5 JUMP JUMPDEST JUMPDEST PUSH0 PUSH2 0x3DAC DUP6 DUP3 DUP7 ADD PUSH2 0x36F3 JUMP JUMPDEST SWAP3 POP POP PUSH1 0x20 PUSH2 0x3DBD DUP6 DUP3 DUP7 ADD PUSH2 0x3835 JUMP JUMPDEST SWAP2 POP POP SWAP3 POP SWAP3 SWAP1 POP JUMP JUMPDEST PUSH0 DUP2 MLOAD SWAP1 POP SWAP2 SWAP1 POP JUMP JUMPDEST PUSH0 DUP3 DUP3 MSTORE PUSH1 0x20 DUP3 ADD SWAP1 POP SWAP3 SWAP2 POP POP JUMP JUMPDEST PUSH0 DUP2 SWAP1 POP PUSH1 0x20 DUP3 ADD SWAP1 POP SWAP2 SWAP1 POP JUMP JUMPDEST PUSH2 0x3DF9 DUP2 PUSH2 0x36CC JUMP JUMPDEST DUP3 MSTORE POP POP JUMP JUMPDEST PUSH0 PUSH2 0x3E0A DUP4 DUP4 PUSH2 0x3DF0 JUMP JUMPDEST PUSH1 0x20 DUP4 ADD SWAP1 POP SWAP3 SWAP2 POP POP JUMP JUMPDEST PUSH0 PUSH1 0x20 DUP3 ADD SWAP1 POP SWAP2 SWAP1 POP JUMP JUMPDEST PUSH0 PUSH2 0x3E2C DUP3 PUSH2 0x3DC7 JUMP JUMPDEST PUSH2 0x3E36 DUP2 DUP6 PUSH2 0x3DD1 JUMP JUMPDEST SWAP4 POP PUSH2 0x3E41 DUP4 PUSH2 0x3DE1 JUMP JUMPDEST DUP1 PUSH0 JUMPDEST DUP4 DUP2 LT ISZERO PUSH2 0x3E71 JUMPI DUP2 MLOAD PUSH2 0x3E58 DUP9 DUP3 PUSH2 0x3DFF JUMP JUMPDEST SWAP8 POP PUSH2 0x3E63 DUP4 PUSH2 0x3E16 JUMP JUMPDEST SWAP3 POP POP PUSH1 0x1 DUP2 ADD SWAP1 POP PUSH2 0x3E44 JUMP JUMPDEST POP DUP6 SWAP4 POP POP POP POP SWAP3 SWAP2 POP POP JUMP JUMPDEST PUSH0 PUSH1 0x20 DUP3 ADD SWAP1 POP DUP2 DUP2 SUB PUSH0 DUP4 ADD MSTORE PUSH2 0x3E96 DUP2 DUP5 PUSH2 0x3E22 JUMP JUMPDEST SWAP1 POP SWAP3 SWAP2 POP POP JUMP JUMPDEST PUSH2 0x3EA7 DUP2 PUSH2 0x37E3 JUMP JUMPDEST DUP2 EQ PUSH2 0x3EB1 JUMPI PUSH0 DUP1 REVERT JUMPDEST POP JUMP JUMPDEST PUSH0 DUP2 CALLDATALOAD SWAP1 POP PUSH2 0x3EC2 DUP2 PUSH2 0x3E9E JUMP JUMPDEST SWAP3 SWAP2 POP POP JUMP JUMPDEST PUSH0 DUP1 PUSH0 DUP1 PUSH0 PUSH1 0xA0 DUP7 DUP9 SUB SLT ISZERO PUSH2 0x3EE1 JUMPI PUSH2 0x3EE0 PUSH2 0x36A5 JUMP JUMPDEST JUMPDEST PUSH0 PUSH2 0x3EEE DUP9 DUP3 DUP10 ADD PUSH2 0x36F3 JUMP JUMPDEST SWAP6 POP POP PUSH1 0x20 PUSH2 0x3EFF DUP9 DUP3 DUP10 ADD PUSH2 0x36F3 JUMP JUMPDEST SWAP5 POP POP PUSH1 0x40 PUSH2 0x3F10 DUP9 DUP3 DUP10 ADD PUSH2 0x3835 JUMP JUMPDEST SWAP4 POP POP PUSH1 0x60 PUSH2 0x3F21 DUP9 DUP3 DUP10 ADD PUSH2 0x3EB4 JUMP JUMPDEST SWAP3 POP POP PUSH1 0x80 DUP7 ADD CALLDATALOAD PUSH8 0xFFFFFFFFFFFFFFFF DUP2 GT ISZERO PUSH2 0x3F42 JUMPI PUSH2 0x3F41 PUSH2 0x36A9 JUMP JUMPDEST JUMPDEST PUSH2 0x3F4E DUP9 DUP3 DUP10 ADD PUSH2 0x3964 JUMP JUMPDEST SWAP2 POP POP SWAP3 SWAP6 POP SWAP3 SWAP6 SWAP1 SWAP4 POP JUMP JUMPDEST PUSH0 DUP1 PUSH1 0x40 DUP4 DUP6 SUB SLT ISZERO PUSH2 0x3F71 JUMPI PUSH2 0x3F70 PUSH2 0x36A5 JUMP JUMPDEST JUMPDEST PUSH0 PUSH2 0x3F7E DUP6 DUP3 DUP7 ADD PUSH2 0x3835 JUMP JUMPDEST SWAP3 POP POP PUSH1 0x20 PUSH2 0x3F8F DUP6 DUP3 DUP7 ADD PUSH2 0x36F3 JUMP JUMPDEST SWAP2 POP POP SWAP3 POP SWAP3 SWAP1 POP JUMP JUMPDEST PUSH0 DUP1 PUSH1 0x40 DUP4 DUP6 SUB SLT ISZERO PUSH2 0x3FAF JUMPI PUSH2 0x3FAE PUSH2 0x36A5 JUMP JUMPDEST JUMPDEST PUSH0 PUSH2 0x3FBC DUP6 DUP3 DUP7 ADD PUSH2 0x3835 JUMP JUMPDEST SWAP3 POP POP PUSH1 0x20 PUSH2 0x3FCD DUP6 DUP3 DUP7 ADD PUSH2 0x385F JUMP JUMPDEST SWAP2 POP POP SWAP3 POP SWAP3 SWAP1 POP JUMP JUMPDEST PUSH0 DUP1 REVERT JUMPDEST PUSH0 DUP1 DUP4 PUSH1 0x1F DUP5 ADD SLT PUSH2 0x3FF0 JUMPI PUSH2 0x3FEF PUSH2 0x3873 JUMP JUMPDEST JUMPDEST DUP3 CALLDATALOAD SWAP1 POP PUSH8 0xFFFFFFFFFFFFFFFF DUP2 GT ISZERO PUSH2 0x400D JUMPI PUSH2 0x400C PUSH2 0x3FD7 JUMP JUMPDEST JUMPDEST PUSH1 0x20 DUP4 ADD SWAP2 POP DUP4 PUSH1 0x20 DUP3 MUL DUP4 ADD GT ISZERO PUSH2 0x4029 JUMPI PUSH2 0x4028 PUSH2 0x3B04 JUMP JUMPDEST JUMPDEST SWAP3 POP SWAP3 SWAP1 POP JUMP JUMPDEST PUSH0 DUP1 PUSH1 0x20 DUP4 DUP6 SUB SLT ISZERO PUSH2 0x4046 JUMPI PUSH2 0x4045 PUSH2 0x36A5 JUMP JUMPDEST JUMPDEST PUSH0 DUP4 ADD CALLDATALOAD PUSH8 0xFFFFFFFFFFFFFFFF DUP2 GT ISZERO PUSH2 0x4063 JUMPI PUSH2 0x4062 PUSH2 0x36A9 JUMP JUMPDEST JUMPDEST PUSH2 0x406F DUP6 DUP3 DUP7 ADD PUSH2 0x3FDB JUMP JUMPDEST SWAP3 POP SWAP3 POP POP SWAP3 POP SWAP3 SWAP1 POP JUMP JUMPDEST PUSH0 PUSH8 0xFFFFFFFFFFFFFFFF DUP3 GT ISZERO PUSH2 0x4095 JUMPI PUSH2 0x4094 PUSH2 0x387B JUMP JUMPDEST JUMPDEST PUSH1 0x20 DUP3 MUL SWAP1 POP PUSH1 0x20 DUP2 ADD SWAP1 POP SWAP2 SWAP1 POP JUMP JUMPDEST PUSH0 PUSH2 0x40B8 PUSH2 0x40B3 DUP5 PUSH2 0x407B JUMP JUMPDEST PUSH2 0x38D9 JUMP JUMPDEST SWAP1 POP DUP1 DUP4 DUP3 MSTORE PUSH1 0x20 DUP3 ADD SWAP1 POP PUSH1 0x20 DUP5 MUL DUP4 ADD DUP6 DUP2 GT ISZERO PUSH2 0x40DB JUMPI PUSH2 0x40DA PUSH2 0x3B04 JUMP JUMPDEST JUMPDEST DUP4 JUMPDEST DUP2 DUP2 LT ISZERO PUSH2 0x4104 JUMPI DUP1 PUSH2 0x40F0 DUP9 DUP3 PUSH2 0x36F3 JUMP JUMPDEST DUP5 MSTORE PUSH1 0x20 DUP5 ADD SWAP4 POP POP PUSH1 0x20 DUP2 ADD SWAP1 POP PUSH2 0x40DD JUMP JUMPDEST POP POP POP SWAP4 SWAP3 POP POP POP JUMP JUMPDEST PUSH0 DUP3 PUSH1 0x1F DUP4 ADD SLT PUSH2 0x4122 JUMPI PUSH2 0x4121 PUSH2 0x3873 JUMP JUMPDEST JUMPDEST DUP2 CALLDATALOAD PUSH2 0x4132 DUP5 DUP3 PUSH1 0x20 DUP7 ADD PUSH2 0x40A6 JUMP JUMPDEST SWAP2 POP POP SWAP3 SWAP2 POP POP JUMP JUMPDEST PUSH0 PUSH8 0xFFFFFFFFFFFFFFFF DUP3 GT ISZERO PUSH2 0x4155 JUMPI PUSH2 0x4154 PUSH2 0x387B JUMP JUMPDEST JUMPDEST PUSH1 0x20 DUP3 MUL SWAP1 POP PUSH1 0x20 DUP2 ADD SWAP1 POP SWAP2 SWAP1 POP JUMP JUMPDEST PUSH0 PUSH2 0x4178 PUSH2 0x4173 DUP5 PUSH2 0x413B JUMP JUMPDEST PUSH2 0x38D9 JUMP JUMPDEST SWAP1 POP DUP1 DUP4 DUP3 MSTORE PUSH1 0x20 DUP3 ADD SWAP1 POP PUSH1 0x20 DUP5 MUL DUP4 ADD DUP6 DUP2 GT ISZERO PUSH2 0x419B JUMPI PUSH2 0x419A PUSH2 0x3B04 JUMP JUMPDEST JUMPDEST DUP4 JUMPDEST DUP2 DUP2 LT ISZERO PUSH2 0x41C4 JUMPI DUP1 PUSH2 0x41B0 DUP9 DUP3 PUSH2 0x3EB4 JUMP JUMPDEST DUP5 MSTORE PUSH1 0x20 DUP5 ADD SWAP4 POP POP PUSH1 0x20 DUP2 ADD SWAP1 POP PUSH2 0x419D JUMP JUMPDEST POP POP POP SWAP4 SWAP3 POP POP POP JUMP JUMPDEST PUSH0 DUP3 PUSH1 0x1F DUP4 ADD SLT PUSH2 0x41E2 JUMPI PUSH2 0x41E1 PUSH2 0x3873 JUMP JUMPDEST JUMPDEST DUP2 CALLDATALOAD PUSH2 0x41F2 DUP5 DUP3 PUSH1 0x20 DUP7 ADD PUSH2 0x4166 JUMP JUMPDEST SWAP2 POP POP SWAP3 SWAP2 POP POP JUMP JUMPDEST PUSH0 PUSH8 0xFFFFFFFFFFFFFFFF DUP3 GT ISZERO PUSH2 0x4215 JUMPI PUSH2 0x4214 PUSH2 0x387B JUMP JUMPDEST JUMPDEST PUSH1 0x20 DUP3 MUL SWAP1 POP PUSH1 0x20 DUP2 ADD SWAP1 POP SWAP2 SWAP1 POP JUMP JUMPDEST PUSH0 PUSH2 0x4238 PUSH2 0x4233 DUP5 PUSH2 0x41FB JUMP JUMPDEST PUSH2 0x38D9 JUMP JUMPDEST SWAP1 POP DUP1 DUP4 DUP3 MSTORE PUSH1 0x20 DUP3 ADD SWAP1 POP PUSH1 0x20 DUP5 MUL DUP4 ADD DUP6 DUP2 GT ISZERO PUSH2 0x425B JUMPI PUSH2 0x425A PUSH2 0x3B04 JUMP JUMPDEST JUMPDEST DUP4 JUMPDEST DUP2 DUP2 LT ISZERO PUSH2 0x42A2 JUMPI DUP1 CALLDATALOAD PUSH8 0xFFFFFFFFFFFFFFFF DUP2 GT ISZERO PUSH2 0x4280 JUMPI PUSH2 0x427F PUSH2 0x3873 JUMP JUMPDEST JUMPDEST DUP1 DUP7 ADD PUSH2 0x428D DUP10 DUP3 PUSH2 0x3964 JUMP JUMPDEST DUP6 MSTORE PUSH1 0x20 DUP6 ADD SWAP5 POP POP POP PUSH1 0x20 DUP2 ADD SWAP1 POP PUSH2 0x425D JUMP JUMPDEST POP POP POP SWAP4 SWAP3 POP POP POP JUMP JUMPDEST PUSH0 DUP3 PUSH1 0x1F DUP4 ADD SLT PUSH2 0x42C0 JUMPI PUSH2 0x42BF PUSH2 0x3873 JUMP JUMPDEST JUMPDEST DUP2 CALLDATALOAD PUSH2 0x42D0 DUP5 DUP3 PUSH1 0x20 DUP7 ADD PUSH2 0x4226 JUMP JUMPDEST SWAP2 POP POP SWAP3 SWAP2 POP POP JUMP JUMPDEST PUSH0 DUP1 PUSH0 DUP1 PUSH0 PUSH1 0xA0 DUP7 DUP9 SUB SLT ISZERO PUSH2 0x42F2 JUMPI PUSH2 0x42F1 PUSH2 0x36A5 JUMP JUMPDEST JUMPDEST PUSH0 DUP7 ADD CALLDATALOAD PUSH8 0xFFFFFFFFFFFFFFFF DUP2 GT ISZERO PUSH2 0x430F JUMPI PUSH2 0x430E PUSH2 0x36A9 JUMP JUMPDEST JUMPDEST PUSH2 0x431B DUP9 DUP3 DUP10 ADD PUSH2 0x410E JUMP JUMPDEST SWAP6 POP POP PUSH1 0x20 DUP7 ADD CALLDATALOAD PUSH8 0xFFFFFFFFFFFFFFFF DUP2 GT ISZERO PUSH2 0x433C JUMPI PUSH2 0x433B PUSH2 0x36A9 JUMP JUMPDEST JUMPDEST PUSH2 0x4348 DUP9 DUP3 DUP10 ADD PUSH2 0x410E JUMP JUMPDEST SWAP5 POP POP PUSH1 0x40 DUP7 ADD CALLDATALOAD PUSH8 0xFFFFFFFFFFFFFFFF DUP2 GT ISZERO PUSH2 0x4369 JUMPI PUSH2 0x4368 PUSH2 0x36A9 JUMP JUMPDEST JUMPDEST PUSH2 0x4375 DUP9 DUP3 DUP10 ADD PUSH2 0x3B70 JUMP JUMPDEST SWAP4 POP POP PUSH1 0x60 DUP7 ADD CALLDATALOAD PUSH8 0xFFFFFFFFFFFFFFFF DUP2 GT ISZERO PUSH2 0x4396 JUMPI PUSH2 0x4395 PUSH2 0x36A9 JUMP JUMPDEST JUMPDEST PUSH2 0x43A2 DUP9 DUP3 DUP10 ADD PUSH2 0x41CE JUMP JUMPDEST SWAP3 POP POP PUSH1 0x80 DUP7 ADD CALLDATALOAD PUSH8 0xFFFFFFFFFFFFFFFF DUP2 GT ISZERO PUSH2 0x43C3 JUMPI PUSH2 0x43C2 PUSH2 0x36A9 JUMP JUMPDEST JUMPDEST PUSH2 0x43CF DUP9 DUP3 DUP10 ADD PUSH2 0x42AC JUMP JUMPDEST SWAP2 POP POP SWAP3 SWAP6 POP SWAP3 SWAP6 SWAP1 SWAP4 POP JUMP JUMPDEST PUSH0 DUP1 PUSH1 0x40 DUP4 DUP6 SUB SLT ISZERO PUSH2 0x43F2 JUMPI PUSH2 0x43F1 PUSH2 0x36A5 JUMP JUMPDEST JUMPDEST PUSH0 PUSH2 0x43FF DUP6 DUP3 DUP7 ADD PUSH2 0x3835 JUMP JUMPDEST SWAP3 POP POP PUSH1 0x20 DUP4 ADD CALLDATALOAD PUSH8 0xFFFFFFFFFFFFFFFF DUP2 GT ISZERO PUSH2 0x4420 JUMPI PUSH2 0x441F PUSH2 0x36A9 JUMP JUMPDEST JUMPDEST PUSH2 0x442C DUP6 DUP3 DUP7 ADD PUSH2 0x3964 JUMP JUMPDEST SWAP2 POP POP SWAP3 POP SWAP3 SWAP1 POP JUMP JUMPDEST PUSH0 DUP1 PUSH0 PUSH1 0x60 DUP5 DUP7 SUB SLT ISZERO PUSH2 0x444D JUMPI PUSH2 0x444C PUSH2 0x36A5 JUMP JUMPDEST JUMPDEST PUSH0 PUSH2 0x445A DUP7 DUP3 DUP8 ADD PUSH2 0x36F3 JUMP JUMPDEST SWAP4 POP POP PUSH1 0x20 PUSH2 0x446B DUP7 DUP3 DUP8 ADD PUSH2 0x3835 JUMP JUMPDEST SWAP3 POP POP PUSH1 0x40 DUP5 ADD CALLDATALOAD PUSH8 0xFFFFFFFFFFFFFFFF DUP2 GT ISZERO PUSH2 0x448C JUMPI PUSH2 0x448B PUSH2 0x36A9 JUMP JUMPDEST JUMPDEST PUSH2 0x4498 DUP7 DUP3 DUP8 ADD PUSH2 0x3964 JUMP JUMPDEST SWAP2 POP POP SWAP3 POP SWAP3 POP SWAP3 JUMP JUMPDEST PUSH0 DUP1 PUSH1 0x40 DUP4 DUP6 SUB SLT ISZERO PUSH2 0x44B8 JUMPI PUSH2 0x44B7 PUSH2 0x36A5 JUMP JUMPDEST JUMPDEST PUSH0 DUP4 ADD CALLDATALOAD PUSH8 0xFFFFFFFFFFFFFFFF DUP2 GT ISZERO PUSH2 0x44D5 JUMPI PUSH2 0x44D4 PUSH2 0x36A9 JUMP JUMPDEST JUMPDEST PUSH2 0x44E1 DUP6 DUP3 DUP7 ADD PUSH2 0x3B70 JUMP JUMPDEST SWAP3 POP POP PUSH1 0x20 DUP4 ADD CALLDATALOAD PUSH8 0xFFFFFFFFFFFFFFFF DUP2 GT ISZERO PUSH2 0x4502 JUMPI PUSH2 0x4501 PUSH2 0x36A9 JUMP JUMPDEST JUMPDEST PUSH2 0x450E DUP6 DUP3 DUP7 ADD PUSH2 0x42AC JUMP JUMPDEST SWAP2 POP POP SWAP3 POP SWAP3 SWAP1 POP JUMP JUMPDEST PUSH0 DUP2 MLOAD SWAP1 POP SWAP2 SWAP1 POP JUMP JUMPDEST PUSH0 DUP3 DUP3 MSTORE PUSH1 0x20 DUP3 ADD SWAP1 POP SWAP3 SWAP2 POP POP JUMP JUMPDEST PUSH0 DUP2 SWAP1 POP PUSH1 0x20 DUP3 ADD SWAP1 POP SWAP2 SWAP1 POP JUMP JUMPDEST PUSH2 0x454A DUP2 PUSH2 0x3816 JUMP JUMPDEST DUP3 MSTORE POP POP JUMP JUMPDEST PUSH0 PUSH2 0x455B DUP4 DUP4 PUSH2 0x4541 JUMP JUMPDEST PUSH1 0x20 DUP4 ADD SWAP1 POP SWAP3 SWAP2 POP POP JUMP JUMPDEST PUSH0 PUSH1 0x20 DUP3 ADD SWAP1 POP SWAP2 SWAP1 POP JUMP JUMPDEST PUSH0 PUSH2 0x457D DUP3 PUSH2 0x4518 JUMP JUMPDEST PUSH2 0x4587 DUP2 DUP6 PUSH2 0x4522 JUMP JUMPDEST SWAP4 POP PUSH2 0x4592 DUP4 PUSH2 0x4532 JUMP JUMPDEST DUP1 PUSH0 JUMPDEST DUP4 DUP2 LT ISZERO PUSH2 0x45C2 JUMPI DUP2 MLOAD PUSH2 0x45A9 DUP9 DUP3 PUSH2 0x4550 JUMP JUMPDEST SWAP8 POP PUSH2 0x45B4 DUP4 PUSH2 0x4567 JUMP JUMPDEST SWAP3 POP POP PUSH1 0x1 DUP2 ADD SWAP1 POP PUSH2 0x4595 JUMP JUMPDEST POP DUP6 SWAP4 POP POP POP POP SWAP3 SWAP2 POP POP JUMP JUMPDEST PUSH0 PUSH1 0x20 DUP3 ADD SWAP1 POP DUP2 DUP2 SUB PUSH0 DUP4 ADD MSTORE PUSH2 0x45E7 DUP2 DUP5 PUSH2 0x4573 JUMP JUMPDEST SWAP1 POP SWAP3 SWAP2 POP POP JUMP JUMPDEST PUSH0 PUSH1 0x20 DUP3 DUP5 SUB SLT ISZERO PUSH2 0x4604 JUMPI PUSH2 0x4603 PUSH2 0x36A5 JUMP JUMPDEST JUMPDEST PUSH0 PUSH2 0x4611 DUP5 DUP3 DUP6 ADD PUSH2 0x385F JUMP JUMPDEST SWAP2 POP POP SWAP3 SWAP2 POP POP JUMP JUMPDEST PUSH0 PUSH8 0xFFFFFFFFFFFFFFFF DUP3 GT ISZERO PUSH2 0x4634 JUMPI PUSH2 0x4633 PUSH2 0x387B JUMP JUMPDEST JUMPDEST PUSH2 0x463D DUP3 PUSH2 0x363E JUMP JUMPDEST SWAP1 POP PUSH1 0x20 DUP2 ADD SWAP1 POP SWAP2 SWAP1 POP JUMP JUMPDEST PUSH0 PUSH2 0x465C PUSH2 0x4657 DUP5 PUSH2 0x461A JUMP JUMPDEST PUSH2 0x38D9 JUMP JUMPDEST SWAP1 POP DUP3 DUP2 MSTORE PUSH1 0x20 DUP2 ADD DUP5 DUP5 DUP5 ADD GT ISZERO PUSH2 0x4678 JUMPI PUSH2 0x4677 PUSH2 0x3877 JUMP JUMPDEST JUMPDEST PUSH2 0x4683 DUP5 DUP3 DUP6 PUSH2 0x3630 JUMP JUMPDEST POP SWAP4 SWAP3 POP POP POP JUMP JUMPDEST PUSH0 DUP3 PUSH1 0x1F DUP4 ADD SLT PUSH2 0x469F JUMPI PUSH2 0x469E PUSH2 0x3873 JUMP JUMPDEST JUMPDEST DUP2 CALLDATALOAD PUSH2 0x46AF DUP5 DUP3 PUSH1 0x20 DUP7 ADD PUSH2 0x464A JUMP JUMPDEST SWAP2 POP POP SWAP3 SWAP2 POP POP JUMP JUMPDEST PUSH0 DUP1 PUSH0 DUP1 PUSH0 DUP1 PUSH0 PUSH1 0xE0 DUP9 DUP11 SUB SLT ISZERO PUSH2 0x46D3 JUMPI PUSH2 0x46D2 PUSH2 0x36A5 JUMP JUMPDEST JUMPDEST PUSH0 DUP9 ADD CALLDATALOAD PUSH8 0xFFFFFFFFFFFFFFFF DUP2 GT ISZERO PUSH2 0x46F0 JUMPI PUSH2 0x46EF PUSH2 0x36A9 JUMP JUMPDEST JUMPDEST PUSH2 0x46FC DUP11 DUP3 DUP12 ADD PUSH2 0x468B JUMP JUMPDEST SWAP8 POP POP PUSH1 0x20 DUP9 ADD CALLDATALOAD PUSH8 0xFFFFFFFFFFFFFFFF DUP2 GT ISZERO PUSH2 0x471D JUMPI PUSH2 0x471C PUSH2 0x36A9 JUMP JUMPDEST JUMPDEST PUSH2 0x4729 DUP11 DUP3 DUP12 ADD PUSH2 0x468B JUMP JUMPDEST SWAP7 POP POP PUSH1 0x40 PUSH2 0x473A DUP11 DUP3 DUP12 ADD PUSH2 0x385F JUMP JUMPDEST SWAP6 POP POP PUSH1 0x60 PUSH2 0x474B DUP11 DUP3 DUP12 ADD PUSH2 0x3EB4 JUMP JUMPDEST SWAP5 POP POP PUSH1 0x80 PUSH2 0x475C DUP11 DUP3 DUP12 ADD PUSH2 0x385F JUMP JUMPDEST SWAP4 POP POP PUSH1 0xA0 PUSH2 0x476D DUP11 DUP3 DUP12 ADD PUSH2 0x36F3 JUMP JUMPDEST SWAP3 POP POP PUSH1 0xC0 DUP9 ADD CALLDATALOAD PUSH8 0xFFFFFFFFFFFFFFFF DUP2 GT ISZERO PUSH2 0x478E JUMPI PUSH2 0x478D PUSH2 0x36A9 JUMP JUMPDEST JUMPDEST PUSH2 0x479A DUP11 DUP3 DUP12 ADD PUSH2 0x3964 JUMP JUMPDEST SWAP2 POP POP SWAP3 SWAP6 SWAP9 SWAP2 SWAP5 SWAP8 POP SWAP3 SWAP6 POP JUMP JUMPDEST PUSH0 DUP1 PUSH0 PUSH1 0x60 DUP5 DUP7 SUB SLT ISZERO PUSH2 0x47C0 JUMPI PUSH2 0x47BF PUSH2 0x36A5 JUMP JUMPDEST JUMPDEST PUSH0 DUP5 ADD CALLDATALOAD PUSH8 0xFFFFFFFFFFFFFFFF DUP2 GT ISZERO PUSH2 0x47DD JUMPI PUSH2 0x47DC PUSH2 0x36A9 JUMP JUMPDEST JUMPDEST PUSH2 0x47E9 DUP7 DUP3 DUP8 ADD PUSH2 0x3B70 JUMP JUMPDEST SWAP4 POP POP PUSH1 0x20 DUP5 ADD CALLDATALOAD PUSH8 0xFFFFFFFFFFFFFFFF DUP2 GT ISZERO PUSH2 0x480A JUMPI PUSH2 0x4809 PUSH2 0x36A9 JUMP JUMPDEST JUMPDEST PUSH2 0x4816 DUP7 DUP3 DUP8 ADD PUSH2 0x3B70 JUMP JUMPDEST SWAP3 POP POP PUSH1 0x40 DUP5 ADD CALLDATALOAD PUSH8 0xFFFFFFFFFFFFFFFF DUP2 GT ISZERO PUSH2 0x4837 JUMPI PUSH2 0x4836 PUSH2 0x36A9 JUMP JUMPDEST JUMPDEST PUSH2 0x4843 DUP7 DUP3 DUP8 ADD PUSH2 0x42AC JUMP JUMPDEST SWAP2 POP POP SWAP3 POP SWAP3 POP SWAP3 JUMP JUMPDEST PUSH0 DUP1 PUSH0 PUSH1 0x60 DUP5 DUP7 SUB SLT ISZERO PUSH2 0x4864 JUMPI PUSH2 0x4863 PUSH2 0x36A5 JUMP JUMPDEST JUMPDEST PUSH0 PUSH2 0x4871 DUP7 DUP3 DUP8 ADD PUSH2 0x3835 JUMP JUMPDEST SWAP4 POP POP PUSH1 0x20 PUSH2 0x4882 DUP7 DUP3 DUP8 ADD PUSH2 0x3835 JUMP JUMPDEST SWAP3 POP POP PUSH1 0x40 DUP5 ADD CALLDATALOAD PUSH8 0xFFFFFFFFFFFFFFFF DUP2 GT ISZERO PUSH2 0x48A3 JUMPI PUSH2 0x48A2 PUSH2 0x36A9 JUMP JUMPDEST JUMPDEST PUSH2 0x48AF DUP7 DUP3 DUP8 ADD PUSH2 0x3964 JUMP JUMPDEST SWAP2 POP POP SWAP3 POP SWAP3 POP SWAP3 JUMP JUMPDEST PUSH0 DUP1 PUSH0 DUP1 PUSH1 0x80 DUP6 DUP8 SUB SLT ISZERO PUSH2 0x48D1 JUMPI PUSH2 0x48D0 PUSH2 0x36A5 JUMP JUMPDEST JUMPDEST PUSH0 PUSH2 0x48DE DUP8 DUP3 DUP9 ADD PUSH2 0x36F3 JUMP JUMPDEST SWAP5 POP POP PUSH1 0x20 PUSH2 0x48EF DUP8 DUP3 DUP9 ADD PUSH2 0x3835 JUMP JUMPDEST SWAP4 POP POP PUSH1 0x40 PUSH2 0x4900 DUP8 DUP3 DUP9 ADD PUSH2 0x3EB4 JUMP JUMPDEST SWAP3 POP POP PUSH1 0x60 DUP6 ADD CALLDATALOAD PUSH8 0xFFFFFFFFFFFFFFFF DUP2 GT ISZERO PUSH2 0x4921 JUMPI PUSH2 0x4920 PUSH2 0x36A9 JUMP JUMPDEST JUMPDEST PUSH2 0x492D DUP8 DUP3 DUP9 ADD PUSH2 0x3964 JUMP JUMPDEST SWAP2 POP POP SWAP3 SWAP6 SWAP2 SWAP5 POP SWAP3 POP JUMP JUMPDEST PUSH0 PUSH1 0x20 DUP3 DUP5 SUB SLT ISZERO PUSH2 0x494E JUMPI PUSH2 0x494D PUSH2 0x36A5 JUMP JUMPDEST JUMPDEST PUSH0 DUP3 ADD CALLDATALOAD PUSH8 0xFFFFFFFFFFFFFFFF DUP2 GT ISZERO PUSH2 0x496B JUMPI PUSH2 0x496A PUSH2 0x36A9 JUMP JUMPDEST JUMPDEST PUSH2 0x4977 DUP5 DUP3 DUP6 ADD PUSH2 0x3B70 JUMP JUMPDEST SWAP2 POP POP SWAP3 SWAP2 POP POP JUMP JUMPDEST PUSH2 0x4989 DUP2 PUSH2 0x3763 JUMP JUMPDEST DUP3 MSTORE POP POP JUMP JUMPDEST PUSH0 PUSH1 0x20 DUP3 ADD SWAP1 POP PUSH2 0x49A2 PUSH0 DUP4 ADD DUP5 PUSH2 0x4980 JUMP JUMPDEST SWAP3 SWAP2 POP POP JUMP JUMPDEST PUSH0 DUP2 SWAP1 POP SWAP3 SWAP2 POP POP JUMP JUMPDEST PUSH0 PUSH2 0x49BD DUP4 DUP6 PUSH2 0x49A8 JUMP JUMPDEST SWAP4 POP PUSH2 0x49CA DUP4 DUP6 DUP5 PUSH2 0x3630 JUMP JUMPDEST DUP3 DUP5 ADD SWAP1 POP SWAP4 SWAP3 POP POP POP JUMP JUMPDEST PUSH0 DUP2 PUSH1 0x60 SHL SWAP1 POP SWAP2 SWAP1 POP JUMP JUMPDEST PUSH0 PUSH2 0x49EC DUP3 PUSH2 0x49D6 JUMP JUMPDEST SWAP1 POP SWAP2 SWAP1 POP JUMP JUMPDEST PUSH0 PUSH2 0x49FD DUP3 PUSH2 0x49E2 JUMP JUMPDEST SWAP1 POP SWAP2 SWAP1 POP JUMP JUMPDEST PUSH2 0x4A15 PUSH2 0x4A10 DUP3 PUSH2 0x36CC JUMP JUMPDEST PUSH2 0x49F3 JUMP JUMPDEST DUP3 MSTORE POP POP JUMP JUMPDEST PUSH0 DUP2 SWAP1 POP SWAP2 SWAP1 POP JUMP JUMPDEST PUSH2 0x4A35 PUSH2 0x4A30 DUP3 PUSH2 0x3732 JUMP JUMPDEST PUSH2 0x4A1B JUMP JUMPDEST DUP3 MSTORE POP POP JUMP JUMPDEST PUSH0 PUSH2 0x4A47 DUP3 DUP7 DUP9 PUSH2 0x49B2 JUMP JUMPDEST SWAP2 POP PUSH2 0x4A53 DUP3 DUP6 PUSH2 0x4A04 JUMP JUMPDEST PUSH1 0x14 DUP3 ADD SWAP2 POP PUSH2 0x4A63 DUP3 DUP5 PUSH2 0x4A24 JUMP JUMPDEST PUSH1 0x20 DUP3 ADD SWAP2 POP DUP2 SWAP1 POP SWAP6 SWAP5 POP POP POP POP POP JUMP JUMPDEST PUSH0 PUSH2 0x4A7F DUP3 PUSH2 0x3A4F JUMP JUMPDEST PUSH2 0x4A89 DUP2 DUP6 PUSH2 0x49A8 JUMP JUMPDEST SWAP4 POP PUSH2 0x4A99 DUP2 DUP6 PUSH1 0x20 DUP7 ADD PUSH2 0x3A59 JUMP JUMPDEST DUP1 DUP5 ADD SWAP2 POP POP SWAP3 SWAP2 POP POP JUMP JUMPDEST PUSH0 PUSH2 0x4AB0 DUP3 DUP5 PUSH2 0x4A75 JUMP JUMPDEST SWAP2 POP DUP2 SWAP1 POP SWAP3 SWAP2 POP POP JUMP JUMPDEST PUSH0 DUP3 DUP3 MSTORE PUSH1 0x20 DUP3 ADD SWAP1 POP SWAP3 SWAP2 POP POP JUMP JUMPDEST PUSH32 0x416D6F756E74206D7573742062652067726561746572207468616E207A65726F PUSH0 DUP3 ADD MSTORE POP JUMP JUMPDEST PUSH0 PUSH2 0x4AFF PUSH1 0x20 DUP4 PUSH2 0x4ABB JUMP JUMPDEST SWAP2 POP PUSH2 0x4B0A DUP3 PUSH2 0x4ACB JUMP JUMPDEST PUSH1 0x20 DUP3 ADD SWAP1 POP SWAP2 SWAP1 POP JUMP JUMPDEST PUSH0 PUSH1 0x20 DUP3 ADD SWAP1 POP DUP2 DUP2 SUB PUSH0 DUP4 ADD MSTORE PUSH2 0x4B2C DUP2 PUSH2 0x4AF3 JUMP JUMPDEST SWAP1 POP SWAP2 SWAP1 POP JUMP JUMPDEST PUSH0 PUSH1 0xA0 DUP3 ADD SWAP1 POP PUSH2 0x4B46 PUSH0 DUP4 ADD DUP9 PUSH2 0x3D61 JUMP JUMPDEST PUSH2 0x4B53 PUSH1 0x20 DUP4 ADD DUP8 PUSH2 0x3D61 JUMP JUMPDEST PUSH2 0x4B60 PUSH1 0x40 DUP4 ADD DUP7 PUSH2 0x373B JUMP JUMPDEST PUSH2 0x4B6D PUSH1 0x60 DUP4 ADD DUP6 PUSH2 0x37EE JUMP JUMPDEST DUP2 DUP2 SUB PUSH1 0x80 DUP4 ADD MSTORE PUSH2 0x4B7F DUP2 DUP5 PUSH2 0x3A81 JUMP JUMPDEST SWAP1 POP SWAP7 SWAP6 POP POP POP POP POP POP JUMP JUMPDEST PUSH0 PUSH1 0x40 DUP3 ADD SWAP1 POP PUSH2 0x4B9E PUSH0 DUP4 ADD DUP6 PUSH2 0x373B JUMP JUMPDEST DUP2 DUP2 SUB PUSH1 0x20 DUP4 ADD MSTORE PUSH2 0x4BB0 DUP2 DUP5 PUSH2 0x3A81 JUMP JUMPDEST SWAP1 POP SWAP4 SWAP3 POP POP POP JUMP JUMPDEST PUSH32 0x4E487B7100000000000000000000000000000000000000000000000000000000 PUSH0 MSTORE PUSH1 0x32 PUSH1 0x4 MSTORE PUSH1 0x24 PUSH0 REVERT JUMPDEST PUSH2 0x4BEF DUP2 PUSH2 0x3816 JUMP JUMPDEST DUP3 MSTORE POP POP JUMP JUMPDEST PUSH0 PUSH1 0x20 DUP3 ADD SWAP1 POP PUSH2 0x4C08 PUSH0 DUP4 ADD DUP5 PUSH2 0x4BE6 JUMP JUMPDEST SWAP3 SWAP2 POP POP JUMP JUMPDEST PUSH0 PUSH1 0x40 DUP3 ADD SWAP1 POP PUSH2 0x4C21 PUSH0 DUP4 ADD DUP6 PUSH2 0x4BE6 JUMP JUMPDEST PUSH2 0x4C2E PUSH1 0x20 DUP4 ADD DUP5 PUSH2 0x3D61 JUMP JUMPDEST SWAP4 SWAP3 POP POP POP JUMP JUMPDEST PUSH0 DUP1 REVERT JUMPDEST PUSH0 DUP1 REVERT JUMPDEST PUSH0 DUP1 REVERT JUMPDEST PUSH0 DUP1 DUP4 CALLDATALOAD PUSH1 0x1 PUSH1 0x20 SUB DUP5 CALLDATASIZE SUB SUB DUP2 SLT PUSH2 0x4C5D JUMPI PUSH2 0x4C5C PUSH2 0x4C35 JUMP JUMPDEST JUMPDEST DUP1 DUP5 ADD SWAP3 POP DUP3 CALLDATALOAD SWAP2 POP PUSH8 0xFFFFFFFFFFFFFFFF DUP3 GT ISZERO PUSH2 0x4C7F JUMPI PUSH2 0x4C7E PUSH2 0x4C39 JUMP JUMPDEST JUMPDEST PUSH1 0x20 DUP4 ADD SWAP3 POP PUSH1 0x1 DUP3 MUL CALLDATASIZE SUB DUP4 SGT ISZERO PUSH2 0x4C9B JUMPI PUSH2 0x4C9A PUSH2 0x4C3D JUMP JUMPDEST JUMPDEST POP SWAP3 POP SWAP3 SWAP1 POP JUMP JUMPDEST PUSH0 PUSH2 0x4CAF DUP3 DUP5 DUP7 PUSH2 0x49B2 JUMP JUMPDEST SWAP2 POP DUP2 SWAP1 POP SWAP4 SWAP3 POP POP POP JUMP JUMPDEST PUSH32 0x596F752063616E206F6E6C79206C696B65206120746F6B656E206F6E63650000 PUSH0 DUP3 ADD MSTORE POP JUMP JUMPDEST PUSH0 PUSH2 0x4CEF PUSH1 0x1E DUP4 PUSH2 0x4ABB JUMP JUMPDEST SWAP2 POP PUSH2 0x4CFA DUP3 PUSH2 0x4CBB JUMP JUMPDEST PUSH1 0x20 DUP3 ADD SWAP1 POP SWAP2 SWAP1 POP JUMP JUMPDEST PUSH0 PUSH1 0x20 DUP3 ADD SWAP1 POP DUP2 DUP2 SUB PUSH0 DUP4 ADD MSTORE PUSH2 0x4D1C DUP2 PUSH2 0x4CE3 JUMP JUMPDEST SWAP1 POP SWAP2 SWAP1 POP JUMP JUMPDEST PUSH0 PUSH1 0x60 DUP3 ADD SWAP1 POP PUSH2 0x4D36 PUSH0 DUP4 ADD DUP7 PUSH2 0x3D61 JUMP JUMPDEST PUSH2 0x4D43 PUSH1 0x20 DUP4 ADD DUP6 PUSH2 0x4BE6 JUMP JUMPDEST PUSH2 0x4D50 PUSH1 0x40 DUP4 ADD DUP5 PUSH2 0x3D61 JUMP JUMPDEST SWAP5 SWAP4 POP POP POP POP JUMP JUMPDEST PUSH0 PUSH1 0x40 DUP3 ADD SWAP1 POP PUSH2 0x4D6B PUSH0 DUP4 ADD DUP6 PUSH2 0x3D61 JUMP JUMPDEST PUSH2 0x4D78 PUSH1 0x20 DUP4 ADD DUP5 PUSH2 0x4BE6 JUMP JUMPDEST SWAP4 SWAP3 POP POP POP JUMP JUMPDEST PUSH0 PUSH1 0x80 DUP3 ADD SWAP1 POP PUSH2 0x4D92 PUSH0 DUP4 ADD DUP8 PUSH2 0x3D61 JUMP JUMPDEST PUSH2 0x4D9F PUSH1 0x20 DUP4 ADD DUP7 PUSH2 0x4BE6 JUMP JUMPDEST PUSH2 0x4DAC PUSH1 0x40 DUP4 ADD DUP6 PUSH2 0x37EE JUMP JUMPDEST DUP2 DUP2 SUB PUSH1 0x60 DUP4 ADD MSTORE PUSH2 0x4DBE DUP2 DUP5 PUSH2 0x3A81 JUMP JUMPDEST SWAP1 POP SWAP6 SWAP5 POP POP POP POP POP JUMP JUMPDEST PUSH32 0x4D696E74696E67206F6E6C79206F6E6365206120646179000000000000000000 PUSH0 DUP3 ADD MSTORE POP JUMP JUMPDEST PUSH0 PUSH2 0x4DFD PUSH1 0x17 DUP4 PUSH2 0x4ABB JUMP JUMPDEST SWAP2 POP PUSH2 0x4E08 DUP3 PUSH2 0x4DC9 JUMP JUMPDEST PUSH1 0x20 DUP3 ADD SWAP1 POP SWAP2 SWAP1 POP JUMP JUMPDEST PUSH0 PUSH1 0x20 DUP3 ADD SWAP1 POP DUP2 DUP2 SUB PUSH0 DUP4 ADD MSTORE PUSH2 0x4E2A DUP2 PUSH2 0x4DF1 JUMP JUMPDEST SWAP1 POP SWAP2 SWAP1 POP JUMP JUMPDEST PUSH0 DUP2 MLOAD SWAP1 POP SWAP2 SWAP1 POP JUMP JUMPDEST PUSH0 DUP3 DUP3 MSTORE PUSH1 0x20 DUP3 ADD SWAP1 POP SWAP3 SWAP2 POP POP JUMP JUMPDEST PUSH0 PUSH2 0x4E55 DUP3 PUSH2 0x4E31 JUMP JUMPDEST PUSH2 0x4E5F DUP2 DUP6 PUSH2 0x4E3B JUMP JUMPDEST SWAP4 POP PUSH2 0x4E6F DUP2 DUP6 PUSH1 0x20 DUP7 ADD PUSH2 0x3A59 JUMP JUMPDEST PUSH2 0x4E78 DUP2 PUSH2 0x363E JUMP JUMPDEST DUP5 ADD SWAP2 POP POP SWAP3 SWAP2 POP POP JUMP JUMPDEST PUSH2 0x4E8C DUP2 PUSH2 0x3732 JUMP JUMPDEST DUP3 MSTORE POP POP JUMP JUMPDEST PUSH2 0x4E9B DUP2 PUSH2 0x37E3 JUMP JUMPDEST DUP3 MSTORE POP POP JUMP JUMPDEST PUSH2 0x4EAA DUP2 PUSH2 0x36CC JUMP JUMPDEST DUP3 MSTORE POP POP JUMP JUMPDEST PUSH0 DUP3 DUP3 MSTORE PUSH1 0x20 DUP3 ADD SWAP1 POP SWAP3 SWAP2 POP POP JUMP JUMPDEST PUSH0 PUSH2 0x4ECA DUP3 PUSH2 0x3A4F JUMP JUMPDEST PUSH2 0x4ED4 DUP2 DUP6 PUSH2 0x4EB0 JUMP JUMPDEST SWAP4 POP PUSH2 0x4EE4 DUP2 DUP6 PUSH1 0x20 DUP7 ADD PUSH2 0x3A59 JUMP JUMPDEST PUSH2 0x4EED DUP2 PUSH2 0x363E JUMP JUMPDEST DUP5 ADD SWAP2 POP POP SWAP3 SWAP2 POP POP JUMP JUMPDEST PUSH0 PUSH1 0xE0 DUP3 ADD SWAP1 POP DUP2 DUP2 SUB PUSH0 DUP4 ADD MSTORE PUSH2 0x4F10 DUP2 DUP11 PUSH2 0x4E4B JUMP JUMPDEST SWAP1 POP DUP2 DUP2 SUB PUSH1 0x20 DUP4 ADD MSTORE PUSH2 0x4F24 DUP2 DUP10 PUSH2 0x4E4B JUMP JUMPDEST SWAP1 POP PUSH2 0x4F33 PUSH1 0x40 DUP4 ADD DUP9 PUSH2 0x4E83 JUMP JUMPDEST PUSH2 0x4F40 PUSH1 0x60 DUP4 ADD DUP8 PUSH2 0x4E92 JUMP JUMPDEST PUSH2 0x4F4D PUSH1 0x80 DUP4 ADD DUP7 PUSH2 0x4E83 JUMP JUMPDEST PUSH2 0x4F5A PUSH1 0xA0 DUP4 ADD DUP6 PUSH2 0x4EA1 JUMP JUMPDEST DUP2 DUP2 SUB PUSH1 0xC0 DUP4 ADD MSTORE PUSH2 0x4F6C DUP2 DUP5 PUSH2 0x4EC0 JUMP JUMPDEST SWAP1 POP SWAP9 SWAP8 POP POP POP POP POP POP POP POP JUMP JUMPDEST PUSH0 DUP2 MLOAD SWAP1 POP PUSH2 0x4F88 DUP2 PUSH2 0x36DD JUMP JUMPDEST SWAP3 SWAP2 POP POP JUMP JUMPDEST PUSH0 PUSH1 0x20 DUP3 DUP5 SUB SLT ISZERO PUSH2 0x4FA3 JUMPI PUSH2 0x4FA2 PUSH2 0x36A5 JUMP JUMPDEST JUMPDEST PUSH0 PUSH2 0x4FB0 DUP5 DUP3 DUP6 ADD PUSH2 0x4F7A JUMP JUMPDEST SWAP2 POP POP SWAP3 SWAP2 POP POP JUMP JUMPDEST PUSH0 PUSH1 0x60 DUP3 ADD SWAP1 POP PUSH2 0x4FCC PUSH0 DUP4 ADD DUP7 PUSH2 0x3D61 JUMP JUMPDEST PUSH2 0x4FD9 PUSH1 0x20 DUP4 ADD DUP6 PUSH2 0x3D61 JUMP JUMPDEST PUSH2 0x4FE6 PUSH1 0x40 DUP4 ADD DUP5 PUSH2 0x4BE6 JUMP JUMPDEST SWAP5 SWAP4 POP POP POP POP JUMP JUMPDEST PUSH0 DUP2 SWAP1 POP PUSH1 0x20 DUP3 ADD SWAP1 POP SWAP2 SWAP1 POP JUMP JUMPDEST PUSH0 PUSH32 0xFFFFFFFFFFFFFFFFFFFFFFFFFFFFFFFFFFFFFFFF000000000000000000000000 DUP3 AND SWAP1 POP SWAP2 SWAP1 POP JUMP JUMPDEST PUSH0 PUSH2 0x5033 DUP3 MLOAD PUSH2 0x4FFD JUMP JUMPDEST DUP1 SWAP2 POP POP SWAP2 SWAP1 POP JUMP JUMPDEST PUSH0 DUP3 DUP3 SHL SWAP1 POP SWAP3 SWAP2 POP POP JUMP JUMPDEST PUSH0 PUSH2 0x5052 DUP3 PUSH2 0x3A4F JUMP JUMPDEST DUP3 PUSH2 0x505C DUP5 PUSH2 0x4FEE JUMP JUMPDEST SWAP1 POP PUSH2 0x5067 DUP2 PUSH2 0x5028 JUMP JUMPDEST SWAP3 POP PUSH1 0x14 DUP3 LT ISZERO PUSH2 0x50A7 JUMPI PUSH2 0x50A2 PUSH32 0xFFFFFFFFFFFFFFFFFFFFFFFFFFFFFFFFFFFFFFFF000000000000000000000000 DUP4 PUSH1 0x14 SUB PUSH1 0x8 MUL PUSH2 0x503C JUMP JUMPDEST DUP4 AND SWAP3 POP JUMPDEST POP POP SWAP2 SWAP1 POP JUMP JUMPDEST PUSH0 PUSH1 0x60 DUP3 ADD SWAP1 POP PUSH2 0x50C1 PUSH0 DUP4 ADD DUP7 PUSH2 0x4BE6 JUMP JUMPDEST PUSH2 0x50CE PUSH1 0x20 DUP4 ADD DUP6 PUSH2 0x3D61 JUMP JUMPDEST PUSH2 0x50DB PUSH1 0x40 DUP4 ADD DUP5 PUSH2 0x3D61 JUMP JUMPDEST SWAP5 SWAP4 POP POP POP POP JUMP JUMPDEST PUSH0 PUSH1 0x60 DUP3 ADD SWAP1 POP PUSH2 0x50F6 PUSH0 DUP4 ADD DUP7 PUSH2 0x3D61 JUMP JUMPDEST PUSH2 0x5103 PUSH1 0x20 DUP4 ADD DUP6 PUSH2 0x37EE JUMP JUMPDEST DUP2 DUP2 SUB PUSH1 0x40 DUP4 ADD MSTORE PUSH2 0x5115 DUP2 DUP5 PUSH2 0x3A81 JUMP JUMPDEST SWAP1 POP SWAP5 SWAP4 POP POP POP POP JUMP JUMPDEST PUSH0 PUSH1 0xA0 DUP3 ADD SWAP1 POP PUSH2 0x5132 PUSH0 DUP4 ADD DUP9 PUSH2 0x3D61 JUMP JUMPDEST PUSH2 0x513F PUSH1 0x20 DUP4 ADD DUP8 PUSH2 0x3D61 JUMP JUMPDEST PUSH2 0x514C PUSH1 0x40 DUP4 ADD DUP7 PUSH2 0x3D61 JUMP JUMPDEST PUSH2 0x5159 PUSH1 0x60 DUP4 ADD DUP6 PUSH2 0x4BE6 JUMP JUMPDEST DUP2 DUP2 SUB PUSH1 0x80 DUP4 ADD MSTORE PUSH2 0x516B DUP2 DUP5 PUSH2 0x3A81 JUMP JUMPDEST SWAP1 POP SWAP7 SWAP6 POP POP POP POP POP POP JUMP JUMPDEST PUSH32 0x4E487B7100000000000000000000000000000000000000000000000000000000 PUSH0 MSTORE PUSH1 0x22 PUSH1 0x4 MSTORE PUSH1 0x24 PUSH0 REVERT JUMPDEST PUSH0 PUSH1 0x2 DUP3 DIV SWAP1 POP PUSH1 0x1 DUP3 AND DUP1 PUSH2 0x51BB JUMPI PUSH1 0x7F DUP3 AND SWAP2 POP JUMPDEST PUSH1 0x20 DUP3 LT DUP2 SUB PUSH2 0x51CE JUMPI PUSH2 0x51CD PUSH2 0x5177 JUMP JUMPDEST JUMPDEST POP SWAP2 SWAP1 POP JUMP JUMPDEST PUSH32 0x4E487B7100000000000000000000000000000000000000000000000000000000 PUSH0 MSTORE PUSH1 0x11 PUSH1 0x4 MSTORE PUSH1 0x24 PUSH0 REVERT JUMPDEST PUSH0 PUSH2 0x520B DUP3 PUSH2 0x3732 JUMP JUMPDEST SWAP2 POP PUSH2 0x5216 DUP4 PUSH2 0x3732 JUMP JUMPDEST SWAP3 POP DUP3 DUP3 ADD SWAP1 POP DUP1 DUP3 GT ISZERO PUSH2 0x522E JUMPI PUSH2 0x522D PUSH2 0x51D4 JUMP JUMPDEST JUMPDEST SWAP3 SWAP2 POP POP JUMP JUMPDEST PUSH0 PUSH2 0x523E DUP3 PUSH2 0x3732 JUMP JUMPDEST SWAP2 POP PUSH32 0xFFFFFFFFFFFFFFFFFFFFFFFFFFFFFFFFFFFFFFFFFFFFFFFFFFFFFFFFFFFFFFFF DUP3 SUB PUSH2 0x5270 JUMPI PUSH2 0x526F PUSH2 0x51D4 JUMP JUMPDEST JUMPDEST PUSH1 0x1 DUP3 ADD SWAP1 POP SWAP2 SWAP1 POP JUMP JUMPDEST PUSH0 PUSH1 0x40 DUP3 ADD SWAP1 POP PUSH2 0x528E PUSH0 DUP4 ADD DUP6 PUSH2 0x37EE JUMP JUMPDEST DUP2 DUP2 SUB PUSH1 0x20 DUP4 ADD MSTORE PUSH2 0x52A0 DUP2 DUP5 PUSH2 0x3A81 JUMP JUMPDEST SWAP1 POP SWAP4 SWAP3 POP POP POP JUMP JUMPDEST PUSH0 PUSH32 0xFFFFFFFFFFFFFFFFFFFF00000000000000000000000000000000000000000000 DUP3 AND SWAP1 POP SWAP2 SWAP1 POP JUMP JUMPDEST PUSH0 DUP2 SWAP1 POP SWAP2 SWAP1 POP JUMP JUMPDEST PUSH2 0x52EE PUSH2 0x52E9 DUP3 PUSH2 0x52A9 JUMP JUMPDEST PUSH2 0x52D4 JUMP JUMPDEST DUP3 MSTORE POP POP JUMP JUMPDEST PUSH0 PUSH32 0xFFFF000000000000000000000000000000000000000000000000000000000000 DUP3 AND SWAP1 POP SWAP2 SWAP1 POP JUMP JUMPDEST PUSH0 DUP2 SWAP1 POP SWAP2 SWAP1 POP JUMP JUMPDEST PUSH2 0x5339 PUSH2 0x5334 DUP3 PUSH2 0x52F4 JUMP JUMPDEST PUSH2 0x531F JUMP JUMPDEST DUP3 MSTORE POP POP JUMP JUMPDEST PUSH0 DUP2 SWAP1 POP SWAP2 SWAP1 POP JUMP JUMPDEST PUSH2 0x5359 PUSH2 0x5354 DUP3 PUSH2 0x4FFD JUMP JUMPDEST PUSH2 0x533F JUMP JUMPDEST DUP3 MSTORE POP POP JUMP JUMPDEST PUSH0 PUSH2 0x536A DUP3 DUP7 PUSH2 0x52DD JUMP JUMPDEST PUSH1 0xA DUP3 ADD SWAP2 POP PUSH2 0x537A DUP3 DUP6 PUSH2 0x5328 JUMP JUMPDEST PUSH1 0x2 DUP3 ADD SWAP2 POP PUSH2 0x538A DUP3 DUP5 PUSH2 0x5348 JUMP JUMPDEST PUSH1 0x14 DUP3 ADD SWAP2 POP DUP2 SWAP1 POP SWAP5 SWAP4 POP POP POP POP JUMP JUMPDEST PUSH0 PUSH2 0x53A6 DUP3 MLOAD PUSH2 0x3816 JUMP JUMPDEST DUP1 SWAP2 POP POP SWAP2 SWAP1 POP JUMP JUMPDEST PUSH0 PUSH2 0x53B9 DUP3 PUSH2 0x3A4F JUMP JUMPDEST DUP3 PUSH2 0x53C3 DUP5 PUSH2 0x4FEE JUMP JUMPDEST SWAP1 POP PUSH2 0x53CE DUP2 PUSH2 0x539B JUMP JUMPDEST SWAP3 POP PUSH1 0x20 DUP3 LT ISZERO PUSH2 0x540E JUMPI PUSH2 0x5409 PUSH32 0xFFFFFFFFFFFFFFFFFFFFFFFFFFFFFFFFFFFFFFFFFFFFFFFFFFFFFFFFFFFFFFFF DUP4 PUSH1 0x20 SUB PUSH1 0x8 MUL PUSH2 0x503C JUMP JUMPDEST DUP4 AND SWAP3 POP JUMPDEST POP POP SWAP2 SWAP1 POP JUMP JUMPDEST PUSH0 PUSH2 0x5427 PUSH2 0x5422 DUP5 PUSH2 0x38F3 JUMP JUMPDEST PUSH2 0x38D9 JUMP JUMPDEST SWAP1 POP DUP3 DUP2 MSTORE PUSH1 0x20 DUP2 ADD DUP5 DUP5 DUP5 ADD GT ISZERO PUSH2 0x5443 JUMPI PUSH2 0x5442 PUSH2 0x3877 JUMP JUMPDEST JUMPDEST PUSH2 0x544E DUP5 DUP3 DUP6 PUSH2 0x3A59 JUMP JUMPDEST POP SWAP4 SWAP3 POP POP POP JUMP JUMPDEST PUSH0 DUP3 PUSH1 0x1F DUP4 ADD SLT PUSH2 0x546A JUMPI PUSH2 0x5469 PUSH2 0x3873 JUMP JUMPDEST JUMPDEST DUP2 MLOAD PUSH2 0x547A DUP5 DUP3 PUSH1 0x20 DUP7 ADD PUSH2 0x5415 JUMP JUMPDEST SWAP2 POP POP SWAP3 SWAP2 POP POP JUMP JUMPDEST PUSH0 PUSH1 0x20 DUP3 DUP5 SUB SLT ISZERO PUSH2 0x5498 JUMPI PUSH2 0x5497 PUSH2 0x36A5 JUMP JUMPDEST JUMPDEST PUSH0 DUP3 ADD MLOAD PUSH8 0xFFFFFFFFFFFFFFFF DUP2 GT ISZERO PUSH2 0x54B5 JUMPI PUSH2 0x54B4 PUSH2 0x36A9 JUMP JUMPDEST JUMPDEST PUSH2 0x54C1 DUP5 DUP3 DUP6 ADD PUSH2 0x5456 JUMP JUMPDEST SWAP2 POP POP SWAP3 SWAP2 POP POP JUMP JUMPDEST PUSH0 PUSH1 0x40 DUP3 ADD SWAP1 POP PUSH2 0x54DD PUSH0 DUP4 ADD DUP6 PUSH2 0x4BE6 JUMP JUMPDEST DUP2 DUP2 SUB PUSH1 0x20 DUP4 ADD MSTORE PUSH2 0x54EF DUP2 DUP5 PUSH2 0x3A81 JUMP JUMPDEST SWAP1 POP SWAP4 SWAP3 POP POP POP JUMP JUMPDEST PUSH0 PUSH2 0x5502 DUP3 PUSH2 0x3732 JUMP JUMPDEST SWAP2 POP PUSH2 0x550D DUP4 PUSH2 0x3732 JUMP JUMPDEST SWAP3 POP DUP3 DUP3 SUB SWAP1 POP DUP2 DUP2 GT ISZERO PUSH2 0x5525 JUMPI PUSH2 0x5524 PUSH2 0x51D4 JUMP JUMPDEST JUMPDEST SWAP3 SWAP2 POP POP JUMP JUMPDEST PUSH32 0x4E487B7100000000000000000000000000000000000000000000000000000000 PUSH0 MSTORE PUSH1 0x31 PUSH1 0x4 MSTORE PUSH1 0x24 PUSH0 REVERT JUMPDEST PUSH0 DUP2 SWAP1 POP DUP2 PUSH0 MSTORE PUSH1 0x20 PUSH0 KECCAK256 SWAP1 POP SWAP2 SWAP1 POP JUMP JUMPDEST PUSH0 PUSH1 0x20 PUSH1 0x1F DUP4 ADD DIV SWAP1 POP SWAP2 SWAP1 POP JUMP JUMPDEST PUSH0 PUSH1 0x8 DUP4 MUL PUSH2 0x55A8 PUSH32 0xFFFFFFFFFFFFFFFFFFFFFFFFFFFFFFFFFFFFFFFFFFFFFFFFFFFFFFFFFFFFFFFF DUP3 PUSH2 0x503C JUMP JUMPDEST PUSH2 0x55B2 DUP7 DUP4 PUSH2 0x503C JUMP JUMPDEST SWAP6 POP DUP1 NOT DUP5 AND SWAP4 POP DUP1 DUP7 AND DUP5 OR SWAP3 POP POP POP SWAP4 SWAP3 POP POP POP JUMP JUMPDEST PUSH0 DUP2 SWAP1 POP SWAP2 SWAP1 POP JUMP JUMPDEST PUSH0 PUSH2 0x55ED PUSH2 0x55E8 PUSH2 0x55E3 DUP5 PUSH2 0x3732 JUMP JUMPDEST PUSH2 0x55CA JUMP JUMPDEST PUSH2 0x3732 JUMP JUMPDEST SWAP1 POP SWAP2 SWAP1 POP JUMP JUMPDEST PUSH0 DUP2 SWAP1 POP SWAP2 SWAP1 POP JUMP JUMPDEST PUSH2 0x5606 DUP4 PUSH2 0x55D3 JUMP JUMPDEST PUSH2 0x561A PUSH2 0x5612 DUP3 PUSH2 0x55F4 JUMP JUMPDEST DUP5 DUP5 SLOAD PUSH2 0x5579 JUMP JUMPDEST DUP3 SSTORE POP POP POP POP JUMP JUMPDEST PUSH0 SWAP1 JUMP JUMPDEST PUSH2 0x562E PUSH2 0x5622 JUMP JUMPDEST PUSH2 0x5639 DUP2 DUP5 DUP5 PUSH2 0x55FD JUMP JUMPDEST POP POP POP JUMP JUMPDEST JUMPDEST DUP2 DUP2 LT ISZERO PUSH2 0x565C JUMPI PUSH2 0x5651 PUSH0 DUP3 PUSH2 0x5626 JUMP JUMPDEST PUSH1 0x1 DUP2 ADD SWAP1 POP PUSH2 0x563F JUMP JUMPDEST POP POP JUMP JUMPDEST PUSH1 0x1F DUP3 GT ISZERO PUSH2 0x56A1 JUMPI PUSH2 0x5672 DUP2 PUSH2 0x5558 JUMP JUMPDEST PUSH2 0x567B DUP5 PUSH2 0x556A JUMP JUMPDEST DUP2 ADD PUSH1 0x20 DUP6 LT ISZERO PUSH2 0x568A JUMPI DUP2 SWAP1 POP JUMPDEST PUSH2 0x569E PUSH2 0x5696 DUP6 PUSH2 0x556A JUMP JUMPDEST DUP4 ADD DUP3 PUSH2 0x563E JUMP JUMPDEST POP POP JUMPDEST POP POP POP JUMP JUMPDEST PUSH0 DUP3 DUP3 SHR SWAP1 POP SWAP3 SWAP2 POP POP JUMP JUMPDEST PUSH0 PUSH2 0x56C1 PUSH0 NOT DUP5 PUSH1 0x8 MUL PUSH2 0x56A6 JUMP JUMPDEST NOT DUP1 DUP4 AND SWAP2 POP POP SWAP3 SWAP2 POP POP JUMP JUMPDEST PUSH0 PUSH2 0x56D9 DUP4 DUP4 PUSH2 0x56B2 JUMP JUMPDEST SWAP2 POP DUP3 PUSH1 0x2 MUL DUP3 OR SWAP1 POP SWAP3 SWAP2 POP POP JUMP JUMPDEST PUSH2 0x56F2 DUP3 PUSH2 0x3A4F JUMP JUMPDEST PUSH8 0xFFFFFFFFFFFFFFFF DUP2 GT ISZERO PUSH2 0x570B JUMPI PUSH2 0x570A PUSH2 0x387B JUMP JUMPDEST JUMPDEST PUSH2 0x5715 DUP3 SLOAD PUSH2 0x51A4 JUMP JUMPDEST PUSH2 0x5720 DUP3 DUP3 DUP6 PUSH2 0x5660 JUMP JUMPDEST PUSH0 PUSH1 0x20 SWAP1 POP PUSH1 0x1F DUP4 GT PUSH1 0x1 DUP2 EQ PUSH2 0x5751 JUMPI PUSH0 DUP5 ISZERO PUSH2 0x573F JUMPI DUP3 DUP8 ADD MLOAD SWAP1 POP JUMPDEST PUSH2 0x5749 DUP6 DUP3 PUSH2 0x56CE JUMP JUMPDEST DUP7 SSTORE POP PUSH2 0x57B0 JUMP JUMPDEST PUSH1 0x1F NOT DUP5 AND PUSH2 0x575F DUP7 PUSH2 0x5558 JUMP JUMPDEST PUSH0 JUMPDEST DUP3 DUP2 LT ISZERO PUSH2 0x5786 JUMPI DUP5 DUP10 ADD MLOAD DUP3 SSTORE PUSH1 0x1 DUP3 ADD SWAP2 POP PUSH1 0x20 DUP6 ADD SWAP5 POP PUSH1 0x20 DUP2 ADD SWAP1 POP PUSH2 0x5761 JUMP JUMPDEST DUP7 DUP4 LT ISZERO PUSH2 0x57A3 JUMPI DUP5 DUP10 ADD MLOAD PUSH2 0x579F PUSH1 0x1F DUP10 AND DUP3 PUSH2 0x56B2 JUMP JUMPDEST DUP4 SSTORE POP JUMPDEST PUSH1 0x1 PUSH1 0x2 DUP9 MUL ADD DUP9 SSTORE POP POP POP JUMPDEST POP POP POP POP POP POP JUMP INVALID LOG2 PUSH5 0x6970667358 0x22 SLT KECCAK256 0xD8 BALANCE 0x4A 0x2A 0xFB 0xA6 0x28 0xD2 0xCB 0xB2 SIGNEXTEND 0xEC SWAP13 XOR 0x21 PUSH3 0xB1A701 0x4C POP DIV 0xE9 0xB6 0x4B KECCAK256 RETURNDATACOPY 0xE3 EXTCODEHASH PUSH30 0xC96B64736F6C634300081400330000000000000000000000000000000000 "
		},
		"gasEstimates": {
			"creation": {
				"codeDepositCost": "4502000",
				"executionCost": "infinite",
				"totalCost": "infinite"
			},
			"external": {
				"": "infinite",
				"authorizeOperator(address,bytes32,bytes)": "infinite",
				"balanceOf(address)": "3042",
				"batchCalls(bytes[])": "infinite",
				"getData(bytes32)": "infinite",
				"getDataBatch(bytes32[])": "infinite",
				"getDataBatchForTokenIds(bytes32[],bytes32[])": "infinite",
				"getDataForTokenId(bytes32,bytes32)": "infinite",
				"getLikes(bytes32)": "infinite",
				"getMintingDate(address)": "2942",
				"getOperatorsOf(bytes32)": "infinite",
				"hasLiked(bytes32,address)": "3183",
				"isOperatorFor(address,bytes32)": "infinite",
				"lastClaimed(address)": "2849",
				"like(bytes32)": "77383",
				"mint(string,string,uint256,bool,uint256,address,bytes)": "infinite",
				"mintingDates(address)": "2890",
				"owner()": "2560",
				"renounceOwnership()": "infinite",
				"revokeOperator(address,bytes32,bool,bytes)": "infinite",
				"rewardAmount()": "2557",
				"setData(bytes32,bytes)": "infinite",
				"setDataBatch(bytes32[],bytes[])": "infinite",
				"setDataBatchForTokenIds(bytes32[],bytes32[],bytes[])": "infinite",
				"setDataForTokenId(bytes32,bytes32,bytes)": "infinite",
				"setRewardAmount(uint256)": "24853",
				"supportsInterface(bytes4)": "infinite",
				"tokenIdsOf(address)": "infinite",
				"tokenLikes(bytes32,uint256)": "5249",
				"tokenOwnerOf(bytes32)": "infinite",
				"totalSupply()": "2500",
				"transfer(address,address,bytes32,bool,bytes)": "infinite",
				"transferBatch(address[],address[],bytes32[],bool[],bytes[])": "infinite",
				"transferNFT(bytes32,address,uint256,bytes)": "infinite",
				"transferOwnership(address)": "infinite"
			},
			"internal": {
				"_getDataForTokenId(bytes32,bytes32)": "infinite",
				"_setDataForTokenId(bytes32,bytes32,bytes memory)": "infinite",
				"mintState()": "infinite"
			}
		},
		"methodIdentifiers": {
			"authorizeOperator(address,bytes32,bytes)": "86a10ddd",
			"balanceOf(address)": "70a08231",
			"batchCalls(bytes[])": "6963d438",
			"getData(bytes32)": "54f6127f",
			"getDataBatch(bytes32[])": "dedff9c6",
			"getDataBatchForTokenIds(bytes32[],bytes32[])": "1d26fce6",
			"getDataForTokenId(bytes32,bytes32)": "16e023b3",
			"getLikes(bytes32)": "d54488fe",
			"getMintingDate(address)": "0c590f51",
			"getOperatorsOf(bytes32)": "49a6078d",
			"hasLiked(bytes32,address)": "5283c480",
			"isOperatorFor(address,bytes32)": "2a3654a4",
			"lastClaimed(address)": "013eba92",
			"like(bytes32)": "7aad1f7d",
			"mint(string,string,uint256,bool,uint256,address,bytes)": "b3b2981e",
			"mintingDates(address)": "f08e076d",
			"owner()": "8da5cb5b",
			"renounceOwnership()": "715018a6",
			"revokeOperator(address,bytes32,bool,bytes)": "db8c9663",
			"rewardAmount()": "f7b2a7be",
			"setData(bytes32,bytes)": "7f23690c",
			"setDataBatch(bytes32[],bytes[])": "97902421",
			"setDataBatchForTokenIds(bytes32[],bytes32[],bytes[])": "be9f0e6f",
			"setDataForTokenId(bytes32,bytes32,bytes)": "d6c1407c",
			"setRewardAmount(uint256)": "a8a65a78",
			"supportsInterface(bytes4)": "01ffc9a7",
			"tokenIdsOf(address)": "a3b261f2",
			"tokenLikes(bytes32,uint256)": "5acc786e",
			"tokenOwnerOf(bytes32)": "217b2270",
			"totalSupply()": "18160ddd",
			"transfer(address,address,bytes32,bool,bytes)": "511b6952",
			"transferBatch(address[],address[],bytes32[],bool[],bytes[])": "7e87632c",
			"transferNFT(bytes32,address,uint256,bytes)": "073c9695",
			"transferOwnership(address)": "f2fde38b"
		}
	},
	"abi": [
		{
			"inputs": [
				{
					"internalType": "string",
					"name": "name_",
					"type": "string"
				},
				{
					"internalType": "string",
					"name": "symbol_",
					"type": "string"
				},
				{
					"internalType": "address",
					"name": "newOwner_",
					"type": "address"
				},
				{
					"internalType": "uint256",
					"name": "lsp4TokenType_",
					"type": "uint256"
				},
				{
					"internalType": "bytes",
					"name": "lsp4MetadataURI_",
					"type": "bytes"
				},
				{
					"internalType": "uint256",
					"name": "_rewardAmount",
					"type": "uint256"
				}
			],
			"stateMutability": "nonpayable",
			"type": "constructor"
		},
		{
			"inputs": [],
			"name": "ERC725Y_DataKeysValuesEmptyArray",
			"type": "error"
		},
		{
			"inputs": [],
			"name": "ERC725Y_DataKeysValuesLengthMismatch",
			"type": "error"
		},
		{
			"inputs": [],
			"name": "ERC725Y_MsgValueDisallowed",
			"type": "error"
		},
		{
			"inputs": [
				{
					"internalType": "bytes",
					"name": "storedData",
					"type": "bytes"
				}
			],
			"name": "InvalidExtensionAddress",
			"type": "error"
		},
		{
			"inputs": [
				{
					"internalType": "bytes",
					"name": "data",
					"type": "bytes"
				}
			],
			"name": "InvalidFunctionSelector",
			"type": "error"
		},
		{
			"inputs": [],
			"name": "LSP4TokenNameNotEditable",
			"type": "error"
		},
		{
			"inputs": [],
			"name": "LSP4TokenSymbolNotEditable",
			"type": "error"
		},
		{
			"inputs": [],
			"name": "LSP4TokenTypeNotEditable",
			"type": "error"
		},
		{
			"inputs": [
				{
					"internalType": "uint256",
					"name": "callIndex",
					"type": "uint256"
				}
			],
			"name": "LSP8BatchCallFailed",
			"type": "error"
		},
		{
			"inputs": [],
			"name": "LSP8CannotSendToAddressZero",
			"type": "error"
		},
		{
			"inputs": [],
			"name": "LSP8CannotUseAddressZeroAsOperator",
			"type": "error"
		},
		{
			"inputs": [],
			"name": "LSP8InvalidTransferBatch",
			"type": "error"
		},
		{
			"inputs": [
				{
					"internalType": "bytes32",
					"name": "tokenId",
					"type": "bytes32"
				}
			],
			"name": "LSP8NonExistentTokenId",
			"type": "error"
		},
		{
			"inputs": [
				{
					"internalType": "address",
					"name": "operator",
					"type": "address"
				},
				{
					"internalType": "bytes32",
					"name": "tokenId",
					"type": "bytes32"
				}
			],
			"name": "LSP8NonExistingOperator",
			"type": "error"
		},
		{
			"inputs": [
				{
					"internalType": "bytes32",
					"name": "tokenId",
					"type": "bytes32"
				},
				{
					"internalType": "address",
					"name": "caller",
					"type": "address"
				}
			],
			"name": "LSP8NotTokenOperator",
			"type": "error"
		},
		{
			"inputs": [
				{
					"internalType": "address",
					"name": "tokenOwner",
					"type": "address"
				},
				{
					"internalType": "bytes32",
					"name": "tokenId",
					"type": "bytes32"
				},
				{
					"internalType": "address",
					"name": "caller",
					"type": "address"
				}
			],
			"name": "LSP8NotTokenOwner",
			"type": "error"
		},
		{
			"inputs": [
				{
					"internalType": "address",
					"name": "tokenReceiver",
					"type": "address"
				}
			],
			"name": "LSP8NotifyTokenReceiverContractMissingLSP1Interface",
			"type": "error"
		},
		{
			"inputs": [
				{
					"internalType": "address",
					"name": "tokenReceiver",
					"type": "address"
				}
			],
			"name": "LSP8NotifyTokenReceiverIsEOA",
			"type": "error"
		},
		{
			"inputs": [
				{
					"internalType": "address",
					"name": "operator",
					"type": "address"
				},
				{
					"internalType": "bytes32",
					"name": "tokenId",
					"type": "bytes32"
				}
			],
			"name": "LSP8OperatorAlreadyAuthorized",
			"type": "error"
		},
		{
			"inputs": [
				{
					"internalType": "address",
					"name": "caller",
					"type": "address"
				},
				{
					"internalType": "address",
					"name": "tokenOwner",
					"type": "address"
				},
				{
					"internalType": "bytes32",
					"name": "tokenId",
					"type": "bytes32"
				}
			],
			"name": "LSP8RevokeOperatorNotAuthorized",
			"type": "error"
		},
		{
			"inputs": [],
			"name": "LSP8TokenContractCannotHoldValue",
			"type": "error"
		},
		{
			"inputs": [
				{
					"internalType": "bytes32",
					"name": "tokenId",
					"type": "bytes32"
				}
			],
			"name": "LSP8TokenIdAlreadyMinted",
			"type": "error"
		},
		{
			"inputs": [],
			"name": "LSP8TokenIdFormatNotEditable",
			"type": "error"
		},
		{
			"inputs": [],
			"name": "LSP8TokenIdsDataEmptyArray",
			"type": "error"
		},
		{
			"inputs": [],
			"name": "LSP8TokenIdsDataLengthMismatch",
			"type": "error"
		},
		{
			"inputs": [],
			"name": "LSP8TokenOwnerCannotBeOperator",
			"type": "error"
		},
		{
			"inputs": [
				{
					"internalType": "bytes32",
					"name": "tokenId",
					"type": "bytes32"
				},
				{
					"internalType": "address",
					"name": "oldOwner",
					"type": "address"
				},
				{
					"internalType": "address",
					"name": "newOwner",
					"type": "address"
				}
			],
			"name": "LSP8TokenOwnerChanged",
			"type": "error"
		},
		{
			"inputs": [
				{
					"internalType": "bytes4",
					"name": "functionSelector",
					"type": "bytes4"
				}
			],
			"name": "NoExtensionFoundForFunctionSelector",
			"type": "error"
		},
		{
			"inputs": [
				{
					"internalType": "address",
					"name": "callerAddress",
					"type": "address"
				}
			],
			"name": "OwnableCallerNotTheOwner",
			"type": "error"
		},
		{
			"inputs": [],
			"name": "OwnableCannotSetZeroAddressAsOwner",
			"type": "error"
		},
		{
			"anonymous": false,
			"inputs": [
				{
					"indexed": true,
					"internalType": "bytes32",
					"name": "dataKey",
					"type": "bytes32"
				},
				{
					"indexed": false,
					"internalType": "bytes",
					"name": "dataValue",
					"type": "bytes"
				}
			],
			"name": "DataChanged",
			"type": "event"
		},
		{
			"anonymous": false,
			"inputs": [
				{
					"indexed": true,
					"internalType": "address",
					"name": "liker",
					"type": "address"
				},
				{
					"indexed": true,
					"internalType": "bytes32",
					"name": "tokenId",
					"type": "bytes32"
				}
			],
			"name": "Like",
			"type": "event"
		},
		{
			"anonymous": false,
			"inputs": [
				{
					"indexed": true,
					"internalType": "address",
					"name": "minter",
					"type": "address"
				},
				{
					"indexed": true,
					"internalType": "address",
					"name": "lsp7SubCollectionAddress",
					"type": "address"
				},
				{
					"indexed": false,
					"internalType": "uint256",
					"name": "timestamp",
					"type": "uint256"
				}
			],
			"name": "Mint",
			"type": "event"
		},
		{
			"anonymous": false,
			"inputs": [
				{
					"indexed": true,
					"internalType": "address",
					"name": "operator",
					"type": "address"
				},
				{
					"indexed": true,
					"internalType": "address",
					"name": "tokenOwner",
					"type": "address"
				},
				{
					"indexed": true,
					"internalType": "bytes32",
					"name": "tokenId",
					"type": "bytes32"
				},
				{
					"indexed": false,
					"internalType": "bytes",
					"name": "operatorNotificationData",
					"type": "bytes"
				}
			],
			"name": "OperatorAuthorizationChanged",
			"type": "event"
		},
		{
			"anonymous": false,
			"inputs": [
				{
					"indexed": true,
					"internalType": "address",
					"name": "operator",
					"type": "address"
				},
				{
					"indexed": true,
					"internalType": "address",
					"name": "tokenOwner",
					"type": "address"
				},
				{
					"indexed": true,
					"internalType": "bytes32",
					"name": "tokenId",
					"type": "bytes32"
				},
				{
					"indexed": false,
					"internalType": "bool",
					"name": "notified",
					"type": "bool"
				},
				{
					"indexed": false,
					"internalType": "bytes",
					"name": "operatorNotificationData",
					"type": "bytes"
				}
			],
			"name": "OperatorRevoked",
			"type": "event"
		},
		{
			"anonymous": false,
			"inputs": [
				{
					"indexed": true,
					"internalType": "address",
					"name": "previousOwner",
					"type": "address"
				},
				{
					"indexed": true,
					"internalType": "address",
					"name": "newOwner",
					"type": "address"
				}
			],
			"name": "OwnershipTransferred",
			"type": "event"
		},
		{
			"anonymous": false,
			"inputs": [
				{
					"indexed": true,
					"internalType": "bytes32",
					"name": "tokenId",
					"type": "bytes32"
				},
				{
					"indexed": true,
					"internalType": "bytes32",
					"name": "dataKey",
					"type": "bytes32"
				},
				{
					"indexed": false,
					"internalType": "bytes",
					"name": "dataValue",
					"type": "bytes"
				}
			],
			"name": "TokenIdDataChanged",
			"type": "event"
		},
		{
			"anonymous": false,
			"inputs": [
				{
					"indexed": false,
					"internalType": "address",
					"name": "operator",
					"type": "address"
				},
				{
					"indexed": true,
					"internalType": "address",
					"name": "from",
					"type": "address"
				},
				{
					"indexed": true,
					"internalType": "address",
					"name": "to",
					"type": "address"
				},
				{
					"indexed": true,
					"internalType": "bytes32",
					"name": "tokenId",
					"type": "bytes32"
				},
				{
					"indexed": false,
					"internalType": "bool",
					"name": "force",
					"type": "bool"
				},
				{
					"indexed": false,
					"internalType": "bytes",
					"name": "data",
					"type": "bytes"
				}
			],
			"name": "Transfer",
			"type": "event"
		},
		{
			"anonymous": false,
			"inputs": [
				{
					"indexed": true,
					"internalType": "address",
					"name": "from",
					"type": "address"
				},
				{
					"indexed": true,
					"internalType": "address",
					"name": "to",
					"type": "address"
				},
				{
					"indexed": true,
					"internalType": "bytes32",
					"name": "tokenId",
					"type": "bytes32"
				},
				{
					"indexed": false,
					"internalType": "uint256",
					"name": "amount",
					"type": "uint256"
				},
				{
					"indexed": false,
					"internalType": "bytes",
					"name": "data",
					"type": "bytes"
				}
			],
			"name": "Transfer",
			"type": "event"
		},
		{
			"stateMutability": "payable",
			"type": "fallback"
		},
		{
			"inputs": [
				{
					"internalType": "address",
					"name": "operator",
					"type": "address"
				},
				{
					"internalType": "bytes32",
					"name": "tokenId",
					"type": "bytes32"
				},
				{
					"internalType": "bytes",
					"name": "operatorNotificationData",
					"type": "bytes"
				}
			],
			"name": "authorizeOperator",
			"outputs": [],
			"stateMutability": "nonpayable",
			"type": "function"
		},
		{
			"inputs": [
				{
					"internalType": "address",
					"name": "tokenOwner",
					"type": "address"
				}
			],
			"name": "balanceOf",
			"outputs": [
				{
					"internalType": "uint256",
					"name": "",
					"type": "uint256"
				}
			],
			"stateMutability": "view",
			"type": "function"
		},
		{
			"inputs": [
				{
					"internalType": "bytes[]",
					"name": "data",
					"type": "bytes[]"
				}
			],
			"name": "batchCalls",
			"outputs": [
				{
					"internalType": "bytes[]",
					"name": "results",
					"type": "bytes[]"
				}
			],
			"stateMutability": "nonpayable",
			"type": "function"
		},
		{
			"inputs": [
				{
					"internalType": "bytes32",
					"name": "dataKey",
					"type": "bytes32"
				}
			],
			"name": "getData",
			"outputs": [
				{
					"internalType": "bytes",
					"name": "dataValue",
					"type": "bytes"
				}
			],
			"stateMutability": "view",
			"type": "function"
		},
		{
			"inputs": [
				{
					"internalType": "bytes32[]",
					"name": "dataKeys",
					"type": "bytes32[]"
				}
			],
			"name": "getDataBatch",
			"outputs": [
				{
					"internalType": "bytes[]",
					"name": "dataValues",
					"type": "bytes[]"
				}
			],
			"stateMutability": "view",
			"type": "function"
		},
		{
			"inputs": [
				{
					"internalType": "bytes32[]",
					"name": "tokenIds",
					"type": "bytes32[]"
				},
				{
					"internalType": "bytes32[]",
					"name": "dataKeys",
					"type": "bytes32[]"
				}
			],
			"name": "getDataBatchForTokenIds",
			"outputs": [
				{
					"internalType": "bytes[]",
					"name": "dataValues",
					"type": "bytes[]"
				}
			],
			"stateMutability": "view",
			"type": "function"
		},
		{
			"inputs": [
				{
					"internalType": "bytes32",
					"name": "tokenId",
					"type": "bytes32"
				},
				{
					"internalType": "bytes32",
					"name": "dataKey",
					"type": "bytes32"
				}
			],
			"name": "getDataForTokenId",
			"outputs": [
				{
					"internalType": "bytes",
					"name": "dataValue",
					"type": "bytes"
				}
			],
			"stateMutability": "view",
			"type": "function"
		},
		{
			"inputs": [
				{
					"internalType": "bytes32",
					"name": "tokenId",
					"type": "bytes32"
				}
			],
			"name": "getLikes",
			"outputs": [
				{
					"internalType": "address[]",
					"name": "",
					"type": "address[]"
				}
			],
			"stateMutability": "view",
			"type": "function"
		},
		{
			"inputs": [
				{
					"internalType": "address",
					"name": "lsp7CollectionAddress",
					"type": "address"
				}
			],
			"name": "getMintingDate",
			"outputs": [
				{
					"internalType": "uint256",
					"name": "",
					"type": "uint256"
				}
			],
			"stateMutability": "view",
			"type": "function"
		},
		{
			"inputs": [
				{
					"internalType": "bytes32",
					"name": "tokenId",
					"type": "bytes32"
				}
			],
			"name": "getOperatorsOf",
			"outputs": [
				{
					"internalType": "address[]",
					"name": "",
					"type": "address[]"
				}
			],
			"stateMutability": "view",
			"type": "function"
		},
		{
			"inputs": [
				{
					"internalType": "bytes32",
					"name": "",
					"type": "bytes32"
				},
				{
					"internalType": "address",
					"name": "",
					"type": "address"
				}
			],
			"name": "hasLiked",
			"outputs": [
				{
					"internalType": "bool",
					"name": "",
					"type": "bool"
				}
			],
			"stateMutability": "view",
			"type": "function"
		},
		{
			"inputs": [
				{
					"internalType": "address",
					"name": "operator",
					"type": "address"
				},
				{
					"internalType": "bytes32",
					"name": "tokenId",
					"type": "bytes32"
				}
			],
			"name": "isOperatorFor",
			"outputs": [
				{
					"internalType": "bool",
					"name": "",
					"type": "bool"
				}
			],
			"stateMutability": "view",
			"type": "function"
		},
		{
			"inputs": [
				{
					"internalType": "address",
					"name": "",
					"type": "address"
				}
			],
			"name": "lastClaimed",
			"outputs": [
				{
					"internalType": "uint256",
					"name": "",
					"type": "uint256"
				}
			],
			"stateMutability": "view",
			"type": "function"
		},
		{
			"inputs": [
				{
					"internalType": "bytes32",
					"name": "tokenId",
					"type": "bytes32"
				}
			],
			"name": "like",
			"outputs": [],
			"stateMutability": "nonpayable",
			"type": "function"
		},
		{
			"inputs": [
				{
					"internalType": "string",
					"name": "nameOfLSP7_",
					"type": "string"
				},
				{
					"internalType": "string",
					"name": "symbolOfLSP7_",
					"type": "string"
				},
				{
					"internalType": "uint256",
					"name": "lsp4TokenType_",
					"type": "uint256"
				},
				{
					"internalType": "bool",
					"name": "isNonDivisible_",
					"type": "bool"
				},
				{
					"internalType": "uint256",
					"name": "totalSupplyOfLSP7_",
					"type": "uint256"
				},
				{
					"internalType": "address",
					"name": "receiverOfInitialTokens_",
					"type": "address"
				},
				{
					"internalType": "bytes",
					"name": "lsp4MetadataURIOfLSP7_",
					"type": "bytes"
				}
			],
			"name": "mint",
			"outputs": [
				{
					"internalType": "address",
					"name": "lsp7SubCollectionAddress",
					"type": "address"
				}
			],
			"stateMutability": "nonpayable",
			"type": "function"
		},
		{
			"inputs": [
				{
					"internalType": "address",
					"name": "",
					"type": "address"
				}
			],
			"name": "mintingDates",
			"outputs": [
				{
					"internalType": "uint256",
					"name": "",
					"type": "uint256"
				}
			],
			"stateMutability": "view",
			"type": "function"
		},
		{
			"inputs": [],
			"name": "owner",
			"outputs": [
				{
					"internalType": "address",
					"name": "",
					"type": "address"
				}
			],
			"stateMutability": "view",
			"type": "function"
		},
		{
			"inputs": [],
			"name": "renounceOwnership",
			"outputs": [],
			"stateMutability": "nonpayable",
			"type": "function"
		},
		{
			"inputs": [
				{
					"internalType": "address",
					"name": "operator",
					"type": "address"
				},
				{
					"internalType": "bytes32",
					"name": "tokenId",
					"type": "bytes32"
				},
				{
					"internalType": "bool",
					"name": "notify",
					"type": "bool"
				},
				{
					"internalType": "bytes",
					"name": "operatorNotificationData",
					"type": "bytes"
				}
			],
			"name": "revokeOperator",
			"outputs": [],
			"stateMutability": "nonpayable",
			"type": "function"
		},
		{
			"inputs": [],
			"name": "rewardAmount",
			"outputs": [
				{
					"internalType": "uint256",
					"name": "",
					"type": "uint256"
				}
			],
			"stateMutability": "view",
			"type": "function"
		},
		{
			"inputs": [
				{
					"internalType": "bytes32",
					"name": "dataKey",
					"type": "bytes32"
				},
				{
					"internalType": "bytes",
					"name": "dataValue",
					"type": "bytes"
				}
			],
			"name": "setData",
			"outputs": [],
			"stateMutability": "payable",
			"type": "function"
		},
		{
			"inputs": [
				{
					"internalType": "bytes32[]",
					"name": "dataKeys",
					"type": "bytes32[]"
				},
				{
					"internalType": "bytes[]",
					"name": "dataValues",
					"type": "bytes[]"
				}
			],
			"name": "setDataBatch",
			"outputs": [],
			"stateMutability": "payable",
			"type": "function"
		},
		{
			"inputs": [
				{
					"internalType": "bytes32[]",
					"name": "tokenIds",
					"type": "bytes32[]"
				},
				{
					"internalType": "bytes32[]",
					"name": "dataKeys",
					"type": "bytes32[]"
				},
				{
					"internalType": "bytes[]",
					"name": "dataValues",
					"type": "bytes[]"
				}
			],
			"name": "setDataBatchForTokenIds",
			"outputs": [],
			"stateMutability": "nonpayable",
			"type": "function"
		},
		{
			"inputs": [
				{
					"internalType": "bytes32",
					"name": "tokenId",
					"type": "bytes32"
				},
				{
					"internalType": "bytes32",
					"name": "dataKey",
					"type": "bytes32"
				},
				{
					"internalType": "bytes",
					"name": "dataValue",
					"type": "bytes"
				}
			],
			"name": "setDataForTokenId",
			"outputs": [],
			"stateMutability": "nonpayable",
			"type": "function"
		},
		{
			"inputs": [
				{
					"internalType": "uint256",
					"name": "_rewardAmount",
					"type": "uint256"
				}
			],
			"name": "setRewardAmount",
			"outputs": [],
			"stateMutability": "nonpayable",
			"type": "function"
		},
		{
			"inputs": [
				{
					"internalType": "bytes4",
					"name": "interfaceId",
					"type": "bytes4"
				}
			],
			"name": "supportsInterface",
			"outputs": [
				{
					"internalType": "bool",
					"name": "",
					"type": "bool"
				}
			],
			"stateMutability": "view",
			"type": "function"
		},
		{
			"inputs": [
				{
					"internalType": "address",
					"name": "tokenOwner",
					"type": "address"
				}
			],
			"name": "tokenIdsOf",
			"outputs": [
				{
					"internalType": "bytes32[]",
					"name": "",
					"type": "bytes32[]"
				}
			],
			"stateMutability": "view",
			"type": "function"
		},
		{
			"inputs": [
				{
					"internalType": "bytes32",
					"name": "",
					"type": "bytes32"
				},
				{
					"internalType": "uint256",
					"name": "",
					"type": "uint256"
				}
			],
			"name": "tokenLikes",
			"outputs": [
				{
					"internalType": "address",
					"name": "",
					"type": "address"
				}
			],
			"stateMutability": "view",
			"type": "function"
		},
		{
			"inputs": [
				{
					"internalType": "bytes32",
					"name": "tokenId",
					"type": "bytes32"
				}
			],
			"name": "tokenOwnerOf",
			"outputs": [
				{
					"internalType": "address",
					"name": "",
					"type": "address"
				}
			],
			"stateMutability": "view",
			"type": "function"
		},
		{
			"inputs": [],
			"name": "totalSupply",
			"outputs": [
				{
					"internalType": "uint256",
					"name": "",
					"type": "uint256"
				}
			],
			"stateMutability": "view",
			"type": "function"
		},
		{
			"inputs": [
				{
					"internalType": "address",
					"name": "from",
					"type": "address"
				},
				{
					"internalType": "address",
					"name": "to",
					"type": "address"
				},
				{
					"internalType": "bytes32",
					"name": "tokenId",
					"type": "bytes32"
				},
				{
					"internalType": "bool",
					"name": "force",
					"type": "bool"
				},
				{
					"internalType": "bytes",
					"name": "data",
					"type": "bytes"
				}
			],
			"name": "transfer",
			"outputs": [],
			"stateMutability": "nonpayable",
			"type": "function"
		},
		{
			"inputs": [
				{
					"internalType": "address[]",
					"name": "from",
					"type": "address[]"
				},
				{
					"internalType": "address[]",
					"name": "to",
					"type": "address[]"
				},
				{
					"internalType": "bytes32[]",
					"name": "tokenId",
					"type": "bytes32[]"
				},
				{
					"internalType": "bool[]",
					"name": "force",
					"type": "bool[]"
				},
				{
					"internalType": "bytes[]",
					"name": "data",
					"type": "bytes[]"
				}
			],
			"name": "transferBatch",
			"outputs": [],
			"stateMutability": "nonpayable",
			"type": "function"
		},
		{
			"inputs": [
				{
					"internalType": "bytes32",
					"name": "tokenId",
					"type": "bytes32"
				},
				{
					"internalType": "address",
					"name": "to",
					"type": "address"
				},
				{
					"internalType": "uint256",
					"name": "amount",
					"type": "uint256"
				},
				{
					"internalType": "bytes",
					"name": "data",
					"type": "bytes"
				}
			],
			"name": "transferNFT",
			"outputs": [],
			"stateMutability": "nonpayable",
			"type": "function"
		},
		{
			"inputs": [
				{
					"internalType": "address",
					"name": "newOwner",
					"type": "address"
				}
			],
			"name": "transferOwnership",
			"outputs": [],
			"stateMutability": "nonpayable",
			"type": "function"
		},
		{
			"stateMutability": "payable",
			"type": "receive"
		}
	]
}